{
	"data": {
		"bytecode": {
			"linkReferences": {},
			"object": "60806040525f80553480156011575f80fd5b506129a18061001f5f395ff3fe608060405234801561000f575f80fd5b50600436106100b2575f3560e01c80635f8e7c2e1161006f5780635f8e7c2e146101935780636386c1c7146101af57806382728252146101df578063b7013dc11461020f578063d39510021461022d578063f5d3fe6414610249576100b2565b806309ac3bb5146100b65780630b925ac1146100d45780630e3ed2441461010d5780631ab49d41146101295780632605c660146101595780635d8d158514610175575b5f80fd5b6100be610279565b6040516100cb9190611835565b60405180910390f35b6100ee60048036038101906100e99190611889565b610281565b6040516101049a99989796959493929190611a5b565b60405180910390f35b61012760048036038101906101229190611cc2565b610600565b005b610143600480360381019061013e9190611889565b61081c565b6040516101509190611df6565b60405180910390f35b610173600480360381019061016e9190611889565b6108e2565b005b61017d610c74565b60405161018a9190611e0f565b60405180910390f35b6101ad60048036038101906101a89190611e2f565b610e83565b005b6101c960048036038101906101c49190611f7a565b6110f3565b6040516101d69190611e0f565b60405180910390f35b6101f960048036038101906101f49190611fa5565b611304565b6040516102069190611df6565b60405180910390f35b6102176113cb565b6040516102249190611fe3565b60405180910390f35b61024760048036038101906102429190611ffc565b6113e9565b005b610263600480360381019061025e9190611889565b61158e565b6040516102709190611fe3565b60405180910390f35b5f8054905090565b6001602052805f5260405f205f91509050805f0154908060010180546102a690612083565b80601f01602080910402602001604051908101604052809291908181526020018280546102d290612083565b801561031d5780601f106102f45761010080835404028352916020019161031d565b820191905f5260205f20905b81548152906001019060200180831161030057829003601f168201915b50505050509080600201805461033290612083565b80601f016020809104026020016040519081016040528092919081815260200182805461035e90612083565b80156103a95780601f10610380576101008083540402835291602001916103a9565b820191905f5260205f20905b81548152906001019060200180831161038c57829003601f168201915b5050505050908060030180546103be90612083565b80601f01602080910402602001604051908101604052809291908181526020018280546103ea90612083565b80156104355780601f1061040c57610100808354040283529160200191610435565b820191905f5260205f20905b81548152906001019060200180831161041857829003601f168201915b50505050509080600401805461044a90612083565b80601f016020809104026020016040519081016040528092919081815260200182805461047690612083565b80156104c15780601f10610498576101008083540402835291602001916104c1565b820191905f5260205f20905b8154815290600101906020018083116104a457829003601f168201915b505050505090806005015490806006015490806007015f9054906101000a900467ffffffffffffffff1690806008016040518060600160405290815f82015f9054906101000a900473ffffffffffffffffffffffffffffffffffffffff1673ffffffffffffffffffffffffffffffffffffffff1673ffffffffffffffffffffffffffffffffffffffff16815260200160018201805461055f90612083565b80601f016020809104026020016040519081016040528092919081815260200182805461058b90612083565b80156105d65780601f106105ad576101008083540402835291602001916105d6565b820191905f5260205f20905b8154815290600101906020018083116105b957829003601f168201915b505050505081526020016002820154815250509080600c015f9054906101000a900460ff1690508a565b5f891215801561061057505f5489125b61064f576040517f08c379a0000000000000000000000000000000000000000000000000000000008152600401610646906120fd565b60405180910390fd5b3373ffffffffffffffffffffffffffffffffffffffff1660015f8b81526020019081526020015f206008015f015f9054906101000a900473ffffffffffffffffffffffffffffffffffffffff1673ffffffffffffffffffffffffffffffffffffffff16146106f2576040517f08c379a00000000000000000000000000000000000000000000000000000000081526004016106e990612165565b60405180910390fd5b8760015f8b81526020019081526020015f2060010190816107139190612320565b508660015f8b81526020019081526020015f2060020190816107359190612320565b508560015f8b81526020019081526020015f2060030190816107579190612320565b508460015f8b81526020019081526020015f2060040190816107799190612320565b508360015f8b81526020019081526020015f20600501819055508260015f8b81526020019081526020015f20600601819055508160015f8b81526020019081526020015f206007015f6101000a81548167ffffffffffffffff021916908367ffffffffffffffff1602179055508060015f8b81526020019081526020015f20600c015f6101000a81548160ff021916908315150217905550505050505050505050565b5f805f90505b60015f8481526020019081526020015f20600b01805490508110156108d8573373ffffffffffffffffffffffffffffffffffffffff1660015f8581526020019081526020015f20600b01828154811061087e5761087d6123ef565b5b905f5260205f20015f9054906101000a900473ffffffffffffffffffffffffffffffffffffffff1673ffffffffffffffffffffffffffffffffffffffff16036108cb5760019150506108dd565b8080600101915050610822565b505f90505b919050565b5f81121580156108f257505f5481125b610931576040517f08c379a0000000000000000000000000000000000000000000000000000000008152600401610928906120fd565b60405180910390fd5b5f60015f8381526020019081526020015f2090505f60025f3373ffffffffffffffffffffffffffffffffffffffff1673ffffffffffffffffffffffffffffffffffffffff1681526020019081526020015f206040518060600160405290815f82015f9054906101000a900473ffffffffffffffffffffffffffffffffffffffff1673ffffffffffffffffffffffffffffffffffffffff1673ffffffffffffffffffffffffffffffffffffffff1681526020016001820180546109f290612083565b80601f0160208091040260200160405190810160405280929190818152602001828054610a1e90612083565b8015610a695780601f10610a4057610100808354040283529160200191610a69565b820191905f5260205f20905b815481529060010190602001808311610a4c57829003601f168201915b5050505050815260200160028201548152505090505f73ffffffffffffffffffffffffffffffffffffffff16815f015173ffffffffffffffffffffffffffffffffffffffff1603610aef576040517f08c379a0000000000000000000000000000000000000000000000000000000008152600401610ae69061248c565b60405180910390fd5b610af93384611304565b15610b39576040517f08c379a0000000000000000000000000000000000000000000000000000000008152600401610b30906124f4565b60405180910390fd5b5f610b438461158e565b11610b83576040517f08c379a0000000000000000000000000000000000000000000000000000000008152600401610b7a9061255c565b60405180910390fd5b816006015481604001511015610b9c83600601546115cd565b604051602001610bac9190612624565b60405160208183030381529060405290610bfc576040517f08c379a0000000000000000000000000000000000000000000000000000000008152600401610bf39190612645565b60405180910390fd5b5060015f8481526020019081526020015f20600b0133908060018154018082558091505060019003905f5260205f20015f9091909190916101000a81548173ffffffffffffffffffffffffffffffffffffffff021916908373ffffffffffffffffffffffffffffffffffffffff160217905550505050565b610c7c6117e8565b5f73ffffffffffffffffffffffffffffffffffffffff1660025f3373ffffffffffffffffffffffffffffffffffffffff1673ffffffffffffffffffffffffffffffffffffffff1681526020019081526020015f205f015f9054906101000a900473ffffffffffffffffffffffffffffffffffffffff1673ffffffffffffffffffffffffffffffffffffffff1603610d48576040517f08c379a0000000000000000000000000000000000000000000000000000000008152600401610d3f906126af565b60405180910390fd5b60025f3373ffffffffffffffffffffffffffffffffffffffff1673ffffffffffffffffffffffffffffffffffffffff1681526020019081526020015f206040518060600160405290815f82015f9054906101000a900473ffffffffffffffffffffffffffffffffffffffff1673ffffffffffffffffffffffffffffffffffffffff1673ffffffffffffffffffffffffffffffffffffffff168152602001600182018054610df490612083565b80601f0160208091040260200160405190810160405280929190818152602001828054610e2090612083565b8015610e6b5780601f10610e4257610100808354040283529160200191610e6b565b820191905f5260205f20905b815481529060010190602001808311610e4e57829003601f168201915b50505050508152602001600282015481525050905090565b5f73ffffffffffffffffffffffffffffffffffffffff1660025f3373ffffffffffffffffffffffffffffffffffffffff1673ffffffffffffffffffffffffffffffffffffffff1681526020019081526020015f205f015f9054906101000a900473ffffffffffffffffffffffffffffffffffffffff1673ffffffffffffffffffffffffffffffffffffffff1603610f4f576040517f08c379a0000000000000000000000000000000000000000000000000000000008152600401610f4690612717565b60405180910390fd5b5f60015f805481526020019081526020015f2090505f54815f018190555088816001019081610f7e9190612320565b5087816002019081610f909190612320565b5086816003019081610fa29190612320565b5085816004019081610fb49190612320565b5084816005018190555083816006018190555082816007015f6101000a81548167ffffffffffffffff021916908367ffffffffffffffff16021790555060025f3373ffffffffffffffffffffffffffffffffffffffff1673ffffffffffffffffffffffffffffffffffffffff1681526020019081526020015f20816008015f82015f9054906101000a900473ffffffffffffffffffffffffffffffffffffffff16815f015f6101000a81548173ffffffffffffffffffffffffffffffffffffffff021916908373ffffffffffffffffffffffffffffffffffffffff160217905550600182018160010190816110a9919061274a565b50600282015481600201559050508181600c015f6101000a81548160ff0219169083151502179055505f808154809291906110e39061285c565b9190505550505050505050505050565b6110fb6117e8565b5f73ffffffffffffffffffffffffffffffffffffffff1660025f8473ffffffffffffffffffffffffffffffffffffffff1673ffffffffffffffffffffffffffffffffffffffff1681526020019081526020015f205f015f9054906101000a900473ffffffffffffffffffffffffffffffffffffffff1673ffffffffffffffffffffffffffffffffffffffff16036111c7576040517f08c379a00000000000000000000000000000000000000000000000000000000081526004016111be906126af565b60405180910390fd5b60025f8373ffffffffffffffffffffffffffffffffffffffff1673ffffffffffffffffffffffffffffffffffffffff1681526020019081526020015f206040518060600160405290815f82015f9054906101000a900473ffffffffffffffffffffffffffffffffffffffff1673ffffffffffffffffffffffffffffffffffffffff1673ffffffffffffffffffffffffffffffffffffffff16815260200160018201805461127390612083565b80601f016020809104026020016040519081016040528092919081815260200182805461129f90612083565b80156112ea5780601f106112c1576101008083540402835291602001916112ea565b820191905f5260205f20905b8154815290600101906020018083116112cd57829003601f168201915b505050505081526020016002820154815250509050919050565b5f805f90505b60015f8481526020019081526020015f20600b01805490508110156113c0578373ffffffffffffffffffffffffffffffffffffffff1660015f8581526020019081526020015f20600b018281548110611366576113656123ef565b5b905f5260205f20015f9054906101000a900473ffffffffffffffffffffffffffffffffffffffff1673ffffffffffffffffffffffffffffffffffffffff16036113b35760019150506113c5565b808060010191505061130a565b505f90505b92915050565b5f3373ffffffffffffffffffffffffffffffffffffffff1631905090565b5f73ffffffffffffffffffffffffffffffffffffffff1660025f3373ffffffffffffffffffffffffffffffffffffffff1673ffffffffffffffffffffffffffffffffffffffff1681526020019081526020015f205f015f9054906101000a900473ffffffffffffffffffffffffffffffffffffffff1673ffffffffffffffffffffffffffffffffffffffff16146114b5576040517f08c379a00000000000000000000000000000000000000000000000000000000081526004016114ac906128ed565b60405180910390fd5b60405180606001604052803373ffffffffffffffffffffffffffffffffffffffff1681526020018381526020018281525060025f3373ffffffffffffffffffffffffffffffffffffffff1673ffffffffffffffffffffffffffffffffffffffff1681526020019081526020015f205f820151815f015f6101000a81548173ffffffffffffffffffffffffffffffffffffffff021916908373ffffffffffffffffffffffffffffffffffffffff160217905550602082015181600101908161157c9190612320565b50604082015181600201559050505050565b5f60015f8381526020019081526020015f20600b018054905060015f8481526020019081526020015f20600501546115c6919061290b565b9050919050565b60605f60016115db84611697565b0190505f8167ffffffffffffffff8111156115f9576115f8611b20565b5b6040519080825280601f01601f19166020018201604052801561162b5781602001600182028036833780820191505090505b5090505f82602001820190505b60011561168c578080600190039150507f3031323334353637383961626364656600000000000000000000000000000000600a86061a8153600a85816116815761168061293e565b5b0494505f8503611638575b819350505050919050565b5f805f90507a184f03e93ff9f4daa797ed6e38ed64bf6a1f01000000000000000083106116f3577a184f03e93ff9f4daa797ed6e38ed64bf6a1f01000000000000000083816116e9576116e861293e565b5b0492506040810190505b6d04ee2d6d415b85acef81000000008310611730576d04ee2d6d415b85acef810000000083816117265761172561293e565b5b0492506020810190505b662386f26fc10000831061175f57662386f26fc1000083816117555761175461293e565b5b0492506010810190505b6305f5e1008310611788576305f5e100838161177e5761177d61293e565b5b0492506008810190505b61271083106117ad5761271083816117a3576117a261293e565b5b0492506004810190505b606483106117d057606483816117c6576117c561293e565b5b0492506002810190505b600a83106117df576001810190505b80915050919050565b60405180606001604052805f73ffffffffffffffffffffffffffffffffffffffff168152602001606081526020015f81525090565b5f819050919050565b61182f8161181d565b82525050565b5f6020820190506118485f830184611826565b92915050565b5f604051905090565b5f80fd5b5f80fd5b6118688161181d565b8114611872575f80fd5b50565b5f813590506118838161185f565b92915050565b5f6020828403121561189e5761189d611857565b5b5f6118ab84828501611875565b91505092915050565b5f81519050919050565b5f82825260208201905092915050565b8281835e5f83830152505050565b5f601f19601f8301169050919050565b5f6118f6826118b4565b61190081856118be565b93506119108185602086016118ce565b611919816118dc565b840191505092915050565b5f819050919050565b61193681611924565b82525050565b5f67ffffffffffffffff82169050919050565b6119588161193c565b82525050565b5f73ffffffffffffffffffffffffffffffffffffffff82169050919050565b5f6119878261195e565b9050919050565b6119978161197d565b82525050565b5f82825260208201905092915050565b5f6119b7826118b4565b6119c1818561199d565b93506119d18185602086016118ce565b6119da816118dc565b840191505092915050565b6119ee81611924565b82525050565b5f606083015f830151611a095f86018261198e565b5060208301518482036020860152611a2182826119ad565b9150506040830151611a3660408601826119e5565b508091505092915050565b5f8115159050919050565b611a5581611a41565b82525050565b5f61014082019050611a6f5f83018d611826565b8181036020830152611a81818c6118ec565b90508181036040830152611a95818b6118ec565b90508181036060830152611aa9818a6118ec565b90508181036080830152611abd81896118ec565b9050611acc60a083018861192d565b611ad960c083018761192d565b611ae660e083018661194f565b818103610100830152611af981856119f4565b9050611b09610120830184611a4c565b9b9a5050505050505050505050565b5f80fd5b5f80fd5b7f4e487b71000000000000000000000000000000000000000000000000000000005f52604160045260245ffd5b611b56826118dc565b810181811067ffffffffffffffff82111715611b7557611b74611b20565b5b80604052505050565b5f611b8761184e565b9050611b938282611b4d565b919050565b5f67ffffffffffffffff821115611bb257611bb1611b20565b5b611bbb826118dc565b9050602081019050919050565b828183375f83830152505050565b5f611be8611be384611b98565b611b7e565b905082815260208101848484011115611c0457611c03611b1c565b5b611c0f848285611bc8565b509392505050565b5f82601f830112611c2b57611c2a611b18565b5b8135611c3b848260208601611bd6565b91505092915050565b611c4d81611924565b8114611c57575f80fd5b50565b5f81359050611c6881611c44565b92915050565b611c778161193c565b8114611c81575f80fd5b50565b5f81359050611c9281611c6e565b92915050565b611ca181611a41565b8114611cab575f80fd5b50565b5f81359050611cbc81611c98565b92915050565b5f805f805f805f805f6101208a8c031215611ce057611cdf611857565b5b5f611ced8c828d01611875565b99505060208a013567ffffffffffffffff811115611d0e57611d0d61185b565b5b611d1a8c828d01611c17565b98505060408a013567ffffffffffffffff811115611d3b57611d3a61185b565b5b611d478c828d01611c17565b97505060608a013567ffffffffffffffff811115611d6857611d6761185b565b5b611d748c828d01611c17565b96505060808a013567ffffffffffffffff811115611d9557611d9461185b565b5b611da18c828d01611c17565b95505060a0611db28c828d01611c5a565b94505060c0611dc38c828d01611c5a565b93505060e0611dd48c828d01611c84565b925050610100611de68c828d01611cae565b9150509295985092959850929598565b5f602082019050611e095f830184611a4c565b92915050565b5f6020820190508181035f830152611e2781846119f4565b905092915050565b5f805f805f805f80610100898b031215611e4c57611e4b611857565b5b5f89013567ffffffffffffffff811115611e6957611e6861185b565b5b611e758b828c01611c17565b985050602089013567ffffffffffffffff811115611e9657611e9561185b565b5b611ea28b828c01611c17565b975050604089013567ffffffffffffffff811115611ec357611ec261185b565b5b611ecf8b828c01611c17565b965050606089013567ffffffffffffffff811115611ef057611eef61185b565b5b611efc8b828c01611c17565b9550506080611f0d8b828c01611c5a565b94505060a0611f1e8b828c01611c5a565b93505060c0611f2f8b828c01611c84565b92505060e0611f408b828c01611cae565b9150509295985092959890939650565b611f598161197d565b8114611f63575f80fd5b50565b5f81359050611f7481611f50565b92915050565b5f60208284031215611f8f57611f8e611857565b5b5f611f9c84828501611f66565b91505092915050565b5f8060408385031215611fbb57611fba611857565b5b5f611fc885828601611f66565b9250506020611fd985828601611875565b9150509250929050565b5f602082019050611ff65f83018461192d565b92915050565b5f806040838503121561201257612011611857565b5b5f83013567ffffffffffffffff81111561202f5761202e61185b565b5b61203b85828601611c17565b925050602061204c85828601611c5a565b9150509250929050565b7f4e487b71000000000000000000000000000000000000000000000000000000005f52602260045260245ffd5b5f600282049050600182168061209a57607f821691505b6020821081036120ad576120ac612056565b5b50919050565b7f4576656e7420646f6573206e6f742065786973740000000000000000000000005f82015250565b5f6120e76014836118be565b91506120f2826120b3565b602082019050919050565b5f6020820190508181035f830152612114816120db565b9050919050565b7f4f6e6c792061646d696e2063616e206564697420746865206576656e740000005f82015250565b5f61214f601d836118be565b915061215a8261211b565b602082019050919050565b5f6020820190508181035f83015261217c81612143565b9050919050565b5f819050815f5260205f209050919050565b5f6020601f8301049050919050565b5f82821b905092915050565b5f600883026121df7fffffffffffffffffffffffffffffffffffffffffffffffffffffffffffffffff826121a4565b6121e986836121a4565b95508019841693508086168417925050509392505050565b5f819050919050565b5f61222461221f61221a84611924565b612201565b611924565b9050919050565b5f819050919050565b61223d8361220a565b6122516122498261222b565b8484546121b0565b825550505050565b5f90565b612265612259565b612270818484612234565b505050565b5b81811015612293576122885f8261225d565b600181019050612276565b5050565b601f8211156122d8576122a981612183565b6122b284612195565b810160208510156122c1578190505b6122d56122cd85612195565b830182612275565b50505b505050565b5f82821c905092915050565b5f6122f85f19846008026122dd565b1980831691505092915050565b5f61231083836122e9565b9150826002028217905092915050565b612329826118b4565b67ffffffffffffffff81111561234257612341611b20565b5b61234c8254612083565b612357828285612297565b5f60209050601f831160018114612388575f8415612376578287015190505b6123808582612305565b8655506123e7565b601f19841661239686612183565b5f5b828110156123bd57848901518255600182019150602085019450602081019050612398565b868310156123da57848901516123d6601f8916826122e9565b8355505b6001600288020188555050505b505050505050565b7f4e487b71000000000000000000000000000000000000000000000000000000005f52603260045260245ffd5b7f55736572206973206e6f7420726567697374657265642e20506c6561736520725f8201527f656769737465722066697273742e000000000000000000000000000000000000602082015250565b5f612476602e836118be565b91506124818261241c565b604082019050919050565b5f6020820190508181035f8301526124a38161246a565b9050919050565b7f557365722068617320616c7265616479206a6f696e65640000000000000000005f82015250565b5f6124de6017836118be565b91506124e9826124aa565b602082019050919050565b5f6020820190508181035f83015261250b816124d2565b9050919050565b7f4576656e742069732066756c6c000000000000000000000000000000000000005f82015250565b5f612546600d836118be565b915061255182612512565b602082019050919050565b5f6020820190508181035f8301526125738161253a565b9050919050565b5f81905092915050565b7f54686973206576656e74206973206e6f7420617661696c61626c6520746f20615f8201527f6e796f6e6520756e646572200000000000000000000000000000000000000000602082015250565b5f6125de602c8361257a565b91506125e982612584565b602c82019050919050565b5f6125fe826118b4565b612608818561257a565b93506126188185602086016118ce565b80840191505092915050565b5f61262e826125d2565b915061263a82846125f4565b915081905092915050565b5f6020820190508181035f83015261265d81846118ec565b905092915050565b7f556e7265676973746572656420757365720000000000000000000000000000005f82015250565b5f6126996011836118be565b91506126a482612665565b602082019050919050565b5f6020820190508181035f8301526126c68161268d565b9050919050565b7f55736572206973206e6f742079657420726567697374657265640000000000005f82015250565b5f612701601a836118be565b915061270c826126cd565b602082019050919050565b5f6020820190508181035f83015261272e816126f5565b9050919050565b5f8154905061274381612083565b9050919050565b81810361275857505061282d565b61276182612735565b67ffffffffffffffff81111561277a57612779611b20565b5b6127848254612083565b61278f828285612297565b5f601f8311600181146127bc575f84156127aa578287015490505b6127b48582612305565b865550612826565b601f1984166127ca87612183565b96506127d586612183565b5f5b828110156127fc578489015482556001820191506001850194506020810190506127d7565b868310156128195784890154612815601f8916826122e9565b8355505b6001600288020188555050505b5050505050505b565b7f4e487b71000000000000000000000000000000000000000000000000000000005f52601160045260245ffd5b5f6128668261181d565b91507f7fffffffffffffffffffffffffffffffffffffffffffffffffffffffffffffff82036128985761289761282f565b5b600182019050919050565b7f5573657220616c726561647920657869737473000000000000000000000000005f82015250565b5f6128d76013836118be565b91506128e2826128a3565b602082019050919050565b5f6020820190508181035f830152612904816128cb565b9050919050565b5f61291582611924565b915061292083611924565b92508282039050818111156129385761293761282f565b5b92915050565b7f4e487b71000000000000000000000000000000000000000000000000000000005f52601260045260245ffdfea264697066735822122001a42f5ecb33ec2c3eea8a93140e7a887103769f94b07afa3ed27f181a0b899e64736f6c634300081a0033",
			"opcodes": "PUSH1 0x80 PUSH1 0x40 MSTORE PUSH0 DUP1 SSTORE CALLVALUE DUP1 ISZERO PUSH1 0x11 JUMPI PUSH0 DUP1 REVERT JUMPDEST POP PUSH2 0x29A1 DUP1 PUSH2 0x1F PUSH0 CODECOPY PUSH0 RETURN INVALID PUSH1 0x80 PUSH1 0x40 MSTORE CALLVALUE DUP1 ISZERO PUSH2 0xF JUMPI PUSH0 DUP1 REVERT JUMPDEST POP PUSH1 0x4 CALLDATASIZE LT PUSH2 0xB2 JUMPI PUSH0 CALLDATALOAD PUSH1 0xE0 SHR DUP1 PUSH4 0x5F8E7C2E GT PUSH2 0x6F JUMPI DUP1 PUSH4 0x5F8E7C2E EQ PUSH2 0x193 JUMPI DUP1 PUSH4 0x6386C1C7 EQ PUSH2 0x1AF JUMPI DUP1 PUSH4 0x82728252 EQ PUSH2 0x1DF JUMPI DUP1 PUSH4 0xB7013DC1 EQ PUSH2 0x20F JUMPI DUP1 PUSH4 0xD3951002 EQ PUSH2 0x22D JUMPI DUP1 PUSH4 0xF5D3FE64 EQ PUSH2 0x249 JUMPI PUSH2 0xB2 JUMP JUMPDEST DUP1 PUSH4 0x9AC3BB5 EQ PUSH2 0xB6 JUMPI DUP1 PUSH4 0xB925AC1 EQ PUSH2 0xD4 JUMPI DUP1 PUSH4 0xE3ED244 EQ PUSH2 0x10D JUMPI DUP1 PUSH4 0x1AB49D41 EQ PUSH2 0x129 JUMPI DUP1 PUSH4 0x2605C660 EQ PUSH2 0x159 JUMPI DUP1 PUSH4 0x5D8D1585 EQ PUSH2 0x175 JUMPI JUMPDEST PUSH0 DUP1 REVERT JUMPDEST PUSH2 0xBE PUSH2 0x279 JUMP JUMPDEST PUSH1 0x40 MLOAD PUSH2 0xCB SWAP2 SWAP1 PUSH2 0x1835 JUMP JUMPDEST PUSH1 0x40 MLOAD DUP1 SWAP2 SUB SWAP1 RETURN JUMPDEST PUSH2 0xEE PUSH1 0x4 DUP1 CALLDATASIZE SUB DUP2 ADD SWAP1 PUSH2 0xE9 SWAP2 SWAP1 PUSH2 0x1889 JUMP JUMPDEST PUSH2 0x281 JUMP JUMPDEST PUSH1 0x40 MLOAD PUSH2 0x104 SWAP11 SWAP10 SWAP9 SWAP8 SWAP7 SWAP6 SWAP5 SWAP4 SWAP3 SWAP2 SWAP1 PUSH2 0x1A5B JUMP JUMPDEST PUSH1 0x40 MLOAD DUP1 SWAP2 SUB SWAP1 RETURN JUMPDEST PUSH2 0x127 PUSH1 0x4 DUP1 CALLDATASIZE SUB DUP2 ADD SWAP1 PUSH2 0x122 SWAP2 SWAP1 PUSH2 0x1CC2 JUMP JUMPDEST PUSH2 0x600 JUMP JUMPDEST STOP JUMPDEST PUSH2 0x143 PUSH1 0x4 DUP1 CALLDATASIZE SUB DUP2 ADD SWAP1 PUSH2 0x13E SWAP2 SWAP1 PUSH2 0x1889 JUMP JUMPDEST PUSH2 0x81C JUMP JUMPDEST PUSH1 0x40 MLOAD PUSH2 0x150 SWAP2 SWAP1 PUSH2 0x1DF6 JUMP JUMPDEST PUSH1 0x40 MLOAD DUP1 SWAP2 SUB SWAP1 RETURN JUMPDEST PUSH2 0x173 PUSH1 0x4 DUP1 CALLDATASIZE SUB DUP2 ADD SWAP1 PUSH2 0x16E SWAP2 SWAP1 PUSH2 0x1889 JUMP JUMPDEST PUSH2 0x8E2 JUMP JUMPDEST STOP JUMPDEST PUSH2 0x17D PUSH2 0xC74 JUMP JUMPDEST PUSH1 0x40 MLOAD PUSH2 0x18A SWAP2 SWAP1 PUSH2 0x1E0F JUMP JUMPDEST PUSH1 0x40 MLOAD DUP1 SWAP2 SUB SWAP1 RETURN JUMPDEST PUSH2 0x1AD PUSH1 0x4 DUP1 CALLDATASIZE SUB DUP2 ADD SWAP1 PUSH2 0x1A8 SWAP2 SWAP1 PUSH2 0x1E2F JUMP JUMPDEST PUSH2 0xE83 JUMP JUMPDEST STOP JUMPDEST PUSH2 0x1C9 PUSH1 0x4 DUP1 CALLDATASIZE SUB DUP2 ADD SWAP1 PUSH2 0x1C4 SWAP2 SWAP1 PUSH2 0x1F7A JUMP JUMPDEST PUSH2 0x10F3 JUMP JUMPDEST PUSH1 0x40 MLOAD PUSH2 0x1D6 SWAP2 SWAP1 PUSH2 0x1E0F JUMP JUMPDEST PUSH1 0x40 MLOAD DUP1 SWAP2 SUB SWAP1 RETURN JUMPDEST PUSH2 0x1F9 PUSH1 0x4 DUP1 CALLDATASIZE SUB DUP2 ADD SWAP1 PUSH2 0x1F4 SWAP2 SWAP1 PUSH2 0x1FA5 JUMP JUMPDEST PUSH2 0x1304 JUMP JUMPDEST PUSH1 0x40 MLOAD PUSH2 0x206 SWAP2 SWAP1 PUSH2 0x1DF6 JUMP JUMPDEST PUSH1 0x40 MLOAD DUP1 SWAP2 SUB SWAP1 RETURN JUMPDEST PUSH2 0x217 PUSH2 0x13CB JUMP JUMPDEST PUSH1 0x40 MLOAD PUSH2 0x224 SWAP2 SWAP1 PUSH2 0x1FE3 JUMP JUMPDEST PUSH1 0x40 MLOAD DUP1 SWAP2 SUB SWAP1 RETURN JUMPDEST PUSH2 0x247 PUSH1 0x4 DUP1 CALLDATASIZE SUB DUP2 ADD SWAP1 PUSH2 0x242 SWAP2 SWAP1 PUSH2 0x1FFC JUMP JUMPDEST PUSH2 0x13E9 JUMP JUMPDEST STOP JUMPDEST PUSH2 0x263 PUSH1 0x4 DUP1 CALLDATASIZE SUB DUP2 ADD SWAP1 PUSH2 0x25E SWAP2 SWAP1 PUSH2 0x1889 JUMP JUMPDEST PUSH2 0x158E JUMP JUMPDEST PUSH1 0x40 MLOAD PUSH2 0x270 SWAP2 SWAP1 PUSH2 0x1FE3 JUMP JUMPDEST PUSH1 0x40 MLOAD DUP1 SWAP2 SUB SWAP1 RETURN JUMPDEST PUSH0 DUP1 SLOAD SWAP1 POP SWAP1 JUMP JUMPDEST PUSH1 0x1 PUSH1 0x20 MSTORE DUP1 PUSH0 MSTORE PUSH1 0x40 PUSH0 KECCAK256 PUSH0 SWAP2 POP SWAP1 POP DUP1 PUSH0 ADD SLOAD SWAP1 DUP1 PUSH1 0x1 ADD DUP1 SLOAD PUSH2 0x2A6 SWAP1 PUSH2 0x2083 JUMP JUMPDEST DUP1 PUSH1 0x1F ADD PUSH1 0x20 DUP1 SWAP2 DIV MUL PUSH1 0x20 ADD PUSH1 0x40 MLOAD SWAP1 DUP2 ADD PUSH1 0x40 MSTORE DUP1 SWAP3 SWAP2 SWAP1 DUP2 DUP2 MSTORE PUSH1 0x20 ADD DUP3 DUP1 SLOAD PUSH2 0x2D2 SWAP1 PUSH2 0x2083 JUMP JUMPDEST DUP1 ISZERO PUSH2 0x31D JUMPI DUP1 PUSH1 0x1F LT PUSH2 0x2F4 JUMPI PUSH2 0x100 DUP1 DUP4 SLOAD DIV MUL DUP4 MSTORE SWAP2 PUSH1 0x20 ADD SWAP2 PUSH2 0x31D JUMP JUMPDEST DUP3 ADD SWAP2 SWAP1 PUSH0 MSTORE PUSH1 0x20 PUSH0 KECCAK256 SWAP1 JUMPDEST DUP2 SLOAD DUP2 MSTORE SWAP1 PUSH1 0x1 ADD SWAP1 PUSH1 0x20 ADD DUP1 DUP4 GT PUSH2 0x300 JUMPI DUP3 SWAP1 SUB PUSH1 0x1F AND DUP3 ADD SWAP2 JUMPDEST POP POP POP POP POP SWAP1 DUP1 PUSH1 0x2 ADD DUP1 SLOAD PUSH2 0x332 SWAP1 PUSH2 0x2083 JUMP JUMPDEST DUP1 PUSH1 0x1F ADD PUSH1 0x20 DUP1 SWAP2 DIV MUL PUSH1 0x20 ADD PUSH1 0x40 MLOAD SWAP1 DUP2 ADD PUSH1 0x40 MSTORE DUP1 SWAP3 SWAP2 SWAP1 DUP2 DUP2 MSTORE PUSH1 0x20 ADD DUP3 DUP1 SLOAD PUSH2 0x35E SWAP1 PUSH2 0x2083 JUMP JUMPDEST DUP1 ISZERO PUSH2 0x3A9 JUMPI DUP1 PUSH1 0x1F LT PUSH2 0x380 JUMPI PUSH2 0x100 DUP1 DUP4 SLOAD DIV MUL DUP4 MSTORE SWAP2 PUSH1 0x20 ADD SWAP2 PUSH2 0x3A9 JUMP JUMPDEST DUP3 ADD SWAP2 SWAP1 PUSH0 MSTORE PUSH1 0x20 PUSH0 KECCAK256 SWAP1 JUMPDEST DUP2 SLOAD DUP2 MSTORE SWAP1 PUSH1 0x1 ADD SWAP1 PUSH1 0x20 ADD DUP1 DUP4 GT PUSH2 0x38C JUMPI DUP3 SWAP1 SUB PUSH1 0x1F AND DUP3 ADD SWAP2 JUMPDEST POP POP POP POP POP SWAP1 DUP1 PUSH1 0x3 ADD DUP1 SLOAD PUSH2 0x3BE SWAP1 PUSH2 0x2083 JUMP JUMPDEST DUP1 PUSH1 0x1F ADD PUSH1 0x20 DUP1 SWAP2 DIV MUL PUSH1 0x20 ADD PUSH1 0x40 MLOAD SWAP1 DUP2 ADD PUSH1 0x40 MSTORE DUP1 SWAP3 SWAP2 SWAP1 DUP2 DUP2 MSTORE PUSH1 0x20 ADD DUP3 DUP1 SLOAD PUSH2 0x3EA SWAP1 PUSH2 0x2083 JUMP JUMPDEST DUP1 ISZERO PUSH2 0x435 JUMPI DUP1 PUSH1 0x1F LT PUSH2 0x40C JUMPI PUSH2 0x100 DUP1 DUP4 SLOAD DIV MUL DUP4 MSTORE SWAP2 PUSH1 0x20 ADD SWAP2 PUSH2 0x435 JUMP JUMPDEST DUP3 ADD SWAP2 SWAP1 PUSH0 MSTORE PUSH1 0x20 PUSH0 KECCAK256 SWAP1 JUMPDEST DUP2 SLOAD DUP2 MSTORE SWAP1 PUSH1 0x1 ADD SWAP1 PUSH1 0x20 ADD DUP1 DUP4 GT PUSH2 0x418 JUMPI DUP3 SWAP1 SUB PUSH1 0x1F AND DUP3 ADD SWAP2 JUMPDEST POP POP POP POP POP SWAP1 DUP1 PUSH1 0x4 ADD DUP1 SLOAD PUSH2 0x44A SWAP1 PUSH2 0x2083 JUMP JUMPDEST DUP1 PUSH1 0x1F ADD PUSH1 0x20 DUP1 SWAP2 DIV MUL PUSH1 0x20 ADD PUSH1 0x40 MLOAD SWAP1 DUP2 ADD PUSH1 0x40 MSTORE DUP1 SWAP3 SWAP2 SWAP1 DUP2 DUP2 MSTORE PUSH1 0x20 ADD DUP3 DUP1 SLOAD PUSH2 0x476 SWAP1 PUSH2 0x2083 JUMP JUMPDEST DUP1 ISZERO PUSH2 0x4C1 JUMPI DUP1 PUSH1 0x1F LT PUSH2 0x498 JUMPI PUSH2 0x100 DUP1 DUP4 SLOAD DIV MUL DUP4 MSTORE SWAP2 PUSH1 0x20 ADD SWAP2 PUSH2 0x4C1 JUMP JUMPDEST DUP3 ADD SWAP2 SWAP1 PUSH0 MSTORE PUSH1 0x20 PUSH0 KECCAK256 SWAP1 JUMPDEST DUP2 SLOAD DUP2 MSTORE SWAP1 PUSH1 0x1 ADD SWAP1 PUSH1 0x20 ADD DUP1 DUP4 GT PUSH2 0x4A4 JUMPI DUP3 SWAP1 SUB PUSH1 0x1F AND DUP3 ADD SWAP2 JUMPDEST POP POP POP POP POP SWAP1 DUP1 PUSH1 0x5 ADD SLOAD SWAP1 DUP1 PUSH1 0x6 ADD SLOAD SWAP1 DUP1 PUSH1 0x7 ADD PUSH0 SWAP1 SLOAD SWAP1 PUSH2 0x100 EXP SWAP1 DIV PUSH8 0xFFFFFFFFFFFFFFFF AND SWAP1 DUP1 PUSH1 0x8 ADD PUSH1 0x40 MLOAD DUP1 PUSH1 0x60 ADD PUSH1 0x40 MSTORE SWAP1 DUP2 PUSH0 DUP3 ADD PUSH0 SWAP1 SLOAD SWAP1 PUSH2 0x100 EXP SWAP1 DIV PUSH20 0xFFFFFFFFFFFFFFFFFFFFFFFFFFFFFFFFFFFFFFFF AND PUSH20 0xFFFFFFFFFFFFFFFFFFFFFFFFFFFFFFFFFFFFFFFF AND PUSH20 0xFFFFFFFFFFFFFFFFFFFFFFFFFFFFFFFFFFFFFFFF AND DUP2 MSTORE PUSH1 0x20 ADD PUSH1 0x1 DUP3 ADD DUP1 SLOAD PUSH2 0x55F SWAP1 PUSH2 0x2083 JUMP JUMPDEST DUP1 PUSH1 0x1F ADD PUSH1 0x20 DUP1 SWAP2 DIV MUL PUSH1 0x20 ADD PUSH1 0x40 MLOAD SWAP1 DUP2 ADD PUSH1 0x40 MSTORE DUP1 SWAP3 SWAP2 SWAP1 DUP2 DUP2 MSTORE PUSH1 0x20 ADD DUP3 DUP1 SLOAD PUSH2 0x58B SWAP1 PUSH2 0x2083 JUMP JUMPDEST DUP1 ISZERO PUSH2 0x5D6 JUMPI DUP1 PUSH1 0x1F LT PUSH2 0x5AD JUMPI PUSH2 0x100 DUP1 DUP4 SLOAD DIV MUL DUP4 MSTORE SWAP2 PUSH1 0x20 ADD SWAP2 PUSH2 0x5D6 JUMP JUMPDEST DUP3 ADD SWAP2 SWAP1 PUSH0 MSTORE PUSH1 0x20 PUSH0 KECCAK256 SWAP1 JUMPDEST DUP2 SLOAD DUP2 MSTORE SWAP1 PUSH1 0x1 ADD SWAP1 PUSH1 0x20 ADD DUP1 DUP4 GT PUSH2 0x5B9 JUMPI DUP3 SWAP1 SUB PUSH1 0x1F AND DUP3 ADD SWAP2 JUMPDEST POP POP POP POP POP DUP2 MSTORE PUSH1 0x20 ADD PUSH1 0x2 DUP3 ADD SLOAD DUP2 MSTORE POP POP SWAP1 DUP1 PUSH1 0xC ADD PUSH0 SWAP1 SLOAD SWAP1 PUSH2 0x100 EXP SWAP1 DIV PUSH1 0xFF AND SWAP1 POP DUP11 JUMP JUMPDEST PUSH0 DUP10 SLT ISZERO DUP1 ISZERO PUSH2 0x610 JUMPI POP PUSH0 SLOAD DUP10 SLT JUMPDEST PUSH2 0x64F JUMPI PUSH1 0x40 MLOAD PUSH32 0x8C379A000000000000000000000000000000000000000000000000000000000 DUP2 MSTORE PUSH1 0x4 ADD PUSH2 0x646 SWAP1 PUSH2 0x20FD JUMP JUMPDEST PUSH1 0x40 MLOAD DUP1 SWAP2 SUB SWAP1 REVERT JUMPDEST CALLER PUSH20 0xFFFFFFFFFFFFFFFFFFFFFFFFFFFFFFFFFFFFFFFF AND PUSH1 0x1 PUSH0 DUP12 DUP2 MSTORE PUSH1 0x20 ADD SWAP1 DUP2 MSTORE PUSH1 0x20 ADD PUSH0 KECCAK256 PUSH1 0x8 ADD PUSH0 ADD PUSH0 SWAP1 SLOAD SWAP1 PUSH2 0x100 EXP SWAP1 DIV PUSH20 0xFFFFFFFFFFFFFFFFFFFFFFFFFFFFFFFFFFFFFFFF AND PUSH20 0xFFFFFFFFFFFFFFFFFFFFFFFFFFFFFFFFFFFFFFFF AND EQ PUSH2 0x6F2 JUMPI PUSH1 0x40 MLOAD PUSH32 0x8C379A000000000000000000000000000000000000000000000000000000000 DUP2 MSTORE PUSH1 0x4 ADD PUSH2 0x6E9 SWAP1 PUSH2 0x2165 JUMP JUMPDEST PUSH1 0x40 MLOAD DUP1 SWAP2 SUB SWAP1 REVERT JUMPDEST DUP8 PUSH1 0x1 PUSH0 DUP12 DUP2 MSTORE PUSH1 0x20 ADD SWAP1 DUP2 MSTORE PUSH1 0x20 ADD PUSH0 KECCAK256 PUSH1 0x1 ADD SWAP1 DUP2 PUSH2 0x713 SWAP2 SWAP1 PUSH2 0x2320 JUMP JUMPDEST POP DUP7 PUSH1 0x1 PUSH0 DUP12 DUP2 MSTORE PUSH1 0x20 ADD SWAP1 DUP2 MSTORE PUSH1 0x20 ADD PUSH0 KECCAK256 PUSH1 0x2 ADD SWAP1 DUP2 PUSH2 0x735 SWAP2 SWAP1 PUSH2 0x2320 JUMP JUMPDEST POP DUP6 PUSH1 0x1 PUSH0 DUP12 DUP2 MSTORE PUSH1 0x20 ADD SWAP1 DUP2 MSTORE PUSH1 0x20 ADD PUSH0 KECCAK256 PUSH1 0x3 ADD SWAP1 DUP2 PUSH2 0x757 SWAP2 SWAP1 PUSH2 0x2320 JUMP JUMPDEST POP DUP5 PUSH1 0x1 PUSH0 DUP12 DUP2 MSTORE PUSH1 0x20 ADD SWAP1 DUP2 MSTORE PUSH1 0x20 ADD PUSH0 KECCAK256 PUSH1 0x4 ADD SWAP1 DUP2 PUSH2 0x779 SWAP2 SWAP1 PUSH2 0x2320 JUMP JUMPDEST POP DUP4 PUSH1 0x1 PUSH0 DUP12 DUP2 MSTORE PUSH1 0x20 ADD SWAP1 DUP2 MSTORE PUSH1 0x20 ADD PUSH0 KECCAK256 PUSH1 0x5 ADD DUP2 SWAP1 SSTORE POP DUP3 PUSH1 0x1 PUSH0 DUP12 DUP2 MSTORE PUSH1 0x20 ADD SWAP1 DUP2 MSTORE PUSH1 0x20 ADD PUSH0 KECCAK256 PUSH1 0x6 ADD DUP2 SWAP1 SSTORE POP DUP2 PUSH1 0x1 PUSH0 DUP12 DUP2 MSTORE PUSH1 0x20 ADD SWAP1 DUP2 MSTORE PUSH1 0x20 ADD PUSH0 KECCAK256 PUSH1 0x7 ADD PUSH0 PUSH2 0x100 EXP DUP2 SLOAD DUP2 PUSH8 0xFFFFFFFFFFFFFFFF MUL NOT AND SWAP1 DUP4 PUSH8 0xFFFFFFFFFFFFFFFF AND MUL OR SWAP1 SSTORE POP DUP1 PUSH1 0x1 PUSH0 DUP12 DUP2 MSTORE PUSH1 0x20 ADD SWAP1 DUP2 MSTORE PUSH1 0x20 ADD PUSH0 KECCAK256 PUSH1 0xC ADD PUSH0 PUSH2 0x100 EXP DUP2 SLOAD DUP2 PUSH1 0xFF MUL NOT AND SWAP1 DUP4 ISZERO ISZERO MUL OR SWAP1 SSTORE POP POP POP POP POP POP POP POP POP POP JUMP JUMPDEST PUSH0 DUP1 PUSH0 SWAP1 POP JUMPDEST PUSH1 0x1 PUSH0 DUP5 DUP2 MSTORE PUSH1 0x20 ADD SWAP1 DUP2 MSTORE PUSH1 0x20 ADD PUSH0 KECCAK256 PUSH1 0xB ADD DUP1 SLOAD SWAP1 POP DUP2 LT ISZERO PUSH2 0x8D8 JUMPI CALLER PUSH20 0xFFFFFFFFFFFFFFFFFFFFFFFFFFFFFFFFFFFFFFFF AND PUSH1 0x1 PUSH0 DUP6 DUP2 MSTORE PUSH1 0x20 ADD SWAP1 DUP2 MSTORE PUSH1 0x20 ADD PUSH0 KECCAK256 PUSH1 0xB ADD DUP3 DUP2 SLOAD DUP2 LT PUSH2 0x87E JUMPI PUSH2 0x87D PUSH2 0x23EF JUMP JUMPDEST JUMPDEST SWAP1 PUSH0 MSTORE PUSH1 0x20 PUSH0 KECCAK256 ADD PUSH0 SWAP1 SLOAD SWAP1 PUSH2 0x100 EXP SWAP1 DIV PUSH20 0xFFFFFFFFFFFFFFFFFFFFFFFFFFFFFFFFFFFFFFFF AND PUSH20 0xFFFFFFFFFFFFFFFFFFFFFFFFFFFFFFFFFFFFFFFF AND SUB PUSH2 0x8CB JUMPI PUSH1 0x1 SWAP2 POP POP PUSH2 0x8DD JUMP JUMPDEST DUP1 DUP1 PUSH1 0x1 ADD SWAP2 POP POP PUSH2 0x822 JUMP JUMPDEST POP PUSH0 SWAP1 POP JUMPDEST SWAP2 SWAP1 POP JUMP JUMPDEST PUSH0 DUP2 SLT ISZERO DUP1 ISZERO PUSH2 0x8F2 JUMPI POP PUSH0 SLOAD DUP2 SLT JUMPDEST PUSH2 0x931 JUMPI PUSH1 0x40 MLOAD PUSH32 0x8C379A000000000000000000000000000000000000000000000000000000000 DUP2 MSTORE PUSH1 0x4 ADD PUSH2 0x928 SWAP1 PUSH2 0x20FD JUMP JUMPDEST PUSH1 0x40 MLOAD DUP1 SWAP2 SUB SWAP1 REVERT JUMPDEST PUSH0 PUSH1 0x1 PUSH0 DUP4 DUP2 MSTORE PUSH1 0x20 ADD SWAP1 DUP2 MSTORE PUSH1 0x20 ADD PUSH0 KECCAK256 SWAP1 POP PUSH0 PUSH1 0x2 PUSH0 CALLER PUSH20 0xFFFFFFFFFFFFFFFFFFFFFFFFFFFFFFFFFFFFFFFF AND PUSH20 0xFFFFFFFFFFFFFFFFFFFFFFFFFFFFFFFFFFFFFFFF AND DUP2 MSTORE PUSH1 0x20 ADD SWAP1 DUP2 MSTORE PUSH1 0x20 ADD PUSH0 KECCAK256 PUSH1 0x40 MLOAD DUP1 PUSH1 0x60 ADD PUSH1 0x40 MSTORE SWAP1 DUP2 PUSH0 DUP3 ADD PUSH0 SWAP1 SLOAD SWAP1 PUSH2 0x100 EXP SWAP1 DIV PUSH20 0xFFFFFFFFFFFFFFFFFFFFFFFFFFFFFFFFFFFFFFFF AND PUSH20 0xFFFFFFFFFFFFFFFFFFFFFFFFFFFFFFFFFFFFFFFF AND PUSH20 0xFFFFFFFFFFFFFFFFFFFFFFFFFFFFFFFFFFFFFFFF AND DUP2 MSTORE PUSH1 0x20 ADD PUSH1 0x1 DUP3 ADD DUP1 SLOAD PUSH2 0x9F2 SWAP1 PUSH2 0x2083 JUMP JUMPDEST DUP1 PUSH1 0x1F ADD PUSH1 0x20 DUP1 SWAP2 DIV MUL PUSH1 0x20 ADD PUSH1 0x40 MLOAD SWAP1 DUP2 ADD PUSH1 0x40 MSTORE DUP1 SWAP3 SWAP2 SWAP1 DUP2 DUP2 MSTORE PUSH1 0x20 ADD DUP3 DUP1 SLOAD PUSH2 0xA1E SWAP1 PUSH2 0x2083 JUMP JUMPDEST DUP1 ISZERO PUSH2 0xA69 JUMPI DUP1 PUSH1 0x1F LT PUSH2 0xA40 JUMPI PUSH2 0x100 DUP1 DUP4 SLOAD DIV MUL DUP4 MSTORE SWAP2 PUSH1 0x20 ADD SWAP2 PUSH2 0xA69 JUMP JUMPDEST DUP3 ADD SWAP2 SWAP1 PUSH0 MSTORE PUSH1 0x20 PUSH0 KECCAK256 SWAP1 JUMPDEST DUP2 SLOAD DUP2 MSTORE SWAP1 PUSH1 0x1 ADD SWAP1 PUSH1 0x20 ADD DUP1 DUP4 GT PUSH2 0xA4C JUMPI DUP3 SWAP1 SUB PUSH1 0x1F AND DUP3 ADD SWAP2 JUMPDEST POP POP POP POP POP DUP2 MSTORE PUSH1 0x20 ADD PUSH1 0x2 DUP3 ADD SLOAD DUP2 MSTORE POP POP SWAP1 POP PUSH0 PUSH20 0xFFFFFFFFFFFFFFFFFFFFFFFFFFFFFFFFFFFFFFFF AND DUP2 PUSH0 ADD MLOAD PUSH20 0xFFFFFFFFFFFFFFFFFFFFFFFFFFFFFFFFFFFFFFFF AND SUB PUSH2 0xAEF JUMPI PUSH1 0x40 MLOAD PUSH32 0x8C379A000000000000000000000000000000000000000000000000000000000 DUP2 MSTORE PUSH1 0x4 ADD PUSH2 0xAE6 SWAP1 PUSH2 0x248C JUMP JUMPDEST PUSH1 0x40 MLOAD DUP1 SWAP2 SUB SWAP1 REVERT JUMPDEST PUSH2 0xAF9 CALLER DUP5 PUSH2 0x1304 JUMP JUMPDEST ISZERO PUSH2 0xB39 JUMPI PUSH1 0x40 MLOAD PUSH32 0x8C379A000000000000000000000000000000000000000000000000000000000 DUP2 MSTORE PUSH1 0x4 ADD PUSH2 0xB30 SWAP1 PUSH2 0x24F4 JUMP JUMPDEST PUSH1 0x40 MLOAD DUP1 SWAP2 SUB SWAP1 REVERT JUMPDEST PUSH0 PUSH2 0xB43 DUP5 PUSH2 0x158E JUMP JUMPDEST GT PUSH2 0xB83 JUMPI PUSH1 0x40 MLOAD PUSH32 0x8C379A000000000000000000000000000000000000000000000000000000000 DUP2 MSTORE PUSH1 0x4 ADD PUSH2 0xB7A SWAP1 PUSH2 0x255C JUMP JUMPDEST PUSH1 0x40 MLOAD DUP1 SWAP2 SUB SWAP1 REVERT JUMPDEST DUP2 PUSH1 0x6 ADD SLOAD DUP2 PUSH1 0x40 ADD MLOAD LT ISZERO PUSH2 0xB9C DUP4 PUSH1 0x6 ADD SLOAD PUSH2 0x15CD JUMP JUMPDEST PUSH1 0x40 MLOAD PUSH1 0x20 ADD PUSH2 0xBAC SWAP2 SWAP1 PUSH2 0x2624 JUMP JUMPDEST PUSH1 0x40 MLOAD PUSH1 0x20 DUP2 DUP4 SUB SUB DUP2 MSTORE SWAP1 PUSH1 0x40 MSTORE SWAP1 PUSH2 0xBFC JUMPI PUSH1 0x40 MLOAD PUSH32 0x8C379A000000000000000000000000000000000000000000000000000000000 DUP2 MSTORE PUSH1 0x4 ADD PUSH2 0xBF3 SWAP2 SWAP1 PUSH2 0x2645 JUMP JUMPDEST PUSH1 0x40 MLOAD DUP1 SWAP2 SUB SWAP1 REVERT JUMPDEST POP PUSH1 0x1 PUSH0 DUP5 DUP2 MSTORE PUSH1 0x20 ADD SWAP1 DUP2 MSTORE PUSH1 0x20 ADD PUSH0 KECCAK256 PUSH1 0xB ADD CALLER SWAP1 DUP1 PUSH1 0x1 DUP2 SLOAD ADD DUP1 DUP3 SSTORE DUP1 SWAP2 POP POP PUSH1 0x1 SWAP1 SUB SWAP1 PUSH0 MSTORE PUSH1 0x20 PUSH0 KECCAK256 ADD PUSH0 SWAP1 SWAP2 SWAP1 SWAP2 SWAP1 SWAP2 PUSH2 0x100 EXP DUP2 SLOAD DUP2 PUSH20 0xFFFFFFFFFFFFFFFFFFFFFFFFFFFFFFFFFFFFFFFF MUL NOT AND SWAP1 DUP4 PUSH20 0xFFFFFFFFFFFFFFFFFFFFFFFFFFFFFFFFFFFFFFFF AND MUL OR SWAP1 SSTORE POP POP POP POP JUMP JUMPDEST PUSH2 0xC7C PUSH2 0x17E8 JUMP JUMPDEST PUSH0 PUSH20 0xFFFFFFFFFFFFFFFFFFFFFFFFFFFFFFFFFFFFFFFF AND PUSH1 0x2 PUSH0 CALLER PUSH20 0xFFFFFFFFFFFFFFFFFFFFFFFFFFFFFFFFFFFFFFFF AND PUSH20 0xFFFFFFFFFFFFFFFFFFFFFFFFFFFFFFFFFFFFFFFF AND DUP2 MSTORE PUSH1 0x20 ADD SWAP1 DUP2 MSTORE PUSH1 0x20 ADD PUSH0 KECCAK256 PUSH0 ADD PUSH0 SWAP1 SLOAD SWAP1 PUSH2 0x100 EXP SWAP1 DIV PUSH20 0xFFFFFFFFFFFFFFFFFFFFFFFFFFFFFFFFFFFFFFFF AND PUSH20 0xFFFFFFFFFFFFFFFFFFFFFFFFFFFFFFFFFFFFFFFF AND SUB PUSH2 0xD48 JUMPI PUSH1 0x40 MLOAD PUSH32 0x8C379A000000000000000000000000000000000000000000000000000000000 DUP2 MSTORE PUSH1 0x4 ADD PUSH2 0xD3F SWAP1 PUSH2 0x26AF JUMP JUMPDEST PUSH1 0x40 MLOAD DUP1 SWAP2 SUB SWAP1 REVERT JUMPDEST PUSH1 0x2 PUSH0 CALLER PUSH20 0xFFFFFFFFFFFFFFFFFFFFFFFFFFFFFFFFFFFFFFFF AND PUSH20 0xFFFFFFFFFFFFFFFFFFFFFFFFFFFFFFFFFFFFFFFF AND DUP2 MSTORE PUSH1 0x20 ADD SWAP1 DUP2 MSTORE PUSH1 0x20 ADD PUSH0 KECCAK256 PUSH1 0x40 MLOAD DUP1 PUSH1 0x60 ADD PUSH1 0x40 MSTORE SWAP1 DUP2 PUSH0 DUP3 ADD PUSH0 SWAP1 SLOAD SWAP1 PUSH2 0x100 EXP SWAP1 DIV PUSH20 0xFFFFFFFFFFFFFFFFFFFFFFFFFFFFFFFFFFFFFFFF AND PUSH20 0xFFFFFFFFFFFFFFFFFFFFFFFFFFFFFFFFFFFFFFFF AND PUSH20 0xFFFFFFFFFFFFFFFFFFFFFFFFFFFFFFFFFFFFFFFF AND DUP2 MSTORE PUSH1 0x20 ADD PUSH1 0x1 DUP3 ADD DUP1 SLOAD PUSH2 0xDF4 SWAP1 PUSH2 0x2083 JUMP JUMPDEST DUP1 PUSH1 0x1F ADD PUSH1 0x20 DUP1 SWAP2 DIV MUL PUSH1 0x20 ADD PUSH1 0x40 MLOAD SWAP1 DUP2 ADD PUSH1 0x40 MSTORE DUP1 SWAP3 SWAP2 SWAP1 DUP2 DUP2 MSTORE PUSH1 0x20 ADD DUP3 DUP1 SLOAD PUSH2 0xE20 SWAP1 PUSH2 0x2083 JUMP JUMPDEST DUP1 ISZERO PUSH2 0xE6B JUMPI DUP1 PUSH1 0x1F LT PUSH2 0xE42 JUMPI PUSH2 0x100 DUP1 DUP4 SLOAD DIV MUL DUP4 MSTORE SWAP2 PUSH1 0x20 ADD SWAP2 PUSH2 0xE6B JUMP JUMPDEST DUP3 ADD SWAP2 SWAP1 PUSH0 MSTORE PUSH1 0x20 PUSH0 KECCAK256 SWAP1 JUMPDEST DUP2 SLOAD DUP2 MSTORE SWAP1 PUSH1 0x1 ADD SWAP1 PUSH1 0x20 ADD DUP1 DUP4 GT PUSH2 0xE4E JUMPI DUP3 SWAP1 SUB PUSH1 0x1F AND DUP3 ADD SWAP2 JUMPDEST POP POP POP POP POP DUP2 MSTORE PUSH1 0x20 ADD PUSH1 0x2 DUP3 ADD SLOAD DUP2 MSTORE POP POP SWAP1 POP SWAP1 JUMP JUMPDEST PUSH0 PUSH20 0xFFFFFFFFFFFFFFFFFFFFFFFFFFFFFFFFFFFFFFFF AND PUSH1 0x2 PUSH0 CALLER PUSH20 0xFFFFFFFFFFFFFFFFFFFFFFFFFFFFFFFFFFFFFFFF AND PUSH20 0xFFFFFFFFFFFFFFFFFFFFFFFFFFFFFFFFFFFFFFFF AND DUP2 MSTORE PUSH1 0x20 ADD SWAP1 DUP2 MSTORE PUSH1 0x20 ADD PUSH0 KECCAK256 PUSH0 ADD PUSH0 SWAP1 SLOAD SWAP1 PUSH2 0x100 EXP SWAP1 DIV PUSH20 0xFFFFFFFFFFFFFFFFFFFFFFFFFFFFFFFFFFFFFFFF AND PUSH20 0xFFFFFFFFFFFFFFFFFFFFFFFFFFFFFFFFFFFFFFFF AND SUB PUSH2 0xF4F JUMPI PUSH1 0x40 MLOAD PUSH32 0x8C379A000000000000000000000000000000000000000000000000000000000 DUP2 MSTORE PUSH1 0x4 ADD PUSH2 0xF46 SWAP1 PUSH2 0x2717 JUMP JUMPDEST PUSH1 0x40 MLOAD DUP1 SWAP2 SUB SWAP1 REVERT JUMPDEST PUSH0 PUSH1 0x1 PUSH0 DUP1 SLOAD DUP2 MSTORE PUSH1 0x20 ADD SWAP1 DUP2 MSTORE PUSH1 0x20 ADD PUSH0 KECCAK256 SWAP1 POP PUSH0 SLOAD DUP2 PUSH0 ADD DUP2 SWAP1 SSTORE POP DUP9 DUP2 PUSH1 0x1 ADD SWAP1 DUP2 PUSH2 0xF7E SWAP2 SWAP1 PUSH2 0x2320 JUMP JUMPDEST POP DUP8 DUP2 PUSH1 0x2 ADD SWAP1 DUP2 PUSH2 0xF90 SWAP2 SWAP1 PUSH2 0x2320 JUMP JUMPDEST POP DUP7 DUP2 PUSH1 0x3 ADD SWAP1 DUP2 PUSH2 0xFA2 SWAP2 SWAP1 PUSH2 0x2320 JUMP JUMPDEST POP DUP6 DUP2 PUSH1 0x4 ADD SWAP1 DUP2 PUSH2 0xFB4 SWAP2 SWAP1 PUSH2 0x2320 JUMP JUMPDEST POP DUP5 DUP2 PUSH1 0x5 ADD DUP2 SWAP1 SSTORE POP DUP4 DUP2 PUSH1 0x6 ADD DUP2 SWAP1 SSTORE POP DUP3 DUP2 PUSH1 0x7 ADD PUSH0 PUSH2 0x100 EXP DUP2 SLOAD DUP2 PUSH8 0xFFFFFFFFFFFFFFFF MUL NOT AND SWAP1 DUP4 PUSH8 0xFFFFFFFFFFFFFFFF AND MUL OR SWAP1 SSTORE POP PUSH1 0x2 PUSH0 CALLER PUSH20 0xFFFFFFFFFFFFFFFFFFFFFFFFFFFFFFFFFFFFFFFF AND PUSH20 0xFFFFFFFFFFFFFFFFFFFFFFFFFFFFFFFFFFFFFFFF AND DUP2 MSTORE PUSH1 0x20 ADD SWAP1 DUP2 MSTORE PUSH1 0x20 ADD PUSH0 KECCAK256 DUP2 PUSH1 0x8 ADD PUSH0 DUP3 ADD PUSH0 SWAP1 SLOAD SWAP1 PUSH2 0x100 EXP SWAP1 DIV PUSH20 0xFFFFFFFFFFFFFFFFFFFFFFFFFFFFFFFFFFFFFFFF AND DUP2 PUSH0 ADD PUSH0 PUSH2 0x100 EXP DUP2 SLOAD DUP2 PUSH20 0xFFFFFFFFFFFFFFFFFFFFFFFFFFFFFFFFFFFFFFFF MUL NOT AND SWAP1 DUP4 PUSH20 0xFFFFFFFFFFFFFFFFFFFFFFFFFFFFFFFFFFFFFFFF AND MUL OR SWAP1 SSTORE POP PUSH1 0x1 DUP3 ADD DUP2 PUSH1 0x1 ADD SWAP1 DUP2 PUSH2 0x10A9 SWAP2 SWAP1 PUSH2 0x274A JUMP JUMPDEST POP PUSH1 0x2 DUP3 ADD SLOAD DUP2 PUSH1 0x2 ADD SSTORE SWAP1 POP POP DUP2 DUP2 PUSH1 0xC ADD PUSH0 PUSH2 0x100 EXP DUP2 SLOAD DUP2 PUSH1 0xFF MUL NOT AND SWAP1 DUP4 ISZERO ISZERO MUL OR SWAP1 SSTORE POP PUSH0 DUP1 DUP2 SLOAD DUP1 SWAP3 SWAP2 SWAP1 PUSH2 0x10E3 SWAP1 PUSH2 0x285C JUMP JUMPDEST SWAP2 SWAP1 POP SSTORE POP POP POP POP POP POP POP POP POP POP JUMP JUMPDEST PUSH2 0x10FB PUSH2 0x17E8 JUMP JUMPDEST PUSH0 PUSH20 0xFFFFFFFFFFFFFFFFFFFFFFFFFFFFFFFFFFFFFFFF AND PUSH1 0x2 PUSH0 DUP5 PUSH20 0xFFFFFFFFFFFFFFFFFFFFFFFFFFFFFFFFFFFFFFFF AND PUSH20 0xFFFFFFFFFFFFFFFFFFFFFFFFFFFFFFFFFFFFFFFF AND DUP2 MSTORE PUSH1 0x20 ADD SWAP1 DUP2 MSTORE PUSH1 0x20 ADD PUSH0 KECCAK256 PUSH0 ADD PUSH0 SWAP1 SLOAD SWAP1 PUSH2 0x100 EXP SWAP1 DIV PUSH20 0xFFFFFFFFFFFFFFFFFFFFFFFFFFFFFFFFFFFFFFFF AND PUSH20 0xFFFFFFFFFFFFFFFFFFFFFFFFFFFFFFFFFFFFFFFF AND SUB PUSH2 0x11C7 JUMPI PUSH1 0x40 MLOAD PUSH32 0x8C379A000000000000000000000000000000000000000000000000000000000 DUP2 MSTORE PUSH1 0x4 ADD PUSH2 0x11BE SWAP1 PUSH2 0x26AF JUMP JUMPDEST PUSH1 0x40 MLOAD DUP1 SWAP2 SUB SWAP1 REVERT JUMPDEST PUSH1 0x2 PUSH0 DUP4 PUSH20 0xFFFFFFFFFFFFFFFFFFFFFFFFFFFFFFFFFFFFFFFF AND PUSH20 0xFFFFFFFFFFFFFFFFFFFFFFFFFFFFFFFFFFFFFFFF AND DUP2 MSTORE PUSH1 0x20 ADD SWAP1 DUP2 MSTORE PUSH1 0x20 ADD PUSH0 KECCAK256 PUSH1 0x40 MLOAD DUP1 PUSH1 0x60 ADD PUSH1 0x40 MSTORE SWAP1 DUP2 PUSH0 DUP3 ADD PUSH0 SWAP1 SLOAD SWAP1 PUSH2 0x100 EXP SWAP1 DIV PUSH20 0xFFFFFFFFFFFFFFFFFFFFFFFFFFFFFFFFFFFFFFFF AND PUSH20 0xFFFFFFFFFFFFFFFFFFFFFFFFFFFFFFFFFFFFFFFF AND PUSH20 0xFFFFFFFFFFFFFFFFFFFFFFFFFFFFFFFFFFFFFFFF AND DUP2 MSTORE PUSH1 0x20 ADD PUSH1 0x1 DUP3 ADD DUP1 SLOAD PUSH2 0x1273 SWAP1 PUSH2 0x2083 JUMP JUMPDEST DUP1 PUSH1 0x1F ADD PUSH1 0x20 DUP1 SWAP2 DIV MUL PUSH1 0x20 ADD PUSH1 0x40 MLOAD SWAP1 DUP2 ADD PUSH1 0x40 MSTORE DUP1 SWAP3 SWAP2 SWAP1 DUP2 DUP2 MSTORE PUSH1 0x20 ADD DUP3 DUP1 SLOAD PUSH2 0x129F SWAP1 PUSH2 0x2083 JUMP JUMPDEST DUP1 ISZERO PUSH2 0x12EA JUMPI DUP1 PUSH1 0x1F LT PUSH2 0x12C1 JUMPI PUSH2 0x100 DUP1 DUP4 SLOAD DIV MUL DUP4 MSTORE SWAP2 PUSH1 0x20 ADD SWAP2 PUSH2 0x12EA JUMP JUMPDEST DUP3 ADD SWAP2 SWAP1 PUSH0 MSTORE PUSH1 0x20 PUSH0 KECCAK256 SWAP1 JUMPDEST DUP2 SLOAD DUP2 MSTORE SWAP1 PUSH1 0x1 ADD SWAP1 PUSH1 0x20 ADD DUP1 DUP4 GT PUSH2 0x12CD JUMPI DUP3 SWAP1 SUB PUSH1 0x1F AND DUP3 ADD SWAP2 JUMPDEST POP POP POP POP POP DUP2 MSTORE PUSH1 0x20 ADD PUSH1 0x2 DUP3 ADD SLOAD DUP2 MSTORE POP POP SWAP1 POP SWAP2 SWAP1 POP JUMP JUMPDEST PUSH0 DUP1 PUSH0 SWAP1 POP JUMPDEST PUSH1 0x1 PUSH0 DUP5 DUP2 MSTORE PUSH1 0x20 ADD SWAP1 DUP2 MSTORE PUSH1 0x20 ADD PUSH0 KECCAK256 PUSH1 0xB ADD DUP1 SLOAD SWAP1 POP DUP2 LT ISZERO PUSH2 0x13C0 JUMPI DUP4 PUSH20 0xFFFFFFFFFFFFFFFFFFFFFFFFFFFFFFFFFFFFFFFF AND PUSH1 0x1 PUSH0 DUP6 DUP2 MSTORE PUSH1 0x20 ADD SWAP1 DUP2 MSTORE PUSH1 0x20 ADD PUSH0 KECCAK256 PUSH1 0xB ADD DUP3 DUP2 SLOAD DUP2 LT PUSH2 0x1366 JUMPI PUSH2 0x1365 PUSH2 0x23EF JUMP JUMPDEST JUMPDEST SWAP1 PUSH0 MSTORE PUSH1 0x20 PUSH0 KECCAK256 ADD PUSH0 SWAP1 SLOAD SWAP1 PUSH2 0x100 EXP SWAP1 DIV PUSH20 0xFFFFFFFFFFFFFFFFFFFFFFFFFFFFFFFFFFFFFFFF AND PUSH20 0xFFFFFFFFFFFFFFFFFFFFFFFFFFFFFFFFFFFFFFFF AND SUB PUSH2 0x13B3 JUMPI PUSH1 0x1 SWAP2 POP POP PUSH2 0x13C5 JUMP JUMPDEST DUP1 DUP1 PUSH1 0x1 ADD SWAP2 POP POP PUSH2 0x130A JUMP JUMPDEST POP PUSH0 SWAP1 POP JUMPDEST SWAP3 SWAP2 POP POP JUMP JUMPDEST PUSH0 CALLER PUSH20 0xFFFFFFFFFFFFFFFFFFFFFFFFFFFFFFFFFFFFFFFF AND BALANCE SWAP1 POP SWAP1 JUMP JUMPDEST PUSH0 PUSH20 0xFFFFFFFFFFFFFFFFFFFFFFFFFFFFFFFFFFFFFFFF AND PUSH1 0x2 PUSH0 CALLER PUSH20 0xFFFFFFFFFFFFFFFFFFFFFFFFFFFFFFFFFFFFFFFF AND PUSH20 0xFFFFFFFFFFFFFFFFFFFFFFFFFFFFFFFFFFFFFFFF AND DUP2 MSTORE PUSH1 0x20 ADD SWAP1 DUP2 MSTORE PUSH1 0x20 ADD PUSH0 KECCAK256 PUSH0 ADD PUSH0 SWAP1 SLOAD SWAP1 PUSH2 0x100 EXP SWAP1 DIV PUSH20 0xFFFFFFFFFFFFFFFFFFFFFFFFFFFFFFFFFFFFFFFF AND PUSH20 0xFFFFFFFFFFFFFFFFFFFFFFFFFFFFFFFFFFFFFFFF AND EQ PUSH2 0x14B5 JUMPI PUSH1 0x40 MLOAD PUSH32 0x8C379A000000000000000000000000000000000000000000000000000000000 DUP2 MSTORE PUSH1 0x4 ADD PUSH2 0x14AC SWAP1 PUSH2 0x28ED JUMP JUMPDEST PUSH1 0x40 MLOAD DUP1 SWAP2 SUB SWAP1 REVERT JUMPDEST PUSH1 0x40 MLOAD DUP1 PUSH1 0x60 ADD PUSH1 0x40 MSTORE DUP1 CALLER PUSH20 0xFFFFFFFFFFFFFFFFFFFFFFFFFFFFFFFFFFFFFFFF AND DUP2 MSTORE PUSH1 0x20 ADD DUP4 DUP2 MSTORE PUSH1 0x20 ADD DUP3 DUP2 MSTORE POP PUSH1 0x2 PUSH0 CALLER PUSH20 0xFFFFFFFFFFFFFFFFFFFFFFFFFFFFFFFFFFFFFFFF AND PUSH20 0xFFFFFFFFFFFFFFFFFFFFFFFFFFFFFFFFFFFFFFFF AND DUP2 MSTORE PUSH1 0x20 ADD SWAP1 DUP2 MSTORE PUSH1 0x20 ADD PUSH0 KECCAK256 PUSH0 DUP3 ADD MLOAD DUP2 PUSH0 ADD PUSH0 PUSH2 0x100 EXP DUP2 SLOAD DUP2 PUSH20 0xFFFFFFFFFFFFFFFFFFFFFFFFFFFFFFFFFFFFFFFF MUL NOT AND SWAP1 DUP4 PUSH20 0xFFFFFFFFFFFFFFFFFFFFFFFFFFFFFFFFFFFFFFFF AND MUL OR SWAP1 SSTORE POP PUSH1 0x20 DUP3 ADD MLOAD DUP2 PUSH1 0x1 ADD SWAP1 DUP2 PUSH2 0x157C SWAP2 SWAP1 PUSH2 0x2320 JUMP JUMPDEST POP PUSH1 0x40 DUP3 ADD MLOAD DUP2 PUSH1 0x2 ADD SSTORE SWAP1 POP POP POP POP JUMP JUMPDEST PUSH0 PUSH1 0x1 PUSH0 DUP4 DUP2 MSTORE PUSH1 0x20 ADD SWAP1 DUP2 MSTORE PUSH1 0x20 ADD PUSH0 KECCAK256 PUSH1 0xB ADD DUP1 SLOAD SWAP1 POP PUSH1 0x1 PUSH0 DUP5 DUP2 MSTORE PUSH1 0x20 ADD SWAP1 DUP2 MSTORE PUSH1 0x20 ADD PUSH0 KECCAK256 PUSH1 0x5 ADD SLOAD PUSH2 0x15C6 SWAP2 SWAP1 PUSH2 0x290B JUMP JUMPDEST SWAP1 POP SWAP2 SWAP1 POP JUMP JUMPDEST PUSH1 0x60 PUSH0 PUSH1 0x1 PUSH2 0x15DB DUP5 PUSH2 0x1697 JUMP JUMPDEST ADD SWAP1 POP PUSH0 DUP2 PUSH8 0xFFFFFFFFFFFFFFFF DUP2 GT ISZERO PUSH2 0x15F9 JUMPI PUSH2 0x15F8 PUSH2 0x1B20 JUMP JUMPDEST JUMPDEST PUSH1 0x40 MLOAD SWAP1 DUP1 DUP3 MSTORE DUP1 PUSH1 0x1F ADD PUSH1 0x1F NOT AND PUSH1 0x20 ADD DUP3 ADD PUSH1 0x40 MSTORE DUP1 ISZERO PUSH2 0x162B JUMPI DUP2 PUSH1 0x20 ADD PUSH1 0x1 DUP3 MUL DUP1 CALLDATASIZE DUP4 CALLDATACOPY DUP1 DUP3 ADD SWAP2 POP POP SWAP1 POP JUMPDEST POP SWAP1 POP PUSH0 DUP3 PUSH1 0x20 ADD DUP3 ADD SWAP1 POP JUMPDEST PUSH1 0x1 ISZERO PUSH2 0x168C JUMPI DUP1 DUP1 PUSH1 0x1 SWAP1 SUB SWAP2 POP POP PUSH32 0x3031323334353637383961626364656600000000000000000000000000000000 PUSH1 0xA DUP7 MOD BYTE DUP2 MSTORE8 PUSH1 0xA DUP6 DUP2 PUSH2 0x1681 JUMPI PUSH2 0x1680 PUSH2 0x293E JUMP JUMPDEST JUMPDEST DIV SWAP5 POP PUSH0 DUP6 SUB PUSH2 0x1638 JUMPI JUMPDEST DUP2 SWAP4 POP POP POP POP SWAP2 SWAP1 POP JUMP JUMPDEST PUSH0 DUP1 PUSH0 SWAP1 POP PUSH27 0x184F03E93FF9F4DAA797ED6E38ED64BF6A1F010000000000000000 DUP4 LT PUSH2 0x16F3 JUMPI PUSH27 0x184F03E93FF9F4DAA797ED6E38ED64BF6A1F010000000000000000 DUP4 DUP2 PUSH2 0x16E9 JUMPI PUSH2 0x16E8 PUSH2 0x293E JUMP JUMPDEST JUMPDEST DIV SWAP3 POP PUSH1 0x40 DUP2 ADD SWAP1 POP JUMPDEST PUSH14 0x4EE2D6D415B85ACEF8100000000 DUP4 LT PUSH2 0x1730 JUMPI PUSH14 0x4EE2D6D415B85ACEF8100000000 DUP4 DUP2 PUSH2 0x1726 JUMPI PUSH2 0x1725 PUSH2 0x293E JUMP JUMPDEST JUMPDEST DIV SWAP3 POP PUSH1 0x20 DUP2 ADD SWAP1 POP JUMPDEST PUSH7 0x2386F26FC10000 DUP4 LT PUSH2 0x175F JUMPI PUSH7 0x2386F26FC10000 DUP4 DUP2 PUSH2 0x1755 JUMPI PUSH2 0x1754 PUSH2 0x293E JUMP JUMPDEST JUMPDEST DIV SWAP3 POP PUSH1 0x10 DUP2 ADD SWAP1 POP JUMPDEST PUSH4 0x5F5E100 DUP4 LT PUSH2 0x1788 JUMPI PUSH4 0x5F5E100 DUP4 DUP2 PUSH2 0x177E JUMPI PUSH2 0x177D PUSH2 0x293E JUMP JUMPDEST JUMPDEST DIV SWAP3 POP PUSH1 0x8 DUP2 ADD SWAP1 POP JUMPDEST PUSH2 0x2710 DUP4 LT PUSH2 0x17AD JUMPI PUSH2 0x2710 DUP4 DUP2 PUSH2 0x17A3 JUMPI PUSH2 0x17A2 PUSH2 0x293E JUMP JUMPDEST JUMPDEST DIV SWAP3 POP PUSH1 0x4 DUP2 ADD SWAP1 POP JUMPDEST PUSH1 0x64 DUP4 LT PUSH2 0x17D0 JUMPI PUSH1 0x64 DUP4 DUP2 PUSH2 0x17C6 JUMPI PUSH2 0x17C5 PUSH2 0x293E JUMP JUMPDEST JUMPDEST DIV SWAP3 POP PUSH1 0x2 DUP2 ADD SWAP1 POP JUMPDEST PUSH1 0xA DUP4 LT PUSH2 0x17DF JUMPI PUSH1 0x1 DUP2 ADD SWAP1 POP JUMPDEST DUP1 SWAP2 POP POP SWAP2 SWAP1 POP JUMP JUMPDEST PUSH1 0x40 MLOAD DUP1 PUSH1 0x60 ADD PUSH1 0x40 MSTORE DUP1 PUSH0 PUSH20 0xFFFFFFFFFFFFFFFFFFFFFFFFFFFFFFFFFFFFFFFF AND DUP2 MSTORE PUSH1 0x20 ADD PUSH1 0x60 DUP2 MSTORE PUSH1 0x20 ADD PUSH0 DUP2 MSTORE POP SWAP1 JUMP JUMPDEST PUSH0 DUP2 SWAP1 POP SWAP2 SWAP1 POP JUMP JUMPDEST PUSH2 0x182F DUP2 PUSH2 0x181D JUMP JUMPDEST DUP3 MSTORE POP POP JUMP JUMPDEST PUSH0 PUSH1 0x20 DUP3 ADD SWAP1 POP PUSH2 0x1848 PUSH0 DUP4 ADD DUP5 PUSH2 0x1826 JUMP JUMPDEST SWAP3 SWAP2 POP POP JUMP JUMPDEST PUSH0 PUSH1 0x40 MLOAD SWAP1 POP SWAP1 JUMP JUMPDEST PUSH0 DUP1 REVERT JUMPDEST PUSH0 DUP1 REVERT JUMPDEST PUSH2 0x1868 DUP2 PUSH2 0x181D JUMP JUMPDEST DUP2 EQ PUSH2 0x1872 JUMPI PUSH0 DUP1 REVERT JUMPDEST POP JUMP JUMPDEST PUSH0 DUP2 CALLDATALOAD SWAP1 POP PUSH2 0x1883 DUP2 PUSH2 0x185F JUMP JUMPDEST SWAP3 SWAP2 POP POP JUMP JUMPDEST PUSH0 PUSH1 0x20 DUP3 DUP5 SUB SLT ISZERO PUSH2 0x189E JUMPI PUSH2 0x189D PUSH2 0x1857 JUMP JUMPDEST JUMPDEST PUSH0 PUSH2 0x18AB DUP5 DUP3 DUP6 ADD PUSH2 0x1875 JUMP JUMPDEST SWAP2 POP POP SWAP3 SWAP2 POP POP JUMP JUMPDEST PUSH0 DUP2 MLOAD SWAP1 POP SWAP2 SWAP1 POP JUMP JUMPDEST PUSH0 DUP3 DUP3 MSTORE PUSH1 0x20 DUP3 ADD SWAP1 POP SWAP3 SWAP2 POP POP JUMP JUMPDEST DUP3 DUP2 DUP4 MCOPY PUSH0 DUP4 DUP4 ADD MSTORE POP POP POP JUMP JUMPDEST PUSH0 PUSH1 0x1F NOT PUSH1 0x1F DUP4 ADD AND SWAP1 POP SWAP2 SWAP1 POP JUMP JUMPDEST PUSH0 PUSH2 0x18F6 DUP3 PUSH2 0x18B4 JUMP JUMPDEST PUSH2 0x1900 DUP2 DUP6 PUSH2 0x18BE JUMP JUMPDEST SWAP4 POP PUSH2 0x1910 DUP2 DUP6 PUSH1 0x20 DUP7 ADD PUSH2 0x18CE JUMP JUMPDEST PUSH2 0x1919 DUP2 PUSH2 0x18DC JUMP JUMPDEST DUP5 ADD SWAP2 POP POP SWAP3 SWAP2 POP POP JUMP JUMPDEST PUSH0 DUP2 SWAP1 POP SWAP2 SWAP1 POP JUMP JUMPDEST PUSH2 0x1936 DUP2 PUSH2 0x1924 JUMP JUMPDEST DUP3 MSTORE POP POP JUMP JUMPDEST PUSH0 PUSH8 0xFFFFFFFFFFFFFFFF DUP3 AND SWAP1 POP SWAP2 SWAP1 POP JUMP JUMPDEST PUSH2 0x1958 DUP2 PUSH2 0x193C JUMP JUMPDEST DUP3 MSTORE POP POP JUMP JUMPDEST PUSH0 PUSH20 0xFFFFFFFFFFFFFFFFFFFFFFFFFFFFFFFFFFFFFFFF DUP3 AND SWAP1 POP SWAP2 SWAP1 POP JUMP JUMPDEST PUSH0 PUSH2 0x1987 DUP3 PUSH2 0x195E JUMP JUMPDEST SWAP1 POP SWAP2 SWAP1 POP JUMP JUMPDEST PUSH2 0x1997 DUP2 PUSH2 0x197D JUMP JUMPDEST DUP3 MSTORE POP POP JUMP JUMPDEST PUSH0 DUP3 DUP3 MSTORE PUSH1 0x20 DUP3 ADD SWAP1 POP SWAP3 SWAP2 POP POP JUMP JUMPDEST PUSH0 PUSH2 0x19B7 DUP3 PUSH2 0x18B4 JUMP JUMPDEST PUSH2 0x19C1 DUP2 DUP6 PUSH2 0x199D JUMP JUMPDEST SWAP4 POP PUSH2 0x19D1 DUP2 DUP6 PUSH1 0x20 DUP7 ADD PUSH2 0x18CE JUMP JUMPDEST PUSH2 0x19DA DUP2 PUSH2 0x18DC JUMP JUMPDEST DUP5 ADD SWAP2 POP POP SWAP3 SWAP2 POP POP JUMP JUMPDEST PUSH2 0x19EE DUP2 PUSH2 0x1924 JUMP JUMPDEST DUP3 MSTORE POP POP JUMP JUMPDEST PUSH0 PUSH1 0x60 DUP4 ADD PUSH0 DUP4 ADD MLOAD PUSH2 0x1A09 PUSH0 DUP7 ADD DUP3 PUSH2 0x198E JUMP JUMPDEST POP PUSH1 0x20 DUP4 ADD MLOAD DUP5 DUP3 SUB PUSH1 0x20 DUP7 ADD MSTORE PUSH2 0x1A21 DUP3 DUP3 PUSH2 0x19AD JUMP JUMPDEST SWAP2 POP POP PUSH1 0x40 DUP4 ADD MLOAD PUSH2 0x1A36 PUSH1 0x40 DUP7 ADD DUP3 PUSH2 0x19E5 JUMP JUMPDEST POP DUP1 SWAP2 POP POP SWAP3 SWAP2 POP POP JUMP JUMPDEST PUSH0 DUP2 ISZERO ISZERO SWAP1 POP SWAP2 SWAP1 POP JUMP JUMPDEST PUSH2 0x1A55 DUP2 PUSH2 0x1A41 JUMP JUMPDEST DUP3 MSTORE POP POP JUMP JUMPDEST PUSH0 PUSH2 0x140 DUP3 ADD SWAP1 POP PUSH2 0x1A6F PUSH0 DUP4 ADD DUP14 PUSH2 0x1826 JUMP JUMPDEST DUP2 DUP2 SUB PUSH1 0x20 DUP4 ADD MSTORE PUSH2 0x1A81 DUP2 DUP13 PUSH2 0x18EC JUMP JUMPDEST SWAP1 POP DUP2 DUP2 SUB PUSH1 0x40 DUP4 ADD MSTORE PUSH2 0x1A95 DUP2 DUP12 PUSH2 0x18EC JUMP JUMPDEST SWAP1 POP DUP2 DUP2 SUB PUSH1 0x60 DUP4 ADD MSTORE PUSH2 0x1AA9 DUP2 DUP11 PUSH2 0x18EC JUMP JUMPDEST SWAP1 POP DUP2 DUP2 SUB PUSH1 0x80 DUP4 ADD MSTORE PUSH2 0x1ABD DUP2 DUP10 PUSH2 0x18EC JUMP JUMPDEST SWAP1 POP PUSH2 0x1ACC PUSH1 0xA0 DUP4 ADD DUP9 PUSH2 0x192D JUMP JUMPDEST PUSH2 0x1AD9 PUSH1 0xC0 DUP4 ADD DUP8 PUSH2 0x192D JUMP JUMPDEST PUSH2 0x1AE6 PUSH1 0xE0 DUP4 ADD DUP7 PUSH2 0x194F JUMP JUMPDEST DUP2 DUP2 SUB PUSH2 0x100 DUP4 ADD MSTORE PUSH2 0x1AF9 DUP2 DUP6 PUSH2 0x19F4 JUMP JUMPDEST SWAP1 POP PUSH2 0x1B09 PUSH2 0x120 DUP4 ADD DUP5 PUSH2 0x1A4C JUMP JUMPDEST SWAP12 SWAP11 POP POP POP POP POP POP POP POP POP POP POP JUMP JUMPDEST PUSH0 DUP1 REVERT JUMPDEST PUSH0 DUP1 REVERT JUMPDEST PUSH32 0x4E487B7100000000000000000000000000000000000000000000000000000000 PUSH0 MSTORE PUSH1 0x41 PUSH1 0x4 MSTORE PUSH1 0x24 PUSH0 REVERT JUMPDEST PUSH2 0x1B56 DUP3 PUSH2 0x18DC JUMP JUMPDEST DUP2 ADD DUP2 DUP2 LT PUSH8 0xFFFFFFFFFFFFFFFF DUP3 GT OR ISZERO PUSH2 0x1B75 JUMPI PUSH2 0x1B74 PUSH2 0x1B20 JUMP JUMPDEST JUMPDEST DUP1 PUSH1 0x40 MSTORE POP POP POP JUMP JUMPDEST PUSH0 PUSH2 0x1B87 PUSH2 0x184E JUMP JUMPDEST SWAP1 POP PUSH2 0x1B93 DUP3 DUP3 PUSH2 0x1B4D JUMP JUMPDEST SWAP2 SWAP1 POP JUMP JUMPDEST PUSH0 PUSH8 0xFFFFFFFFFFFFFFFF DUP3 GT ISZERO PUSH2 0x1BB2 JUMPI PUSH2 0x1BB1 PUSH2 0x1B20 JUMP JUMPDEST JUMPDEST PUSH2 0x1BBB DUP3 PUSH2 0x18DC JUMP JUMPDEST SWAP1 POP PUSH1 0x20 DUP2 ADD SWAP1 POP SWAP2 SWAP1 POP JUMP JUMPDEST DUP3 DUP2 DUP4 CALLDATACOPY PUSH0 DUP4 DUP4 ADD MSTORE POP POP POP JUMP JUMPDEST PUSH0 PUSH2 0x1BE8 PUSH2 0x1BE3 DUP5 PUSH2 0x1B98 JUMP JUMPDEST PUSH2 0x1B7E JUMP JUMPDEST SWAP1 POP DUP3 DUP2 MSTORE PUSH1 0x20 DUP2 ADD DUP5 DUP5 DUP5 ADD GT ISZERO PUSH2 0x1C04 JUMPI PUSH2 0x1C03 PUSH2 0x1B1C JUMP JUMPDEST JUMPDEST PUSH2 0x1C0F DUP5 DUP3 DUP6 PUSH2 0x1BC8 JUMP JUMPDEST POP SWAP4 SWAP3 POP POP POP JUMP JUMPDEST PUSH0 DUP3 PUSH1 0x1F DUP4 ADD SLT PUSH2 0x1C2B JUMPI PUSH2 0x1C2A PUSH2 0x1B18 JUMP JUMPDEST JUMPDEST DUP2 CALLDATALOAD PUSH2 0x1C3B DUP5 DUP3 PUSH1 0x20 DUP7 ADD PUSH2 0x1BD6 JUMP JUMPDEST SWAP2 POP POP SWAP3 SWAP2 POP POP JUMP JUMPDEST PUSH2 0x1C4D DUP2 PUSH2 0x1924 JUMP JUMPDEST DUP2 EQ PUSH2 0x1C57 JUMPI PUSH0 DUP1 REVERT JUMPDEST POP JUMP JUMPDEST PUSH0 DUP2 CALLDATALOAD SWAP1 POP PUSH2 0x1C68 DUP2 PUSH2 0x1C44 JUMP JUMPDEST SWAP3 SWAP2 POP POP JUMP JUMPDEST PUSH2 0x1C77 DUP2 PUSH2 0x193C JUMP JUMPDEST DUP2 EQ PUSH2 0x1C81 JUMPI PUSH0 DUP1 REVERT JUMPDEST POP JUMP JUMPDEST PUSH0 DUP2 CALLDATALOAD SWAP1 POP PUSH2 0x1C92 DUP2 PUSH2 0x1C6E JUMP JUMPDEST SWAP3 SWAP2 POP POP JUMP JUMPDEST PUSH2 0x1CA1 DUP2 PUSH2 0x1A41 JUMP JUMPDEST DUP2 EQ PUSH2 0x1CAB JUMPI PUSH0 DUP1 REVERT JUMPDEST POP JUMP JUMPDEST PUSH0 DUP2 CALLDATALOAD SWAP1 POP PUSH2 0x1CBC DUP2 PUSH2 0x1C98 JUMP JUMPDEST SWAP3 SWAP2 POP POP JUMP JUMPDEST PUSH0 DUP1 PUSH0 DUP1 PUSH0 DUP1 PUSH0 DUP1 PUSH0 PUSH2 0x120 DUP11 DUP13 SUB SLT ISZERO PUSH2 0x1CE0 JUMPI PUSH2 0x1CDF PUSH2 0x1857 JUMP JUMPDEST JUMPDEST PUSH0 PUSH2 0x1CED DUP13 DUP3 DUP14 ADD PUSH2 0x1875 JUMP JUMPDEST SWAP10 POP POP PUSH1 0x20 DUP11 ADD CALLDATALOAD PUSH8 0xFFFFFFFFFFFFFFFF DUP2 GT ISZERO PUSH2 0x1D0E JUMPI PUSH2 0x1D0D PUSH2 0x185B JUMP JUMPDEST JUMPDEST PUSH2 0x1D1A DUP13 DUP3 DUP14 ADD PUSH2 0x1C17 JUMP JUMPDEST SWAP9 POP POP PUSH1 0x40 DUP11 ADD CALLDATALOAD PUSH8 0xFFFFFFFFFFFFFFFF DUP2 GT ISZERO PUSH2 0x1D3B JUMPI PUSH2 0x1D3A PUSH2 0x185B JUMP JUMPDEST JUMPDEST PUSH2 0x1D47 DUP13 DUP3 DUP14 ADD PUSH2 0x1C17 JUMP JUMPDEST SWAP8 POP POP PUSH1 0x60 DUP11 ADD CALLDATALOAD PUSH8 0xFFFFFFFFFFFFFFFF DUP2 GT ISZERO PUSH2 0x1D68 JUMPI PUSH2 0x1D67 PUSH2 0x185B JUMP JUMPDEST JUMPDEST PUSH2 0x1D74 DUP13 DUP3 DUP14 ADD PUSH2 0x1C17 JUMP JUMPDEST SWAP7 POP POP PUSH1 0x80 DUP11 ADD CALLDATALOAD PUSH8 0xFFFFFFFFFFFFFFFF DUP2 GT ISZERO PUSH2 0x1D95 JUMPI PUSH2 0x1D94 PUSH2 0x185B JUMP JUMPDEST JUMPDEST PUSH2 0x1DA1 DUP13 DUP3 DUP14 ADD PUSH2 0x1C17 JUMP JUMPDEST SWAP6 POP POP PUSH1 0xA0 PUSH2 0x1DB2 DUP13 DUP3 DUP14 ADD PUSH2 0x1C5A JUMP JUMPDEST SWAP5 POP POP PUSH1 0xC0 PUSH2 0x1DC3 DUP13 DUP3 DUP14 ADD PUSH2 0x1C5A JUMP JUMPDEST SWAP4 POP POP PUSH1 0xE0 PUSH2 0x1DD4 DUP13 DUP3 DUP14 ADD PUSH2 0x1C84 JUMP JUMPDEST SWAP3 POP POP PUSH2 0x100 PUSH2 0x1DE6 DUP13 DUP3 DUP14 ADD PUSH2 0x1CAE JUMP JUMPDEST SWAP2 POP POP SWAP3 SWAP6 SWAP9 POP SWAP3 SWAP6 SWAP9 POP SWAP3 SWAP6 SWAP9 JUMP JUMPDEST PUSH0 PUSH1 0x20 DUP3 ADD SWAP1 POP PUSH2 0x1E09 PUSH0 DUP4 ADD DUP5 PUSH2 0x1A4C JUMP JUMPDEST SWAP3 SWAP2 POP POP JUMP JUMPDEST PUSH0 PUSH1 0x20 DUP3 ADD SWAP1 POP DUP2 DUP2 SUB PUSH0 DUP4 ADD MSTORE PUSH2 0x1E27 DUP2 DUP5 PUSH2 0x19F4 JUMP JUMPDEST SWAP1 POP SWAP3 SWAP2 POP POP JUMP JUMPDEST PUSH0 DUP1 PUSH0 DUP1 PUSH0 DUP1 PUSH0 DUP1 PUSH2 0x100 DUP10 DUP12 SUB SLT ISZERO PUSH2 0x1E4C JUMPI PUSH2 0x1E4B PUSH2 0x1857 JUMP JUMPDEST JUMPDEST PUSH0 DUP10 ADD CALLDATALOAD PUSH8 0xFFFFFFFFFFFFFFFF DUP2 GT ISZERO PUSH2 0x1E69 JUMPI PUSH2 0x1E68 PUSH2 0x185B JUMP JUMPDEST JUMPDEST PUSH2 0x1E75 DUP12 DUP3 DUP13 ADD PUSH2 0x1C17 JUMP JUMPDEST SWAP9 POP POP PUSH1 0x20 DUP10 ADD CALLDATALOAD PUSH8 0xFFFFFFFFFFFFFFFF DUP2 GT ISZERO PUSH2 0x1E96 JUMPI PUSH2 0x1E95 PUSH2 0x185B JUMP JUMPDEST JUMPDEST PUSH2 0x1EA2 DUP12 DUP3 DUP13 ADD PUSH2 0x1C17 JUMP JUMPDEST SWAP8 POP POP PUSH1 0x40 DUP10 ADD CALLDATALOAD PUSH8 0xFFFFFFFFFFFFFFFF DUP2 GT ISZERO PUSH2 0x1EC3 JUMPI PUSH2 0x1EC2 PUSH2 0x185B JUMP JUMPDEST JUMPDEST PUSH2 0x1ECF DUP12 DUP3 DUP13 ADD PUSH2 0x1C17 JUMP JUMPDEST SWAP7 POP POP PUSH1 0x60 DUP10 ADD CALLDATALOAD PUSH8 0xFFFFFFFFFFFFFFFF DUP2 GT ISZERO PUSH2 0x1EF0 JUMPI PUSH2 0x1EEF PUSH2 0x185B JUMP JUMPDEST JUMPDEST PUSH2 0x1EFC DUP12 DUP3 DUP13 ADD PUSH2 0x1C17 JUMP JUMPDEST SWAP6 POP POP PUSH1 0x80 PUSH2 0x1F0D DUP12 DUP3 DUP13 ADD PUSH2 0x1C5A JUMP JUMPDEST SWAP5 POP POP PUSH1 0xA0 PUSH2 0x1F1E DUP12 DUP3 DUP13 ADD PUSH2 0x1C5A JUMP JUMPDEST SWAP4 POP POP PUSH1 0xC0 PUSH2 0x1F2F DUP12 DUP3 DUP13 ADD PUSH2 0x1C84 JUMP JUMPDEST SWAP3 POP POP PUSH1 0xE0 PUSH2 0x1F40 DUP12 DUP3 DUP13 ADD PUSH2 0x1CAE JUMP JUMPDEST SWAP2 POP POP SWAP3 SWAP6 SWAP9 POP SWAP3 SWAP6 SWAP9 SWAP1 SWAP4 SWAP7 POP JUMP JUMPDEST PUSH2 0x1F59 DUP2 PUSH2 0x197D JUMP JUMPDEST DUP2 EQ PUSH2 0x1F63 JUMPI PUSH0 DUP1 REVERT JUMPDEST POP JUMP JUMPDEST PUSH0 DUP2 CALLDATALOAD SWAP1 POP PUSH2 0x1F74 DUP2 PUSH2 0x1F50 JUMP JUMPDEST SWAP3 SWAP2 POP POP JUMP JUMPDEST PUSH0 PUSH1 0x20 DUP3 DUP5 SUB SLT ISZERO PUSH2 0x1F8F JUMPI PUSH2 0x1F8E PUSH2 0x1857 JUMP JUMPDEST JUMPDEST PUSH0 PUSH2 0x1F9C DUP5 DUP3 DUP6 ADD PUSH2 0x1F66 JUMP JUMPDEST SWAP2 POP POP SWAP3 SWAP2 POP POP JUMP JUMPDEST PUSH0 DUP1 PUSH1 0x40 DUP4 DUP6 SUB SLT ISZERO PUSH2 0x1FBB JUMPI PUSH2 0x1FBA PUSH2 0x1857 JUMP JUMPDEST JUMPDEST PUSH0 PUSH2 0x1FC8 DUP6 DUP3 DUP7 ADD PUSH2 0x1F66 JUMP JUMPDEST SWAP3 POP POP PUSH1 0x20 PUSH2 0x1FD9 DUP6 DUP3 DUP7 ADD PUSH2 0x1875 JUMP JUMPDEST SWAP2 POP POP SWAP3 POP SWAP3 SWAP1 POP JUMP JUMPDEST PUSH0 PUSH1 0x20 DUP3 ADD SWAP1 POP PUSH2 0x1FF6 PUSH0 DUP4 ADD DUP5 PUSH2 0x192D JUMP JUMPDEST SWAP3 SWAP2 POP POP JUMP JUMPDEST PUSH0 DUP1 PUSH1 0x40 DUP4 DUP6 SUB SLT ISZERO PUSH2 0x2012 JUMPI PUSH2 0x2011 PUSH2 0x1857 JUMP JUMPDEST JUMPDEST PUSH0 DUP4 ADD CALLDATALOAD PUSH8 0xFFFFFFFFFFFFFFFF DUP2 GT ISZERO PUSH2 0x202F JUMPI PUSH2 0x202E PUSH2 0x185B JUMP JUMPDEST JUMPDEST PUSH2 0x203B DUP6 DUP3 DUP7 ADD PUSH2 0x1C17 JUMP JUMPDEST SWAP3 POP POP PUSH1 0x20 PUSH2 0x204C DUP6 DUP3 DUP7 ADD PUSH2 0x1C5A JUMP JUMPDEST SWAP2 POP POP SWAP3 POP SWAP3 SWAP1 POP JUMP JUMPDEST PUSH32 0x4E487B7100000000000000000000000000000000000000000000000000000000 PUSH0 MSTORE PUSH1 0x22 PUSH1 0x4 MSTORE PUSH1 0x24 PUSH0 REVERT JUMPDEST PUSH0 PUSH1 0x2 DUP3 DIV SWAP1 POP PUSH1 0x1 DUP3 AND DUP1 PUSH2 0x209A JUMPI PUSH1 0x7F DUP3 AND SWAP2 POP JUMPDEST PUSH1 0x20 DUP3 LT DUP2 SUB PUSH2 0x20AD JUMPI PUSH2 0x20AC PUSH2 0x2056 JUMP JUMPDEST JUMPDEST POP SWAP2 SWAP1 POP JUMP JUMPDEST PUSH32 0x4576656E7420646F6573206E6F74206578697374000000000000000000000000 PUSH0 DUP3 ADD MSTORE POP JUMP JUMPDEST PUSH0 PUSH2 0x20E7 PUSH1 0x14 DUP4 PUSH2 0x18BE JUMP JUMPDEST SWAP2 POP PUSH2 0x20F2 DUP3 PUSH2 0x20B3 JUMP JUMPDEST PUSH1 0x20 DUP3 ADD SWAP1 POP SWAP2 SWAP1 POP JUMP JUMPDEST PUSH0 PUSH1 0x20 DUP3 ADD SWAP1 POP DUP2 DUP2 SUB PUSH0 DUP4 ADD MSTORE PUSH2 0x2114 DUP2 PUSH2 0x20DB JUMP JUMPDEST SWAP1 POP SWAP2 SWAP1 POP JUMP JUMPDEST PUSH32 0x4F6E6C792061646D696E2063616E206564697420746865206576656E74000000 PUSH0 DUP3 ADD MSTORE POP JUMP JUMPDEST PUSH0 PUSH2 0x214F PUSH1 0x1D DUP4 PUSH2 0x18BE JUMP JUMPDEST SWAP2 POP PUSH2 0x215A DUP3 PUSH2 0x211B JUMP JUMPDEST PUSH1 0x20 DUP3 ADD SWAP1 POP SWAP2 SWAP1 POP JUMP JUMPDEST PUSH0 PUSH1 0x20 DUP3 ADD SWAP1 POP DUP2 DUP2 SUB PUSH0 DUP4 ADD MSTORE PUSH2 0x217C DUP2 PUSH2 0x2143 JUMP JUMPDEST SWAP1 POP SWAP2 SWAP1 POP JUMP JUMPDEST PUSH0 DUP2 SWAP1 POP DUP2 PUSH0 MSTORE PUSH1 0x20 PUSH0 KECCAK256 SWAP1 POP SWAP2 SWAP1 POP JUMP JUMPDEST PUSH0 PUSH1 0x20 PUSH1 0x1F DUP4 ADD DIV SWAP1 POP SWAP2 SWAP1 POP JUMP JUMPDEST PUSH0 DUP3 DUP3 SHL SWAP1 POP SWAP3 SWAP2 POP POP JUMP JUMPDEST PUSH0 PUSH1 0x8 DUP4 MUL PUSH2 0x21DF PUSH32 0xFFFFFFFFFFFFFFFFFFFFFFFFFFFFFFFFFFFFFFFFFFFFFFFFFFFFFFFFFFFFFFFF DUP3 PUSH2 0x21A4 JUMP JUMPDEST PUSH2 0x21E9 DUP7 DUP4 PUSH2 0x21A4 JUMP JUMPDEST SWAP6 POP DUP1 NOT DUP5 AND SWAP4 POP DUP1 DUP7 AND DUP5 OR SWAP3 POP POP POP SWAP4 SWAP3 POP POP POP JUMP JUMPDEST PUSH0 DUP2 SWAP1 POP SWAP2 SWAP1 POP JUMP JUMPDEST PUSH0 PUSH2 0x2224 PUSH2 0x221F PUSH2 0x221A DUP5 PUSH2 0x1924 JUMP JUMPDEST PUSH2 0x2201 JUMP JUMPDEST PUSH2 0x1924 JUMP JUMPDEST SWAP1 POP SWAP2 SWAP1 POP JUMP JUMPDEST PUSH0 DUP2 SWAP1 POP SWAP2 SWAP1 POP JUMP JUMPDEST PUSH2 0x223D DUP4 PUSH2 0x220A JUMP JUMPDEST PUSH2 0x2251 PUSH2 0x2249 DUP3 PUSH2 0x222B JUMP JUMPDEST DUP5 DUP5 SLOAD PUSH2 0x21B0 JUMP JUMPDEST DUP3 SSTORE POP POP POP POP JUMP JUMPDEST PUSH0 SWAP1 JUMP JUMPDEST PUSH2 0x2265 PUSH2 0x2259 JUMP JUMPDEST PUSH2 0x2270 DUP2 DUP5 DUP5 PUSH2 0x2234 JUMP JUMPDEST POP POP POP JUMP JUMPDEST JUMPDEST DUP2 DUP2 LT ISZERO PUSH2 0x2293 JUMPI PUSH2 0x2288 PUSH0 DUP3 PUSH2 0x225D JUMP JUMPDEST PUSH1 0x1 DUP2 ADD SWAP1 POP PUSH2 0x2276 JUMP JUMPDEST POP POP JUMP JUMPDEST PUSH1 0x1F DUP3 GT ISZERO PUSH2 0x22D8 JUMPI PUSH2 0x22A9 DUP2 PUSH2 0x2183 JUMP JUMPDEST PUSH2 0x22B2 DUP5 PUSH2 0x2195 JUMP JUMPDEST DUP2 ADD PUSH1 0x20 DUP6 LT ISZERO PUSH2 0x22C1 JUMPI DUP2 SWAP1 POP JUMPDEST PUSH2 0x22D5 PUSH2 0x22CD DUP6 PUSH2 0x2195 JUMP JUMPDEST DUP4 ADD DUP3 PUSH2 0x2275 JUMP JUMPDEST POP POP JUMPDEST POP POP POP JUMP JUMPDEST PUSH0 DUP3 DUP3 SHR SWAP1 POP SWAP3 SWAP2 POP POP JUMP JUMPDEST PUSH0 PUSH2 0x22F8 PUSH0 NOT DUP5 PUSH1 0x8 MUL PUSH2 0x22DD JUMP JUMPDEST NOT DUP1 DUP4 AND SWAP2 POP POP SWAP3 SWAP2 POP POP JUMP JUMPDEST PUSH0 PUSH2 0x2310 DUP4 DUP4 PUSH2 0x22E9 JUMP JUMPDEST SWAP2 POP DUP3 PUSH1 0x2 MUL DUP3 OR SWAP1 POP SWAP3 SWAP2 POP POP JUMP JUMPDEST PUSH2 0x2329 DUP3 PUSH2 0x18B4 JUMP JUMPDEST PUSH8 0xFFFFFFFFFFFFFFFF DUP2 GT ISZERO PUSH2 0x2342 JUMPI PUSH2 0x2341 PUSH2 0x1B20 JUMP JUMPDEST JUMPDEST PUSH2 0x234C DUP3 SLOAD PUSH2 0x2083 JUMP JUMPDEST PUSH2 0x2357 DUP3 DUP3 DUP6 PUSH2 0x2297 JUMP JUMPDEST PUSH0 PUSH1 0x20 SWAP1 POP PUSH1 0x1F DUP4 GT PUSH1 0x1 DUP2 EQ PUSH2 0x2388 JUMPI PUSH0 DUP5 ISZERO PUSH2 0x2376 JUMPI DUP3 DUP8 ADD MLOAD SWAP1 POP JUMPDEST PUSH2 0x2380 DUP6 DUP3 PUSH2 0x2305 JUMP JUMPDEST DUP7 SSTORE POP PUSH2 0x23E7 JUMP JUMPDEST PUSH1 0x1F NOT DUP5 AND PUSH2 0x2396 DUP7 PUSH2 0x2183 JUMP JUMPDEST PUSH0 JUMPDEST DUP3 DUP2 LT ISZERO PUSH2 0x23BD JUMPI DUP5 DUP10 ADD MLOAD DUP3 SSTORE PUSH1 0x1 DUP3 ADD SWAP2 POP PUSH1 0x20 DUP6 ADD SWAP5 POP PUSH1 0x20 DUP2 ADD SWAP1 POP PUSH2 0x2398 JUMP JUMPDEST DUP7 DUP4 LT ISZERO PUSH2 0x23DA JUMPI DUP5 DUP10 ADD MLOAD PUSH2 0x23D6 PUSH1 0x1F DUP10 AND DUP3 PUSH2 0x22E9 JUMP JUMPDEST DUP4 SSTORE POP JUMPDEST PUSH1 0x1 PUSH1 0x2 DUP9 MUL ADD DUP9 SSTORE POP POP POP JUMPDEST POP POP POP POP POP POP JUMP JUMPDEST PUSH32 0x4E487B7100000000000000000000000000000000000000000000000000000000 PUSH0 MSTORE PUSH1 0x32 PUSH1 0x4 MSTORE PUSH1 0x24 PUSH0 REVERT JUMPDEST PUSH32 0x55736572206973206E6F7420726567697374657265642E20506C656173652072 PUSH0 DUP3 ADD MSTORE PUSH32 0x656769737465722066697273742E000000000000000000000000000000000000 PUSH1 0x20 DUP3 ADD MSTORE POP JUMP JUMPDEST PUSH0 PUSH2 0x2476 PUSH1 0x2E DUP4 PUSH2 0x18BE JUMP JUMPDEST SWAP2 POP PUSH2 0x2481 DUP3 PUSH2 0x241C JUMP JUMPDEST PUSH1 0x40 DUP3 ADD SWAP1 POP SWAP2 SWAP1 POP JUMP JUMPDEST PUSH0 PUSH1 0x20 DUP3 ADD SWAP1 POP DUP2 DUP2 SUB PUSH0 DUP4 ADD MSTORE PUSH2 0x24A3 DUP2 PUSH2 0x246A JUMP JUMPDEST SWAP1 POP SWAP2 SWAP1 POP JUMP JUMPDEST PUSH32 0x557365722068617320616C7265616479206A6F696E6564000000000000000000 PUSH0 DUP3 ADD MSTORE POP JUMP JUMPDEST PUSH0 PUSH2 0x24DE PUSH1 0x17 DUP4 PUSH2 0x18BE JUMP JUMPDEST SWAP2 POP PUSH2 0x24E9 DUP3 PUSH2 0x24AA JUMP JUMPDEST PUSH1 0x20 DUP3 ADD SWAP1 POP SWAP2 SWAP1 POP JUMP JUMPDEST PUSH0 PUSH1 0x20 DUP3 ADD SWAP1 POP DUP2 DUP2 SUB PUSH0 DUP4 ADD MSTORE PUSH2 0x250B DUP2 PUSH2 0x24D2 JUMP JUMPDEST SWAP1 POP SWAP2 SWAP1 POP JUMP JUMPDEST PUSH32 0x4576656E742069732066756C6C00000000000000000000000000000000000000 PUSH0 DUP3 ADD MSTORE POP JUMP JUMPDEST PUSH0 PUSH2 0x2546 PUSH1 0xD DUP4 PUSH2 0x18BE JUMP JUMPDEST SWAP2 POP PUSH2 0x2551 DUP3 PUSH2 0x2512 JUMP JUMPDEST PUSH1 0x20 DUP3 ADD SWAP1 POP SWAP2 SWAP1 POP JUMP JUMPDEST PUSH0 PUSH1 0x20 DUP3 ADD SWAP1 POP DUP2 DUP2 SUB PUSH0 DUP4 ADD MSTORE PUSH2 0x2573 DUP2 PUSH2 0x253A JUMP JUMPDEST SWAP1 POP SWAP2 SWAP1 POP JUMP JUMPDEST PUSH0 DUP2 SWAP1 POP SWAP3 SWAP2 POP POP JUMP JUMPDEST PUSH32 0x54686973206576656E74206973206E6F7420617661696C61626C6520746F2061 PUSH0 DUP3 ADD MSTORE PUSH32 0x6E796F6E6520756E646572200000000000000000000000000000000000000000 PUSH1 0x20 DUP3 ADD MSTORE POP JUMP JUMPDEST PUSH0 PUSH2 0x25DE PUSH1 0x2C DUP4 PUSH2 0x257A JUMP JUMPDEST SWAP2 POP PUSH2 0x25E9 DUP3 PUSH2 0x2584 JUMP JUMPDEST PUSH1 0x2C DUP3 ADD SWAP1 POP SWAP2 SWAP1 POP JUMP JUMPDEST PUSH0 PUSH2 0x25FE DUP3 PUSH2 0x18B4 JUMP JUMPDEST PUSH2 0x2608 DUP2 DUP6 PUSH2 0x257A JUMP JUMPDEST SWAP4 POP PUSH2 0x2618 DUP2 DUP6 PUSH1 0x20 DUP7 ADD PUSH2 0x18CE JUMP JUMPDEST DUP1 DUP5 ADD SWAP2 POP POP SWAP3 SWAP2 POP POP JUMP JUMPDEST PUSH0 PUSH2 0x262E DUP3 PUSH2 0x25D2 JUMP JUMPDEST SWAP2 POP PUSH2 0x263A DUP3 DUP5 PUSH2 0x25F4 JUMP JUMPDEST SWAP2 POP DUP2 SWAP1 POP SWAP3 SWAP2 POP POP JUMP JUMPDEST PUSH0 PUSH1 0x20 DUP3 ADD SWAP1 POP DUP2 DUP2 SUB PUSH0 DUP4 ADD MSTORE PUSH2 0x265D DUP2 DUP5 PUSH2 0x18EC JUMP JUMPDEST SWAP1 POP SWAP3 SWAP2 POP POP JUMP JUMPDEST PUSH32 0x556E726567697374657265642075736572000000000000000000000000000000 PUSH0 DUP3 ADD MSTORE POP JUMP JUMPDEST PUSH0 PUSH2 0x2699 PUSH1 0x11 DUP4 PUSH2 0x18BE JUMP JUMPDEST SWAP2 POP PUSH2 0x26A4 DUP3 PUSH2 0x2665 JUMP JUMPDEST PUSH1 0x20 DUP3 ADD SWAP1 POP SWAP2 SWAP1 POP JUMP JUMPDEST PUSH0 PUSH1 0x20 DUP3 ADD SWAP1 POP DUP2 DUP2 SUB PUSH0 DUP4 ADD MSTORE PUSH2 0x26C6 DUP2 PUSH2 0x268D JUMP JUMPDEST SWAP1 POP SWAP2 SWAP1 POP JUMP JUMPDEST PUSH32 0x55736572206973206E6F74207965742072656769737465726564000000000000 PUSH0 DUP3 ADD MSTORE POP JUMP JUMPDEST PUSH0 PUSH2 0x2701 PUSH1 0x1A DUP4 PUSH2 0x18BE JUMP JUMPDEST SWAP2 POP PUSH2 0x270C DUP3 PUSH2 0x26CD JUMP JUMPDEST PUSH1 0x20 DUP3 ADD SWAP1 POP SWAP2 SWAP1 POP JUMP JUMPDEST PUSH0 PUSH1 0x20 DUP3 ADD SWAP1 POP DUP2 DUP2 SUB PUSH0 DUP4 ADD MSTORE PUSH2 0x272E DUP2 PUSH2 0x26F5 JUMP JUMPDEST SWAP1 POP SWAP2 SWAP1 POP JUMP JUMPDEST PUSH0 DUP2 SLOAD SWAP1 POP PUSH2 0x2743 DUP2 PUSH2 0x2083 JUMP JUMPDEST SWAP1 POP SWAP2 SWAP1 POP JUMP JUMPDEST DUP2 DUP2 SUB PUSH2 0x2758 JUMPI POP POP PUSH2 0x282D JUMP JUMPDEST PUSH2 0x2761 DUP3 PUSH2 0x2735 JUMP JUMPDEST PUSH8 0xFFFFFFFFFFFFFFFF DUP2 GT ISZERO PUSH2 0x277A JUMPI PUSH2 0x2779 PUSH2 0x1B20 JUMP JUMPDEST JUMPDEST PUSH2 0x2784 DUP3 SLOAD PUSH2 0x2083 JUMP JUMPDEST PUSH2 0x278F DUP3 DUP3 DUP6 PUSH2 0x2297 JUMP JUMPDEST PUSH0 PUSH1 0x1F DUP4 GT PUSH1 0x1 DUP2 EQ PUSH2 0x27BC JUMPI PUSH0 DUP5 ISZERO PUSH2 0x27AA JUMPI DUP3 DUP8 ADD SLOAD SWAP1 POP JUMPDEST PUSH2 0x27B4 DUP6 DUP3 PUSH2 0x2305 JUMP JUMPDEST DUP7 SSTORE POP PUSH2 0x2826 JUMP JUMPDEST PUSH1 0x1F NOT DUP5 AND PUSH2 0x27CA DUP8 PUSH2 0x2183 JUMP JUMPDEST SWAP7 POP PUSH2 0x27D5 DUP7 PUSH2 0x2183 JUMP JUMPDEST PUSH0 JUMPDEST DUP3 DUP2 LT ISZERO PUSH2 0x27FC JUMPI DUP5 DUP10 ADD SLOAD DUP3 SSTORE PUSH1 0x1 DUP3 ADD SWAP2 POP PUSH1 0x1 DUP6 ADD SWAP5 POP PUSH1 0x20 DUP2 ADD SWAP1 POP PUSH2 0x27D7 JUMP JUMPDEST DUP7 DUP4 LT ISZERO PUSH2 0x2819 JUMPI DUP5 DUP10 ADD SLOAD PUSH2 0x2815 PUSH1 0x1F DUP10 AND DUP3 PUSH2 0x22E9 JUMP JUMPDEST DUP4 SSTORE POP JUMPDEST PUSH1 0x1 PUSH1 0x2 DUP9 MUL ADD DUP9 SSTORE POP POP POP JUMPDEST POP POP POP POP POP POP JUMPDEST JUMP JUMPDEST PUSH32 0x4E487B7100000000000000000000000000000000000000000000000000000000 PUSH0 MSTORE PUSH1 0x11 PUSH1 0x4 MSTORE PUSH1 0x24 PUSH0 REVERT JUMPDEST PUSH0 PUSH2 0x2866 DUP3 PUSH2 0x181D JUMP JUMPDEST SWAP2 POP PUSH32 0x7FFFFFFFFFFFFFFFFFFFFFFFFFFFFFFFFFFFFFFFFFFFFFFFFFFFFFFFFFFFFFFF DUP3 SUB PUSH2 0x2898 JUMPI PUSH2 0x2897 PUSH2 0x282F JUMP JUMPDEST JUMPDEST PUSH1 0x1 DUP3 ADD SWAP1 POP SWAP2 SWAP1 POP JUMP JUMPDEST PUSH32 0x5573657220616C72656164792065786973747300000000000000000000000000 PUSH0 DUP3 ADD MSTORE POP JUMP JUMPDEST PUSH0 PUSH2 0x28D7 PUSH1 0x13 DUP4 PUSH2 0x18BE JUMP JUMPDEST SWAP2 POP PUSH2 0x28E2 DUP3 PUSH2 0x28A3 JUMP JUMPDEST PUSH1 0x20 DUP3 ADD SWAP1 POP SWAP2 SWAP1 POP JUMP JUMPDEST PUSH0 PUSH1 0x20 DUP3 ADD SWAP1 POP DUP2 DUP2 SUB PUSH0 DUP4 ADD MSTORE PUSH2 0x2904 DUP2 PUSH2 0x28CB JUMP JUMPDEST SWAP1 POP SWAP2 SWAP1 POP JUMP JUMPDEST PUSH0 PUSH2 0x2915 DUP3 PUSH2 0x1924 JUMP JUMPDEST SWAP2 POP PUSH2 0x2920 DUP4 PUSH2 0x1924 JUMP JUMPDEST SWAP3 POP DUP3 DUP3 SUB SWAP1 POP DUP2 DUP2 GT ISZERO PUSH2 0x2938 JUMPI PUSH2 0x2937 PUSH2 0x282F JUMP JUMPDEST JUMPDEST SWAP3 SWAP2 POP POP JUMP JUMPDEST PUSH32 0x4E487B7100000000000000000000000000000000000000000000000000000000 PUSH0 MSTORE PUSH1 0x12 PUSH1 0x4 MSTORE PUSH1 0x24 PUSH0 REVERT INVALID LOG2 PUSH5 0x6970667358 0x22 SLT KECCAK256 ADD LOG4 0x2F MCOPY 0xCB CALLER 0xEC 0x2C RETURNDATACOPY 0xEA DUP11 SWAP4 EQ 0xE PUSH27 0x887103769F94B07AFA3ED27F181A0B899E64736F6C634300081A00 CALLER "
		},
		"gasEstimates": {
			"creation": {
				"codeDepositCost": "2131400",
				"executionCost": "7275",
				"totalCost": "2138675"
			},
			"external": {
				"addEvent(string,string,string,string,uint256,uint256,uint64,bool)": "infinite",
				"currentEvent(int256)": "infinite",
				"editEvent(int256,string,string,string,string,uint256,uint256,uint64,bool)": "infinite",
				"getNumberOfEvents()": "2433",
				"getRemainingSeats(int256)": "infinite",
				"getUserBalance()": "3003",
				"getUserInfo()": "infinite",
				"getUserInfo(address)": "infinite",
				"isUserJoined(address,int256)": "infinite",
				"isUserJoined(int256)": "infinite",
				"joinEvent(int256)": "infinite",
				"registerUser(string,uint256)": "infinite"
			}
		},
		"methodIdentifiers": {
			"addEvent(string,string,string,string,uint256,uint256,uint64,bool)": "5f8e7c2e",
			"currentEvent(int256)": "0b925ac1",
			"editEvent(int256,string,string,string,string,uint256,uint256,uint64,bool)": "0e3ed244",
			"getNumberOfEvents()": "09ac3bb5",
			"getRemainingSeats(int256)": "f5d3fe64",
			"getUserBalance()": "b7013dc1",
			"getUserInfo()": "5d8d1585",
			"getUserInfo(address)": "6386c1c7",
			"isUserJoined(address,int256)": "82728252",
			"isUserJoined(int256)": "1ab49d41",
			"joinEvent(int256)": "2605c660",
			"registerUser(string,uint256)": "d3951002"
		}
	},
	"abi": [
		{
			"inputs": [],
			"stateMutability": "nonpayable",
			"type": "constructor"
		},
		{
			"inputs": [
				{
					"internalType": "string",
					"name": "eventName",
					"type": "string"
				},
				{
					"internalType": "string",
					"name": "description",
					"type": "string"
				},
				{
					"internalType": "string",
					"name": "date",
					"type": "string"
				},
				{
					"internalType": "string",
					"name": "venue",
					"type": "string"
				},
				{
					"internalType": "uint256",
					"name": "maxParticipants",
					"type": "uint256"
				},
				{
					"internalType": "uint256",
					"name": "ageLimit",
					"type": "uint256"
				},
				{
					"internalType": "uint64",
					"name": "fee",
					"type": "uint64"
				},
				{
					"internalType": "bool",
					"name": "isVisible",
					"type": "bool"
				}
			],
			"name": "addEvent",
			"outputs": [],
			"stateMutability": "nonpayable",
			"type": "function"
		},
		{
			"inputs": [
				{
					"internalType": "int256",
					"name": "",
					"type": "int256"
				}
			],
			"name": "currentEvent",
			"outputs": [
				{
					"internalType": "int256",
					"name": "eventID",
					"type": "int256"
				},
				{
					"internalType": "string",
					"name": "eventName",
					"type": "string"
				},
				{
					"internalType": "string",
					"name": "description",
					"type": "string"
				},
				{
					"internalType": "string",
					"name": "date",
					"type": "string"
				},
				{
					"internalType": "string",
					"name": "venue",
					"type": "string"
				},
				{
					"internalType": "uint256",
					"name": "maxParticipants",
					"type": "uint256"
				},
				{
					"internalType": "uint256",
					"name": "ageLimit",
					"type": "uint256"
				},
				{
					"internalType": "uint64",
					"name": "fee",
					"type": "uint64"
				},
				{
					"components": [
						{
							"internalType": "address",
							"name": "userAddress",
							"type": "address"
						},
						{
							"internalType": "string",
							"name": "userName",
							"type": "string"
						},
						{
							"internalType": "uint256",
							"name": "age",
							"type": "uint256"
						}
					],
					"internalType": "struct EventPlatform.User",
					"name": "admin",
					"type": "tuple"
				},
				{
					"internalType": "bool",
					"name": "isVisible",
					"type": "bool"
				}
			],
			"stateMutability": "view",
			"type": "function"
		},
		{
			"inputs": [
				{
					"internalType": "int256",
					"name": "eventID",
					"type": "int256"
				},
				{
					"internalType": "string",
					"name": "eventName",
					"type": "string"
				},
				{
					"internalType": "string",
					"name": "description",
					"type": "string"
				},
				{
					"internalType": "string",
					"name": "date",
					"type": "string"
				},
				{
					"internalType": "string",
					"name": "venue",
					"type": "string"
				},
				{
					"internalType": "uint256",
					"name": "maxParticipants",
					"type": "uint256"
				},
				{
					"internalType": "uint256",
					"name": "ageLimit",
					"type": "uint256"
				},
				{
					"internalType": "uint64",
					"name": "fee",
					"type": "uint64"
				},
				{
					"internalType": "bool",
					"name": "isVisible",
					"type": "bool"
				}
			],
			"name": "editEvent",
			"outputs": [],
			"stateMutability": "nonpayable",
			"type": "function"
		},
		{
			"inputs": [],
			"name": "getNumberOfEvents",
			"outputs": [
				{
					"internalType": "int256",
					"name": "",
					"type": "int256"
				}
			],
			"stateMutability": "view",
			"type": "function"
		},
		{
			"inputs": [
				{
					"internalType": "int256",
					"name": "eventID",
					"type": "int256"
				}
			],
			"name": "getRemainingSeats",
			"outputs": [
				{
					"internalType": "uint256",
					"name": "",
					"type": "uint256"
				}
			],
			"stateMutability": "view",
			"type": "function"
		},
		{
			"inputs": [],
			"name": "getUserBalance",
			"outputs": [
				{
					"internalType": "uint256",
					"name": "",
					"type": "uint256"
				}
			],
			"stateMutability": "view",
			"type": "function"
		},
		{
			"inputs": [],
			"name": "getUserInfo",
			"outputs": [
				{
					"components": [
						{
							"internalType": "address",
							"name": "userAddress",
							"type": "address"
						},
						{
							"internalType": "string",
							"name": "userName",
							"type": "string"
						},
						{
							"internalType": "uint256",
							"name": "age",
							"type": "uint256"
						}
					],
					"internalType": "struct EventPlatform.User",
					"name": "",
					"type": "tuple"
				}
			],
			"stateMutability": "view",
			"type": "function"
		},
		{
			"inputs": [
				{
					"internalType": "address",
					"name": "userAddress",
					"type": "address"
				}
			],
			"name": "getUserInfo",
			"outputs": [
				{
					"components": [
						{
							"internalType": "address",
							"name": "userAddress",
							"type": "address"
						},
						{
							"internalType": "string",
							"name": "userName",
							"type": "string"
						},
						{
							"internalType": "uint256",
							"name": "age",
							"type": "uint256"
						}
					],
					"internalType": "struct EventPlatform.User",
					"name": "",
					"type": "tuple"
				}
			],
			"stateMutability": "view",
			"type": "function"
		},
		{
			"inputs": [
				{
					"internalType": "int256",
					"name": "eventID",
					"type": "int256"
				}
			],
			"name": "isUserJoined",
			"outputs": [
				{
					"internalType": "bool",
					"name": "",
					"type": "bool"
				}
			],
			"stateMutability": "view",
			"type": "function"
		},
		{
			"inputs": [
				{
					"internalType": "address",
					"name": "participant",
					"type": "address"
				},
				{
					"internalType": "int256",
					"name": "eventID",
					"type": "int256"
				}
			],
			"name": "isUserJoined",
			"outputs": [
				{
					"internalType": "bool",
					"name": "",
					"type": "bool"
				}
			],
			"stateMutability": "view",
			"type": "function"
		},
		{
			"inputs": [
				{
					"internalType": "int256",
					"name": "eventID",
					"type": "int256"
				}
			],
			"name": "joinEvent",
			"outputs": [],
			"stateMutability": "nonpayable",
			"type": "function"
		},
		{
			"inputs": [
				{
					"internalType": "string",
					"name": "name",
					"type": "string"
				},
				{
					"internalType": "uint256",
					"name": "age",
					"type": "uint256"
				}
			],
			"name": "registerUser",
			"outputs": [],
			"stateMutability": "nonpayable",
			"type": "function"
		}
	]
}