{
	"contracts/project.sol": {
		"EventPlatform": {
			"abi": [
				{
					"inputs": [],
					"stateMutability": "nonpayable",
					"type": "constructor"
				},
				{
					"inputs": [
						{
							"internalType": "string",
							"name": "eventName",
							"type": "string"
						},
						{
							"internalType": "string",
							"name": "description",
							"type": "string"
						},
						{
							"internalType": "string",
							"name": "date",
							"type": "string"
						},
						{
							"internalType": "string",
							"name": "venue",
							"type": "string"
						},
						{
							"internalType": "uint256",
							"name": "maxParticipants",
							"type": "uint256"
						},
						{
							"internalType": "uint256",
							"name": "ageLimit",
							"type": "uint256"
						},
						{
							"internalType": "uint64",
							"name": "fee",
							"type": "uint64"
						},
						{
							"internalType": "bool",
							"name": "isVisible",
							"type": "bool"
						}
					],
					"name": "addEvent",
					"outputs": [],
					"stateMutability": "nonpayable",
					"type": "function"
				},
				{
					"inputs": [
						{
							"internalType": "int256",
							"name": "",
							"type": "int256"
						}
					],
					"name": "currentEvent",
					"outputs": [
						{
							"internalType": "int256",
							"name": "eventID",
							"type": "int256"
						},
						{
							"internalType": "string",
							"name": "eventName",
							"type": "string"
						},
						{
							"internalType": "string",
							"name": "description",
							"type": "string"
						},
						{
							"internalType": "string",
							"name": "date",
							"type": "string"
						},
						{
							"internalType": "string",
							"name": "venue",
							"type": "string"
						},
						{
							"internalType": "uint256",
							"name": "maxParticipants",
							"type": "uint256"
						},
						{
							"internalType": "uint256",
							"name": "ageLimit",
							"type": "uint256"
						},
						{
							"internalType": "uint64",
							"name": "fee",
							"type": "uint64"
						},
						{
							"components": [
								{
									"internalType": "address",
									"name": "userAddress",
									"type": "address"
								},
								{
									"internalType": "string",
									"name": "userName",
									"type": "string"
								},
								{
									"internalType": "uint256",
									"name": "age",
									"type": "uint256"
								}
							],
							"internalType": "struct EventPlatform.User",
							"name": "admin",
							"type": "tuple"
						},
						{
							"internalType": "bool",
							"name": "isVisible",
							"type": "bool"
						}
					],
					"stateMutability": "view",
					"type": "function"
				},
				{
					"inputs": [
						{
							"internalType": "int256",
							"name": "eventID",
							"type": "int256"
						},
						{
							"internalType": "string",
							"name": "eventName",
							"type": "string"
						},
						{
							"internalType": "string",
							"name": "description",
							"type": "string"
						},
						{
							"internalType": "string",
							"name": "date",
							"type": "string"
						},
						{
							"internalType": "string",
							"name": "venue",
							"type": "string"
						},
						{
							"internalType": "uint256",
							"name": "maxParticipants",
							"type": "uint256"
						},
						{
							"internalType": "uint256",
							"name": "ageLimit",
							"type": "uint256"
						},
						{
							"internalType": "uint64",
							"name": "fee",
							"type": "uint64"
						},
						{
							"internalType": "bool",
							"name": "isVisible",
							"type": "bool"
						}
					],
					"name": "editEvent",
					"outputs": [],
					"stateMutability": "nonpayable",
					"type": "function"
				},
				{
					"inputs": [],
					"name": "getNumberOfEvents",
					"outputs": [
						{
							"internalType": "int256",
							"name": "",
							"type": "int256"
						}
					],
					"stateMutability": "view",
					"type": "function"
				},
				{
					"inputs": [
						{
							"internalType": "int256",
							"name": "eventID",
							"type": "int256"
						}
					],
					"name": "getRemainingSeats",
					"outputs": [
						{
							"internalType": "uint256",
							"name": "",
							"type": "uint256"
						}
					],
					"stateMutability": "view",
					"type": "function"
				},
				{
					"inputs": [],
					"name": "getUserBalance",
					"outputs": [
						{
							"internalType": "uint256",
							"name": "",
							"type": "uint256"
						}
					],
					"stateMutability": "view",
					"type": "function"
				},
				{
					"inputs": [],
					"name": "getUserInfo",
					"outputs": [
						{
							"components": [
								{
									"internalType": "address",
									"name": "userAddress",
									"type": "address"
								},
								{
									"internalType": "string",
									"name": "userName",
									"type": "string"
								},
								{
									"internalType": "uint256",
									"name": "age",
									"type": "uint256"
								}
							],
							"internalType": "struct EventPlatform.User",
							"name": "",
							"type": "tuple"
						}
					],
					"stateMutability": "view",
					"type": "function"
				},
				{
					"inputs": [
						{
							"internalType": "address",
							"name": "userAddress",
							"type": "address"
						}
					],
					"name": "getUserInfo",
					"outputs": [
						{
							"components": [
								{
									"internalType": "address",
									"name": "userAddress",
									"type": "address"
								},
								{
									"internalType": "string",
									"name": "userName",
									"type": "string"
								},
								{
									"internalType": "uint256",
									"name": "age",
									"type": "uint256"
								}
							],
							"internalType": "struct EventPlatform.User",
							"name": "",
							"type": "tuple"
						}
					],
					"stateMutability": "view",
					"type": "function"
				},
				{
					"inputs": [
						{
							"internalType": "int256",
							"name": "eventID",
							"type": "int256"
						}
					],
					"name": "isUserJoined",
					"outputs": [
						{
							"internalType": "bool",
							"name": "",
							"type": "bool"
						}
					],
					"stateMutability": "view",
					"type": "function"
				},
				{
					"inputs": [
						{
							"internalType": "address",
							"name": "participant",
							"type": "address"
						},
						{
							"internalType": "int256",
							"name": "eventID",
							"type": "int256"
						}
					],
					"name": "isUserJoined",
					"outputs": [
						{
							"internalType": "bool",
							"name": "",
							"type": "bool"
						}
					],
					"stateMutability": "view",
					"type": "function"
				},
				{
					"inputs": [
						{
							"internalType": "int256",
							"name": "eventID",
							"type": "int256"
						}
					],
					"name": "joinEvent",
					"outputs": [],
					"stateMutability": "nonpayable",
					"type": "function"
				},
				{
					"inputs": [
						{
							"internalType": "string",
							"name": "name",
							"type": "string"
						},
						{
							"internalType": "uint256",
							"name": "age",
							"type": "uint256"
						}
					],
					"name": "registerUser",
					"outputs": [],
					"stateMutability": "nonpayable",
					"type": "function"
				}
			],
			"devdoc": {
				"kind": "dev",
				"methods": {},
				"version": 1
			},
			"evm": {
				"assembly": "    /* \"contracts/project.sol\":282:5109  contract EventPlatform {... */\n  mstore(0x40, 0x80)\n    /* \"contracts/project.sol\":335:336  0 */\n  0x00\n    /* \"contracts/project.sol\":314:336  int currentEventID = 0 */\n  dup1\n  sstore\n    /* \"contracts/project.sol\":856:877  constructor(){... */\n  callvalue\n  dup1\n  iszero\n  tag_1\n  jumpi\n  0x00\n  dup1\n  revert\ntag_1:\n  pop\n    /* \"contracts/project.sol\":282:5109  contract EventPlatform {... */\n  dataSize(sub_0)\n  dup1\n  dataOffset(sub_0)\n  0x00\n  codecopy\n  0x00\n  return\nstop\n\nsub_0: assembly {\n        /* \"contracts/project.sol\":282:5109  contract EventPlatform {... */\n      mstore(0x40, 0x80)\n      callvalue\n      dup1\n      iszero\n      tag_1\n      jumpi\n      0x00\n      dup1\n      revert\n    tag_1:\n      pop\n      jumpi(tag_2, lt(calldatasize, 0x04))\n      shr(0xe0, calldataload(0x00))\n      dup1\n      0x5f8e7c2e\n      gt\n      tag_15\n      jumpi\n      dup1\n      0x5f8e7c2e\n      eq\n      tag_9\n      jumpi\n      dup1\n      0x6386c1c7\n      eq\n      tag_10\n      jumpi\n      dup1\n      0x82728252\n      eq\n      tag_11\n      jumpi\n      dup1\n      0xb7013dc1\n      eq\n      tag_12\n      jumpi\n      dup1\n      0xd3951002\n      eq\n      tag_13\n      jumpi\n      dup1\n      0xf5d3fe64\n      eq\n      tag_14\n      jumpi\n      jump(tag_2)\n    tag_15:\n      dup1\n      0x09ac3bb5\n      eq\n      tag_3\n      jumpi\n      dup1\n      0x0b925ac1\n      eq\n      tag_4\n      jumpi\n      dup1\n      0x0e3ed244\n      eq\n      tag_5\n      jumpi\n      dup1\n      0x1ab49d41\n      eq\n      tag_6\n      jumpi\n      dup1\n      0x2605c660\n      eq\n      tag_7\n      jumpi\n      dup1\n      0x5d8d1585\n      eq\n      tag_8\n      jumpi\n    tag_2:\n      0x00\n      dup1\n      revert\n        /* \"contracts/project.sol\":4829:4924  function getNumberOfEvents() public view returns (int) {... */\n    tag_3:\n      tag_16\n      tag_17\n      jump\t// in\n    tag_16:\n      mload(0x40)\n      tag_18\n      swap2\n      swap1\n      tag_19\n      jump\t// in\n    tag_18:\n      mload(0x40)\n      dup1\n      swap2\n      sub\n      swap1\n      return\n        /* \"contracts/project.sol\":343:384  mapping(int => Event) public currentEvent */\n    tag_4:\n      tag_20\n      0x04\n      dup1\n      calldatasize\n      sub\n      dup2\n      add\n      swap1\n      tag_21\n      swap2\n      swap1\n      tag_22\n      jump\t// in\n    tag_21:\n      tag_23\n      jump\t// in\n    tag_20:\n      mload(0x40)\n      tag_24\n      swap11\n      swap10\n      swap9\n      swap8\n      swap7\n      swap6\n      swap5\n      swap4\n      swap3\n      swap2\n      swap1\n      tag_25\n      jump\t// in\n    tag_24:\n      mload(0x40)\n      dup1\n      swap2\n      sub\n      swap1\n      return\n        /* \"contracts/project.sol\":3047:3858  function editEvent(int eventID, string memory eventName, string memory description, string memory date, string memory venue, uint maxParticipants, uint ageLimit, uint64 fee, bool isVisible) public {... */\n    tag_5:\n      tag_26\n      0x04\n      dup1\n      calldatasize\n      sub\n      dup2\n      add\n      swap1\n      tag_27\n      swap2\n      swap1\n      tag_28\n      jump\t// in\n    tag_27:\n      tag_29\n      jump\t// in\n    tag_26:\n      stop\n        /* \"contracts/project.sol\":1590:1856  function isUserJoined(int eventID) public view returns (bool) {... */\n    tag_6:\n      tag_30\n      0x04\n      dup1\n      calldatasize\n      sub\n      dup2\n      add\n      swap1\n      tag_31\n      swap2\n      swap1\n      tag_22\n      jump\t// in\n    tag_31:\n      tag_32\n      jump\t// in\n    tag_30:\n      mload(0x40)\n      tag_33\n      swap2\n      swap1\n      tag_34\n      jump\t// in\n    tag_33:\n      mload(0x40)\n      dup1\n      swap2\n      sub\n      swap1\n      return\n        /* \"contracts/project.sol\":3923:4821  function joinEvent(int eventID) public {... */\n    tag_7:\n      tag_35\n      0x04\n      dup1\n      calldatasize\n      sub\n      dup2\n      add\n      swap1\n      tag_36\n      swap2\n      swap1\n      tag_22\n      jump\t// in\n    tag_36:\n      tag_37\n      jump\t// in\n    tag_35:\n      stop\n        /* \"contracts/project.sol\":1151:1352  function getUserInfo() public view returns (User memory){... */\n    tag_8:\n      tag_38\n      tag_39\n      jump\t// in\n    tag_38:\n      mload(0x40)\n      tag_40\n      swap2\n      swap1\n      tag_41\n      jump\t// in\n    tag_40:\n      mload(0x40)\n      dup1\n      swap2\n      sub\n      swap1\n      return\n        /* \"contracts/project.sol\":2300:3039  function addEvent(string memory eventName, string memory description, string memory date, string memory venue, uint maxParticipants, uint ageLimit, uint64 fee, bool isVisible) public {... */\n    tag_9:\n      tag_42\n      0x04\n      dup1\n      calldatasize\n      sub\n      dup2\n      add\n      swap1\n      tag_43\n      swap2\n      swap1\n      tag_44\n      jump\t// in\n    tag_43:\n      tag_45\n      jump\t// in\n    tag_42:\n      stop\n        /* \"contracts/project.sol\":1360:1582  function getUserInfo(address userAddress) public view returns (User memory){... */\n    tag_10:\n      tag_46\n      0x04\n      dup1\n      calldatasize\n      sub\n      dup2\n      add\n      swap1\n      tag_47\n      swap2\n      swap1\n      tag_48\n      jump\t// in\n    tag_47:\n      tag_49\n      jump\t// in\n    tag_46:\n      mload(0x40)\n      tag_50\n      swap2\n      swap1\n      tag_41\n      jump\t// in\n    tag_50:\n      mload(0x40)\n      dup1\n      swap2\n      sub\n      swap1\n      return\n        /* \"contracts/project.sol\":1865:2153  function isUserJoined(address participant, int eventID) public view returns (bool) {... */\n    tag_11:\n      tag_51\n      0x04\n      dup1\n      calldatasize\n      sub\n      dup2\n      add\n      swap1\n      tag_52\n      swap2\n      swap1\n      tag_53\n      jump\t// in\n    tag_52:\n      tag_54\n      jump\t// in\n    tag_51:\n      mload(0x40)\n      tag_55\n      swap2\n      swap1\n      tag_34\n      jump\t// in\n    tag_55:\n      mload(0x40)\n      dup1\n      swap2\n      sub\n      swap1\n      return\n        /* \"contracts/project.sol\":2161:2260  function getUserBalance() public view returns (uint256){... */\n    tag_12:\n      tag_56\n      tag_57\n      jump\t// in\n    tag_56:\n      mload(0x40)\n      tag_58\n      swap2\n      swap1\n      tag_59\n      jump\t// in\n    tag_58:\n      mload(0x40)\n      dup1\n      swap2\n      sub\n      swap1\n      return\n        /* \"contracts/project.sol\":916:1143  function registerUser(string memory name, uint age) public {... */\n    tag_13:\n      tag_60\n      0x04\n      dup1\n      calldatasize\n      sub\n      dup2\n      add\n      swap1\n      tag_61\n      swap2\n      swap1\n      tag_62\n      jump\t// in\n    tag_61:\n      tag_63\n      jump\t// in\n    tag_60:\n      stop\n        /* \"contracts/project.sol\":4932:5106  function getRemainingSeats(int eventID) public view returns (uint) {... */\n    tag_14:\n      tag_64\n      0x04\n      dup1\n      calldatasize\n      sub\n      dup2\n      add\n      swap1\n      tag_65\n      swap2\n      swap1\n      tag_22\n      jump\t// in\n    tag_65:\n      tag_66\n      jump\t// in\n    tag_64:\n      mload(0x40)\n      tag_67\n      swap2\n      swap1\n      tag_59\n      jump\t// in\n    tag_67:\n      mload(0x40)\n      dup1\n      swap2\n      sub\n      swap1\n      return\n        /* \"contracts/project.sol\":4829:4924  function getNumberOfEvents() public view returns (int) {... */\n    tag_17:\n        /* \"contracts/project.sol\":4879:4882  int */\n      0x00\n        /* \"contracts/project.sol\":4902:4916  currentEventID */\n      dup1\n      sload\n        /* \"contracts/project.sol\":4895:4916  return currentEventID */\n      swap1\n      pop\n        /* \"contracts/project.sol\":4829:4924  function getNumberOfEvents() public view returns (int) {... */\n      swap1\n      jump\t// out\n        /* \"contracts/project.sol\":343:384  mapping(int => Event) public currentEvent */\n    tag_23:\n      mstore(0x20, 0x01)\n      dup1\n      0x00\n      mstore\n      keccak256(0x00, 0x40)\n      0x00\n      swap2\n      pop\n      swap1\n      pop\n      dup1\n      0x00\n      add\n      sload\n      swap1\n      dup1\n      0x01\n      add\n      dup1\n      sload\n      tag_69\n      swap1\n      tag_70\n      jump\t// in\n    tag_69:\n      dup1\n      0x1f\n      add\n      0x20\n      dup1\n      swap2\n      div\n      mul\n      0x20\n      add\n      mload(0x40)\n      swap1\n      dup2\n      add\n      0x40\n      mstore\n      dup1\n      swap3\n      swap2\n      swap1\n      dup2\n      dup2\n      mstore\n      0x20\n      add\n      dup3\n      dup1\n      sload\n      tag_71\n      swap1\n      tag_70\n      jump\t// in\n    tag_71:\n      dup1\n      iszero\n      tag_72\n      jumpi\n      dup1\n      0x1f\n      lt\n      tag_73\n      jumpi\n      0x0100\n      dup1\n      dup4\n      sload\n      div\n      mul\n      dup4\n      mstore\n      swap2\n      0x20\n      add\n      swap2\n      jump(tag_72)\n    tag_73:\n      dup3\n      add\n      swap2\n      swap1\n      0x00\n      mstore\n      keccak256(0x00, 0x20)\n      swap1\n    tag_74:\n      dup2\n      sload\n      dup2\n      mstore\n      swap1\n      0x01\n      add\n      swap1\n      0x20\n      add\n      dup1\n      dup4\n      gt\n      tag_74\n      jumpi\n      dup3\n      swap1\n      sub\n      0x1f\n      and\n      dup3\n      add\n      swap2\n    tag_72:\n      pop\n      pop\n      pop\n      pop\n      pop\n      swap1\n      dup1\n      0x02\n      add\n      dup1\n      sload\n      tag_75\n      swap1\n      tag_70\n      jump\t// in\n    tag_75:\n      dup1\n      0x1f\n      add\n      0x20\n      dup1\n      swap2\n      div\n      mul\n      0x20\n      add\n      mload(0x40)\n      swap1\n      dup2\n      add\n      0x40\n      mstore\n      dup1\n      swap3\n      swap2\n      swap1\n      dup2\n      dup2\n      mstore\n      0x20\n      add\n      dup3\n      dup1\n      sload\n      tag_76\n      swap1\n      tag_70\n      jump\t// in\n    tag_76:\n      dup1\n      iszero\n      tag_77\n      jumpi\n      dup1\n      0x1f\n      lt\n      tag_78\n      jumpi\n      0x0100\n      dup1\n      dup4\n      sload\n      div\n      mul\n      dup4\n      mstore\n      swap2\n      0x20\n      add\n      swap2\n      jump(tag_77)\n    tag_78:\n      dup3\n      add\n      swap2\n      swap1\n      0x00\n      mstore\n      keccak256(0x00, 0x20)\n      swap1\n    tag_79:\n      dup2\n      sload\n      dup2\n      mstore\n      swap1\n      0x01\n      add\n      swap1\n      0x20\n      add\n      dup1\n      dup4\n      gt\n      tag_79\n      jumpi\n      dup3\n      swap1\n      sub\n      0x1f\n      and\n      dup3\n      add\n      swap2\n    tag_77:\n      pop\n      pop\n      pop\n      pop\n      pop\n      swap1\n      dup1\n      0x03\n      add\n      dup1\n      sload\n      tag_80\n      swap1\n      tag_70\n      jump\t// in\n    tag_80:\n      dup1\n      0x1f\n      add\n      0x20\n      dup1\n      swap2\n      div\n      mul\n      0x20\n      add\n      mload(0x40)\n      swap1\n      dup2\n      add\n      0x40\n      mstore\n      dup1\n      swap3\n      swap2\n      swap1\n      dup2\n      dup2\n      mstore\n      0x20\n      add\n      dup3\n      dup1\n      sload\n      tag_81\n      swap1\n      tag_70\n      jump\t// in\n    tag_81:\n      dup1\n      iszero\n      tag_82\n      jumpi\n      dup1\n      0x1f\n      lt\n      tag_83\n      jumpi\n      0x0100\n      dup1\n      dup4\n      sload\n      div\n      mul\n      dup4\n      mstore\n      swap2\n      0x20\n      add\n      swap2\n      jump(tag_82)\n    tag_83:\n      dup3\n      add\n      swap2\n      swap1\n      0x00\n      mstore\n      keccak256(0x00, 0x20)\n      swap1\n    tag_84:\n      dup2\n      sload\n      dup2\n      mstore\n      swap1\n      0x01\n      add\n      swap1\n      0x20\n      add\n      dup1\n      dup4\n      gt\n      tag_84\n      jumpi\n      dup3\n      swap1\n      sub\n      0x1f\n      and\n      dup3\n      add\n      swap2\n    tag_82:\n      pop\n      pop\n      pop\n      pop\n      pop\n      swap1\n      dup1\n      0x04\n      add\n      dup1\n      sload\n      tag_85\n      swap1\n      tag_70\n      jump\t// in\n    tag_85:\n      dup1\n      0x1f\n      add\n      0x20\n      dup1\n      swap2\n      div\n      mul\n      0x20\n      add\n      mload(0x40)\n      swap1\n      dup2\n      add\n      0x40\n      mstore\n      dup1\n      swap3\n      swap2\n      swap1\n      dup2\n      dup2\n      mstore\n      0x20\n      add\n      dup3\n      dup1\n      sload\n      tag_86\n      swap1\n      tag_70\n      jump\t// in\n    tag_86:\n      dup1\n      iszero\n      tag_87\n      jumpi\n      dup1\n      0x1f\n      lt\n      tag_88\n      jumpi\n      0x0100\n      dup1\n      dup4\n      sload\n      div\n      mul\n      dup4\n      mstore\n      swap2\n      0x20\n      add\n      swap2\n      jump(tag_87)\n    tag_88:\n      dup3\n      add\n      swap2\n      swap1\n      0x00\n      mstore\n      keccak256(0x00, 0x20)\n      swap1\n    tag_89:\n      dup2\n      sload\n      dup2\n      mstore\n      swap1\n      0x01\n      add\n      swap1\n      0x20\n      add\n      dup1\n      dup4\n      gt\n      tag_89\n      jumpi\n      dup3\n      swap1\n      sub\n      0x1f\n      and\n      dup3\n      add\n      swap2\n    tag_87:\n      pop\n      pop\n      pop\n      pop\n      pop\n      swap1\n      dup1\n      0x05\n      add\n      sload\n      swap1\n      dup1\n      0x06\n      add\n      sload\n      swap1\n      dup1\n      0x07\n      add\n      0x00\n      swap1\n      sload\n      swap1\n      0x0100\n      exp\n      swap1\n      div\n      0xffffffffffffffff\n      and\n      swap1\n      dup1\n      0x08\n      add\n      mload(0x40)\n      dup1\n      0x60\n      add\n      0x40\n      mstore\n      swap1\n      dup2\n      0x00\n      dup3\n      add\n      0x00\n      swap1\n      sload\n      swap1\n      0x0100\n      exp\n      swap1\n      div\n      0xffffffffffffffffffffffffffffffffffffffff\n      and\n      0xffffffffffffffffffffffffffffffffffffffff\n      and\n      0xffffffffffffffffffffffffffffffffffffffff\n      and\n      dup2\n      mstore\n      0x20\n      add\n      0x01\n      dup3\n      add\n      dup1\n      sload\n      tag_90\n      swap1\n      tag_70\n      jump\t// in\n    tag_90:\n      dup1\n      0x1f\n      add\n      0x20\n      dup1\n      swap2\n      div\n      mul\n      0x20\n      add\n      mload(0x40)\n      swap1\n      dup2\n      add\n      0x40\n      mstore\n      dup1\n      swap3\n      swap2\n      swap1\n      dup2\n      dup2\n      mstore\n      0x20\n      add\n      dup3\n      dup1\n      sload\n      tag_91\n      swap1\n      tag_70\n      jump\t// in\n    tag_91:\n      dup1\n      iszero\n      tag_92\n      jumpi\n      dup1\n      0x1f\n      lt\n      tag_93\n      jumpi\n      0x0100\n      dup1\n      dup4\n      sload\n      div\n      mul\n      dup4\n      mstore\n      swap2\n      0x20\n      add\n      swap2\n      jump(tag_92)\n    tag_93:\n      dup3\n      add\n      swap2\n      swap1\n      0x00\n      mstore\n      keccak256(0x00, 0x20)\n      swap1\n    tag_94:\n      dup2\n      sload\n      dup2\n      mstore\n      swap1\n      0x01\n      add\n      swap1\n      0x20\n      add\n      dup1\n      dup4\n      gt\n      tag_94\n      jumpi\n      dup3\n      swap1\n      sub\n      0x1f\n      and\n      dup3\n      add\n      swap2\n    tag_92:\n      pop\n      pop\n      pop\n      pop\n      pop\n      dup2\n      mstore\n      0x20\n      add\n      0x02\n      dup3\n      add\n      sload\n      dup2\n      mstore\n      pop\n      pop\n      swap1\n      dup1\n      0x0c\n      add\n      0x00\n      swap1\n      sload\n      swap1\n      0x0100\n      exp\n      swap1\n      div\n      0xff\n      and\n      swap1\n      pop\n      dup11\n      jump\t// out\n        /* \"contracts/project.sol\":3047:3858  function editEvent(int eventID, string memory eventName, string memory description, string memory date, string memory venue, uint maxParticipants, uint ageLimit, uint64 fee, bool isVisible) public {... */\n    tag_29:\n        /* \"contracts/project.sol\":3274:3275  0 */\n      0x00\n        /* \"contracts/project.sol\":3263:3270  eventID */\n      dup10\n        /* \"contracts/project.sol\":3263:3275  eventID >= 0 */\n      slt\n      iszero\n        /* \"contracts/project.sol\":3263:3303  eventID >= 0 && eventID < currentEventID */\n      dup1\n      iszero\n      tag_96\n      jumpi\n      pop\n        /* \"contracts/project.sol\":3289:3303  currentEventID */\n      sload(0x00)\n        /* \"contracts/project.sol\":3279:3286  eventID */\n      dup10\n        /* \"contracts/project.sol\":3279:3303  eventID < currentEventID */\n      slt\n        /* \"contracts/project.sol\":3263:3303  eventID >= 0 && eventID < currentEventID */\n    tag_96:\n        /* \"contracts/project.sol\":3255:3328  require(eventID >= 0 && eventID < currentEventID, \"Event does not exist\") */\n      tag_97\n      jumpi\n      mload(0x40)\n      0x08c379a000000000000000000000000000000000000000000000000000000000\n      dup2\n      mstore\n      0x04\n      add\n      tag_98\n      swap1\n      tag_99\n      jump\t// in\n    tag_98:\n      mload(0x40)\n      dup1\n      swap2\n      sub\n      swap1\n      revert\n    tag_97:\n        /* \"contracts/project.sol\":3390:3400  msg.sender */\n      caller\n        /* \"contracts/project.sol\":3347:3400  currentEvent[eventID].admin.userAddress == msg.sender */\n      0xffffffffffffffffffffffffffffffffffffffff\n      and\n        /* \"contracts/project.sol\":3347:3359  currentEvent */\n      0x01\n        /* \"contracts/project.sol\":3347:3368  currentEvent[eventID] */\n      0x00\n        /* \"contracts/project.sol\":3360:3367  eventID */\n      dup12\n        /* \"contracts/project.sol\":3347:3368  currentEvent[eventID] */\n      dup2\n      mstore\n      0x20\n      add\n      swap1\n      dup2\n      mstore\n      0x20\n      add\n      0x00\n      keccak256\n        /* \"contracts/project.sol\":3347:3374  currentEvent[eventID].admin */\n      0x08\n      add\n        /* \"contracts/project.sol\":3347:3386  currentEvent[eventID].admin.userAddress */\n      0x00\n      add\n      0x00\n      swap1\n      sload\n      swap1\n      0x0100\n      exp\n      swap1\n      div\n      0xffffffffffffffffffffffffffffffffffffffff\n      and\n        /* \"contracts/project.sol\":3347:3400  currentEvent[eventID].admin.userAddress == msg.sender */\n      0xffffffffffffffffffffffffffffffffffffffff\n      and\n      eq\n        /* \"contracts/project.sol\":3339:3434  require(currentEvent[eventID].admin.userAddress == msg.sender, \"Only admin can edit the event\") */\n      tag_100\n      jumpi\n      mload(0x40)\n      0x08c379a000000000000000000000000000000000000000000000000000000000\n      dup2\n      mstore\n      0x04\n      add\n      tag_101\n      swap1\n      tag_102\n      jump\t// in\n    tag_101:\n      mload(0x40)\n      dup1\n      swap2\n      sub\n      swap1\n      revert\n    tag_100:\n        /* \"contracts/project.sol\":3479:3488  eventName */\n      dup8\n        /* \"contracts/project.sol\":3445:3457  currentEvent */\n      0x01\n        /* \"contracts/project.sol\":3445:3466  currentEvent[eventID] */\n      0x00\n        /* \"contracts/project.sol\":3458:3465  eventID */\n      dup12\n        /* \"contracts/project.sol\":3445:3466  currentEvent[eventID] */\n      dup2\n      mstore\n      0x20\n      add\n      swap1\n      dup2\n      mstore\n      0x20\n      add\n      0x00\n      keccak256\n        /* \"contracts/project.sol\":3445:3476  currentEvent[eventID].eventName */\n      0x01\n      add\n        /* \"contracts/project.sol\":3445:3488  currentEvent[eventID].eventName = eventName */\n      swap1\n      dup2\n      tag_103\n      swap2\n      swap1\n      tag_104\n      jump\t// in\n    tag_103:\n      pop\n        /* \"contracts/project.sol\":3535:3546  description */\n      dup7\n        /* \"contracts/project.sol\":3499:3511  currentEvent */\n      0x01\n        /* \"contracts/project.sol\":3499:3520  currentEvent[eventID] */\n      0x00\n        /* \"contracts/project.sol\":3512:3519  eventID */\n      dup12\n        /* \"contracts/project.sol\":3499:3520  currentEvent[eventID] */\n      dup2\n      mstore\n      0x20\n      add\n      swap1\n      dup2\n      mstore\n      0x20\n      add\n      0x00\n      keccak256\n        /* \"contracts/project.sol\":3499:3532  currentEvent[eventID].description */\n      0x02\n      add\n        /* \"contracts/project.sol\":3499:3546  currentEvent[eventID].description = description */\n      swap1\n      dup2\n      tag_105\n      swap2\n      swap1\n      tag_104\n      jump\t// in\n    tag_105:\n      pop\n        /* \"contracts/project.sol\":3586:3590  date */\n      dup6\n        /* \"contracts/project.sol\":3557:3569  currentEvent */\n      0x01\n        /* \"contracts/project.sol\":3557:3578  currentEvent[eventID] */\n      0x00\n        /* \"contracts/project.sol\":3570:3577  eventID */\n      dup12\n        /* \"contracts/project.sol\":3557:3578  currentEvent[eventID] */\n      dup2\n      mstore\n      0x20\n      add\n      swap1\n      dup2\n      mstore\n      0x20\n      add\n      0x00\n      keccak256\n        /* \"contracts/project.sol\":3557:3583  currentEvent[eventID].date */\n      0x03\n      add\n        /* \"contracts/project.sol\":3557:3590  currentEvent[eventID].date = date */\n      swap1\n      dup2\n      tag_106\n      swap2\n      swap1\n      tag_104\n      jump\t// in\n    tag_106:\n      pop\n        /* \"contracts/project.sol\":3631:3636  venue */\n      dup5\n        /* \"contracts/project.sol\":3601:3613  currentEvent */\n      0x01\n        /* \"contracts/project.sol\":3601:3622  currentEvent[eventID] */\n      0x00\n        /* \"contracts/project.sol\":3614:3621  eventID */\n      dup12\n        /* \"contracts/project.sol\":3601:3622  currentEvent[eventID] */\n      dup2\n      mstore\n      0x20\n      add\n      swap1\n      dup2\n      mstore\n      0x20\n      add\n      0x00\n      keccak256\n        /* \"contracts/project.sol\":3601:3628  currentEvent[eventID].venue */\n      0x04\n      add\n        /* \"contracts/project.sol\":3601:3636  currentEvent[eventID].venue = venue */\n      swap1\n      dup2\n      tag_107\n      swap2\n      swap1\n      tag_104\n      jump\t// in\n    tag_107:\n      pop\n        /* \"contracts/project.sol\":3687:3702  maxParticipants */\n      dup4\n        /* \"contracts/project.sol\":3647:3659  currentEvent */\n      0x01\n        /* \"contracts/project.sol\":3647:3668  currentEvent[eventID] */\n      0x00\n        /* \"contracts/project.sol\":3660:3667  eventID */\n      dup12\n        /* \"contracts/project.sol\":3647:3668  currentEvent[eventID] */\n      dup2\n      mstore\n      0x20\n      add\n      swap1\n      dup2\n      mstore\n      0x20\n      add\n      0x00\n      keccak256\n        /* \"contracts/project.sol\":3647:3684  currentEvent[eventID].maxParticipants */\n      0x05\n      add\n        /* \"contracts/project.sol\":3647:3702  currentEvent[eventID].maxParticipants = maxParticipants */\n      dup2\n      swap1\n      sstore\n      pop\n        /* \"contracts/project.sol\":3746:3754  ageLimit */\n      dup3\n        /* \"contracts/project.sol\":3713:3725  currentEvent */\n      0x01\n        /* \"contracts/project.sol\":3713:3734  currentEvent[eventID] */\n      0x00\n        /* \"contracts/project.sol\":3726:3733  eventID */\n      dup12\n        /* \"contracts/project.sol\":3713:3734  currentEvent[eventID] */\n      dup2\n      mstore\n      0x20\n      add\n      swap1\n      dup2\n      mstore\n      0x20\n      add\n      0x00\n      keccak256\n        /* \"contracts/project.sol\":3713:3743  currentEvent[eventID].ageLimit */\n      0x06\n      add\n        /* \"contracts/project.sol\":3713:3754  currentEvent[eventID].ageLimit = ageLimit */\n      dup2\n      swap1\n      sstore\n      pop\n        /* \"contracts/project.sol\":3793:3796  fee */\n      dup2\n        /* \"contracts/project.sol\":3765:3777  currentEvent */\n      0x01\n        /* \"contracts/project.sol\":3765:3786  currentEvent[eventID] */\n      0x00\n        /* \"contracts/project.sol\":3778:3785  eventID */\n      dup12\n        /* \"contracts/project.sol\":3765:3786  currentEvent[eventID] */\n      dup2\n      mstore\n      0x20\n      add\n      swap1\n      dup2\n      mstore\n      0x20\n      add\n      0x00\n      keccak256\n        /* \"contracts/project.sol\":3765:3790  currentEvent[eventID].fee */\n      0x07\n      add\n      0x00\n        /* \"contracts/project.sol\":3765:3796  currentEvent[eventID].fee = fee */\n      0x0100\n      exp\n      dup2\n      sload\n      dup2\n      0xffffffffffffffff\n      mul\n      not\n      and\n      swap1\n      dup4\n      0xffffffffffffffff\n      and\n      mul\n      or\n      swap1\n      sstore\n      pop\n        /* \"contracts/project.sol\":3841:3850  isVisible */\n      dup1\n        /* \"contracts/project.sol\":3807:3819  currentEvent */\n      0x01\n        /* \"contracts/project.sol\":3807:3828  currentEvent[eventID] */\n      0x00\n        /* \"contracts/project.sol\":3820:3827  eventID */\n      dup12\n        /* \"contracts/project.sol\":3807:3828  currentEvent[eventID] */\n      dup2\n      mstore\n      0x20\n      add\n      swap1\n      dup2\n      mstore\n      0x20\n      add\n      0x00\n      keccak256\n        /* \"contracts/project.sol\":3807:3838  currentEvent[eventID].isVisible */\n      0x0c\n      add\n      0x00\n        /* \"contracts/project.sol\":3807:3850  currentEvent[eventID].isVisible = isVisible */\n      0x0100\n      exp\n      dup2\n      sload\n      dup2\n      0xff\n      mul\n      not\n      and\n      swap1\n      dup4\n      iszero\n      iszero\n      mul\n      or\n      swap1\n      sstore\n      pop\n        /* \"contracts/project.sol\":3047:3858  function editEvent(int eventID, string memory eventName, string memory description, string memory date, string memory venue, uint maxParticipants, uint ageLimit, uint64 fee, bool isVisible) public {... */\n      pop\n      pop\n      pop\n      pop\n      pop\n      pop\n      pop\n      pop\n      pop\n      jump\t// out\n        /* \"contracts/project.sol\":1590:1856  function isUserJoined(int eventID) public view returns (bool) {... */\n    tag_32:\n        /* \"contracts/project.sol\":1646:1650  bool */\n      0x00\n        /* \"contracts/project.sol\":1668:1674  uint i */\n      dup1\n        /* \"contracts/project.sol\":1677:1678  0 */\n      0x00\n        /* \"contracts/project.sol\":1668:1678  uint i = 0 */\n      swap1\n      pop\n        /* \"contracts/project.sol\":1663:1826  for (uint i = 0; i < currentEvent[eventID].participants.length; i++){... */\n    tag_109:\n        /* \"contracts/project.sol\":1684:1696  currentEvent */\n      0x01\n        /* \"contracts/project.sol\":1684:1705  currentEvent[eventID] */\n      0x00\n        /* \"contracts/project.sol\":1697:1704  eventID */\n      dup5\n        /* \"contracts/project.sol\":1684:1705  currentEvent[eventID] */\n      dup2\n      mstore\n      0x20\n      add\n      swap1\n      dup2\n      mstore\n      0x20\n      add\n      0x00\n      keccak256\n        /* \"contracts/project.sol\":1684:1718  currentEvent[eventID].participants */\n      0x0b\n      add\n        /* \"contracts/project.sol\":1684:1725  currentEvent[eventID].participants.length */\n      dup1\n      sload\n      swap1\n      pop\n        /* \"contracts/project.sol\":1680:1681  i */\n      dup2\n        /* \"contracts/project.sol\":1680:1725  i < currentEvent[eventID].participants.length */\n      lt\n        /* \"contracts/project.sol\":1663:1826  for (uint i = 0; i < currentEvent[eventID].participants.length; i++){... */\n      iszero\n      tag_110\n      jumpi\n        /* \"contracts/project.sol\":1791:1801  msg.sender */\n      caller\n        /* \"contracts/project.sol\":1750:1801  currentEvent[eventID].participants[i] == msg.sender */\n      0xffffffffffffffffffffffffffffffffffffffff\n      and\n        /* \"contracts/project.sol\":1750:1762  currentEvent */\n      0x01\n        /* \"contracts/project.sol\":1750:1771  currentEvent[eventID] */\n      0x00\n        /* \"contracts/project.sol\":1763:1770  eventID */\n      dup6\n        /* \"contracts/project.sol\":1750:1771  currentEvent[eventID] */\n      dup2\n      mstore\n      0x20\n      add\n      swap1\n      dup2\n      mstore\n      0x20\n      add\n      0x00\n      keccak256\n        /* \"contracts/project.sol\":1750:1784  currentEvent[eventID].participants */\n      0x0b\n      add\n        /* \"contracts/project.sol\":1785:1786  i */\n      dup3\n        /* \"contracts/project.sol\":1750:1787  currentEvent[eventID].participants[i] */\n      dup2\n      sload\n      dup2\n      lt\n      tag_112\n      jumpi\n      tag_113\n      tag_114\n      jump\t// in\n    tag_113:\n    tag_112:\n      swap1\n      0x00\n      mstore\n      keccak256(0x00, 0x20)\n      add\n      0x00\n      swap1\n      sload\n      swap1\n      0x0100\n      exp\n      swap1\n      div\n      0xffffffffffffffffffffffffffffffffffffffff\n      and\n        /* \"contracts/project.sol\":1750:1801  currentEvent[eventID].participants[i] == msg.sender */\n      0xffffffffffffffffffffffffffffffffffffffff\n      and\n      sub\n        /* \"contracts/project.sol\":1746:1814  if (currentEvent[eventID].participants[i] == msg.sender) return true */\n      tag_116\n      jumpi\n        /* \"contracts/project.sol\":1810:1814  true */\n      0x01\n        /* \"contracts/project.sol\":1803:1814  return true */\n      swap2\n      pop\n      pop\n      jump(tag_108)\n        /* \"contracts/project.sol\":1746:1814  if (currentEvent[eventID].participants[i] == msg.sender) return true */\n    tag_116:\n        /* \"contracts/project.sol\":1727:1730  i++ */\n      dup1\n      dup1\n      0x01\n      add\n      swap2\n      pop\n      pop\n        /* \"contracts/project.sol\":1663:1826  for (uint i = 0; i < currentEvent[eventID].participants.length; i++){... */\n      jump(tag_109)\n    tag_110:\n      pop\n        /* \"contracts/project.sol\":1843:1848  false */\n      0x00\n        /* \"contracts/project.sol\":1836:1848  return false */\n      swap1\n      pop\n        /* \"contracts/project.sol\":1590:1856  function isUserJoined(int eventID) public view returns (bool) {... */\n    tag_108:\n      swap2\n      swap1\n      pop\n      jump\t// out\n        /* \"contracts/project.sol\":3923:4821  function joinEvent(int eventID) public {... */\n    tag_37:\n        /* \"contracts/project.sol\":3992:3993  0 */\n      0x00\n        /* \"contracts/project.sol\":3981:3988  eventID */\n      dup2\n        /* \"contracts/project.sol\":3981:3993  eventID >= 0 */\n      slt\n      iszero\n        /* \"contracts/project.sol\":3981:4021  eventID >= 0 && eventID < currentEventID */\n      dup1\n      iszero\n      tag_118\n      jumpi\n      pop\n        /* \"contracts/project.sol\":4007:4021  currentEventID */\n      sload(0x00)\n        /* \"contracts/project.sol\":3997:4004  eventID */\n      dup2\n        /* \"contracts/project.sol\":3997:4021  eventID < currentEventID */\n      slt\n        /* \"contracts/project.sol\":3981:4021  eventID >= 0 && eventID < currentEventID */\n    tag_118:\n        /* \"contracts/project.sol\":3973:4046  require(eventID >= 0 && eventID < currentEventID, \"Event does not exist\") */\n      tag_119\n      jumpi\n      mload(0x40)\n      0x08c379a000000000000000000000000000000000000000000000000000000000\n      dup2\n      mstore\n      0x04\n      add\n      tag_120\n      swap1\n      tag_99\n      jump\t// in\n    tag_120:\n      mload(0x40)\n      dup1\n      swap2\n      sub\n      swap1\n      revert\n    tag_119:\n        /* \"contracts/project.sol\":4057:4082  Event storage eventToJoin */\n      0x00\n        /* \"contracts/project.sol\":4085:4097  currentEvent */\n      0x01\n        /* \"contracts/project.sol\":4085:4106  currentEvent[eventID] */\n      0x00\n        /* \"contracts/project.sol\":4098:4105  eventID */\n      dup4\n        /* \"contracts/project.sol\":4085:4106  currentEvent[eventID] */\n      dup2\n      mstore\n      0x20\n      add\n      swap1\n      dup2\n      mstore\n      0x20\n      add\n      0x00\n      keccak256\n        /* \"contracts/project.sol\":4057:4106  Event storage eventToJoin = currentEvent[eventID] */\n      swap1\n      pop\n        /* \"contracts/project.sol\":4117:4140  User memory participant */\n      0x00\n        /* \"contracts/project.sol\":4143:4157  registeredUser */\n      0x02\n        /* \"contracts/project.sol\":4143:4169  registeredUser[msg.sender] */\n      0x00\n        /* \"contracts/project.sol\":4158:4168  msg.sender */\n      caller\n        /* \"contracts/project.sol\":4143:4169  registeredUser[msg.sender] */\n      0xffffffffffffffffffffffffffffffffffffffff\n      and\n      0xffffffffffffffffffffffffffffffffffffffff\n      and\n      dup2\n      mstore\n      0x20\n      add\n      swap1\n      dup2\n      mstore\n      0x20\n      add\n      0x00\n      keccak256\n        /* \"contracts/project.sol\":4117:4169  User memory participant = registeredUser[msg.sender] */\n      mload(0x40)\n      dup1\n      0x60\n      add\n      0x40\n      mstore\n      swap1\n      dup2\n      0x00\n      dup3\n      add\n      0x00\n      swap1\n      sload\n      swap1\n      0x0100\n      exp\n      swap1\n      div\n      0xffffffffffffffffffffffffffffffffffffffff\n      and\n      0xffffffffffffffffffffffffffffffffffffffff\n      and\n      0xffffffffffffffffffffffffffffffffffffffff\n      and\n      dup2\n      mstore\n      0x20\n      add\n      0x01\n      dup3\n      add\n      dup1\n      sload\n      tag_121\n      swap1\n      tag_70\n      jump\t// in\n    tag_121:\n      dup1\n      0x1f\n      add\n      0x20\n      dup1\n      swap2\n      div\n      mul\n      0x20\n      add\n      mload(0x40)\n      swap1\n      dup2\n      add\n      0x40\n      mstore\n      dup1\n      swap3\n      swap2\n      swap1\n      dup2\n      dup2\n      mstore\n      0x20\n      add\n      dup3\n      dup1\n      sload\n      tag_122\n      swap1\n      tag_70\n      jump\t// in\n    tag_122:\n      dup1\n      iszero\n      tag_123\n      jumpi\n      dup1\n      0x1f\n      lt\n      tag_124\n      jumpi\n      0x0100\n      dup1\n      dup4\n      sload\n      div\n      mul\n      dup4\n      mstore\n      swap2\n      0x20\n      add\n      swap2\n      jump(tag_123)\n    tag_124:\n      dup3\n      add\n      swap2\n      swap1\n      0x00\n      mstore\n      keccak256(0x00, 0x20)\n      swap1\n    tag_125:\n      dup2\n      sload\n      dup2\n      mstore\n      swap1\n      0x01\n      add\n      swap1\n      0x20\n      add\n      dup1\n      dup4\n      gt\n      tag_125\n      jumpi\n      dup3\n      swap1\n      sub\n      0x1f\n      and\n      dup3\n      add\n      swap2\n    tag_123:\n      pop\n      pop\n      pop\n      pop\n      pop\n      dup2\n      mstore\n      0x20\n      add\n      0x02\n      dup3\n      add\n      sload\n      dup2\n      mstore\n      pop\n      pop\n      swap1\n      pop\n        /* \"contracts/project.sol\":4223:4224  0 */\n      0x00\n        /* \"contracts/project.sol\":4188:4225  participant.userAddress != address(0) */\n      0xffffffffffffffffffffffffffffffffffffffff\n      and\n        /* \"contracts/project.sol\":4188:4199  participant */\n      dup2\n        /* \"contracts/project.sol\":4188:4211  participant.userAddress */\n      0x00\n      add\n      mload\n        /* \"contracts/project.sol\":4188:4225  participant.userAddress != address(0) */\n      0xffffffffffffffffffffffffffffffffffffffff\n      and\n      sub\n        /* \"contracts/project.sol\":4180:4276  require(participant.userAddress != address(0), \"User is not registered. Please register first.\") */\n      tag_126\n      jumpi\n      mload(0x40)\n      0x08c379a000000000000000000000000000000000000000000000000000000000\n      dup2\n      mstore\n      0x04\n      add\n      tag_127\n      swap1\n      tag_128\n      jump\t// in\n    tag_127:\n      mload(0x40)\n      dup1\n      swap2\n      sub\n      swap1\n      revert\n    tag_126:\n        /* \"contracts/project.sol\":4296:4329  isUserJoined(msg.sender, eventID) */\n      tag_129\n        /* \"contracts/project.sol\":4309:4319  msg.sender */\n      caller\n        /* \"contracts/project.sol\":4321:4328  eventID */\n      dup5\n        /* \"contracts/project.sol\":4296:4308  isUserJoined */\n      tag_54\n        /* \"contracts/project.sol\":4296:4329  isUserJoined(msg.sender, eventID) */\n      jump\t// in\n    tag_129:\n        /* \"contracts/project.sol\":4295:4329  !isUserJoined(msg.sender, eventID) */\n      iszero\n        /* \"contracts/project.sol\":4287:4357  require(!isUserJoined(msg.sender, eventID), \"User has already joined\") */\n      tag_130\n      jumpi\n      mload(0x40)\n      0x08c379a000000000000000000000000000000000000000000000000000000000\n      dup2\n      mstore\n      0x04\n      add\n      tag_131\n      swap1\n      tag_132\n      jump\t// in\n    tag_131:\n      mload(0x40)\n      dup1\n      swap2\n      sub\n      swap1\n      revert\n    tag_130:\n        /* \"contracts/project.sol\":4405:4406  0 */\n      0x00\n        /* \"contracts/project.sol\":4376:4402  getRemainingSeats(eventID) */\n      tag_133\n        /* \"contracts/project.sol\":4394:4401  eventID */\n      dup5\n        /* \"contracts/project.sol\":4376:4393  getRemainingSeats */\n      tag_66\n        /* \"contracts/project.sol\":4376:4402  getRemainingSeats(eventID) */\n      jump\t// in\n    tag_133:\n        /* \"contracts/project.sol\":4376:4406  getRemainingSeats(eventID) > 0 */\n      gt\n        /* \"contracts/project.sol\":4368:4423  require(getRemainingSeats(eventID) > 0,\"Event is full\") */\n      tag_134\n      jumpi\n      mload(0x40)\n      0x08c379a000000000000000000000000000000000000000000000000000000000\n      dup2\n      mstore\n      0x04\n      add\n      tag_135\n      swap1\n      tag_136\n      jump\t// in\n    tag_135:\n      mload(0x40)\n      dup1\n      swap2\n      sub\n      swap1\n      revert\n    tag_134:\n        /* \"contracts/project.sol\":4461:4472  eventToJoin */\n      dup2\n        /* \"contracts/project.sol\":4461:4481  eventToJoin.ageLimit */\n      0x06\n      add\n      sload\n        /* \"contracts/project.sol\":4442:4453  participant */\n      dup2\n        /* \"contracts/project.sol\":4442:4457  participant.age */\n      0x40\n      add\n      mload\n        /* \"contracts/project.sol\":4442:4481  participant.age >= eventToJoin.ageLimit */\n      lt\n      iszero\n        /* \"contracts/project.sol\":4545:4583  Strings.toString(eventToJoin.ageLimit) */\n      tag_137\n        /* \"contracts/project.sol\":4562:4573  eventToJoin */\n      dup4\n        /* \"contracts/project.sol\":4562:4582  eventToJoin.ageLimit */\n      0x06\n      add\n      sload\n        /* \"contracts/project.sol\":4545:4561  Strings.toString */\n      tag_138\n        /* \"contracts/project.sol\":4545:4583  Strings.toString(eventToJoin.ageLimit) */\n      jump\t// in\n    tag_137:\n        /* \"contracts/project.sol\":4483:4584  string.concat(\"This event is not available to anyone under \", Strings.toString(eventToJoin.ageLimit)) */\n      add(0x20, mload(0x40))\n      tag_139\n      swap2\n      swap1\n      tag_140\n      jump\t// in\n    tag_139:\n      mload(0x40)\n      0x20\n      dup2\n      dup4\n      sub\n      sub\n      dup2\n      mstore\n      swap1\n      0x40\n      mstore\n        /* \"contracts/project.sol\":4434:4585  require(participant.age >= eventToJoin.ageLimit, string.concat(\"This event is not available to anyone under \", Strings.toString(eventToJoin.ageLimit))) */\n      swap1\n      tag_141\n      jumpi\n      mload(0x40)\n      0x08c379a000000000000000000000000000000000000000000000000000000000\n      dup2\n      mstore\n      0x04\n      add\n      tag_142\n      swap2\n      swap1\n      tag_143\n      jump\t// in\n    tag_142:\n      mload(0x40)\n      dup1\n      swap2\n      sub\n      swap1\n      revert\n    tag_141:\n      pop\n        /* \"contracts/project.sol\":4762:4774  currentEvent */\n      0x01\n        /* \"contracts/project.sol\":4762:4783  currentEvent[eventID] */\n      0x00\n        /* \"contracts/project.sol\":4775:4782  eventID */\n      dup5\n        /* \"contracts/project.sol\":4762:4783  currentEvent[eventID] */\n      dup2\n      mstore\n      0x20\n      add\n      swap1\n      dup2\n      mstore\n      0x20\n      add\n      0x00\n      keccak256\n        /* \"contracts/project.sol\":4762:4796  currentEvent[eventID].participants */\n      0x0b\n      add\n        /* \"contracts/project.sol\":4802:4812  msg.sender */\n      caller\n        /* \"contracts/project.sol\":4762:4813  currentEvent[eventID].participants.push(msg.sender) */\n      swap1\n      dup1\n      0x01\n      dup2\n      sload\n      add\n      dup1\n      dup3\n      sstore\n      dup1\n      swap2\n      pop\n      pop\n      0x01\n      swap1\n      sub\n      swap1\n      0x00\n      mstore\n      keccak256(0x00, 0x20)\n      add\n      0x00\n      swap1\n      swap2\n      swap1\n      swap2\n      swap1\n      swap2\n      0x0100\n      exp\n      dup2\n      sload\n      dup2\n      0xffffffffffffffffffffffffffffffffffffffff\n      mul\n      not\n      and\n      swap1\n      dup4\n      0xffffffffffffffffffffffffffffffffffffffff\n      and\n      mul\n      or\n      swap1\n      sstore\n      pop\n        /* \"contracts/project.sol\":3962:4821  {... */\n      pop\n      pop\n        /* \"contracts/project.sol\":3923:4821  function joinEvent(int eventID) public {... */\n      pop\n      jump\t// out\n        /* \"contracts/project.sol\":1151:1352  function getUserInfo() public view returns (User memory){... */\n    tag_39:\n        /* \"contracts/project.sol\":1195:1206  User memory */\n      tag_145\n      tag_146\n      jump\t// in\n    tag_145:\n        /* \"contracts/project.sol\":1276:1277  0 */\n      0x00\n        /* \"contracts/project.sol\":1226:1278  registeredUser[msg.sender].userAddress != address(0) */\n      0xffffffffffffffffffffffffffffffffffffffff\n      and\n        /* \"contracts/project.sol\":1226:1240  registeredUser */\n      0x02\n        /* \"contracts/project.sol\":1226:1252  registeredUser[msg.sender] */\n      0x00\n        /* \"contracts/project.sol\":1241:1251  msg.sender */\n      caller\n        /* \"contracts/project.sol\":1226:1252  registeredUser[msg.sender] */\n      0xffffffffffffffffffffffffffffffffffffffff\n      and\n      0xffffffffffffffffffffffffffffffffffffffff\n      and\n      dup2\n      mstore\n      0x20\n      add\n      swap1\n      dup2\n      mstore\n      0x20\n      add\n      0x00\n      keccak256\n        /* \"contracts/project.sol\":1226:1264  registeredUser[msg.sender].userAddress */\n      0x00\n      add\n      0x00\n      swap1\n      sload\n      swap1\n      0x0100\n      exp\n      swap1\n      div\n      0xffffffffffffffffffffffffffffffffffffffff\n      and\n        /* \"contracts/project.sol\":1226:1278  registeredUser[msg.sender].userAddress != address(0) */\n      0xffffffffffffffffffffffffffffffffffffffff\n      and\n      sub\n        /* \"contracts/project.sol\":1218:1300  require(registeredUser[msg.sender].userAddress != address(0), \"Unregistered user\") */\n      tag_148\n      jumpi\n      mload(0x40)\n      0x08c379a000000000000000000000000000000000000000000000000000000000\n      dup2\n      mstore\n      0x04\n      add\n      tag_149\n      swap1\n      tag_150\n      jump\t// in\n    tag_149:\n      mload(0x40)\n      dup1\n      swap2\n      sub\n      swap1\n      revert\n    tag_148:\n        /* \"contracts/project.sol\":1318:1332  registeredUser */\n      0x02\n        /* \"contracts/project.sol\":1318:1344  registeredUser[msg.sender] */\n      0x00\n        /* \"contracts/project.sol\":1333:1343  msg.sender */\n      caller\n        /* \"contracts/project.sol\":1318:1344  registeredUser[msg.sender] */\n      0xffffffffffffffffffffffffffffffffffffffff\n      and\n      0xffffffffffffffffffffffffffffffffffffffff\n      and\n      dup2\n      mstore\n      0x20\n      add\n      swap1\n      dup2\n      mstore\n      0x20\n      add\n      0x00\n      keccak256\n        /* \"contracts/project.sol\":1311:1344  return registeredUser[msg.sender] */\n      mload(0x40)\n      dup1\n      0x60\n      add\n      0x40\n      mstore\n      swap1\n      dup2\n      0x00\n      dup3\n      add\n      0x00\n      swap1\n      sload\n      swap1\n      0x0100\n      exp\n      swap1\n      div\n      0xffffffffffffffffffffffffffffffffffffffff\n      and\n      0xffffffffffffffffffffffffffffffffffffffff\n      and\n      0xffffffffffffffffffffffffffffffffffffffff\n      and\n      dup2\n      mstore\n      0x20\n      add\n      0x01\n      dup3\n      add\n      dup1\n      sload\n      tag_151\n      swap1\n      tag_70\n      jump\t// in\n    tag_151:\n      dup1\n      0x1f\n      add\n      0x20\n      dup1\n      swap2\n      div\n      mul\n      0x20\n      add\n      mload(0x40)\n      swap1\n      dup2\n      add\n      0x40\n      mstore\n      dup1\n      swap3\n      swap2\n      swap1\n      dup2\n      dup2\n      mstore\n      0x20\n      add\n      dup3\n      dup1\n      sload\n      tag_152\n      swap1\n      tag_70\n      jump\t// in\n    tag_152:\n      dup1\n      iszero\n      tag_153\n      jumpi\n      dup1\n      0x1f\n      lt\n      tag_154\n      jumpi\n      0x0100\n      dup1\n      dup4\n      sload\n      div\n      mul\n      dup4\n      mstore\n      swap2\n      0x20\n      add\n      swap2\n      jump(tag_153)\n    tag_154:\n      dup3\n      add\n      swap2\n      swap1\n      0x00\n      mstore\n      keccak256(0x00, 0x20)\n      swap1\n    tag_155:\n      dup2\n      sload\n      dup2\n      mstore\n      swap1\n      0x01\n      add\n      swap1\n      0x20\n      add\n      dup1\n      dup4\n      gt\n      tag_155\n      jumpi\n      dup3\n      swap1\n      sub\n      0x1f\n      and\n      dup3\n      add\n      swap2\n    tag_153:\n      pop\n      pop\n      pop\n      pop\n      pop\n      dup2\n      mstore\n      0x20\n      add\n      0x02\n      dup3\n      add\n      sload\n      dup2\n      mstore\n      pop\n      pop\n      swap1\n      pop\n        /* \"contracts/project.sol\":1151:1352  function getUserInfo() public view returns (User memory){... */\n      swap1\n      jump\t// out\n        /* \"contracts/project.sol\":2300:3039  function addEvent(string memory eventName, string memory description, string memory date, string memory venue, uint maxParticipants, uint ageLimit, uint64 fee, bool isVisible) public {... */\n    tag_45:\n        /* \"contracts/project.sol\":2552:2553  0 */\n      0x00\n        /* \"contracts/project.sol\":2502:2554  registeredUser[msg.sender].userAddress != address(0) */\n      0xffffffffffffffffffffffffffffffffffffffff\n      and\n        /* \"contracts/project.sol\":2502:2516  registeredUser */\n      0x02\n        /* \"contracts/project.sol\":2502:2528  registeredUser[msg.sender] */\n      0x00\n        /* \"contracts/project.sol\":2517:2527  msg.sender */\n      caller\n        /* \"contracts/project.sol\":2502:2528  registeredUser[msg.sender] */\n      0xffffffffffffffffffffffffffffffffffffffff\n      and\n      0xffffffffffffffffffffffffffffffffffffffff\n      and\n      dup2\n      mstore\n      0x20\n      add\n      swap1\n      dup2\n      mstore\n      0x20\n      add\n      0x00\n      keccak256\n        /* \"contracts/project.sol\":2502:2540  registeredUser[msg.sender].userAddress */\n      0x00\n      add\n      0x00\n      swap1\n      sload\n      swap1\n      0x0100\n      exp\n      swap1\n      div\n      0xffffffffffffffffffffffffffffffffffffffff\n      and\n        /* \"contracts/project.sol\":2502:2554  registeredUser[msg.sender].userAddress != address(0) */\n      0xffffffffffffffffffffffffffffffffffffffff\n      and\n      sub\n        /* \"contracts/project.sol\":2494:2585  require(registeredUser[msg.sender].userAddress != address(0), \"User is not yet registered\") */\n      tag_157\n      jumpi\n      mload(0x40)\n      0x08c379a000000000000000000000000000000000000000000000000000000000\n      dup2\n      mstore\n      0x04\n      add\n      tag_158\n      swap1\n      tag_159\n      jump\t// in\n    tag_158:\n      mload(0x40)\n      dup1\n      swap2\n      sub\n      swap1\n      revert\n    tag_157:\n        /* \"contracts/project.sol\":2596:2613  Event storage tmp */\n      0x00\n        /* \"contracts/project.sol\":2616:2628  currentEvent */\n      0x01\n        /* \"contracts/project.sol\":2616:2644  currentEvent[currentEventID] */\n      0x00\n        /* \"contracts/project.sol\":2629:2643  currentEventID */\n      dup1\n      sload\n        /* \"contracts/project.sol\":2616:2644  currentEvent[currentEventID] */\n      dup2\n      mstore\n      0x20\n      add\n      swap1\n      dup2\n      mstore\n      0x20\n      add\n      0x00\n      keccak256\n        /* \"contracts/project.sol\":2596:2644  Event storage tmp = currentEvent[currentEventID] */\n      swap1\n      pop\n        /* \"contracts/project.sol\":2669:2683  currentEventID */\n      sload(0x00)\n        /* \"contracts/project.sol\":2655:2658  tmp */\n      dup2\n        /* \"contracts/project.sol\":2655:2666  tmp.eventID */\n      0x00\n      add\n        /* \"contracts/project.sol\":2655:2683  tmp.eventID = currentEventID */\n      dup2\n      swap1\n      sstore\n      pop\n        /* \"contracts/project.sol\":2710:2719  eventName */\n      dup9\n        /* \"contracts/project.sol\":2694:2697  tmp */\n      dup2\n        /* \"contracts/project.sol\":2694:2707  tmp.eventName */\n      0x01\n      add\n        /* \"contracts/project.sol\":2694:2719  tmp.eventName = eventName */\n      swap1\n      dup2\n      tag_160\n      swap2\n      swap1\n      tag_104\n      jump\t// in\n    tag_160:\n      pop\n        /* \"contracts/project.sol\":2748:2759  description */\n      dup8\n        /* \"contracts/project.sol\":2730:2733  tmp */\n      dup2\n        /* \"contracts/project.sol\":2730:2745  tmp.description */\n      0x02\n      add\n        /* \"contracts/project.sol\":2730:2759  tmp.description = description */\n      swap1\n      dup2\n      tag_161\n      swap2\n      swap1\n      tag_104\n      jump\t// in\n    tag_161:\n      pop\n        /* \"contracts/project.sol\":2781:2785  date */\n      dup7\n        /* \"contracts/project.sol\":2770:2773  tmp */\n      dup2\n        /* \"contracts/project.sol\":2770:2778  tmp.date */\n      0x03\n      add\n        /* \"contracts/project.sol\":2770:2785  tmp.date = date */\n      swap1\n      dup2\n      tag_162\n      swap2\n      swap1\n      tag_104\n      jump\t// in\n    tag_162:\n      pop\n        /* \"contracts/project.sol\":2808:2813  venue */\n      dup6\n        /* \"contracts/project.sol\":2796:2799  tmp */\n      dup2\n        /* \"contracts/project.sol\":2796:2805  tmp.venue */\n      0x04\n      add\n        /* \"contracts/project.sol\":2796:2813  tmp.venue = venue */\n      swap1\n      dup2\n      tag_163\n      swap2\n      swap1\n      tag_104\n      jump\t// in\n    tag_163:\n      pop\n        /* \"contracts/project.sol\":2846:2861  maxParticipants */\n      dup5\n        /* \"contracts/project.sol\":2824:2827  tmp */\n      dup2\n        /* \"contracts/project.sol\":2824:2843  tmp.maxParticipants */\n      0x05\n      add\n        /* \"contracts/project.sol\":2824:2861  tmp.maxParticipants = maxParticipants */\n      dup2\n      swap1\n      sstore\n      pop\n        /* \"contracts/project.sol\":2887:2895  ageLimit */\n      dup4\n        /* \"contracts/project.sol\":2872:2875  tmp */\n      dup2\n        /* \"contracts/project.sol\":2872:2884  tmp.ageLimit */\n      0x06\n      add\n        /* \"contracts/project.sol\":2872:2895  tmp.ageLimit = ageLimit */\n      dup2\n      swap1\n      sstore\n      pop\n        /* \"contracts/project.sol\":2916:2919  fee */\n      dup3\n        /* \"contracts/project.sol\":2906:2909  tmp */\n      dup2\n        /* \"contracts/project.sol\":2906:2913  tmp.fee */\n      0x07\n      add\n      0x00\n        /* \"contracts/project.sol\":2906:2919  tmp.fee = fee */\n      0x0100\n      exp\n      dup2\n      sload\n      dup2\n      0xffffffffffffffff\n      mul\n      not\n      and\n      swap1\n      dup4\n      0xffffffffffffffff\n      and\n      mul\n      or\n      swap1\n      sstore\n      pop\n        /* \"contracts/project.sol\":2942:2956  registeredUser */\n      0x02\n        /* \"contracts/project.sol\":2942:2968  registeredUser[msg.sender] */\n      0x00\n        /* \"contracts/project.sol\":2957:2967  msg.sender */\n      caller\n        /* \"contracts/project.sol\":2942:2968  registeredUser[msg.sender] */\n      0xffffffffffffffffffffffffffffffffffffffff\n      and\n      0xffffffffffffffffffffffffffffffffffffffff\n      and\n      dup2\n      mstore\n      0x20\n      add\n      swap1\n      dup2\n      mstore\n      0x20\n      add\n      0x00\n      keccak256\n        /* \"contracts/project.sol\":2930:2933  tmp */\n      dup2\n        /* \"contracts/project.sol\":2930:2939  tmp.admin */\n      0x08\n      add\n        /* \"contracts/project.sol\":2930:2968  tmp.admin = registeredUser[msg.sender] */\n      0x00\n      dup3\n      add\n      0x00\n      swap1\n      sload\n      swap1\n      0x0100\n      exp\n      swap1\n      div\n      0xffffffffffffffffffffffffffffffffffffffff\n      and\n      dup2\n      0x00\n      add\n      exp(0x0100, 0x00)\n      dup2\n      sload\n      dup2\n      0xffffffffffffffffffffffffffffffffffffffff\n      mul\n      not\n      and\n      swap1\n      dup4\n      0xffffffffffffffffffffffffffffffffffffffff\n      and\n      mul\n      or\n      swap1\n      sstore\n      pop\n      0x01\n      dup3\n      add\n      dup2\n      0x01\n      add\n      swap1\n      dup2\n      tag_164\n      swap2\n      swap1\n      tag_165\n      jump\t// in\n    tag_164:\n      pop\n      0x02\n      dup3\n      add\n      sload\n      dup2\n      0x02\n      add\n      sstore\n      swap1\n      pop\n      pop\n        /* \"contracts/project.sol\":2995:3004  isVisible */\n      dup2\n        /* \"contracts/project.sol\":2979:2982  tmp */\n      dup2\n        /* \"contracts/project.sol\":2979:2992  tmp.isVisible */\n      0x0c\n      add\n      0x00\n        /* \"contracts/project.sol\":2979:3004  tmp.isVisible = isVisible */\n      0x0100\n      exp\n      dup2\n      sload\n      dup2\n      0xff\n      mul\n      not\n      and\n      swap1\n      dup4\n      iszero\n      iszero\n      mul\n      or\n      swap1\n      sstore\n      pop\n        /* \"contracts/project.sol\":3015:3029  currentEventID */\n      0x00\n      dup1\n        /* \"contracts/project.sol\":3015:3031  currentEventID++ */\n      dup2\n      sload\n      dup1\n      swap3\n      swap2\n      swap1\n      tag_166\n      swap1\n      tag_167\n      jump\t// in\n    tag_166:\n      swap2\n      swap1\n      pop\n      sstore\n      pop\n        /* \"contracts/project.sol\":2483:3039  {... */\n      pop\n        /* \"contracts/project.sol\":2300:3039  function addEvent(string memory eventName, string memory description, string memory date, string memory venue, uint maxParticipants, uint ageLimit, uint64 fee, bool isVisible) public {... */\n      pop\n      pop\n      pop\n      pop\n      pop\n      pop\n      pop\n      pop\n      jump\t// out\n        /* \"contracts/project.sol\":1360:1582  function getUserInfo(address userAddress) public view returns (User memory){... */\n    tag_49:\n        /* \"contracts/project.sol\":1423:1434  User memory */\n      tag_168\n      tag_146\n      jump\t// in\n    tag_168:\n        /* \"contracts/project.sol\":1505:1506  0 */\n      0x00\n        /* \"contracts/project.sol\":1454:1507  registeredUser[userAddress].userAddress != address(0) */\n      0xffffffffffffffffffffffffffffffffffffffff\n      and\n        /* \"contracts/project.sol\":1454:1468  registeredUser */\n      0x02\n        /* \"contracts/project.sol\":1454:1481  registeredUser[userAddress] */\n      0x00\n        /* \"contracts/project.sol\":1469:1480  userAddress */\n      dup5\n        /* \"contracts/project.sol\":1454:1481  registeredUser[userAddress] */\n      0xffffffffffffffffffffffffffffffffffffffff\n      and\n      0xffffffffffffffffffffffffffffffffffffffff\n      and\n      dup2\n      mstore\n      0x20\n      add\n      swap1\n      dup2\n      mstore\n      0x20\n      add\n      0x00\n      keccak256\n        /* \"contracts/project.sol\":1454:1493  registeredUser[userAddress].userAddress */\n      0x00\n      add\n      0x00\n      swap1\n      sload\n      swap1\n      0x0100\n      exp\n      swap1\n      div\n      0xffffffffffffffffffffffffffffffffffffffff\n      and\n        /* \"contracts/project.sol\":1454:1507  registeredUser[userAddress].userAddress != address(0) */\n      0xffffffffffffffffffffffffffffffffffffffff\n      and\n      sub\n        /* \"contracts/project.sol\":1446:1529  require(registeredUser[userAddress].userAddress != address(0), \"Unregistered user\") */\n      tag_170\n      jumpi\n      mload(0x40)\n      0x08c379a000000000000000000000000000000000000000000000000000000000\n      dup2\n      mstore\n      0x04\n      add\n      tag_171\n      swap1\n      tag_150\n      jump\t// in\n    tag_171:\n      mload(0x40)\n      dup1\n      swap2\n      sub\n      swap1\n      revert\n    tag_170:\n        /* \"contracts/project.sol\":1547:1561  registeredUser */\n      0x02\n        /* \"contracts/project.sol\":1547:1574  registeredUser[userAddress] */\n      0x00\n        /* \"contracts/project.sol\":1562:1573  userAddress */\n      dup4\n        /* \"contracts/project.sol\":1547:1574  registeredUser[userAddress] */\n      0xffffffffffffffffffffffffffffffffffffffff\n      and\n      0xffffffffffffffffffffffffffffffffffffffff\n      and\n      dup2\n      mstore\n      0x20\n      add\n      swap1\n      dup2\n      mstore\n      0x20\n      add\n      0x00\n      keccak256\n        /* \"contracts/project.sol\":1540:1574  return registeredUser[userAddress] */\n      mload(0x40)\n      dup1\n      0x60\n      add\n      0x40\n      mstore\n      swap1\n      dup2\n      0x00\n      dup3\n      add\n      0x00\n      swap1\n      sload\n      swap1\n      0x0100\n      exp\n      swap1\n      div\n      0xffffffffffffffffffffffffffffffffffffffff\n      and\n      0xffffffffffffffffffffffffffffffffffffffff\n      and\n      0xffffffffffffffffffffffffffffffffffffffff\n      and\n      dup2\n      mstore\n      0x20\n      add\n      0x01\n      dup3\n      add\n      dup1\n      sload\n      tag_172\n      swap1\n      tag_70\n      jump\t// in\n    tag_172:\n      dup1\n      0x1f\n      add\n      0x20\n      dup1\n      swap2\n      div\n      mul\n      0x20\n      add\n      mload(0x40)\n      swap1\n      dup2\n      add\n      0x40\n      mstore\n      dup1\n      swap3\n      swap2\n      swap1\n      dup2\n      dup2\n      mstore\n      0x20\n      add\n      dup3\n      dup1\n      sload\n      tag_173\n      swap1\n      tag_70\n      jump\t// in\n    tag_173:\n      dup1\n      iszero\n      tag_174\n      jumpi\n      dup1\n      0x1f\n      lt\n      tag_175\n      jumpi\n      0x0100\n      dup1\n      dup4\n      sload\n      div\n      mul\n      dup4\n      mstore\n      swap2\n      0x20\n      add\n      swap2\n      jump(tag_174)\n    tag_175:\n      dup3\n      add\n      swap2\n      swap1\n      0x00\n      mstore\n      keccak256(0x00, 0x20)\n      swap1\n    tag_176:\n      dup2\n      sload\n      dup2\n      mstore\n      swap1\n      0x01\n      add\n      swap1\n      0x20\n      add\n      dup1\n      dup4\n      gt\n      tag_176\n      jumpi\n      dup3\n      swap1\n      sub\n      0x1f\n      and\n      dup3\n      add\n      swap2\n    tag_174:\n      pop\n      pop\n      pop\n      pop\n      pop\n      dup2\n      mstore\n      0x20\n      add\n      0x02\n      dup3\n      add\n      sload\n      dup2\n      mstore\n      pop\n      pop\n      swap1\n      pop\n        /* \"contracts/project.sol\":1360:1582  function getUserInfo(address userAddress) public view returns (User memory){... */\n      swap2\n      swap1\n      pop\n      jump\t// out\n        /* \"contracts/project.sol\":1865:2153  function isUserJoined(address participant, int eventID) public view returns (bool) {... */\n    tag_54:\n        /* \"contracts/project.sol\":1942:1946  bool */\n      0x00\n        /* \"contracts/project.sol\":1964:1970  uint i */\n      dup1\n        /* \"contracts/project.sol\":1973:1974  0 */\n      0x00\n        /* \"contracts/project.sol\":1964:1974  uint i = 0 */\n      swap1\n      pop\n        /* \"contracts/project.sol\":1959:2123  for (uint i = 0; i < currentEvent[eventID].participants.length; i++){... */\n    tag_178:\n        /* \"contracts/project.sol\":1980:1992  currentEvent */\n      0x01\n        /* \"contracts/project.sol\":1980:2001  currentEvent[eventID] */\n      0x00\n        /* \"contracts/project.sol\":1993:2000  eventID */\n      dup5\n        /* \"contracts/project.sol\":1980:2001  currentEvent[eventID] */\n      dup2\n      mstore\n      0x20\n      add\n      swap1\n      dup2\n      mstore\n      0x20\n      add\n      0x00\n      keccak256\n        /* \"contracts/project.sol\":1980:2014  currentEvent[eventID].participants */\n      0x0b\n      add\n        /* \"contracts/project.sol\":1980:2021  currentEvent[eventID].participants.length */\n      dup1\n      sload\n      swap1\n      pop\n        /* \"contracts/project.sol\":1976:1977  i */\n      dup2\n        /* \"contracts/project.sol\":1976:2021  i < currentEvent[eventID].participants.length */\n      lt\n        /* \"contracts/project.sol\":1959:2123  for (uint i = 0; i < currentEvent[eventID].participants.length; i++){... */\n      iszero\n      tag_179\n      jumpi\n        /* \"contracts/project.sol\":2087:2098  participant */\n      dup4\n        /* \"contracts/project.sol\":2046:2098  currentEvent[eventID].participants[i] == participant */\n      0xffffffffffffffffffffffffffffffffffffffff\n      and\n        /* \"contracts/project.sol\":2046:2058  currentEvent */\n      0x01\n        /* \"contracts/project.sol\":2046:2067  currentEvent[eventID] */\n      0x00\n        /* \"contracts/project.sol\":2059:2066  eventID */\n      dup6\n        /* \"contracts/project.sol\":2046:2067  currentEvent[eventID] */\n      dup2\n      mstore\n      0x20\n      add\n      swap1\n      dup2\n      mstore\n      0x20\n      add\n      0x00\n      keccak256\n        /* \"contracts/project.sol\":2046:2080  currentEvent[eventID].participants */\n      0x0b\n      add\n        /* \"contracts/project.sol\":2081:2082  i */\n      dup3\n        /* \"contracts/project.sol\":2046:2083  currentEvent[eventID].participants[i] */\n      dup2\n      sload\n      dup2\n      lt\n      tag_181\n      jumpi\n      tag_182\n      tag_114\n      jump\t// in\n    tag_182:\n    tag_181:\n      swap1\n      0x00\n      mstore\n      keccak256(0x00, 0x20)\n      add\n      0x00\n      swap1\n      sload\n      swap1\n      0x0100\n      exp\n      swap1\n      div\n      0xffffffffffffffffffffffffffffffffffffffff\n      and\n        /* \"contracts/project.sol\":2046:2098  currentEvent[eventID].participants[i] == participant */\n      0xffffffffffffffffffffffffffffffffffffffff\n      and\n      sub\n        /* \"contracts/project.sol\":2042:2111  if (currentEvent[eventID].participants[i] == participant) return true */\n      tag_184\n      jumpi\n        /* \"contracts/project.sol\":2107:2111  true */\n      0x01\n        /* \"contracts/project.sol\":2100:2111  return true */\n      swap2\n      pop\n      pop\n      jump(tag_177)\n        /* \"contracts/project.sol\":2042:2111  if (currentEvent[eventID].participants[i] == participant) return true */\n    tag_184:\n        /* \"contracts/project.sol\":2023:2026  i++ */\n      dup1\n      dup1\n      0x01\n      add\n      swap2\n      pop\n      pop\n        /* \"contracts/project.sol\":1959:2123  for (uint i = 0; i < currentEvent[eventID].participants.length; i++){... */\n      jump(tag_178)\n    tag_179:\n      pop\n        /* \"contracts/project.sol\":2140:2145  false */\n      0x00\n        /* \"contracts/project.sol\":2133:2145  return false */\n      swap1\n      pop\n        /* \"contracts/project.sol\":1865:2153  function isUserJoined(address participant, int eventID) public view returns (bool) {... */\n    tag_177:\n      swap3\n      swap2\n      pop\n      pop\n      jump\t// out\n        /* \"contracts/project.sol\":2161:2260  function getUserBalance() public view returns (uint256){... */\n    tag_57:\n        /* \"contracts/project.sol\":2208:2215  uint256 */\n      0x00\n        /* \"contracts/project.sol\":2234:2244  msg.sender */\n      caller\n        /* \"contracts/project.sol\":2234:2252  msg.sender.balance */\n      0xffffffffffffffffffffffffffffffffffffffff\n      and\n      balance\n        /* \"contracts/project.sol\":2227:2252  return msg.sender.balance */\n      swap1\n      pop\n        /* \"contracts/project.sol\":2161:2260  function getUserBalance() public view returns (uint256){... */\n      swap1\n      jump\t// out\n        /* \"contracts/project.sol\":916:1143  function registerUser(string memory name, uint age) public {... */\n    tag_63:\n        /* \"contracts/project.sol\":1044:1045  0 */\n      0x00\n        /* \"contracts/project.sol\":994:1046  registeredUser[msg.sender].userAddress == address(0) */\n      0xffffffffffffffffffffffffffffffffffffffff\n      and\n        /* \"contracts/project.sol\":994:1008  registeredUser */\n      0x02\n        /* \"contracts/project.sol\":994:1020  registeredUser[msg.sender] */\n      0x00\n        /* \"contracts/project.sol\":1009:1019  msg.sender */\n      caller\n        /* \"contracts/project.sol\":994:1020  registeredUser[msg.sender] */\n      0xffffffffffffffffffffffffffffffffffffffff\n      and\n      0xffffffffffffffffffffffffffffffffffffffff\n      and\n      dup2\n      mstore\n      0x20\n      add\n      swap1\n      dup2\n      mstore\n      0x20\n      add\n      0x00\n      keccak256\n        /* \"contracts/project.sol\":994:1032  registeredUser[msg.sender].userAddress */\n      0x00\n      add\n      0x00\n      swap1\n      sload\n      swap1\n      0x0100\n      exp\n      swap1\n      div\n      0xffffffffffffffffffffffffffffffffffffffff\n      and\n        /* \"contracts/project.sol\":994:1046  registeredUser[msg.sender].userAddress == address(0) */\n      0xffffffffffffffffffffffffffffffffffffffff\n      and\n      eq\n        /* \"contracts/project.sol\":986:1070  require(registeredUser[msg.sender].userAddress == address(0), \"User already exists\") */\n      tag_187\n      jumpi\n      mload(0x40)\n      0x08c379a000000000000000000000000000000000000000000000000000000000\n      dup2\n      mstore\n      0x04\n      add\n      tag_188\n      swap1\n      tag_189\n      jump\t// in\n    tag_188:\n      mload(0x40)\n      dup1\n      swap2\n      sub\n      swap1\n      revert\n    tag_187:\n        /* \"contracts/project.sol\":1110:1135  User(msg.sender,name,age) */\n      mload(0x40)\n      dup1\n      0x60\n      add\n      0x40\n      mstore\n      dup1\n        /* \"contracts/project.sol\":1115:1125  msg.sender */\n      caller\n        /* \"contracts/project.sol\":1110:1135  User(msg.sender,name,age) */\n      0xffffffffffffffffffffffffffffffffffffffff\n      and\n      dup2\n      mstore\n      0x20\n      add\n        /* \"contracts/project.sol\":1126:1130  name */\n      dup4\n        /* \"contracts/project.sol\":1110:1135  User(msg.sender,name,age) */\n      dup2\n      mstore\n      0x20\n      add\n        /* \"contracts/project.sol\":1131:1134  age */\n      dup3\n        /* \"contracts/project.sol\":1110:1135  User(msg.sender,name,age) */\n      dup2\n      mstore\n      pop\n        /* \"contracts/project.sol\":1081:1095  registeredUser */\n      0x02\n        /* \"contracts/project.sol\":1081:1107  registeredUser[msg.sender] */\n      0x00\n        /* \"contracts/project.sol\":1096:1106  msg.sender */\n      caller\n        /* \"contracts/project.sol\":1081:1107  registeredUser[msg.sender] */\n      0xffffffffffffffffffffffffffffffffffffffff\n      and\n      0xffffffffffffffffffffffffffffffffffffffff\n      and\n      dup2\n      mstore\n      0x20\n      add\n      swap1\n      dup2\n      mstore\n      0x20\n      add\n      0x00\n      keccak256\n        /* \"contracts/project.sol\":1081:1135  registeredUser[msg.sender] = User(msg.sender,name,age) */\n      0x00\n      dup3\n      add\n      mload\n      dup2\n      0x00\n      add\n      exp(0x0100, 0x00)\n      dup2\n      sload\n      dup2\n      0xffffffffffffffffffffffffffffffffffffffff\n      mul\n      not\n      and\n      swap1\n      dup4\n      0xffffffffffffffffffffffffffffffffffffffff\n      and\n      mul\n      or\n      swap1\n      sstore\n      pop\n      0x20\n      dup3\n      add\n      mload\n      dup2\n      0x01\n      add\n      swap1\n      dup2\n      tag_190\n      swap2\n      swap1\n      tag_104\n      jump\t// in\n    tag_190:\n      pop\n      0x40\n      dup3\n      add\n      mload\n      dup2\n      0x02\n      add\n      sstore\n      swap1\n      pop\n      pop\n        /* \"contracts/project.sol\":916:1143  function registerUser(string memory name, uint age) public {... */\n      pop\n      pop\n      jump\t// out\n        /* \"contracts/project.sol\":4932:5106  function getRemainingSeats(int eventID) public view returns (uint) {... */\n    tag_66:\n        /* \"contracts/project.sol\":4993:4997  uint */\n      0x00\n        /* \"contracts/project.sol\":5057:5069  currentEvent */\n      0x01\n        /* \"contracts/project.sol\":5057:5078  currentEvent[eventID] */\n      0x00\n        /* \"contracts/project.sol\":5070:5077  eventID */\n      dup4\n        /* \"contracts/project.sol\":5057:5078  currentEvent[eventID] */\n      dup2\n      mstore\n      0x20\n      add\n      swap1\n      dup2\n      mstore\n      0x20\n      add\n      0x00\n      keccak256\n        /* \"contracts/project.sol\":5057:5091  currentEvent[eventID].participants */\n      0x0b\n      add\n        /* \"contracts/project.sol\":5057:5098  currentEvent[eventID].participants.length */\n      dup1\n      sload\n      swap1\n      pop\n        /* \"contracts/project.sol\":5017:5029  currentEvent */\n      0x01\n        /* \"contracts/project.sol\":5017:5038  currentEvent[eventID] */\n      0x00\n        /* \"contracts/project.sol\":5030:5037  eventID */\n      dup5\n        /* \"contracts/project.sol\":5017:5038  currentEvent[eventID] */\n      dup2\n      mstore\n      0x20\n      add\n      swap1\n      dup2\n      mstore\n      0x20\n      add\n      0x00\n      keccak256\n        /* \"contracts/project.sol\":5017:5054  currentEvent[eventID].maxParticipants */\n      0x05\n      add\n      sload\n        /* \"contracts/project.sol\":5017:5098  currentEvent[eventID].maxParticipants - currentEvent[eventID].participants.length */\n      tag_192\n      swap2\n      swap1\n      tag_193\n      jump\t// in\n    tag_192:\n        /* \"contracts/project.sol\":5010:5098  return currentEvent[eventID].maxParticipants - currentEvent[eventID].participants.length */\n      swap1\n      pop\n        /* \"contracts/project.sol\":4932:5106  function getRemainingSeats(int eventID) public view returns (uint) {... */\n      swap2\n      swap1\n      pop\n      jump\t// out\n        /* \"@openzeppelin/contracts/utils/Strings.sol\":637:1269  function toString(uint256 value) internal pure returns (string memory) {... */\n    tag_138:\n        /* \"@openzeppelin/contracts/utils/Strings.sol\":693:706  string memory */\n      0x60\n        /* \"@openzeppelin/contracts/utils/Strings.sol\":742:756  uint256 length */\n      0x00\n        /* \"@openzeppelin/contracts/utils/Strings.sol\":779:780  1 */\n      0x01\n        /* \"@openzeppelin/contracts/utils/Strings.sol\":759:776  Math.log10(value) */\n      tag_195\n        /* \"@openzeppelin/contracts/utils/Strings.sol\":770:775  value */\n      dup5\n        /* \"@openzeppelin/contracts/utils/Strings.sol\":759:769  Math.log10 */\n      tag_196\n        /* \"@openzeppelin/contracts/utils/Strings.sol\":759:776  Math.log10(value) */\n      jump\t// in\n    tag_195:\n        /* \"@openzeppelin/contracts/utils/Strings.sol\":759:780  Math.log10(value) + 1 */\n      add\n        /* \"@openzeppelin/contracts/utils/Strings.sol\":742:780  uint256 length = Math.log10(value) + 1 */\n      swap1\n      pop\n        /* \"@openzeppelin/contracts/utils/Strings.sol\":794:814  string memory buffer */\n      0x00\n        /* \"@openzeppelin/contracts/utils/Strings.sol\":828:834  length */\n      dup2\n        /* \"@openzeppelin/contracts/utils/Strings.sol\":817:835  new string(length) */\n      0xffffffffffffffff\n      dup2\n      gt\n      iszero\n      tag_197\n      jumpi\n      tag_198\n      tag_199\n      jump\t// in\n    tag_198:\n    tag_197:\n      mload(0x40)\n      swap1\n      dup1\n      dup3\n      mstore\n      dup1\n      0x1f\n      add\n      not(0x1f)\n      and\n      0x20\n      add\n      dup3\n      add\n      0x40\n      mstore\n      dup1\n      iszero\n      tag_200\n      jumpi\n      dup2\n      0x20\n      add\n      0x01\n      dup3\n      mul\n      dup1\n      calldatasize\n      dup4\n      calldatacopy\n      dup1\n      dup3\n      add\n      swap2\n      pop\n      pop\n      swap1\n      pop\n    tag_200:\n      pop\n        /* \"@openzeppelin/contracts/utils/Strings.sol\":794:835  string memory buffer = new string(length) */\n      swap1\n      pop\n        /* \"@openzeppelin/contracts/utils/Strings.sol\":849:860  uint256 ptr */\n      0x00\n        /* \"@openzeppelin/contracts/utils/Strings.sol\":944:950  length */\n      dup3\n        /* \"@openzeppelin/contracts/utils/Strings.sol\":940:942  32 */\n      0x20\n        /* \"@openzeppelin/contracts/utils/Strings.sol\":936:951  add(32, length) */\n      add\n        /* \"@openzeppelin/contracts/utils/Strings.sol\":928:934  buffer */\n      dup3\n        /* \"@openzeppelin/contracts/utils/Strings.sol\":924:952  add(buffer, add(32, length)) */\n      add\n        /* \"@openzeppelin/contracts/utils/Strings.sol\":917:952  ptr := add(buffer, add(32, length)) */\n      swap1\n      pop\n        /* \"@openzeppelin/contracts/utils/Strings.sol\":979:1226  while (true) {... */\n    tag_201:\n        /* \"@openzeppelin/contracts/utils/Strings.sol\":986:990  true */\n      0x01\n        /* \"@openzeppelin/contracts/utils/Strings.sol\":979:1226  while (true) {... */\n      iszero\n      tag_202\n      jumpi\n        /* \"@openzeppelin/contracts/utils/Strings.sol\":1010:1015  ptr-- */\n      dup1\n      dup1\n      0x01\n      swap1\n      sub\n      swap2\n      pop\n      pop\n        /* \"@openzeppelin/contracts/utils/Strings.sol\":1114:1124  HEX_DIGITS */\n      0x3031323334353637383961626364656600000000000000000000000000000000\n        /* \"@openzeppelin/contracts/utils/Strings.sol\":1109:1111  10 */\n      0x0a\n        /* \"@openzeppelin/contracts/utils/Strings.sol\":1102:1107  value */\n      dup7\n        /* \"@openzeppelin/contracts/utils/Strings.sol\":1098:1112  mod(value, 10) */\n      mod\n        /* \"@openzeppelin/contracts/utils/Strings.sol\":1093:1125  byte(mod(value, 10), HEX_DIGITS) */\n      byte\n        /* \"@openzeppelin/contracts/utils/Strings.sol\":1088:1091  ptr */\n      dup2\n        /* \"@openzeppelin/contracts/utils/Strings.sol\":1080:1126  mstore8(ptr, byte(mod(value, 10), HEX_DIGITS)) */\n      mstore8\n        /* \"@openzeppelin/contracts/utils/Strings.sol\":1170:1172  10 */\n      0x0a\n        /* \"@openzeppelin/contracts/utils/Strings.sol\":1161:1172  value /= 10 */\n      dup6\n      dup2\n      tag_203\n      jumpi\n      tag_204\n      tag_205\n      jump\t// in\n    tag_204:\n    tag_203:\n      div\n      swap5\n      pop\n        /* \"@openzeppelin/contracts/utils/Strings.sol\":1203:1204  0 */\n      0x00\n        /* \"@openzeppelin/contracts/utils/Strings.sol\":1194:1199  value */\n      dup6\n        /* \"@openzeppelin/contracts/utils/Strings.sol\":1194:1204  value == 0 */\n      sub\n        /* \"@openzeppelin/contracts/utils/Strings.sol\":979:1226  while (true) {... */\n      tag_201\n        /* \"@openzeppelin/contracts/utils/Strings.sol\":1190:1211  if (value == 0) break */\n      jumpi\n        /* \"@openzeppelin/contracts/utils/Strings.sol\":979:1226  while (true) {... */\n    tag_202:\n        /* \"@openzeppelin/contracts/utils/Strings.sol\":1246:1252  buffer */\n      dup2\n        /* \"@openzeppelin/contracts/utils/Strings.sol\":1239:1252  return buffer */\n      swap4\n      pop\n      pop\n      pop\n      pop\n        /* \"@openzeppelin/contracts/utils/Strings.sol\":637:1269  function toString(uint256 value) internal pure returns (string memory) {... */\n      swap2\n      swap1\n      pop\n      jump\t// out\n        /* \"@openzeppelin/contracts/utils/math/Math.sol\":25316:26232  function log10(uint256 value) internal pure returns (uint256) {... */\n    tag_196:\n        /* \"@openzeppelin/contracts/utils/math/Math.sol\":25369:25376  uint256 */\n      0x00\n        /* \"@openzeppelin/contracts/utils/math/Math.sol\":25388:25402  uint256 result */\n      dup1\n        /* \"@openzeppelin/contracts/utils/math/Math.sol\":25405:25406  0 */\n      0x00\n        /* \"@openzeppelin/contracts/utils/math/Math.sol\":25388:25406  uint256 result = 0 */\n      swap1\n      pop\n        /* \"@openzeppelin/contracts/utils/math/Math.sol\":25453:25461  10 ** 64 */\n      0x184f03e93ff9f4daa797ed6e38ed64bf6a1f010000000000000000\n        /* \"@openzeppelin/contracts/utils/math/Math.sol\":25444:25449  value */\n      dup4\n        /* \"@openzeppelin/contracts/utils/math/Math.sol\":25444:25461  value >= 10 ** 64 */\n      lt\n        /* \"@openzeppelin/contracts/utils/math/Math.sol\":25440:25543  if (value >= 10 ** 64) {... */\n      tag_208\n      jumpi\n        /* \"@openzeppelin/contracts/utils/math/Math.sol\":25490:25498  10 ** 64 */\n      0x184f03e93ff9f4daa797ed6e38ed64bf6a1f010000000000000000\n        /* \"@openzeppelin/contracts/utils/math/Math.sol\":25481:25498  value /= 10 ** 64 */\n      dup4\n      dup2\n      tag_209\n      jumpi\n      tag_210\n      tag_205\n      jump\t// in\n    tag_210:\n    tag_209:\n      div\n      swap3\n      pop\n        /* \"@openzeppelin/contracts/utils/math/Math.sol\":25526:25528  64 */\n      0x40\n        /* \"@openzeppelin/contracts/utils/math/Math.sol\":25516:25528  result += 64 */\n      dup2\n      add\n      swap1\n      pop\n        /* \"@openzeppelin/contracts/utils/math/Math.sol\":25440:25543  if (value >= 10 ** 64) {... */\n    tag_208:\n        /* \"@openzeppelin/contracts/utils/math/Math.sol\":25569:25577  10 ** 32 */\n      0x04ee2d6d415b85acef8100000000\n        /* \"@openzeppelin/contracts/utils/math/Math.sol\":25560:25565  value */\n      dup4\n        /* \"@openzeppelin/contracts/utils/math/Math.sol\":25560:25577  value >= 10 ** 32 */\n      lt\n        /* \"@openzeppelin/contracts/utils/math/Math.sol\":25556:25659  if (value >= 10 ** 32) {... */\n      tag_211\n      jumpi\n        /* \"@openzeppelin/contracts/utils/math/Math.sol\":25606:25614  10 ** 32 */\n      0x04ee2d6d415b85acef8100000000\n        /* \"@openzeppelin/contracts/utils/math/Math.sol\":25597:25614  value /= 10 ** 32 */\n      dup4\n      dup2\n      tag_212\n      jumpi\n      tag_213\n      tag_205\n      jump\t// in\n    tag_213:\n    tag_212:\n      div\n      swap3\n      pop\n        /* \"@openzeppelin/contracts/utils/math/Math.sol\":25642:25644  32 */\n      0x20\n        /* \"@openzeppelin/contracts/utils/math/Math.sol\":25632:25644  result += 32 */\n      dup2\n      add\n      swap1\n      pop\n        /* \"@openzeppelin/contracts/utils/math/Math.sol\":25556:25659  if (value >= 10 ** 32) {... */\n    tag_211:\n        /* \"@openzeppelin/contracts/utils/math/Math.sol\":25685:25693  10 ** 16 */\n      0x2386f26fc10000\n        /* \"@openzeppelin/contracts/utils/math/Math.sol\":25676:25681  value */\n      dup4\n        /* \"@openzeppelin/contracts/utils/math/Math.sol\":25676:25693  value >= 10 ** 16 */\n      lt\n        /* \"@openzeppelin/contracts/utils/math/Math.sol\":25672:25775  if (value >= 10 ** 16) {... */\n      tag_214\n      jumpi\n        /* \"@openzeppelin/contracts/utils/math/Math.sol\":25722:25730  10 ** 16 */\n      0x2386f26fc10000\n        /* \"@openzeppelin/contracts/utils/math/Math.sol\":25713:25730  value /= 10 ** 16 */\n      dup4\n      dup2\n      tag_215\n      jumpi\n      tag_216\n      tag_205\n      jump\t// in\n    tag_216:\n    tag_215:\n      div\n      swap3\n      pop\n        /* \"@openzeppelin/contracts/utils/math/Math.sol\":25758:25760  16 */\n      0x10\n        /* \"@openzeppelin/contracts/utils/math/Math.sol\":25748:25760  result += 16 */\n      dup2\n      add\n      swap1\n      pop\n        /* \"@openzeppelin/contracts/utils/math/Math.sol\":25672:25775  if (value >= 10 ** 16) {... */\n    tag_214:\n        /* \"@openzeppelin/contracts/utils/math/Math.sol\":25801:25808  10 ** 8 */\n      0x05f5e100\n        /* \"@openzeppelin/contracts/utils/math/Math.sol\":25792:25797  value */\n      dup4\n        /* \"@openzeppelin/contracts/utils/math/Math.sol\":25792:25808  value >= 10 ** 8 */\n      lt\n        /* \"@openzeppelin/contracts/utils/math/Math.sol\":25788:25888  if (value >= 10 ** 8) {... */\n      tag_217\n      jumpi\n        /* \"@openzeppelin/contracts/utils/math/Math.sol\":25837:25844  10 ** 8 */\n      0x05f5e100\n        /* \"@openzeppelin/contracts/utils/math/Math.sol\":25828:25844  value /= 10 ** 8 */\n      dup4\n      dup2\n      tag_218\n      jumpi\n      tag_219\n      tag_205\n      jump\t// in\n    tag_219:\n    tag_218:\n      div\n      swap3\n      pop\n        /* \"@openzeppelin/contracts/utils/math/Math.sol\":25872:25873  8 */\n      0x08\n        /* \"@openzeppelin/contracts/utils/math/Math.sol\":25862:25873  result += 8 */\n      dup2\n      add\n      swap1\n      pop\n        /* \"@openzeppelin/contracts/utils/math/Math.sol\":25788:25888  if (value >= 10 ** 8) {... */\n    tag_217:\n        /* \"@openzeppelin/contracts/utils/math/Math.sol\":25914:25921  10 ** 4 */\n      0x2710\n        /* \"@openzeppelin/contracts/utils/math/Math.sol\":25905:25910  value */\n      dup4\n        /* \"@openzeppelin/contracts/utils/math/Math.sol\":25905:25921  value >= 10 ** 4 */\n      lt\n        /* \"@openzeppelin/contracts/utils/math/Math.sol\":25901:26001  if (value >= 10 ** 4) {... */\n      tag_220\n      jumpi\n        /* \"@openzeppelin/contracts/utils/math/Math.sol\":25950:25957  10 ** 4 */\n      0x2710\n        /* \"@openzeppelin/contracts/utils/math/Math.sol\":25941:25957  value /= 10 ** 4 */\n      dup4\n      dup2\n      tag_221\n      jumpi\n      tag_222\n      tag_205\n      jump\t// in\n    tag_222:\n    tag_221:\n      div\n      swap3\n      pop\n        /* \"@openzeppelin/contracts/utils/math/Math.sol\":25985:25986  4 */\n      0x04\n        /* \"@openzeppelin/contracts/utils/math/Math.sol\":25975:25986  result += 4 */\n      dup2\n      add\n      swap1\n      pop\n        /* \"@openzeppelin/contracts/utils/math/Math.sol\":25901:26001  if (value >= 10 ** 4) {... */\n    tag_220:\n        /* \"@openzeppelin/contracts/utils/math/Math.sol\":26027:26034  10 ** 2 */\n      0x64\n        /* \"@openzeppelin/contracts/utils/math/Math.sol\":26018:26023  value */\n      dup4\n        /* \"@openzeppelin/contracts/utils/math/Math.sol\":26018:26034  value >= 10 ** 2 */\n      lt\n        /* \"@openzeppelin/contracts/utils/math/Math.sol\":26014:26114  if (value >= 10 ** 2) {... */\n      tag_223\n      jumpi\n        /* \"@openzeppelin/contracts/utils/math/Math.sol\":26063:26070  10 ** 2 */\n      0x64\n        /* \"@openzeppelin/contracts/utils/math/Math.sol\":26054:26070  value /= 10 ** 2 */\n      dup4\n      dup2\n      tag_224\n      jumpi\n      tag_225\n      tag_205\n      jump\t// in\n    tag_225:\n    tag_224:\n      div\n      swap3\n      pop\n        /* \"@openzeppelin/contracts/utils/math/Math.sol\":26098:26099  2 */\n      0x02\n        /* \"@openzeppelin/contracts/utils/math/Math.sol\":26088:26099  result += 2 */\n      dup2\n      add\n      swap1\n      pop\n        /* \"@openzeppelin/contracts/utils/math/Math.sol\":26014:26114  if (value >= 10 ** 2) {... */\n    tag_223:\n        /* \"@openzeppelin/contracts/utils/math/Math.sol\":26140:26147  10 ** 1 */\n      0x0a\n        /* \"@openzeppelin/contracts/utils/math/Math.sol\":26131:26136  value */\n      dup4\n        /* \"@openzeppelin/contracts/utils/math/Math.sol\":26131:26147  value >= 10 ** 1 */\n      lt\n        /* \"@openzeppelin/contracts/utils/math/Math.sol\":26127:26193  if (value >= 10 ** 1) {... */\n      tag_226\n      jumpi\n        /* \"@openzeppelin/contracts/utils/math/Math.sol\":26177:26178  1 */\n      0x01\n        /* \"@openzeppelin/contracts/utils/math/Math.sol\":26167:26178  result += 1 */\n      dup2\n      add\n      swap1\n      pop\n        /* \"@openzeppelin/contracts/utils/math/Math.sol\":26127:26193  if (value >= 10 ** 1) {... */\n    tag_226:\n        /* \"@openzeppelin/contracts/utils/math/Math.sol\":26219:26225  result */\n      dup1\n        /* \"@openzeppelin/contracts/utils/math/Math.sol\":26212:26225  return result */\n      swap2\n      pop\n      pop\n        /* \"@openzeppelin/contracts/utils/math/Math.sol\":25316:26232  function log10(uint256 value) internal pure returns (uint256) {... */\n      swap2\n      swap1\n      pop\n      jump\t// out\n    tag_146:\n      mload(0x40)\n      dup1\n      0x60\n      add\n      0x40\n      mstore\n      dup1\n      and(0xffffffffffffffffffffffffffffffffffffffff, 0x00)\n      dup2\n      mstore\n      0x20\n      add\n      0x60\n      dup2\n      mstore\n      0x20\n      add\n      0x00\n      dup2\n      mstore\n      pop\n      swap1\n      jump\t// out\n        /* \"#utility.yul\":7:83   */\n    tag_227:\n        /* \"#utility.yul\":43:50   */\n      0x00\n        /* \"#utility.yul\":72:77   */\n      dup2\n        /* \"#utility.yul\":61:77   */\n      swap1\n      pop\n        /* \"#utility.yul\":7:83   */\n      swap2\n      swap1\n      pop\n      jump\t// out\n        /* \"#utility.yul\":89:204   */\n    tag_228:\n        /* \"#utility.yul\":174:197   */\n      tag_309\n        /* \"#utility.yul\":191:196   */\n      dup2\n        /* \"#utility.yul\":174:197   */\n      tag_227\n      jump\t// in\n    tag_309:\n        /* \"#utility.yul\":169:172   */\n      dup3\n        /* \"#utility.yul\":162:198   */\n      mstore\n        /* \"#utility.yul\":89:204   */\n      pop\n      pop\n      jump\t// out\n        /* \"#utility.yul\":210:428   */\n    tag_19:\n        /* \"#utility.yul\":301:305   */\n      0x00\n        /* \"#utility.yul\":339:341   */\n      0x20\n        /* \"#utility.yul\":328:337   */\n      dup3\n        /* \"#utility.yul\":324:342   */\n      add\n        /* \"#utility.yul\":316:342   */\n      swap1\n      pop\n        /* \"#utility.yul\":352:421   */\n      tag_311\n        /* \"#utility.yul\":418:419   */\n      0x00\n        /* \"#utility.yul\":407:416   */\n      dup4\n        /* \"#utility.yul\":403:420   */\n      add\n        /* \"#utility.yul\":394:400   */\n      dup5\n        /* \"#utility.yul\":352:421   */\n      tag_228\n      jump\t// in\n    tag_311:\n        /* \"#utility.yul\":210:428   */\n      swap3\n      swap2\n      pop\n      pop\n      jump\t// out\n        /* \"#utility.yul\":434:509   */\n    tag_229:\n        /* \"#utility.yul\":467:473   */\n      0x00\n        /* \"#utility.yul\":500:502   */\n      0x40\n        /* \"#utility.yul\":494:503   */\n      mload\n        /* \"#utility.yul\":484:503   */\n      swap1\n      pop\n        /* \"#utility.yul\":434:509   */\n      swap1\n      jump\t// out\n        /* \"#utility.yul\":515:632   */\n    tag_230:\n        /* \"#utility.yul\":624:625   */\n      0x00\n        /* \"#utility.yul\":621:622   */\n      dup1\n        /* \"#utility.yul\":614:626   */\n      revert\n        /* \"#utility.yul\":638:755   */\n    tag_231:\n        /* \"#utility.yul\":747:748   */\n      0x00\n        /* \"#utility.yul\":744:745   */\n      dup1\n        /* \"#utility.yul\":737:749   */\n      revert\n        /* \"#utility.yul\":761:881   */\n    tag_232:\n        /* \"#utility.yul\":833:856   */\n      tag_316\n        /* \"#utility.yul\":850:855   */\n      dup2\n        /* \"#utility.yul\":833:856   */\n      tag_227\n      jump\t// in\n    tag_316:\n        /* \"#utility.yul\":826:831   */\n      dup2\n        /* \"#utility.yul\":823:857   */\n      eq\n        /* \"#utility.yul\":813:875   */\n      tag_317\n      jumpi\n        /* \"#utility.yul\":871:872   */\n      0x00\n        /* \"#utility.yul\":868:869   */\n      dup1\n        /* \"#utility.yul\":861:873   */\n      revert\n        /* \"#utility.yul\":813:875   */\n    tag_317:\n        /* \"#utility.yul\":761:881   */\n      pop\n      jump\t// out\n        /* \"#utility.yul\":887:1024   */\n    tag_233:\n        /* \"#utility.yul\":932:937   */\n      0x00\n        /* \"#utility.yul\":970:976   */\n      dup2\n        /* \"#utility.yul\":957:977   */\n      calldataload\n        /* \"#utility.yul\":948:977   */\n      swap1\n      pop\n        /* \"#utility.yul\":986:1018   */\n      tag_319\n        /* \"#utility.yul\":1012:1017   */\n      dup2\n        /* \"#utility.yul\":986:1018   */\n      tag_232\n      jump\t// in\n    tag_319:\n        /* \"#utility.yul\":887:1024   */\n      swap3\n      swap2\n      pop\n      pop\n      jump\t// out\n        /* \"#utility.yul\":1030:1357   */\n    tag_22:\n        /* \"#utility.yul\":1088:1094   */\n      0x00\n        /* \"#utility.yul\":1137:1139   */\n      0x20\n        /* \"#utility.yul\":1125:1134   */\n      dup3\n        /* \"#utility.yul\":1116:1123   */\n      dup5\n        /* \"#utility.yul\":1112:1135   */\n      sub\n        /* \"#utility.yul\":1108:1140   */\n      slt\n        /* \"#utility.yul\":1105:1224   */\n      iszero\n      tag_321\n      jumpi\n        /* \"#utility.yul\":1143:1222   */\n      tag_322\n      tag_230\n      jump\t// in\n    tag_322:\n        /* \"#utility.yul\":1105:1224   */\n    tag_321:\n        /* \"#utility.yul\":1263:1264   */\n      0x00\n        /* \"#utility.yul\":1288:1340   */\n      tag_323\n        /* \"#utility.yul\":1332:1339   */\n      dup5\n        /* \"#utility.yul\":1323:1329   */\n      dup3\n        /* \"#utility.yul\":1312:1321   */\n      dup6\n        /* \"#utility.yul\":1308:1330   */\n      add\n        /* \"#utility.yul\":1288:1340   */\n      tag_233\n      jump\t// in\n    tag_323:\n        /* \"#utility.yul\":1278:1340   */\n      swap2\n      pop\n        /* \"#utility.yul\":1234:1350   */\n      pop\n        /* \"#utility.yul\":1030:1357   */\n      swap3\n      swap2\n      pop\n      pop\n      jump\t// out\n        /* \"#utility.yul\":1363:1462   */\n    tag_234:\n        /* \"#utility.yul\":1415:1421   */\n      0x00\n        /* \"#utility.yul\":1449:1454   */\n      dup2\n        /* \"#utility.yul\":1443:1455   */\n      mload\n        /* \"#utility.yul\":1433:1455   */\n      swap1\n      pop\n        /* \"#utility.yul\":1363:1462   */\n      swap2\n      swap1\n      pop\n      jump\t// out\n        /* \"#utility.yul\":1468:1637   */\n    tag_235:\n        /* \"#utility.yul\":1552:1563   */\n      0x00\n        /* \"#utility.yul\":1586:1592   */\n      dup3\n        /* \"#utility.yul\":1581:1584   */\n      dup3\n        /* \"#utility.yul\":1574:1593   */\n      mstore\n        /* \"#utility.yul\":1626:1630   */\n      0x20\n        /* \"#utility.yul\":1621:1624   */\n      dup3\n        /* \"#utility.yul\":1617:1631   */\n      add\n        /* \"#utility.yul\":1602:1631   */\n      swap1\n      pop\n        /* \"#utility.yul\":1468:1637   */\n      swap3\n      swap2\n      pop\n      pop\n      jump\t// out\n        /* \"#utility.yul\":1643:1782   */\n    tag_236:\n        /* \"#utility.yul\":1732:1738   */\n      dup3\n        /* \"#utility.yul\":1727:1730   */\n      dup2\n        /* \"#utility.yul\":1722:1725   */\n      dup4\n        /* \"#utility.yul\":1716:1739   */\n      mcopy\n        /* \"#utility.yul\":1773:1774   */\n      0x00\n        /* \"#utility.yul\":1764:1770   */\n      dup4\n        /* \"#utility.yul\":1759:1762   */\n      dup4\n        /* \"#utility.yul\":1755:1771   */\n      add\n        /* \"#utility.yul\":1748:1775   */\n      mstore\n        /* \"#utility.yul\":1643:1782   */\n      pop\n      pop\n      pop\n      jump\t// out\n        /* \"#utility.yul\":1788:1890   */\n    tag_237:\n        /* \"#utility.yul\":1829:1835   */\n      0x00\n        /* \"#utility.yul\":1880:1882   */\n      0x1f\n        /* \"#utility.yul\":1876:1883   */\n      not\n        /* \"#utility.yul\":1871:1873   */\n      0x1f\n        /* \"#utility.yul\":1864:1869   */\n      dup4\n        /* \"#utility.yul\":1860:1874   */\n      add\n        /* \"#utility.yul\":1856:1884   */\n      and\n        /* \"#utility.yul\":1846:1884   */\n      swap1\n      pop\n        /* \"#utility.yul\":1788:1890   */\n      swap2\n      swap1\n      pop\n      jump\t// out\n        /* \"#utility.yul\":1896:2273   */\n    tag_238:\n        /* \"#utility.yul\":1984:1987   */\n      0x00\n        /* \"#utility.yul\":2012:2051   */\n      tag_329\n        /* \"#utility.yul\":2045:2050   */\n      dup3\n        /* \"#utility.yul\":2012:2051   */\n      tag_234\n      jump\t// in\n    tag_329:\n        /* \"#utility.yul\":2067:2138   */\n      tag_330\n        /* \"#utility.yul\":2131:2137   */\n      dup2\n        /* \"#utility.yul\":2126:2129   */\n      dup6\n        /* \"#utility.yul\":2067:2138   */\n      tag_235\n      jump\t// in\n    tag_330:\n        /* \"#utility.yul\":2060:2138   */\n      swap4\n      pop\n        /* \"#utility.yul\":2147:2212   */\n      tag_331\n        /* \"#utility.yul\":2205:2211   */\n      dup2\n        /* \"#utility.yul\":2200:2203   */\n      dup6\n        /* \"#utility.yul\":2193:2197   */\n      0x20\n        /* \"#utility.yul\":2186:2191   */\n      dup7\n        /* \"#utility.yul\":2182:2198   */\n      add\n        /* \"#utility.yul\":2147:2212   */\n      tag_236\n      jump\t// in\n    tag_331:\n        /* \"#utility.yul\":2237:2266   */\n      tag_332\n        /* \"#utility.yul\":2259:2265   */\n      dup2\n        /* \"#utility.yul\":2237:2266   */\n      tag_237\n      jump\t// in\n    tag_332:\n        /* \"#utility.yul\":2232:2235   */\n      dup5\n        /* \"#utility.yul\":2228:2267   */\n      add\n        /* \"#utility.yul\":2221:2267   */\n      swap2\n      pop\n        /* \"#utility.yul\":1988:2273   */\n      pop\n        /* \"#utility.yul\":1896:2273   */\n      swap3\n      swap2\n      pop\n      pop\n      jump\t// out\n        /* \"#utility.yul\":2279:2356   */\n    tag_239:\n        /* \"#utility.yul\":2316:2323   */\n      0x00\n        /* \"#utility.yul\":2345:2350   */\n      dup2\n        /* \"#utility.yul\":2334:2350   */\n      swap1\n      pop\n        /* \"#utility.yul\":2279:2356   */\n      swap2\n      swap1\n      pop\n      jump\t// out\n        /* \"#utility.yul\":2362:2480   */\n    tag_240:\n        /* \"#utility.yul\":2449:2473   */\n      tag_335\n        /* \"#utility.yul\":2467:2472   */\n      dup2\n        /* \"#utility.yul\":2449:2473   */\n      tag_239\n      jump\t// in\n    tag_335:\n        /* \"#utility.yul\":2444:2447   */\n      dup3\n        /* \"#utility.yul\":2437:2474   */\n      mstore\n        /* \"#utility.yul\":2362:2480   */\n      pop\n      pop\n      jump\t// out\n        /* \"#utility.yul\":2486:2587   */\n    tag_241:\n        /* \"#utility.yul\":2522:2529   */\n      0x00\n        /* \"#utility.yul\":2562:2580   */\n      0xffffffffffffffff\n        /* \"#utility.yul\":2555:2560   */\n      dup3\n        /* \"#utility.yul\":2551:2581   */\n      and\n        /* \"#utility.yul\":2540:2581   */\n      swap1\n      pop\n        /* \"#utility.yul\":2486:2587   */\n      swap2\n      swap1\n      pop\n      jump\t// out\n        /* \"#utility.yul\":2593:2708   */\n    tag_242:\n        /* \"#utility.yul\":2678:2701   */\n      tag_338\n        /* \"#utility.yul\":2695:2700   */\n      dup2\n        /* \"#utility.yul\":2678:2701   */\n      tag_241\n      jump\t// in\n    tag_338:\n        /* \"#utility.yul\":2673:2676   */\n      dup3\n        /* \"#utility.yul\":2666:2702   */\n      mstore\n        /* \"#utility.yul\":2593:2708   */\n      pop\n      pop\n      jump\t// out\n        /* \"#utility.yul\":2714:2840   */\n    tag_243:\n        /* \"#utility.yul\":2751:2758   */\n      0x00\n        /* \"#utility.yul\":2791:2833   */\n      0xffffffffffffffffffffffffffffffffffffffff\n        /* \"#utility.yul\":2784:2789   */\n      dup3\n        /* \"#utility.yul\":2780:2834   */\n      and\n        /* \"#utility.yul\":2769:2834   */\n      swap1\n      pop\n        /* \"#utility.yul\":2714:2840   */\n      swap2\n      swap1\n      pop\n      jump\t// out\n        /* \"#utility.yul\":2846:2942   */\n    tag_244:\n        /* \"#utility.yul\":2883:2890   */\n      0x00\n        /* \"#utility.yul\":2912:2936   */\n      tag_341\n        /* \"#utility.yul\":2930:2935   */\n      dup3\n        /* \"#utility.yul\":2912:2936   */\n      tag_243\n      jump\t// in\n    tag_341:\n        /* \"#utility.yul\":2901:2936   */\n      swap1\n      pop\n        /* \"#utility.yul\":2846:2942   */\n      swap2\n      swap1\n      pop\n      jump\t// out\n        /* \"#utility.yul\":2948:3056   */\n    tag_245:\n        /* \"#utility.yul\":3025:3049   */\n      tag_343\n        /* \"#utility.yul\":3043:3048   */\n      dup2\n        /* \"#utility.yul\":3025:3049   */\n      tag_244\n      jump\t// in\n    tag_343:\n        /* \"#utility.yul\":3020:3023   */\n      dup3\n        /* \"#utility.yul\":3013:3050   */\n      mstore\n        /* \"#utility.yul\":2948:3056   */\n      pop\n      pop\n      jump\t// out\n        /* \"#utility.yul\":3062:3221   */\n    tag_246:\n        /* \"#utility.yul\":3136:3147   */\n      0x00\n        /* \"#utility.yul\":3170:3176   */\n      dup3\n        /* \"#utility.yul\":3165:3168   */\n      dup3\n        /* \"#utility.yul\":3158:3177   */\n      mstore\n        /* \"#utility.yul\":3210:3214   */\n      0x20\n        /* \"#utility.yul\":3205:3208   */\n      dup3\n        /* \"#utility.yul\":3201:3215   */\n      add\n        /* \"#utility.yul\":3186:3215   */\n      swap1\n      pop\n        /* \"#utility.yul\":3062:3221   */\n      swap3\n      swap2\n      pop\n      pop\n      jump\t// out\n        /* \"#utility.yul\":3227:3584   */\n    tag_247:\n        /* \"#utility.yul\":3305:3308   */\n      0x00\n        /* \"#utility.yul\":3333:3372   */\n      tag_346\n        /* \"#utility.yul\":3366:3371   */\n      dup3\n        /* \"#utility.yul\":3333:3372   */\n      tag_234\n      jump\t// in\n    tag_346:\n        /* \"#utility.yul\":3388:3449   */\n      tag_347\n        /* \"#utility.yul\":3442:3448   */\n      dup2\n        /* \"#utility.yul\":3437:3440   */\n      dup6\n        /* \"#utility.yul\":3388:3449   */\n      tag_246\n      jump\t// in\n    tag_347:\n        /* \"#utility.yul\":3381:3449   */\n      swap4\n      pop\n        /* \"#utility.yul\":3458:3523   */\n      tag_348\n        /* \"#utility.yul\":3516:3522   */\n      dup2\n        /* \"#utility.yul\":3511:3514   */\n      dup6\n        /* \"#utility.yul\":3504:3508   */\n      0x20\n        /* \"#utility.yul\":3497:3502   */\n      dup7\n        /* \"#utility.yul\":3493:3509   */\n      add\n        /* \"#utility.yul\":3458:3523   */\n      tag_236\n      jump\t// in\n    tag_348:\n        /* \"#utility.yul\":3548:3577   */\n      tag_349\n        /* \"#utility.yul\":3570:3576   */\n      dup2\n        /* \"#utility.yul\":3548:3577   */\n      tag_237\n      jump\t// in\n    tag_349:\n        /* \"#utility.yul\":3543:3546   */\n      dup5\n        /* \"#utility.yul\":3539:3578   */\n      add\n        /* \"#utility.yul\":3532:3578   */\n      swap2\n      pop\n        /* \"#utility.yul\":3309:3584   */\n      pop\n        /* \"#utility.yul\":3227:3584   */\n      swap3\n      swap2\n      pop\n      pop\n      jump\t// out\n        /* \"#utility.yul\":3590:3698   */\n    tag_248:\n        /* \"#utility.yul\":3667:3691   */\n      tag_351\n        /* \"#utility.yul\":3685:3690   */\n      dup2\n        /* \"#utility.yul\":3667:3691   */\n      tag_239\n      jump\t// in\n    tag_351:\n        /* \"#utility.yul\":3662:3665   */\n      dup3\n        /* \"#utility.yul\":3655:3692   */\n      mstore\n        /* \"#utility.yul\":3590:3698   */\n      pop\n      pop\n      jump\t// out\n        /* \"#utility.yul\":3766:4550   */\n    tag_249:\n        /* \"#utility.yul\":3879:3882   */\n      0x00\n        /* \"#utility.yul\":3915:3919   */\n      0x60\n        /* \"#utility.yul\":3910:3913   */\n      dup4\n        /* \"#utility.yul\":3906:3920   */\n      add\n        /* \"#utility.yul\":4009:4013   */\n      0x00\n        /* \"#utility.yul\":4002:4007   */\n      dup4\n        /* \"#utility.yul\":3998:4014   */\n      add\n        /* \"#utility.yul\":3992:4015   */\n      mload\n        /* \"#utility.yul\":4028:4091   */\n      tag_353\n        /* \"#utility.yul\":4085:4089   */\n      0x00\n        /* \"#utility.yul\":4080:4083   */\n      dup7\n        /* \"#utility.yul\":4076:4090   */\n      add\n        /* \"#utility.yul\":4062:4074   */\n      dup3\n        /* \"#utility.yul\":4028:4091   */\n      tag_245\n      jump\t// in\n    tag_353:\n        /* \"#utility.yul\":3930:4101   */\n      pop\n        /* \"#utility.yul\":4187:4191   */\n      0x20\n        /* \"#utility.yul\":4180:4185   */\n      dup4\n        /* \"#utility.yul\":4176:4192   */\n      add\n        /* \"#utility.yul\":4170:4193   */\n      mload\n        /* \"#utility.yul\":4240:4243   */\n      dup5\n        /* \"#utility.yul\":4234:4238   */\n      dup3\n        /* \"#utility.yul\":4230:4244   */\n      sub\n        /* \"#utility.yul\":4223:4227   */\n      0x20\n        /* \"#utility.yul\":4218:4221   */\n      dup7\n        /* \"#utility.yul\":4214:4228   */\n      add\n        /* \"#utility.yul\":4207:4245   */\n      mstore\n        /* \"#utility.yul\":4266:4339   */\n      tag_354\n        /* \"#utility.yul\":4334:4338   */\n      dup3\n        /* \"#utility.yul\":4320:4332   */\n      dup3\n        /* \"#utility.yul\":4266:4339   */\n      tag_247\n      jump\t// in\n    tag_354:\n        /* \"#utility.yul\":4258:4339   */\n      swap2\n      pop\n        /* \"#utility.yul\":4111:4350   */\n      pop\n        /* \"#utility.yul\":4431:4435   */\n      0x40\n        /* \"#utility.yul\":4424:4429   */\n      dup4\n        /* \"#utility.yul\":4420:4436   */\n      add\n        /* \"#utility.yul\":4414:4437   */\n      mload\n        /* \"#utility.yul\":4450:4513   */\n      tag_355\n        /* \"#utility.yul\":4507:4511   */\n      0x40\n        /* \"#utility.yul\":4502:4505   */\n      dup7\n        /* \"#utility.yul\":4498:4512   */\n      add\n        /* \"#utility.yul\":4484:4496   */\n      dup3\n        /* \"#utility.yul\":4450:4513   */\n      tag_248\n      jump\t// in\n    tag_355:\n        /* \"#utility.yul\":4360:4523   */\n      pop\n        /* \"#utility.yul\":4540:4544   */\n      dup1\n        /* \"#utility.yul\":4533:4544   */\n      swap2\n      pop\n        /* \"#utility.yul\":3884:4550   */\n      pop\n        /* \"#utility.yul\":3766:4550   */\n      swap3\n      swap2\n      pop\n      pop\n      jump\t// out\n        /* \"#utility.yul\":4556:4646   */\n    tag_250:\n        /* \"#utility.yul\":4590:4597   */\n      0x00\n        /* \"#utility.yul\":4633:4638   */\n      dup2\n        /* \"#utility.yul\":4626:4639   */\n      iszero\n        /* \"#utility.yul\":4619:4640   */\n      iszero\n        /* \"#utility.yul\":4608:4640   */\n      swap1\n      pop\n        /* \"#utility.yul\":4556:4646   */\n      swap2\n      swap1\n      pop\n      jump\t// out\n        /* \"#utility.yul\":4652:4761   */\n    tag_251:\n        /* \"#utility.yul\":4733:4754   */\n      tag_358\n        /* \"#utility.yul\":4748:4753   */\n      dup2\n        /* \"#utility.yul\":4733:4754   */\n      tag_250\n      jump\t// in\n    tag_358:\n        /* \"#utility.yul\":4728:4731   */\n      dup3\n        /* \"#utility.yul\":4721:4755   */\n      mstore\n        /* \"#utility.yul\":4652:4761   */\n      pop\n      pop\n      jump\t// out\n        /* \"#utility.yul\":4767:6469   */\n    tag_25:\n        /* \"#utility.yul\":5226:5230   */\n      0x00\n        /* \"#utility.yul\":5264:5267   */\n      0x0140\n        /* \"#utility.yul\":5253:5262   */\n      dup3\n        /* \"#utility.yul\":5249:5268   */\n      add\n        /* \"#utility.yul\":5241:5268   */\n      swap1\n      pop\n        /* \"#utility.yul\":5278:5347   */\n      tag_360\n        /* \"#utility.yul\":5344:5345   */\n      0x00\n        /* \"#utility.yul\":5333:5342   */\n      dup4\n        /* \"#utility.yul\":5329:5346   */\n      add\n        /* \"#utility.yul\":5320:5326   */\n      dup14\n        /* \"#utility.yul\":5278:5347   */\n      tag_228\n      jump\t// in\n    tag_360:\n        /* \"#utility.yul\":5394:5403   */\n      dup2\n        /* \"#utility.yul\":5388:5392   */\n      dup2\n        /* \"#utility.yul\":5384:5404   */\n      sub\n        /* \"#utility.yul\":5379:5381   */\n      0x20\n        /* \"#utility.yul\":5368:5377   */\n      dup4\n        /* \"#utility.yul\":5364:5382   */\n      add\n        /* \"#utility.yul\":5357:5405   */\n      mstore\n        /* \"#utility.yul\":5422:5500   */\n      tag_361\n        /* \"#utility.yul\":5495:5499   */\n      dup2\n        /* \"#utility.yul\":5486:5492   */\n      dup13\n        /* \"#utility.yul\":5422:5500   */\n      tag_238\n      jump\t// in\n    tag_361:\n        /* \"#utility.yul\":5414:5500   */\n      swap1\n      pop\n        /* \"#utility.yul\":5547:5556   */\n      dup2\n        /* \"#utility.yul\":5541:5545   */\n      dup2\n        /* \"#utility.yul\":5537:5557   */\n      sub\n        /* \"#utility.yul\":5532:5534   */\n      0x40\n        /* \"#utility.yul\":5521:5530   */\n      dup4\n        /* \"#utility.yul\":5517:5535   */\n      add\n        /* \"#utility.yul\":5510:5558   */\n      mstore\n        /* \"#utility.yul\":5575:5653   */\n      tag_362\n        /* \"#utility.yul\":5648:5652   */\n      dup2\n        /* \"#utility.yul\":5639:5645   */\n      dup12\n        /* \"#utility.yul\":5575:5653   */\n      tag_238\n      jump\t// in\n    tag_362:\n        /* \"#utility.yul\":5567:5653   */\n      swap1\n      pop\n        /* \"#utility.yul\":5700:5709   */\n      dup2\n        /* \"#utility.yul\":5694:5698   */\n      dup2\n        /* \"#utility.yul\":5690:5710   */\n      sub\n        /* \"#utility.yul\":5685:5687   */\n      0x60\n        /* \"#utility.yul\":5674:5683   */\n      dup4\n        /* \"#utility.yul\":5670:5688   */\n      add\n        /* \"#utility.yul\":5663:5711   */\n      mstore\n        /* \"#utility.yul\":5728:5806   */\n      tag_363\n        /* \"#utility.yul\":5801:5805   */\n      dup2\n        /* \"#utility.yul\":5792:5798   */\n      dup11\n        /* \"#utility.yul\":5728:5806   */\n      tag_238\n      jump\t// in\n    tag_363:\n        /* \"#utility.yul\":5720:5806   */\n      swap1\n      pop\n        /* \"#utility.yul\":5854:5863   */\n      dup2\n        /* \"#utility.yul\":5848:5852   */\n      dup2\n        /* \"#utility.yul\":5844:5864   */\n      sub\n        /* \"#utility.yul\":5838:5841   */\n      0x80\n        /* \"#utility.yul\":5827:5836   */\n      dup4\n        /* \"#utility.yul\":5823:5842   */\n      add\n        /* \"#utility.yul\":5816:5865   */\n      mstore\n        /* \"#utility.yul\":5882:5960   */\n      tag_364\n        /* \"#utility.yul\":5955:5959   */\n      dup2\n        /* \"#utility.yul\":5946:5952   */\n      dup10\n        /* \"#utility.yul\":5882:5960   */\n      tag_238\n      jump\t// in\n    tag_364:\n        /* \"#utility.yul\":5874:5960   */\n      swap1\n      pop\n        /* \"#utility.yul\":5970:6043   */\n      tag_365\n        /* \"#utility.yul\":6038:6041   */\n      0xa0\n        /* \"#utility.yul\":6027:6036   */\n      dup4\n        /* \"#utility.yul\":6023:6042   */\n      add\n        /* \"#utility.yul\":6014:6020   */\n      dup9\n        /* \"#utility.yul\":5970:6043   */\n      tag_240\n      jump\t// in\n    tag_365:\n        /* \"#utility.yul\":6053:6126   */\n      tag_366\n        /* \"#utility.yul\":6121:6124   */\n      0xc0\n        /* \"#utility.yul\":6110:6119   */\n      dup4\n        /* \"#utility.yul\":6106:6125   */\n      add\n        /* \"#utility.yul\":6097:6103   */\n      dup8\n        /* \"#utility.yul\":6053:6126   */\n      tag_240\n      jump\t// in\n    tag_366:\n        /* \"#utility.yul\":6136:6207   */\n      tag_367\n        /* \"#utility.yul\":6202:6205   */\n      0xe0\n        /* \"#utility.yul\":6191:6200   */\n      dup4\n        /* \"#utility.yul\":6187:6206   */\n      add\n        /* \"#utility.yul\":6178:6184   */\n      dup7\n        /* \"#utility.yul\":6136:6207   */\n      tag_242\n      jump\t// in\n    tag_367:\n        /* \"#utility.yul\":6255:6264   */\n      dup2\n        /* \"#utility.yul\":6249:6253   */\n      dup2\n        /* \"#utility.yul\":6245:6265   */\n      sub\n        /* \"#utility.yul\":6239:6242   */\n      0x0100\n        /* \"#utility.yul\":6228:6237   */\n      dup4\n        /* \"#utility.yul\":6224:6243   */\n      add\n        /* \"#utility.yul\":6217:6266   */\n      mstore\n        /* \"#utility.yul\":6283:6385   */\n      tag_368\n        /* \"#utility.yul\":6380:6384   */\n      dup2\n        /* \"#utility.yul\":6371:6377   */\n      dup6\n        /* \"#utility.yul\":6283:6385   */\n      tag_249\n      jump\t// in\n    tag_368:\n        /* \"#utility.yul\":6275:6385   */\n      swap1\n      pop\n        /* \"#utility.yul\":6395:6462   */\n      tag_369\n        /* \"#utility.yul\":6457:6460   */\n      0x0120\n        /* \"#utility.yul\":6446:6455   */\n      dup4\n        /* \"#utility.yul\":6442:6461   */\n      add\n        /* \"#utility.yul\":6433:6439   */\n      dup5\n        /* \"#utility.yul\":6395:6462   */\n      tag_251\n      jump\t// in\n    tag_369:\n        /* \"#utility.yul\":4767:6469   */\n      swap12\n      swap11\n      pop\n      pop\n      pop\n      pop\n      pop\n      pop\n      pop\n      pop\n      pop\n      pop\n      pop\n      jump\t// out\n        /* \"#utility.yul\":6475:6592   */\n    tag_252:\n        /* \"#utility.yul\":6584:6585   */\n      0x00\n        /* \"#utility.yul\":6581:6582   */\n      dup1\n        /* \"#utility.yul\":6574:6586   */\n      revert\n        /* \"#utility.yul\":6598:6715   */\n    tag_253:\n        /* \"#utility.yul\":6707:6708   */\n      0x00\n        /* \"#utility.yul\":6704:6705   */\n      dup1\n        /* \"#utility.yul\":6697:6709   */\n      revert\n        /* \"#utility.yul\":6721:6901   */\n    tag_199:\n        /* \"#utility.yul\":6769:6846   */\n      0x4e487b7100000000000000000000000000000000000000000000000000000000\n        /* \"#utility.yul\":6766:6767   */\n      0x00\n        /* \"#utility.yul\":6759:6847   */\n      mstore\n        /* \"#utility.yul\":6866:6870   */\n      0x41\n        /* \"#utility.yul\":6863:6864   */\n      0x04\n        /* \"#utility.yul\":6856:6871   */\n      mstore\n        /* \"#utility.yul\":6890:6894   */\n      0x24\n        /* \"#utility.yul\":6887:6888   */\n      0x00\n        /* \"#utility.yul\":6880:6895   */\n      revert\n        /* \"#utility.yul\":6907:7188   */\n    tag_254:\n        /* \"#utility.yul\":6990:7017   */\n      tag_374\n        /* \"#utility.yul\":7012:7016   */\n      dup3\n        /* \"#utility.yul\":6990:7017   */\n      tag_237\n      jump\t// in\n    tag_374:\n        /* \"#utility.yul\":6982:6988   */\n      dup2\n        /* \"#utility.yul\":6978:7018   */\n      add\n        /* \"#utility.yul\":7120:7126   */\n      dup2\n        /* \"#utility.yul\":7108:7118   */\n      dup2\n        /* \"#utility.yul\":7105:7127   */\n      lt\n        /* \"#utility.yul\":7084:7102   */\n      0xffffffffffffffff\n        /* \"#utility.yul\":7072:7082   */\n      dup3\n        /* \"#utility.yul\":7069:7103   */\n      gt\n        /* \"#utility.yul\":7066:7128   */\n      or\n        /* \"#utility.yul\":7063:7151   */\n      iszero\n      tag_375\n      jumpi\n        /* \"#utility.yul\":7131:7149   */\n      tag_376\n      tag_199\n      jump\t// in\n    tag_376:\n        /* \"#utility.yul\":7063:7151   */\n    tag_375:\n        /* \"#utility.yul\":7171:7181   */\n      dup1\n        /* \"#utility.yul\":7167:7169   */\n      0x40\n        /* \"#utility.yul\":7160:7182   */\n      mstore\n        /* \"#utility.yul\":6950:7188   */\n      pop\n        /* \"#utility.yul\":6907:7188   */\n      pop\n      pop\n      jump\t// out\n        /* \"#utility.yul\":7194:7323   */\n    tag_255:\n        /* \"#utility.yul\":7228:7234   */\n      0x00\n        /* \"#utility.yul\":7255:7275   */\n      tag_378\n      tag_229\n      jump\t// in\n    tag_378:\n        /* \"#utility.yul\":7245:7275   */\n      swap1\n      pop\n        /* \"#utility.yul\":7284:7317   */\n      tag_379\n        /* \"#utility.yul\":7312:7316   */\n      dup3\n        /* \"#utility.yul\":7304:7310   */\n      dup3\n        /* \"#utility.yul\":7284:7317   */\n      tag_254\n      jump\t// in\n    tag_379:\n        /* \"#utility.yul\":7194:7323   */\n      swap2\n      swap1\n      pop\n      jump\t// out\n        /* \"#utility.yul\":7329:7637   */\n    tag_256:\n        /* \"#utility.yul\":7391:7395   */\n      0x00\n        /* \"#utility.yul\":7481:7499   */\n      0xffffffffffffffff\n        /* \"#utility.yul\":7473:7479   */\n      dup3\n        /* \"#utility.yul\":7470:7500   */\n      gt\n        /* \"#utility.yul\":7467:7523   */\n      iszero\n      tag_381\n      jumpi\n        /* \"#utility.yul\":7503:7521   */\n      tag_382\n      tag_199\n      jump\t// in\n    tag_382:\n        /* \"#utility.yul\":7467:7523   */\n    tag_381:\n        /* \"#utility.yul\":7541:7570   */\n      tag_383\n        /* \"#utility.yul\":7563:7569   */\n      dup3\n        /* \"#utility.yul\":7541:7570   */\n      tag_237\n      jump\t// in\n    tag_383:\n        /* \"#utility.yul\":7533:7570   */\n      swap1\n      pop\n        /* \"#utility.yul\":7625:7629   */\n      0x20\n        /* \"#utility.yul\":7619:7623   */\n      dup2\n        /* \"#utility.yul\":7615:7630   */\n      add\n        /* \"#utility.yul\":7607:7630   */\n      swap1\n      pop\n        /* \"#utility.yul\":7329:7637   */\n      swap2\n      swap1\n      pop\n      jump\t// out\n        /* \"#utility.yul\":7643:7791   */\n    tag_257:\n        /* \"#utility.yul\":7741:7747   */\n      dup3\n        /* \"#utility.yul\":7736:7739   */\n      dup2\n        /* \"#utility.yul\":7731:7734   */\n      dup4\n        /* \"#utility.yul\":7718:7748   */\n      calldatacopy\n        /* \"#utility.yul\":7782:7783   */\n      0x00\n        /* \"#utility.yul\":7773:7779   */\n      dup4\n        /* \"#utility.yul\":7768:7771   */\n      dup4\n        /* \"#utility.yul\":7764:7780   */\n      add\n        /* \"#utility.yul\":7757:7784   */\n      mstore\n        /* \"#utility.yul\":7643:7791   */\n      pop\n      pop\n      pop\n      jump\t// out\n        /* \"#utility.yul\":7797:8222   */\n    tag_258:\n        /* \"#utility.yul\":7875:7880   */\n      0x00\n        /* \"#utility.yul\":7900:7966   */\n      tag_386\n        /* \"#utility.yul\":7916:7965   */\n      tag_387\n        /* \"#utility.yul\":7958:7964   */\n      dup5\n        /* \"#utility.yul\":7916:7965   */\n      tag_256\n      jump\t// in\n    tag_387:\n        /* \"#utility.yul\":7900:7966   */\n      tag_255\n      jump\t// in\n    tag_386:\n        /* \"#utility.yul\":7891:7966   */\n      swap1\n      pop\n        /* \"#utility.yul\":7989:7995   */\n      dup3\n        /* \"#utility.yul\":7982:7987   */\n      dup2\n        /* \"#utility.yul\":7975:7996   */\n      mstore\n        /* \"#utility.yul\":8027:8031   */\n      0x20\n        /* \"#utility.yul\":8020:8025   */\n      dup2\n        /* \"#utility.yul\":8016:8032   */\n      add\n        /* \"#utility.yul\":8065:8068   */\n      dup5\n        /* \"#utility.yul\":8056:8062   */\n      dup5\n        /* \"#utility.yul\":8051:8054   */\n      dup5\n        /* \"#utility.yul\":8047:8063   */\n      add\n        /* \"#utility.yul\":8044:8069   */\n      gt\n        /* \"#utility.yul\":8041:8153   */\n      iszero\n      tag_388\n      jumpi\n        /* \"#utility.yul\":8072:8151   */\n      tag_389\n      tag_253\n      jump\t// in\n    tag_389:\n        /* \"#utility.yul\":8041:8153   */\n    tag_388:\n        /* \"#utility.yul\":8162:8216   */\n      tag_390\n        /* \"#utility.yul\":8209:8215   */\n      dup5\n        /* \"#utility.yul\":8204:8207   */\n      dup3\n        /* \"#utility.yul\":8199:8202   */\n      dup6\n        /* \"#utility.yul\":8162:8216   */\n      tag_257\n      jump\t// in\n    tag_390:\n        /* \"#utility.yul\":7881:8222   */\n      pop\n        /* \"#utility.yul\":7797:8222   */\n      swap4\n      swap3\n      pop\n      pop\n      pop\n      jump\t// out\n        /* \"#utility.yul\":8242:8582   */\n    tag_259:\n        /* \"#utility.yul\":8298:8303   */\n      0x00\n        /* \"#utility.yul\":8347:8350   */\n      dup3\n        /* \"#utility.yul\":8340:8344   */\n      0x1f\n        /* \"#utility.yul\":8332:8338   */\n      dup4\n        /* \"#utility.yul\":8328:8345   */\n      add\n        /* \"#utility.yul\":8324:8351   */\n      slt\n        /* \"#utility.yul\":8314:8436   */\n      tag_392\n      jumpi\n        /* \"#utility.yul\":8355:8434   */\n      tag_393\n      tag_252\n      jump\t// in\n    tag_393:\n        /* \"#utility.yul\":8314:8436   */\n    tag_392:\n        /* \"#utility.yul\":8472:8478   */\n      dup2\n        /* \"#utility.yul\":8459:8479   */\n      calldataload\n        /* \"#utility.yul\":8497:8576   */\n      tag_394\n        /* \"#utility.yul\":8572:8575   */\n      dup5\n        /* \"#utility.yul\":8564:8570   */\n      dup3\n        /* \"#utility.yul\":8557:8561   */\n      0x20\n        /* \"#utility.yul\":8549:8555   */\n      dup7\n        /* \"#utility.yul\":8545:8562   */\n      add\n        /* \"#utility.yul\":8497:8576   */\n      tag_258\n      jump\t// in\n    tag_394:\n        /* \"#utility.yul\":8488:8576   */\n      swap2\n      pop\n        /* \"#utility.yul\":8304:8582   */\n      pop\n        /* \"#utility.yul\":8242:8582   */\n      swap3\n      swap2\n      pop\n      pop\n      jump\t// out\n        /* \"#utility.yul\":8588:8710   */\n    tag_260:\n        /* \"#utility.yul\":8661:8685   */\n      tag_396\n        /* \"#utility.yul\":8679:8684   */\n      dup2\n        /* \"#utility.yul\":8661:8685   */\n      tag_239\n      jump\t// in\n    tag_396:\n        /* \"#utility.yul\":8654:8659   */\n      dup2\n        /* \"#utility.yul\":8651:8686   */\n      eq\n        /* \"#utility.yul\":8641:8704   */\n      tag_397\n      jumpi\n        /* \"#utility.yul\":8700:8701   */\n      0x00\n        /* \"#utility.yul\":8697:8698   */\n      dup1\n        /* \"#utility.yul\":8690:8702   */\n      revert\n        /* \"#utility.yul\":8641:8704   */\n    tag_397:\n        /* \"#utility.yul\":8588:8710   */\n      pop\n      jump\t// out\n        /* \"#utility.yul\":8716:8855   */\n    tag_261:\n        /* \"#utility.yul\":8762:8767   */\n      0x00\n        /* \"#utility.yul\":8800:8806   */\n      dup2\n        /* \"#utility.yul\":8787:8807   */\n      calldataload\n        /* \"#utility.yul\":8778:8807   */\n      swap1\n      pop\n        /* \"#utility.yul\":8816:8849   */\n      tag_399\n        /* \"#utility.yul\":8843:8848   */\n      dup2\n        /* \"#utility.yul\":8816:8849   */\n      tag_260\n      jump\t// in\n    tag_399:\n        /* \"#utility.yul\":8716:8855   */\n      swap3\n      swap2\n      pop\n      pop\n      jump\t// out\n        /* \"#utility.yul\":8861:8981   */\n    tag_262:\n        /* \"#utility.yul\":8933:8956   */\n      tag_401\n        /* \"#utility.yul\":8950:8955   */\n      dup2\n        /* \"#utility.yul\":8933:8956   */\n      tag_241\n      jump\t// in\n    tag_401:\n        /* \"#utility.yul\":8926:8931   */\n      dup2\n        /* \"#utility.yul\":8923:8957   */\n      eq\n        /* \"#utility.yul\":8913:8975   */\n      tag_402\n      jumpi\n        /* \"#utility.yul\":8971:8972   */\n      0x00\n        /* \"#utility.yul\":8968:8969   */\n      dup1\n        /* \"#utility.yul\":8961:8973   */\n      revert\n        /* \"#utility.yul\":8913:8975   */\n    tag_402:\n        /* \"#utility.yul\":8861:8981   */\n      pop\n      jump\t// out\n        /* \"#utility.yul\":8987:9124   */\n    tag_263:\n        /* \"#utility.yul\":9032:9037   */\n      0x00\n        /* \"#utility.yul\":9070:9076   */\n      dup2\n        /* \"#utility.yul\":9057:9077   */\n      calldataload\n        /* \"#utility.yul\":9048:9077   */\n      swap1\n      pop\n        /* \"#utility.yul\":9086:9118   */\n      tag_404\n        /* \"#utility.yul\":9112:9117   */\n      dup2\n        /* \"#utility.yul\":9086:9118   */\n      tag_262\n      jump\t// in\n    tag_404:\n        /* \"#utility.yul\":8987:9124   */\n      swap3\n      swap2\n      pop\n      pop\n      jump\t// out\n        /* \"#utility.yul\":9130:9246   */\n    tag_264:\n        /* \"#utility.yul\":9200:9221   */\n      tag_406\n        /* \"#utility.yul\":9215:9220   */\n      dup2\n        /* \"#utility.yul\":9200:9221   */\n      tag_250\n      jump\t// in\n    tag_406:\n        /* \"#utility.yul\":9193:9198   */\n      dup2\n        /* \"#utility.yul\":9190:9222   */\n      eq\n        /* \"#utility.yul\":9180:9240   */\n      tag_407\n      jumpi\n        /* \"#utility.yul\":9236:9237   */\n      0x00\n        /* \"#utility.yul\":9233:9234   */\n      dup1\n        /* \"#utility.yul\":9226:9238   */\n      revert\n        /* \"#utility.yul\":9180:9240   */\n    tag_407:\n        /* \"#utility.yul\":9130:9246   */\n      pop\n      jump\t// out\n        /* \"#utility.yul\":9252:9385   */\n    tag_265:\n        /* \"#utility.yul\":9295:9300   */\n      0x00\n        /* \"#utility.yul\":9333:9339   */\n      dup2\n        /* \"#utility.yul\":9320:9340   */\n      calldataload\n        /* \"#utility.yul\":9311:9340   */\n      swap1\n      pop\n        /* \"#utility.yul\":9349:9379   */\n      tag_409\n        /* \"#utility.yul\":9373:9378   */\n      dup2\n        /* \"#utility.yul\":9349:9379   */\n      tag_264\n      jump\t// in\n    tag_409:\n        /* \"#utility.yul\":9252:9385   */\n      swap3\n      swap2\n      pop\n      pop\n      jump\t// out\n        /* \"#utility.yul\":9391:11596   */\n    tag_28:\n        /* \"#utility.yul\":9557:9563   */\n      0x00\n        /* \"#utility.yul\":9565:9571   */\n      dup1\n        /* \"#utility.yul\":9573:9579   */\n      0x00\n        /* \"#utility.yul\":9581:9587   */\n      dup1\n        /* \"#utility.yul\":9589:9595   */\n      0x00\n        /* \"#utility.yul\":9597:9603   */\n      dup1\n        /* \"#utility.yul\":9605:9611   */\n      0x00\n        /* \"#utility.yul\":9613:9619   */\n      dup1\n        /* \"#utility.yul\":9621:9627   */\n      0x00\n        /* \"#utility.yul\":9670:9673   */\n      0x0120\n        /* \"#utility.yul\":9658:9667   */\n      dup11\n        /* \"#utility.yul\":9649:9656   */\n      dup13\n        /* \"#utility.yul\":9645:9668   */\n      sub\n        /* \"#utility.yul\":9641:9674   */\n      slt\n        /* \"#utility.yul\":9638:9758   */\n      iszero\n      tag_411\n      jumpi\n        /* \"#utility.yul\":9677:9756   */\n      tag_412\n      tag_230\n      jump\t// in\n    tag_412:\n        /* \"#utility.yul\":9638:9758   */\n    tag_411:\n        /* \"#utility.yul\":9797:9798   */\n      0x00\n        /* \"#utility.yul\":9822:9874   */\n      tag_413\n        /* \"#utility.yul\":9866:9873   */\n      dup13\n        /* \"#utility.yul\":9857:9863   */\n      dup3\n        /* \"#utility.yul\":9846:9855   */\n      dup14\n        /* \"#utility.yul\":9842:9864   */\n      add\n        /* \"#utility.yul\":9822:9874   */\n      tag_233\n      jump\t// in\n    tag_413:\n        /* \"#utility.yul\":9812:9874   */\n      swap10\n      pop\n        /* \"#utility.yul\":9768:9884   */\n      pop\n        /* \"#utility.yul\":9951:9953   */\n      0x20\n        /* \"#utility.yul\":9940:9949   */\n      dup11\n        /* \"#utility.yul\":9936:9954   */\n      add\n        /* \"#utility.yul\":9923:9955   */\n      calldataload\n        /* \"#utility.yul\":9982:10000   */\n      0xffffffffffffffff\n        /* \"#utility.yul\":9974:9980   */\n      dup2\n        /* \"#utility.yul\":9971:10001   */\n      gt\n        /* \"#utility.yul\":9968:10085   */\n      iszero\n      tag_414\n      jumpi\n        /* \"#utility.yul\":10004:10083   */\n      tag_415\n      tag_231\n      jump\t// in\n    tag_415:\n        /* \"#utility.yul\":9968:10085   */\n    tag_414:\n        /* \"#utility.yul\":10109:10172   */\n      tag_416\n        /* \"#utility.yul\":10164:10171   */\n      dup13\n        /* \"#utility.yul\":10155:10161   */\n      dup3\n        /* \"#utility.yul\":10144:10153   */\n      dup14\n        /* \"#utility.yul\":10140:10162   */\n      add\n        /* \"#utility.yul\":10109:10172   */\n      tag_259\n      jump\t// in\n    tag_416:\n        /* \"#utility.yul\":10099:10172   */\n      swap9\n      pop\n        /* \"#utility.yul\":9894:10182   */\n      pop\n        /* \"#utility.yul\":10249:10251   */\n      0x40\n        /* \"#utility.yul\":10238:10247   */\n      dup11\n        /* \"#utility.yul\":10234:10252   */\n      add\n        /* \"#utility.yul\":10221:10253   */\n      calldataload\n        /* \"#utility.yul\":10280:10298   */\n      0xffffffffffffffff\n        /* \"#utility.yul\":10272:10278   */\n      dup2\n        /* \"#utility.yul\":10269:10299   */\n      gt\n        /* \"#utility.yul\":10266:10383   */\n      iszero\n      tag_417\n      jumpi\n        /* \"#utility.yul\":10302:10381   */\n      tag_418\n      tag_231\n      jump\t// in\n    tag_418:\n        /* \"#utility.yul\":10266:10383   */\n    tag_417:\n        /* \"#utility.yul\":10407:10470   */\n      tag_419\n        /* \"#utility.yul\":10462:10469   */\n      dup13\n        /* \"#utility.yul\":10453:10459   */\n      dup3\n        /* \"#utility.yul\":10442:10451   */\n      dup14\n        /* \"#utility.yul\":10438:10460   */\n      add\n        /* \"#utility.yul\":10407:10470   */\n      tag_259\n      jump\t// in\n    tag_419:\n        /* \"#utility.yul\":10397:10470   */\n      swap8\n      pop\n        /* \"#utility.yul\":10192:10480   */\n      pop\n        /* \"#utility.yul\":10547:10549   */\n      0x60\n        /* \"#utility.yul\":10536:10545   */\n      dup11\n        /* \"#utility.yul\":10532:10550   */\n      add\n        /* \"#utility.yul\":10519:10551   */\n      calldataload\n        /* \"#utility.yul\":10578:10596   */\n      0xffffffffffffffff\n        /* \"#utility.yul\":10570:10576   */\n      dup2\n        /* \"#utility.yul\":10567:10597   */\n      gt\n        /* \"#utility.yul\":10564:10681   */\n      iszero\n      tag_420\n      jumpi\n        /* \"#utility.yul\":10600:10679   */\n      tag_421\n      tag_231\n      jump\t// in\n    tag_421:\n        /* \"#utility.yul\":10564:10681   */\n    tag_420:\n        /* \"#utility.yul\":10705:10768   */\n      tag_422\n        /* \"#utility.yul\":10760:10767   */\n      dup13\n        /* \"#utility.yul\":10751:10757   */\n      dup3\n        /* \"#utility.yul\":10740:10749   */\n      dup14\n        /* \"#utility.yul\":10736:10758   */\n      add\n        /* \"#utility.yul\":10705:10768   */\n      tag_259\n      jump\t// in\n    tag_422:\n        /* \"#utility.yul\":10695:10768   */\n      swap7\n      pop\n        /* \"#utility.yul\":10490:10778   */\n      pop\n        /* \"#utility.yul\":10845:10848   */\n      0x80\n        /* \"#utility.yul\":10834:10843   */\n      dup11\n        /* \"#utility.yul\":10830:10849   */\n      add\n        /* \"#utility.yul\":10817:10850   */\n      calldataload\n        /* \"#utility.yul\":10877:10895   */\n      0xffffffffffffffff\n        /* \"#utility.yul\":10869:10875   */\n      dup2\n        /* \"#utility.yul\":10866:10896   */\n      gt\n        /* \"#utility.yul\":10863:10980   */\n      iszero\n      tag_423\n      jumpi\n        /* \"#utility.yul\":10899:10978   */\n      tag_424\n      tag_231\n      jump\t// in\n    tag_424:\n        /* \"#utility.yul\":10863:10980   */\n    tag_423:\n        /* \"#utility.yul\":11004:11067   */\n      tag_425\n        /* \"#utility.yul\":11059:11066   */\n      dup13\n        /* \"#utility.yul\":11050:11056   */\n      dup3\n        /* \"#utility.yul\":11039:11048   */\n      dup14\n        /* \"#utility.yul\":11035:11057   */\n      add\n        /* \"#utility.yul\":11004:11067   */\n      tag_259\n      jump\t// in\n    tag_425:\n        /* \"#utility.yul\":10994:11067   */\n      swap6\n      pop\n        /* \"#utility.yul\":10788:11077   */\n      pop\n        /* \"#utility.yul\":11116:11119   */\n      0xa0\n        /* \"#utility.yul\":11143:11196   */\n      tag_426\n        /* \"#utility.yul\":11188:11195   */\n      dup13\n        /* \"#utility.yul\":11179:11185   */\n      dup3\n        /* \"#utility.yul\":11168:11177   */\n      dup14\n        /* \"#utility.yul\":11164:11186   */\n      add\n        /* \"#utility.yul\":11143:11196   */\n      tag_261\n      jump\t// in\n    tag_426:\n        /* \"#utility.yul\":11133:11196   */\n      swap5\n      pop\n        /* \"#utility.yul\":11087:11206   */\n      pop\n        /* \"#utility.yul\":11245:11248   */\n      0xc0\n        /* \"#utility.yul\":11272:11325   */\n      tag_427\n        /* \"#utility.yul\":11317:11324   */\n      dup13\n        /* \"#utility.yul\":11308:11314   */\n      dup3\n        /* \"#utility.yul\":11297:11306   */\n      dup14\n        /* \"#utility.yul\":11293:11315   */\n      add\n        /* \"#utility.yul\":11272:11325   */\n      tag_261\n      jump\t// in\n    tag_427:\n        /* \"#utility.yul\":11262:11325   */\n      swap4\n      pop\n        /* \"#utility.yul\":11216:11335   */\n      pop\n        /* \"#utility.yul\":11374:11377   */\n      0xe0\n        /* \"#utility.yul\":11401:11453   */\n      tag_428\n        /* \"#utility.yul\":11445:11452   */\n      dup13\n        /* \"#utility.yul\":11436:11442   */\n      dup3\n        /* \"#utility.yul\":11425:11434   */\n      dup14\n        /* \"#utility.yul\":11421:11443   */\n      add\n        /* \"#utility.yul\":11401:11453   */\n      tag_263\n      jump\t// in\n    tag_428:\n        /* \"#utility.yul\":11391:11453   */\n      swap3\n      pop\n        /* \"#utility.yul\":11345:11463   */\n      pop\n        /* \"#utility.yul\":11502:11505   */\n      0x0100\n        /* \"#utility.yul\":11529:11579   */\n      tag_429\n        /* \"#utility.yul\":11571:11578   */\n      dup13\n        /* \"#utility.yul\":11562:11568   */\n      dup3\n        /* \"#utility.yul\":11551:11560   */\n      dup14\n        /* \"#utility.yul\":11547:11569   */\n      add\n        /* \"#utility.yul\":11529:11579   */\n      tag_265\n      jump\t// in\n    tag_429:\n        /* \"#utility.yul\":11519:11579   */\n      swap2\n      pop\n        /* \"#utility.yul\":11473:11589   */\n      pop\n        /* \"#utility.yul\":9391:11596   */\n      swap3\n      swap6\n      swap9\n      pop\n      swap3\n      swap6\n      swap9\n      pop\n      swap3\n      swap6\n      swap9\n      jump\t// out\n        /* \"#utility.yul\":11602:11812   */\n    tag_34:\n        /* \"#utility.yul\":11689:11693   */\n      0x00\n        /* \"#utility.yul\":11727:11729   */\n      0x20\n        /* \"#utility.yul\":11716:11725   */\n      dup3\n        /* \"#utility.yul\":11712:11730   */\n      add\n        /* \"#utility.yul\":11704:11730   */\n      swap1\n      pop\n        /* \"#utility.yul\":11740:11805   */\n      tag_431\n        /* \"#utility.yul\":11802:11803   */\n      0x00\n        /* \"#utility.yul\":11791:11800   */\n      dup4\n        /* \"#utility.yul\":11787:11804   */\n      add\n        /* \"#utility.yul\":11778:11784   */\n      dup5\n        /* \"#utility.yul\":11740:11805   */\n      tag_251\n      jump\t// in\n    tag_431:\n        /* \"#utility.yul\":11602:11812   */\n      swap3\n      swap2\n      pop\n      pop\n      jump\t// out\n        /* \"#utility.yul\":11818:12179   */\n    tag_41:\n        /* \"#utility.yul\":11955:11959   */\n      0x00\n        /* \"#utility.yul\":11993:11995   */\n      0x20\n        /* \"#utility.yul\":11982:11991   */\n      dup3\n        /* \"#utility.yul\":11978:11996   */\n      add\n        /* \"#utility.yul\":11970:11996   */\n      swap1\n      pop\n        /* \"#utility.yul\":12042:12051   */\n      dup2\n        /* \"#utility.yul\":12036:12040   */\n      dup2\n        /* \"#utility.yul\":12032:12052   */\n      sub\n        /* \"#utility.yul\":12028:12029   */\n      0x00\n        /* \"#utility.yul\":12017:12026   */\n      dup4\n        /* \"#utility.yul\":12013:12030   */\n      add\n        /* \"#utility.yul\":12006:12053   */\n      mstore\n        /* \"#utility.yul\":12070:12172   */\n      tag_433\n        /* \"#utility.yul\":12167:12171   */\n      dup2\n        /* \"#utility.yul\":12158:12164   */\n      dup5\n        /* \"#utility.yul\":12070:12172   */\n      tag_249\n      jump\t// in\n    tag_433:\n        /* \"#utility.yul\":12062:12172   */\n      swap1\n      pop\n        /* \"#utility.yul\":11818:12179   */\n      swap3\n      swap2\n      pop\n      pop\n      jump\t// out\n        /* \"#utility.yul\":12185:14246   */\n    tag_44:\n        /* \"#utility.yul\":12343:12349   */\n      0x00\n        /* \"#utility.yul\":12351:12357   */\n      dup1\n        /* \"#utility.yul\":12359:12365   */\n      0x00\n        /* \"#utility.yul\":12367:12373   */\n      dup1\n        /* \"#utility.yul\":12375:12381   */\n      0x00\n        /* \"#utility.yul\":12383:12389   */\n      dup1\n        /* \"#utility.yul\":12391:12397   */\n      0x00\n        /* \"#utility.yul\":12399:12405   */\n      dup1\n        /* \"#utility.yul\":12448:12451   */\n      0x0100\n        /* \"#utility.yul\":12436:12445   */\n      dup10\n        /* \"#utility.yul\":12427:12434   */\n      dup12\n        /* \"#utility.yul\":12423:12446   */\n      sub\n        /* \"#utility.yul\":12419:12452   */\n      slt\n        /* \"#utility.yul\":12416:12536   */\n      iszero\n      tag_435\n      jumpi\n        /* \"#utility.yul\":12455:12534   */\n      tag_436\n      tag_230\n      jump\t// in\n    tag_436:\n        /* \"#utility.yul\":12416:12536   */\n    tag_435:\n        /* \"#utility.yul\":12603:12604   */\n      0x00\n        /* \"#utility.yul\":12592:12601   */\n      dup10\n        /* \"#utility.yul\":12588:12605   */\n      add\n        /* \"#utility.yul\":12575:12606   */\n      calldataload\n        /* \"#utility.yul\":12633:12651   */\n      0xffffffffffffffff\n        /* \"#utility.yul\":12625:12631   */\n      dup2\n        /* \"#utility.yul\":12622:12652   */\n      gt\n        /* \"#utility.yul\":12619:12736   */\n      iszero\n      tag_437\n      jumpi\n        /* \"#utility.yul\":12655:12734   */\n      tag_438\n      tag_231\n      jump\t// in\n    tag_438:\n        /* \"#utility.yul\":12619:12736   */\n    tag_437:\n        /* \"#utility.yul\":12760:12823   */\n      tag_439\n        /* \"#utility.yul\":12815:12822   */\n      dup12\n        /* \"#utility.yul\":12806:12812   */\n      dup3\n        /* \"#utility.yul\":12795:12804   */\n      dup13\n        /* \"#utility.yul\":12791:12813   */\n      add\n        /* \"#utility.yul\":12760:12823   */\n      tag_259\n      jump\t// in\n    tag_439:\n        /* \"#utility.yul\":12750:12823   */\n      swap9\n      pop\n        /* \"#utility.yul\":12546:12833   */\n      pop\n        /* \"#utility.yul\":12900:12902   */\n      0x20\n        /* \"#utility.yul\":12889:12898   */\n      dup10\n        /* \"#utility.yul\":12885:12903   */\n      add\n        /* \"#utility.yul\":12872:12904   */\n      calldataload\n        /* \"#utility.yul\":12931:12949   */\n      0xffffffffffffffff\n        /* \"#utility.yul\":12923:12929   */\n      dup2\n        /* \"#utility.yul\":12920:12950   */\n      gt\n        /* \"#utility.yul\":12917:13034   */\n      iszero\n      tag_440\n      jumpi\n        /* \"#utility.yul\":12953:13032   */\n      tag_441\n      tag_231\n      jump\t// in\n    tag_441:\n        /* \"#utility.yul\":12917:13034   */\n    tag_440:\n        /* \"#utility.yul\":13058:13121   */\n      tag_442\n        /* \"#utility.yul\":13113:13120   */\n      dup12\n        /* \"#utility.yul\":13104:13110   */\n      dup3\n        /* \"#utility.yul\":13093:13102   */\n      dup13\n        /* \"#utility.yul\":13089:13111   */\n      add\n        /* \"#utility.yul\":13058:13121   */\n      tag_259\n      jump\t// in\n    tag_442:\n        /* \"#utility.yul\":13048:13121   */\n      swap8\n      pop\n        /* \"#utility.yul\":12843:13131   */\n      pop\n        /* \"#utility.yul\":13198:13200   */\n      0x40\n        /* \"#utility.yul\":13187:13196   */\n      dup10\n        /* \"#utility.yul\":13183:13201   */\n      add\n        /* \"#utility.yul\":13170:13202   */\n      calldataload\n        /* \"#utility.yul\":13229:13247   */\n      0xffffffffffffffff\n        /* \"#utility.yul\":13221:13227   */\n      dup2\n        /* \"#utility.yul\":13218:13248   */\n      gt\n        /* \"#utility.yul\":13215:13332   */\n      iszero\n      tag_443\n      jumpi\n        /* \"#utility.yul\":13251:13330   */\n      tag_444\n      tag_231\n      jump\t// in\n    tag_444:\n        /* \"#utility.yul\":13215:13332   */\n    tag_443:\n        /* \"#utility.yul\":13356:13419   */\n      tag_445\n        /* \"#utility.yul\":13411:13418   */\n      dup12\n        /* \"#utility.yul\":13402:13408   */\n      dup3\n        /* \"#utility.yul\":13391:13400   */\n      dup13\n        /* \"#utility.yul\":13387:13409   */\n      add\n        /* \"#utility.yul\":13356:13419   */\n      tag_259\n      jump\t// in\n    tag_445:\n        /* \"#utility.yul\":13346:13419   */\n      swap7\n      pop\n        /* \"#utility.yul\":13141:13429   */\n      pop\n        /* \"#utility.yul\":13496:13498   */\n      0x60\n        /* \"#utility.yul\":13485:13494   */\n      dup10\n        /* \"#utility.yul\":13481:13499   */\n      add\n        /* \"#utility.yul\":13468:13500   */\n      calldataload\n        /* \"#utility.yul\":13527:13545   */\n      0xffffffffffffffff\n        /* \"#utility.yul\":13519:13525   */\n      dup2\n        /* \"#utility.yul\":13516:13546   */\n      gt\n        /* \"#utility.yul\":13513:13630   */\n      iszero\n      tag_446\n      jumpi\n        /* \"#utility.yul\":13549:13628   */\n      tag_447\n      tag_231\n      jump\t// in\n    tag_447:\n        /* \"#utility.yul\":13513:13630   */\n    tag_446:\n        /* \"#utility.yul\":13654:13717   */\n      tag_448\n        /* \"#utility.yul\":13709:13716   */\n      dup12\n        /* \"#utility.yul\":13700:13706   */\n      dup3\n        /* \"#utility.yul\":13689:13698   */\n      dup13\n        /* \"#utility.yul\":13685:13707   */\n      add\n        /* \"#utility.yul\":13654:13717   */\n      tag_259\n      jump\t// in\n    tag_448:\n        /* \"#utility.yul\":13644:13717   */\n      swap6\n      pop\n        /* \"#utility.yul\":13439:13727   */\n      pop\n        /* \"#utility.yul\":13766:13769   */\n      0x80\n        /* \"#utility.yul\":13793:13846   */\n      tag_449\n        /* \"#utility.yul\":13838:13845   */\n      dup12\n        /* \"#utility.yul\":13829:13835   */\n      dup3\n        /* \"#utility.yul\":13818:13827   */\n      dup13\n        /* \"#utility.yul\":13814:13836   */\n      add\n        /* \"#utility.yul\":13793:13846   */\n      tag_261\n      jump\t// in\n    tag_449:\n        /* \"#utility.yul\":13783:13846   */\n      swap5\n      pop\n        /* \"#utility.yul\":13737:13856   */\n      pop\n        /* \"#utility.yul\":13895:13898   */\n      0xa0\n        /* \"#utility.yul\":13922:13975   */\n      tag_450\n        /* \"#utility.yul\":13967:13974   */\n      dup12\n        /* \"#utility.yul\":13958:13964   */\n      dup3\n        /* \"#utility.yul\":13947:13956   */\n      dup13\n        /* \"#utility.yul\":13943:13965   */\n      add\n        /* \"#utility.yul\":13922:13975   */\n      tag_261\n      jump\t// in\n    tag_450:\n        /* \"#utility.yul\":13912:13975   */\n      swap4\n      pop\n        /* \"#utility.yul\":13866:13985   */\n      pop\n        /* \"#utility.yul\":14024:14027   */\n      0xc0\n        /* \"#utility.yul\":14051:14103   */\n      tag_451\n        /* \"#utility.yul\":14095:14102   */\n      dup12\n        /* \"#utility.yul\":14086:14092   */\n      dup3\n        /* \"#utility.yul\":14075:14084   */\n      dup13\n        /* \"#utility.yul\":14071:14093   */\n      add\n        /* \"#utility.yul\":14051:14103   */\n      tag_263\n      jump\t// in\n    tag_451:\n        /* \"#utility.yul\":14041:14103   */\n      swap3\n      pop\n        /* \"#utility.yul\":13995:14113   */\n      pop\n        /* \"#utility.yul\":14152:14155   */\n      0xe0\n        /* \"#utility.yul\":14179:14229   */\n      tag_452\n        /* \"#utility.yul\":14221:14228   */\n      dup12\n        /* \"#utility.yul\":14212:14218   */\n      dup3\n        /* \"#utility.yul\":14201:14210   */\n      dup13\n        /* \"#utility.yul\":14197:14219   */\n      add\n        /* \"#utility.yul\":14179:14229   */\n      tag_265\n      jump\t// in\n    tag_452:\n        /* \"#utility.yul\":14169:14229   */\n      swap2\n      pop\n        /* \"#utility.yul\":14123:14239   */\n      pop\n        /* \"#utility.yul\":12185:14246   */\n      swap3\n      swap6\n      swap9\n      pop\n      swap3\n      swap6\n      swap9\n      swap1\n      swap4\n      swap7\n      pop\n      jump\t// out\n        /* \"#utility.yul\":14252:14374   */\n    tag_266:\n        /* \"#utility.yul\":14325:14349   */\n      tag_454\n        /* \"#utility.yul\":14343:14348   */\n      dup2\n        /* \"#utility.yul\":14325:14349   */\n      tag_244\n      jump\t// in\n    tag_454:\n        /* \"#utility.yul\":14318:14323   */\n      dup2\n        /* \"#utility.yul\":14315:14350   */\n      eq\n        /* \"#utility.yul\":14305:14368   */\n      tag_455\n      jumpi\n        /* \"#utility.yul\":14364:14365   */\n      0x00\n        /* \"#utility.yul\":14361:14362   */\n      dup1\n        /* \"#utility.yul\":14354:14366   */\n      revert\n        /* \"#utility.yul\":14305:14368   */\n    tag_455:\n        /* \"#utility.yul\":14252:14374   */\n      pop\n      jump\t// out\n        /* \"#utility.yul\":14380:14519   */\n    tag_267:\n        /* \"#utility.yul\":14426:14431   */\n      0x00\n        /* \"#utility.yul\":14464:14470   */\n      dup2\n        /* \"#utility.yul\":14451:14471   */\n      calldataload\n        /* \"#utility.yul\":14442:14471   */\n      swap1\n      pop\n        /* \"#utility.yul\":14480:14513   */\n      tag_457\n        /* \"#utility.yul\":14507:14512   */\n      dup2\n        /* \"#utility.yul\":14480:14513   */\n      tag_266\n      jump\t// in\n    tag_457:\n        /* \"#utility.yul\":14380:14519   */\n      swap3\n      swap2\n      pop\n      pop\n      jump\t// out\n        /* \"#utility.yul\":14525:14854   */\n    tag_48:\n        /* \"#utility.yul\":14584:14590   */\n      0x00\n        /* \"#utility.yul\":14633:14635   */\n      0x20\n        /* \"#utility.yul\":14621:14630   */\n      dup3\n        /* \"#utility.yul\":14612:14619   */\n      dup5\n        /* \"#utility.yul\":14608:14631   */\n      sub\n        /* \"#utility.yul\":14604:14636   */\n      slt\n        /* \"#utility.yul\":14601:14720   */\n      iszero\n      tag_459\n      jumpi\n        /* \"#utility.yul\":14639:14718   */\n      tag_460\n      tag_230\n      jump\t// in\n    tag_460:\n        /* \"#utility.yul\":14601:14720   */\n    tag_459:\n        /* \"#utility.yul\":14759:14760   */\n      0x00\n        /* \"#utility.yul\":14784:14837   */\n      tag_461\n        /* \"#utility.yul\":14829:14836   */\n      dup5\n        /* \"#utility.yul\":14820:14826   */\n      dup3\n        /* \"#utility.yul\":14809:14818   */\n      dup6\n        /* \"#utility.yul\":14805:14827   */\n      add\n        /* \"#utility.yul\":14784:14837   */\n      tag_267\n      jump\t// in\n    tag_461:\n        /* \"#utility.yul\":14774:14837   */\n      swap2\n      pop\n        /* \"#utility.yul\":14730:14847   */\n      pop\n        /* \"#utility.yul\":14525:14854   */\n      swap3\n      swap2\n      pop\n      pop\n      jump\t// out\n        /* \"#utility.yul\":14860:15332   */\n    tag_53:\n        /* \"#utility.yul\":14927:14933   */\n      0x00\n        /* \"#utility.yul\":14935:14941   */\n      dup1\n        /* \"#utility.yul\":14984:14986   */\n      0x40\n        /* \"#utility.yul\":14972:14981   */\n      dup4\n        /* \"#utility.yul\":14963:14970   */\n      dup6\n        /* \"#utility.yul\":14959:14982   */\n      sub\n        /* \"#utility.yul\":14955:14987   */\n      slt\n        /* \"#utility.yul\":14952:15071   */\n      iszero\n      tag_463\n      jumpi\n        /* \"#utility.yul\":14990:15069   */\n      tag_464\n      tag_230\n      jump\t// in\n    tag_464:\n        /* \"#utility.yul\":14952:15071   */\n    tag_463:\n        /* \"#utility.yul\":15110:15111   */\n      0x00\n        /* \"#utility.yul\":15135:15188   */\n      tag_465\n        /* \"#utility.yul\":15180:15187   */\n      dup6\n        /* \"#utility.yul\":15171:15177   */\n      dup3\n        /* \"#utility.yul\":15160:15169   */\n      dup7\n        /* \"#utility.yul\":15156:15178   */\n      add\n        /* \"#utility.yul\":15135:15188   */\n      tag_267\n      jump\t// in\n    tag_465:\n        /* \"#utility.yul\":15125:15188   */\n      swap3\n      pop\n        /* \"#utility.yul\":15081:15198   */\n      pop\n        /* \"#utility.yul\":15237:15239   */\n      0x20\n        /* \"#utility.yul\":15263:15315   */\n      tag_466\n        /* \"#utility.yul\":15307:15314   */\n      dup6\n        /* \"#utility.yul\":15298:15304   */\n      dup3\n        /* \"#utility.yul\":15287:15296   */\n      dup7\n        /* \"#utility.yul\":15283:15305   */\n      add\n        /* \"#utility.yul\":15263:15315   */\n      tag_233\n      jump\t// in\n    tag_466:\n        /* \"#utility.yul\":15253:15315   */\n      swap2\n      pop\n        /* \"#utility.yul\":15208:15325   */\n      pop\n        /* \"#utility.yul\":14860:15332   */\n      swap3\n      pop\n      swap3\n      swap1\n      pop\n      jump\t// out\n        /* \"#utility.yul\":15338:15560   */\n    tag_59:\n        /* \"#utility.yul\":15431:15435   */\n      0x00\n        /* \"#utility.yul\":15469:15471   */\n      0x20\n        /* \"#utility.yul\":15458:15467   */\n      dup3\n        /* \"#utility.yul\":15454:15472   */\n      add\n        /* \"#utility.yul\":15446:15472   */\n      swap1\n      pop\n        /* \"#utility.yul\":15482:15553   */\n      tag_468\n        /* \"#utility.yul\":15550:15551   */\n      0x00\n        /* \"#utility.yul\":15539:15548   */\n      dup4\n        /* \"#utility.yul\":15535:15552   */\n      add\n        /* \"#utility.yul\":15526:15532   */\n      dup5\n        /* \"#utility.yul\":15482:15553   */\n      tag_240\n      jump\t// in\n    tag_468:\n        /* \"#utility.yul\":15338:15560   */\n      swap3\n      swap2\n      pop\n      pop\n      jump\t// out\n        /* \"#utility.yul\":15566:16220   */\n    tag_62:\n        /* \"#utility.yul\":15644:15650   */\n      0x00\n        /* \"#utility.yul\":15652:15658   */\n      dup1\n        /* \"#utility.yul\":15701:15703   */\n      0x40\n        /* \"#utility.yul\":15689:15698   */\n      dup4\n        /* \"#utility.yul\":15680:15687   */\n      dup6\n        /* \"#utility.yul\":15676:15699   */\n      sub\n        /* \"#utility.yul\":15672:15704   */\n      slt\n        /* \"#utility.yul\":15669:15788   */\n      iszero\n      tag_470\n      jumpi\n        /* \"#utility.yul\":15707:15786   */\n      tag_471\n      tag_230\n      jump\t// in\n    tag_471:\n        /* \"#utility.yul\":15669:15788   */\n    tag_470:\n        /* \"#utility.yul\":15855:15856   */\n      0x00\n        /* \"#utility.yul\":15844:15853   */\n      dup4\n        /* \"#utility.yul\":15840:15857   */\n      add\n        /* \"#utility.yul\":15827:15858   */\n      calldataload\n        /* \"#utility.yul\":15885:15903   */\n      0xffffffffffffffff\n        /* \"#utility.yul\":15877:15883   */\n      dup2\n        /* \"#utility.yul\":15874:15904   */\n      gt\n        /* \"#utility.yul\":15871:15988   */\n      iszero\n      tag_472\n      jumpi\n        /* \"#utility.yul\":15907:15986   */\n      tag_473\n      tag_231\n      jump\t// in\n    tag_473:\n        /* \"#utility.yul\":15871:15988   */\n    tag_472:\n        /* \"#utility.yul\":16012:16075   */\n      tag_474\n        /* \"#utility.yul\":16067:16074   */\n      dup6\n        /* \"#utility.yul\":16058:16064   */\n      dup3\n        /* \"#utility.yul\":16047:16056   */\n      dup7\n        /* \"#utility.yul\":16043:16065   */\n      add\n        /* \"#utility.yul\":16012:16075   */\n      tag_259\n      jump\t// in\n    tag_474:\n        /* \"#utility.yul\":16002:16075   */\n      swap3\n      pop\n        /* \"#utility.yul\":15798:16085   */\n      pop\n        /* \"#utility.yul\":16124:16126   */\n      0x20\n        /* \"#utility.yul\":16150:16203   */\n      tag_475\n        /* \"#utility.yul\":16195:16202   */\n      dup6\n        /* \"#utility.yul\":16186:16192   */\n      dup3\n        /* \"#utility.yul\":16175:16184   */\n      dup7\n        /* \"#utility.yul\":16171:16193   */\n      add\n        /* \"#utility.yul\":16150:16203   */\n      tag_261\n      jump\t// in\n    tag_475:\n        /* \"#utility.yul\":16140:16203   */\n      swap2\n      pop\n        /* \"#utility.yul\":16095:16213   */\n      pop\n        /* \"#utility.yul\":15566:16220   */\n      swap3\n      pop\n      swap3\n      swap1\n      pop\n      jump\t// out\n        /* \"#utility.yul\":16226:16406   */\n    tag_268:\n        /* \"#utility.yul\":16274:16351   */\n      0x4e487b7100000000000000000000000000000000000000000000000000000000\n        /* \"#utility.yul\":16271:16272   */\n      0x00\n        /* \"#utility.yul\":16264:16352   */\n      mstore\n        /* \"#utility.yul\":16371:16375   */\n      0x22\n        /* \"#utility.yul\":16368:16369   */\n      0x04\n        /* \"#utility.yul\":16361:16376   */\n      mstore\n        /* \"#utility.yul\":16395:16399   */\n      0x24\n        /* \"#utility.yul\":16392:16393   */\n      0x00\n        /* \"#utility.yul\":16385:16400   */\n      revert\n        /* \"#utility.yul\":16412:16732   */\n    tag_70:\n        /* \"#utility.yul\":16456:16462   */\n      0x00\n        /* \"#utility.yul\":16493:16494   */\n      0x02\n        /* \"#utility.yul\":16487:16491   */\n      dup3\n        /* \"#utility.yul\":16483:16495   */\n      div\n        /* \"#utility.yul\":16473:16495   */\n      swap1\n      pop\n        /* \"#utility.yul\":16540:16541   */\n      0x01\n        /* \"#utility.yul\":16534:16538   */\n      dup3\n        /* \"#utility.yul\":16530:16542   */\n      and\n        /* \"#utility.yul\":16561:16579   */\n      dup1\n        /* \"#utility.yul\":16551:16632   */\n      tag_478\n      jumpi\n        /* \"#utility.yul\":16617:16621   */\n      0x7f\n        /* \"#utility.yul\":16609:16615   */\n      dup3\n        /* \"#utility.yul\":16605:16622   */\n      and\n        /* \"#utility.yul\":16595:16622   */\n      swap2\n      pop\n        /* \"#utility.yul\":16551:16632   */\n    tag_478:\n        /* \"#utility.yul\":16679:16681   */\n      0x20\n        /* \"#utility.yul\":16671:16677   */\n      dup3\n        /* \"#utility.yul\":16668:16682   */\n      lt\n        /* \"#utility.yul\":16648:16666   */\n      dup2\n        /* \"#utility.yul\":16645:16683   */\n      sub\n        /* \"#utility.yul\":16642:16726   */\n      tag_479\n      jumpi\n        /* \"#utility.yul\":16698:16716   */\n      tag_480\n      tag_268\n      jump\t// in\n    tag_480:\n        /* \"#utility.yul\":16642:16726   */\n    tag_479:\n        /* \"#utility.yul\":16463:16732   */\n      pop\n        /* \"#utility.yul\":16412:16732   */\n      swap2\n      swap1\n      pop\n      jump\t// out\n        /* \"#utility.yul\":16738:16908   */\n    tag_269:\n        /* \"#utility.yul\":16878:16900   */\n      0x4576656e7420646f6573206e6f74206578697374000000000000000000000000\n        /* \"#utility.yul\":16874:16875   */\n      0x00\n        /* \"#utility.yul\":16866:16872   */\n      dup3\n        /* \"#utility.yul\":16862:16876   */\n      add\n        /* \"#utility.yul\":16855:16901   */\n      mstore\n        /* \"#utility.yul\":16738:16908   */\n      pop\n      jump\t// out\n        /* \"#utility.yul\":16914:17280   */\n    tag_270:\n        /* \"#utility.yul\":17056:17059   */\n      0x00\n        /* \"#utility.yul\":17077:17144   */\n      tag_483\n        /* \"#utility.yul\":17141:17143   */\n      0x14\n        /* \"#utility.yul\":17136:17139   */\n      dup4\n        /* \"#utility.yul\":17077:17144   */\n      tag_235\n      jump\t// in\n    tag_483:\n        /* \"#utility.yul\":17070:17144   */\n      swap2\n      pop\n        /* \"#utility.yul\":17153:17246   */\n      tag_484\n        /* \"#utility.yul\":17242:17245   */\n      dup3\n        /* \"#utility.yul\":17153:17246   */\n      tag_269\n      jump\t// in\n    tag_484:\n        /* \"#utility.yul\":17271:17273   */\n      0x20\n        /* \"#utility.yul\":17266:17269   */\n      dup3\n        /* \"#utility.yul\":17262:17274   */\n      add\n        /* \"#utility.yul\":17255:17274   */\n      swap1\n      pop\n        /* \"#utility.yul\":16914:17280   */\n      swap2\n      swap1\n      pop\n      jump\t// out\n        /* \"#utility.yul\":17286:17705   */\n    tag_99:\n        /* \"#utility.yul\":17452:17456   */\n      0x00\n        /* \"#utility.yul\":17490:17492   */\n      0x20\n        /* \"#utility.yul\":17479:17488   */\n      dup3\n        /* \"#utility.yul\":17475:17493   */\n      add\n        /* \"#utility.yul\":17467:17493   */\n      swap1\n      pop\n        /* \"#utility.yul\":17539:17548   */\n      dup2\n        /* \"#utility.yul\":17533:17537   */\n      dup2\n        /* \"#utility.yul\":17529:17549   */\n      sub\n        /* \"#utility.yul\":17525:17526   */\n      0x00\n        /* \"#utility.yul\":17514:17523   */\n      dup4\n        /* \"#utility.yul\":17510:17527   */\n      add\n        /* \"#utility.yul\":17503:17550   */\n      mstore\n        /* \"#utility.yul\":17567:17698   */\n      tag_486\n        /* \"#utility.yul\":17693:17697   */\n      dup2\n        /* \"#utility.yul\":17567:17698   */\n      tag_270\n      jump\t// in\n    tag_486:\n        /* \"#utility.yul\":17559:17698   */\n      swap1\n      pop\n        /* \"#utility.yul\":17286:17705   */\n      swap2\n      swap1\n      pop\n      jump\t// out\n        /* \"#utility.yul\":17711:17890   */\n    tag_271:\n        /* \"#utility.yul\":17851:17882   */\n      0x4f6e6c792061646d696e2063616e206564697420746865206576656e74000000\n        /* \"#utility.yul\":17847:17848   */\n      0x00\n        /* \"#utility.yul\":17839:17845   */\n      dup3\n        /* \"#utility.yul\":17835:17849   */\n      add\n        /* \"#utility.yul\":17828:17883   */\n      mstore\n        /* \"#utility.yul\":17711:17890   */\n      pop\n      jump\t// out\n        /* \"#utility.yul\":17896:18262   */\n    tag_272:\n        /* \"#utility.yul\":18038:18041   */\n      0x00\n        /* \"#utility.yul\":18059:18126   */\n      tag_489\n        /* \"#utility.yul\":18123:18125   */\n      0x1d\n        /* \"#utility.yul\":18118:18121   */\n      dup4\n        /* \"#utility.yul\":18059:18126   */\n      tag_235\n      jump\t// in\n    tag_489:\n        /* \"#utility.yul\":18052:18126   */\n      swap2\n      pop\n        /* \"#utility.yul\":18135:18228   */\n      tag_490\n        /* \"#utility.yul\":18224:18227   */\n      dup3\n        /* \"#utility.yul\":18135:18228   */\n      tag_271\n      jump\t// in\n    tag_490:\n        /* \"#utility.yul\":18253:18255   */\n      0x20\n        /* \"#utility.yul\":18248:18251   */\n      dup3\n        /* \"#utility.yul\":18244:18256   */\n      add\n        /* \"#utility.yul\":18237:18256   */\n      swap1\n      pop\n        /* \"#utility.yul\":17896:18262   */\n      swap2\n      swap1\n      pop\n      jump\t// out\n        /* \"#utility.yul\":18268:18687   */\n    tag_102:\n        /* \"#utility.yul\":18434:18438   */\n      0x00\n        /* \"#utility.yul\":18472:18474   */\n      0x20\n        /* \"#utility.yul\":18461:18470   */\n      dup3\n        /* \"#utility.yul\":18457:18475   */\n      add\n        /* \"#utility.yul\":18449:18475   */\n      swap1\n      pop\n        /* \"#utility.yul\":18521:18530   */\n      dup2\n        /* \"#utility.yul\":18515:18519   */\n      dup2\n        /* \"#utility.yul\":18511:18531   */\n      sub\n        /* \"#utility.yul\":18507:18508   */\n      0x00\n        /* \"#utility.yul\":18496:18505   */\n      dup4\n        /* \"#utility.yul\":18492:18509   */\n      add\n        /* \"#utility.yul\":18485:18532   */\n      mstore\n        /* \"#utility.yul\":18549:18680   */\n      tag_492\n        /* \"#utility.yul\":18675:18679   */\n      dup2\n        /* \"#utility.yul\":18549:18680   */\n      tag_272\n      jump\t// in\n    tag_492:\n        /* \"#utility.yul\":18541:18680   */\n      swap1\n      pop\n        /* \"#utility.yul\":18268:18687   */\n      swap2\n      swap1\n      pop\n      jump\t// out\n        /* \"#utility.yul\":18693:18834   */\n    tag_273:\n        /* \"#utility.yul\":18742:18746   */\n      0x00\n        /* \"#utility.yul\":18765:18768   */\n      dup2\n        /* \"#utility.yul\":18757:18768   */\n      swap1\n      pop\n        /* \"#utility.yul\":18788:18791   */\n      dup2\n        /* \"#utility.yul\":18785:18786   */\n      0x00\n        /* \"#utility.yul\":18778:18792   */\n      mstore\n        /* \"#utility.yul\":18822:18826   */\n      0x20\n        /* \"#utility.yul\":18819:18820   */\n      0x00\n        /* \"#utility.yul\":18809:18827   */\n      keccak256\n        /* \"#utility.yul\":18801:18827   */\n      swap1\n      pop\n        /* \"#utility.yul\":18693:18834   */\n      swap2\n      swap1\n      pop\n      jump\t// out\n        /* \"#utility.yul\":18840:18933   */\n    tag_274:\n        /* \"#utility.yul\":18877:18883   */\n      0x00\n        /* \"#utility.yul\":18924:18926   */\n      0x20\n        /* \"#utility.yul\":18919:18921   */\n      0x1f\n        /* \"#utility.yul\":18912:18917   */\n      dup4\n        /* \"#utility.yul\":18908:18922   */\n      add\n        /* \"#utility.yul\":18904:18927   */\n      div\n        /* \"#utility.yul\":18894:18927   */\n      swap1\n      pop\n        /* \"#utility.yul\":18840:18933   */\n      swap2\n      swap1\n      pop\n      jump\t// out\n        /* \"#utility.yul\":18939:19046   */\n    tag_275:\n        /* \"#utility.yul\":18983:18991   */\n      0x00\n        /* \"#utility.yul\":19033:19038   */\n      dup3\n        /* \"#utility.yul\":19027:19031   */\n      dup3\n        /* \"#utility.yul\":19023:19039   */\n      shl\n        /* \"#utility.yul\":19002:19039   */\n      swap1\n      pop\n        /* \"#utility.yul\":18939:19046   */\n      swap3\n      swap2\n      pop\n      pop\n      jump\t// out\n        /* \"#utility.yul\":19052:19445   */\n    tag_276:\n        /* \"#utility.yul\":19121:19127   */\n      0x00\n        /* \"#utility.yul\":19171:19172   */\n      0x08\n        /* \"#utility.yul\":19159:19169   */\n      dup4\n        /* \"#utility.yul\":19155:19173   */\n      mul\n        /* \"#utility.yul\":19194:19291   */\n      tag_497\n        /* \"#utility.yul\":19224:19290   */\n      0xffffffffffffffffffffffffffffffffffffffffffffffffffffffffffffffff\n        /* \"#utility.yul\":19213:19222   */\n      dup3\n        /* \"#utility.yul\":19194:19291   */\n      tag_275\n      jump\t// in\n    tag_497:\n        /* \"#utility.yul\":19312:19351   */\n      tag_498\n        /* \"#utility.yul\":19342:19350   */\n      dup7\n        /* \"#utility.yul\":19331:19340   */\n      dup4\n        /* \"#utility.yul\":19312:19351   */\n      tag_275\n      jump\t// in\n    tag_498:\n        /* \"#utility.yul\":19300:19351   */\n      swap6\n      pop\n        /* \"#utility.yul\":19384:19388   */\n      dup1\n        /* \"#utility.yul\":19380:19389   */\n      not\n        /* \"#utility.yul\":19373:19378   */\n      dup5\n        /* \"#utility.yul\":19369:19390   */\n      and\n        /* \"#utility.yul\":19360:19390   */\n      swap4\n      pop\n        /* \"#utility.yul\":19433:19437   */\n      dup1\n        /* \"#utility.yul\":19423:19431   */\n      dup7\n        /* \"#utility.yul\":19419:19438   */\n      and\n        /* \"#utility.yul\":19412:19417   */\n      dup5\n        /* \"#utility.yul\":19409:19439   */\n      or\n        /* \"#utility.yul\":19399:19439   */\n      swap3\n      pop\n        /* \"#utility.yul\":19128:19445   */\n      pop\n      pop\n        /* \"#utility.yul\":19052:19445   */\n      swap4\n      swap3\n      pop\n      pop\n      pop\n      jump\t// out\n        /* \"#utility.yul\":19451:19511   */\n    tag_277:\n        /* \"#utility.yul\":19479:19482   */\n      0x00\n        /* \"#utility.yul\":19500:19505   */\n      dup2\n        /* \"#utility.yul\":19493:19505   */\n      swap1\n      pop\n        /* \"#utility.yul\":19451:19511   */\n      swap2\n      swap1\n      pop\n      jump\t// out\n        /* \"#utility.yul\":19517:19659   */\n    tag_278:\n        /* \"#utility.yul\":19567:19576   */\n      0x00\n        /* \"#utility.yul\":19600:19653   */\n      tag_501\n        /* \"#utility.yul\":19618:19652   */\n      tag_502\n        /* \"#utility.yul\":19627:19651   */\n      tag_503\n        /* \"#utility.yul\":19645:19650   */\n      dup5\n        /* \"#utility.yul\":19627:19651   */\n      tag_239\n      jump\t// in\n    tag_503:\n        /* \"#utility.yul\":19618:19652   */\n      tag_277\n      jump\t// in\n    tag_502:\n        /* \"#utility.yul\":19600:19653   */\n      tag_239\n      jump\t// in\n    tag_501:\n        /* \"#utility.yul\":19587:19653   */\n      swap1\n      pop\n        /* \"#utility.yul\":19517:19659   */\n      swap2\n      swap1\n      pop\n      jump\t// out\n        /* \"#utility.yul\":19665:19740   */\n    tag_279:\n        /* \"#utility.yul\":19708:19711   */\n      0x00\n        /* \"#utility.yul\":19729:19734   */\n      dup2\n        /* \"#utility.yul\":19722:19734   */\n      swap1\n      pop\n        /* \"#utility.yul\":19665:19740   */\n      swap2\n      swap1\n      pop\n      jump\t// out\n        /* \"#utility.yul\":19746:20015   */\n    tag_280:\n        /* \"#utility.yul\":19856:19895   */\n      tag_506\n        /* \"#utility.yul\":19887:19894   */\n      dup4\n        /* \"#utility.yul\":19856:19895   */\n      tag_278\n      jump\t// in\n    tag_506:\n        /* \"#utility.yul\":19917:20008   */\n      tag_507\n        /* \"#utility.yul\":19966:20007   */\n      tag_508\n        /* \"#utility.yul\":19990:20006   */\n      dup3\n        /* \"#utility.yul\":19966:20007   */\n      tag_279\n      jump\t// in\n    tag_508:\n        /* \"#utility.yul\":19958:19964   */\n      dup5\n        /* \"#utility.yul\":19951:19955   */\n      dup5\n        /* \"#utility.yul\":19945:19956   */\n      sload\n        /* \"#utility.yul\":19917:20008   */\n      tag_276\n      jump\t// in\n    tag_507:\n        /* \"#utility.yul\":19911:19915   */\n      dup3\n        /* \"#utility.yul\":19904:20009   */\n      sstore\n        /* \"#utility.yul\":19822:20015   */\n      pop\n        /* \"#utility.yul\":19746:20015   */\n      pop\n      pop\n      pop\n      jump\t// out\n        /* \"#utility.yul\":20021:20094   */\n    tag_281:\n        /* \"#utility.yul\":20066:20069   */\n      0x00\n        /* \"#utility.yul\":20021:20094   */\n      swap1\n      jump\t// out\n        /* \"#utility.yul\":20100:20289   */\n    tag_282:\n        /* \"#utility.yul\":20177:20209   */\n      tag_511\n      tag_281\n      jump\t// in\n    tag_511:\n        /* \"#utility.yul\":20218:20283   */\n      tag_512\n        /* \"#utility.yul\":20276:20282   */\n      dup2\n        /* \"#utility.yul\":20268:20274   */\n      dup5\n        /* \"#utility.yul\":20262:20266   */\n      dup5\n        /* \"#utility.yul\":20218:20283   */\n      tag_280\n      jump\t// in\n    tag_512:\n        /* \"#utility.yul\":20153:20289   */\n      pop\n        /* \"#utility.yul\":20100:20289   */\n      pop\n      pop\n      jump\t// out\n        /* \"#utility.yul\":20295:20481   */\n    tag_283:\n        /* \"#utility.yul\":20355:20475   */\n    tag_514:\n        /* \"#utility.yul\":20372:20375   */\n      dup2\n        /* \"#utility.yul\":20365:20370   */\n      dup2\n        /* \"#utility.yul\":20362:20376   */\n      lt\n        /* \"#utility.yul\":20355:20475   */\n      iszero\n      tag_516\n      jumpi\n        /* \"#utility.yul\":20426:20465   */\n      tag_517\n        /* \"#utility.yul\":20463:20464   */\n      0x00\n        /* \"#utility.yul\":20456:20461   */\n      dup3\n        /* \"#utility.yul\":20426:20465   */\n      tag_282\n      jump\t// in\n    tag_517:\n        /* \"#utility.yul\":20399:20400   */\n      0x01\n        /* \"#utility.yul\":20392:20397   */\n      dup2\n        /* \"#utility.yul\":20388:20401   */\n      add\n        /* \"#utility.yul\":20379:20401   */\n      swap1\n      pop\n        /* \"#utility.yul\":20355:20475   */\n      jump(tag_514)\n    tag_516:\n        /* \"#utility.yul\":20295:20481   */\n      pop\n      pop\n      jump\t// out\n        /* \"#utility.yul\":20487:21030   */\n    tag_284:\n        /* \"#utility.yul\":20588:20590   */\n      0x1f\n        /* \"#utility.yul\":20583:20586   */\n      dup3\n        /* \"#utility.yul\":20580:20591   */\n      gt\n        /* \"#utility.yul\":20577:21023   */\n      iszero\n      tag_519\n      jumpi\n        /* \"#utility.yul\":20622:20660   */\n      tag_520\n        /* \"#utility.yul\":20654:20659   */\n      dup2\n        /* \"#utility.yul\":20622:20660   */\n      tag_273\n      jump\t// in\n    tag_520:\n        /* \"#utility.yul\":20706:20735   */\n      tag_521\n        /* \"#utility.yul\":20724:20734   */\n      dup5\n        /* \"#utility.yul\":20706:20735   */\n      tag_274\n      jump\t// in\n    tag_521:\n        /* \"#utility.yul\":20696:20704   */\n      dup2\n        /* \"#utility.yul\":20692:20736   */\n      add\n        /* \"#utility.yul\":20889:20891   */\n      0x20\n        /* \"#utility.yul\":20877:20887   */\n      dup6\n        /* \"#utility.yul\":20874:20892   */\n      lt\n        /* \"#utility.yul\":20871:20920   */\n      iszero\n      tag_522\n      jumpi\n        /* \"#utility.yul\":20910:20918   */\n      dup2\n        /* \"#utility.yul\":20895:20918   */\n      swap1\n      pop\n        /* \"#utility.yul\":20871:20920   */\n    tag_522:\n        /* \"#utility.yul\":20933:21013   */\n      tag_523\n        /* \"#utility.yul\":20989:21011   */\n      tag_524\n        /* \"#utility.yul\":21007:21010   */\n      dup6\n        /* \"#utility.yul\":20989:21011   */\n      tag_274\n      jump\t// in\n    tag_524:\n        /* \"#utility.yul\":20979:20987   */\n      dup4\n        /* \"#utility.yul\":20975:21012   */\n      add\n        /* \"#utility.yul\":20962:20973   */\n      dup3\n        /* \"#utility.yul\":20933:21013   */\n      tag_283\n      jump\t// in\n    tag_523:\n        /* \"#utility.yul\":20592:21023   */\n      pop\n      pop\n        /* \"#utility.yul\":20577:21023   */\n    tag_519:\n        /* \"#utility.yul\":20487:21030   */\n      pop\n      pop\n      pop\n      jump\t// out\n        /* \"#utility.yul\":21036:21153   */\n    tag_285:\n        /* \"#utility.yul\":21090:21098   */\n      0x00\n        /* \"#utility.yul\":21140:21145   */\n      dup3\n        /* \"#utility.yul\":21134:21138   */\n      dup3\n        /* \"#utility.yul\":21130:21146   */\n      shr\n        /* \"#utility.yul\":21109:21146   */\n      swap1\n      pop\n        /* \"#utility.yul\":21036:21153   */\n      swap3\n      swap2\n      pop\n      pop\n      jump\t// out\n        /* \"#utility.yul\":21159:21328   */\n    tag_286:\n        /* \"#utility.yul\":21203:21209   */\n      0x00\n        /* \"#utility.yul\":21236:21287   */\n      tag_527\n        /* \"#utility.yul\":21284:21285   */\n      0x00\n        /* \"#utility.yul\":21280:21286   */\n      not\n        /* \"#utility.yul\":21272:21277   */\n      dup5\n        /* \"#utility.yul\":21269:21270   */\n      0x08\n        /* \"#utility.yul\":21265:21278   */\n      mul\n        /* \"#utility.yul\":21236:21287   */\n      tag_285\n      jump\t// in\n    tag_527:\n        /* \"#utility.yul\":21232:21288   */\n      not\n        /* \"#utility.yul\":21317:21321   */\n      dup1\n        /* \"#utility.yul\":21311:21315   */\n      dup4\n        /* \"#utility.yul\":21307:21322   */\n      and\n        /* \"#utility.yul\":21297:21322   */\n      swap2\n      pop\n        /* \"#utility.yul\":21210:21328   */\n      pop\n        /* \"#utility.yul\":21159:21328   */\n      swap3\n      swap2\n      pop\n      pop\n      jump\t// out\n        /* \"#utility.yul\":21333:21628   */\n    tag_287:\n        /* \"#utility.yul\":21409:21413   */\n      0x00\n        /* \"#utility.yul\":21555:21584   */\n      tag_529\n        /* \"#utility.yul\":21580:21583   */\n      dup4\n        /* \"#utility.yul\":21574:21578   */\n      dup4\n        /* \"#utility.yul\":21555:21584   */\n      tag_286\n      jump\t// in\n    tag_529:\n        /* \"#utility.yul\":21547:21584   */\n      swap2\n      pop\n        /* \"#utility.yul\":21617:21620   */\n      dup3\n        /* \"#utility.yul\":21614:21615   */\n      0x02\n        /* \"#utility.yul\":21610:21621   */\n      mul\n        /* \"#utility.yul\":21604:21608   */\n      dup3\n        /* \"#utility.yul\":21601:21622   */\n      or\n        /* \"#utility.yul\":21593:21622   */\n      swap1\n      pop\n        /* \"#utility.yul\":21333:21628   */\n      swap3\n      swap2\n      pop\n      pop\n      jump\t// out\n        /* \"#utility.yul\":21633:23028   */\n    tag_104:\n        /* \"#utility.yul\":21750:21787   */\n      tag_531\n        /* \"#utility.yul\":21783:21786   */\n      dup3\n        /* \"#utility.yul\":21750:21787   */\n      tag_234\n      jump\t// in\n    tag_531:\n        /* \"#utility.yul\":21852:21870   */\n      0xffffffffffffffff\n        /* \"#utility.yul\":21844:21850   */\n      dup2\n        /* \"#utility.yul\":21841:21871   */\n      gt\n        /* \"#utility.yul\":21838:21894   */\n      iszero\n      tag_532\n      jumpi\n        /* \"#utility.yul\":21874:21892   */\n      tag_533\n      tag_199\n      jump\t// in\n    tag_533:\n        /* \"#utility.yul\":21838:21894   */\n    tag_532:\n        /* \"#utility.yul\":21918:21956   */\n      tag_534\n        /* \"#utility.yul\":21950:21954   */\n      dup3\n        /* \"#utility.yul\":21944:21955   */\n      sload\n        /* \"#utility.yul\":21918:21956   */\n      tag_70\n      jump\t// in\n    tag_534:\n        /* \"#utility.yul\":22003:22070   */\n      tag_535\n        /* \"#utility.yul\":22063:22069   */\n      dup3\n        /* \"#utility.yul\":22055:22061   */\n      dup3\n        /* \"#utility.yul\":22049:22053   */\n      dup6\n        /* \"#utility.yul\":22003:22070   */\n      tag_284\n      jump\t// in\n    tag_535:\n        /* \"#utility.yul\":22097:22098   */\n      0x00\n        /* \"#utility.yul\":22121:22125   */\n      0x20\n        /* \"#utility.yul\":22108:22125   */\n      swap1\n      pop\n        /* \"#utility.yul\":22153:22155   */\n      0x1f\n        /* \"#utility.yul\":22145:22151   */\n      dup4\n        /* \"#utility.yul\":22142:22156   */\n      gt\n        /* \"#utility.yul\":22170:22171   */\n      0x01\n        /* \"#utility.yul\":22165:22783   */\n      dup2\n      eq\n      tag_537\n      jumpi\n        /* \"#utility.yul\":22827:22828   */\n      0x00\n        /* \"#utility.yul\":22844:22850   */\n      dup5\n        /* \"#utility.yul\":22841:22918   */\n      iszero\n      tag_538\n      jumpi\n        /* \"#utility.yul\":22893:22902   */\n      dup3\n        /* \"#utility.yul\":22888:22891   */\n      dup8\n        /* \"#utility.yul\":22884:22903   */\n      add\n        /* \"#utility.yul\":22878:22904   */\n      mload\n        /* \"#utility.yul\":22869:22904   */\n      swap1\n      pop\n        /* \"#utility.yul\":22841:22918   */\n    tag_538:\n        /* \"#utility.yul\":22944:23011   */\n      tag_539\n        /* \"#utility.yul\":23004:23010   */\n      dup6\n        /* \"#utility.yul\":22997:23002   */\n      dup3\n        /* \"#utility.yul\":22944:23011   */\n      tag_287\n      jump\t// in\n    tag_539:\n        /* \"#utility.yul\":22938:22942   */\n      dup7\n        /* \"#utility.yul\":22931:23012   */\n      sstore\n        /* \"#utility.yul\":22800:23022   */\n      pop\n        /* \"#utility.yul\":22135:23022   */\n      jump(tag_536)\n        /* \"#utility.yul\":22165:22783   */\n    tag_537:\n        /* \"#utility.yul\":22217:22221   */\n      0x1f\n        /* \"#utility.yul\":22213:22222   */\n      not\n        /* \"#utility.yul\":22205:22211   */\n      dup5\n        /* \"#utility.yul\":22201:22223   */\n      and\n        /* \"#utility.yul\":22251:22288   */\n      tag_540\n        /* \"#utility.yul\":22283:22287   */\n      dup7\n        /* \"#utility.yul\":22251:22288   */\n      tag_273\n      jump\t// in\n    tag_540:\n        /* \"#utility.yul\":22310:22311   */\n      0x00\n        /* \"#utility.yul\":22324:22532   */\n    tag_541:\n        /* \"#utility.yul\":22338:22345   */\n      dup3\n        /* \"#utility.yul\":22335:22336   */\n      dup2\n        /* \"#utility.yul\":22332:22346   */\n      lt\n        /* \"#utility.yul\":22324:22532   */\n      iszero\n      tag_543\n      jumpi\n        /* \"#utility.yul\":22417:22426   */\n      dup5\n        /* \"#utility.yul\":22412:22415   */\n      dup10\n        /* \"#utility.yul\":22408:22427   */\n      add\n        /* \"#utility.yul\":22402:22428   */\n      mload\n        /* \"#utility.yul\":22394:22400   */\n      dup3\n        /* \"#utility.yul\":22387:22429   */\n      sstore\n        /* \"#utility.yul\":22468:22469   */\n      0x01\n        /* \"#utility.yul\":22460:22466   */\n      dup3\n        /* \"#utility.yul\":22456:22470   */\n      add\n        /* \"#utility.yul\":22446:22470   */\n      swap2\n      pop\n        /* \"#utility.yul\":22515:22517   */\n      0x20\n        /* \"#utility.yul\":22504:22513   */\n      dup6\n        /* \"#utility.yul\":22500:22518   */\n      add\n        /* \"#utility.yul\":22487:22518   */\n      swap5\n      pop\n        /* \"#utility.yul\":22361:22365   */\n      0x20\n        /* \"#utility.yul\":22358:22359   */\n      dup2\n        /* \"#utility.yul\":22354:22366   */\n      add\n        /* \"#utility.yul\":22349:22366   */\n      swap1\n      pop\n        /* \"#utility.yul\":22324:22532   */\n      jump(tag_541)\n    tag_543:\n        /* \"#utility.yul\":22560:22566   */\n      dup7\n        /* \"#utility.yul\":22551:22558   */\n      dup4\n        /* \"#utility.yul\":22548:22567   */\n      lt\n        /* \"#utility.yul\":22545:22724   */\n      iszero\n      tag_544\n      jumpi\n        /* \"#utility.yul\":22618:22627   */\n      dup5\n        /* \"#utility.yul\":22613:22616   */\n      dup10\n        /* \"#utility.yul\":22609:22628   */\n      add\n        /* \"#utility.yul\":22603:22629   */\n      mload\n        /* \"#utility.yul\":22661:22709   */\n      tag_545\n        /* \"#utility.yul\":22703:22707   */\n      0x1f\n        /* \"#utility.yul\":22695:22701   */\n      dup10\n        /* \"#utility.yul\":22691:22708   */\n      and\n        /* \"#utility.yul\":22680:22689   */\n      dup3\n        /* \"#utility.yul\":22661:22709   */\n      tag_286\n      jump\t// in\n    tag_545:\n        /* \"#utility.yul\":22653:22659   */\n      dup4\n        /* \"#utility.yul\":22646:22710   */\n      sstore\n        /* \"#utility.yul\":22568:22724   */\n      pop\n        /* \"#utility.yul\":22545:22724   */\n    tag_544:\n        /* \"#utility.yul\":22770:22771   */\n      0x01\n        /* \"#utility.yul\":22766:22767   */\n      0x02\n        /* \"#utility.yul\":22758:22764   */\n      dup9\n        /* \"#utility.yul\":22754:22768   */\n      mul\n        /* \"#utility.yul\":22750:22772   */\n      add\n        /* \"#utility.yul\":22744:22748   */\n      dup9\n        /* \"#utility.yul\":22737:22773   */\n      sstore\n        /* \"#utility.yul\":22172:22783   */\n      pop\n      pop\n      pop\n        /* \"#utility.yul\":22135:23022   */\n    tag_536:\n      pop\n        /* \"#utility.yul\":21725:23028   */\n      pop\n      pop\n      pop\n        /* \"#utility.yul\":21633:23028   */\n      pop\n      pop\n      jump\t// out\n        /* \"#utility.yul\":23034:23214   */\n    tag_114:\n        /* \"#utility.yul\":23082:23159   */\n      0x4e487b7100000000000000000000000000000000000000000000000000000000\n        /* \"#utility.yul\":23079:23080   */\n      0x00\n        /* \"#utility.yul\":23072:23160   */\n      mstore\n        /* \"#utility.yul\":23179:23183   */\n      0x32\n        /* \"#utility.yul\":23176:23177   */\n      0x04\n        /* \"#utility.yul\":23169:23184   */\n      mstore\n        /* \"#utility.yul\":23203:23207   */\n      0x24\n        /* \"#utility.yul\":23200:23201   */\n      0x00\n        /* \"#utility.yul\":23193:23208   */\n      revert\n        /* \"#utility.yul\":23220:23453   */\n    tag_288:\n        /* \"#utility.yul\":23360:23394   */\n      0x55736572206973206e6f7420726567697374657265642e20506c656173652072\n        /* \"#utility.yul\":23356:23357   */\n      0x00\n        /* \"#utility.yul\":23348:23354   */\n      dup3\n        /* \"#utility.yul\":23344:23358   */\n      add\n        /* \"#utility.yul\":23337:23395   */\n      mstore\n        /* \"#utility.yul\":23429:23445   */\n      0x656769737465722066697273742e000000000000000000000000000000000000\n        /* \"#utility.yul\":23424:23426   */\n      0x20\n        /* \"#utility.yul\":23416:23422   */\n      dup3\n        /* \"#utility.yul\":23412:23427   */\n      add\n        /* \"#utility.yul\":23405:23446   */\n      mstore\n        /* \"#utility.yul\":23220:23453   */\n      pop\n      jump\t// out\n        /* \"#utility.yul\":23459:23825   */\n    tag_289:\n        /* \"#utility.yul\":23601:23604   */\n      0x00\n        /* \"#utility.yul\":23622:23689   */\n      tag_549\n        /* \"#utility.yul\":23686:23688   */\n      0x2e\n        /* \"#utility.yul\":23681:23684   */\n      dup4\n        /* \"#utility.yul\":23622:23689   */\n      tag_235\n      jump\t// in\n    tag_549:\n        /* \"#utility.yul\":23615:23689   */\n      swap2\n      pop\n        /* \"#utility.yul\":23698:23791   */\n      tag_550\n        /* \"#utility.yul\":23787:23790   */\n      dup3\n        /* \"#utility.yul\":23698:23791   */\n      tag_288\n      jump\t// in\n    tag_550:\n        /* \"#utility.yul\":23816:23818   */\n      0x40\n        /* \"#utility.yul\":23811:23814   */\n      dup3\n        /* \"#utility.yul\":23807:23819   */\n      add\n        /* \"#utility.yul\":23800:23819   */\n      swap1\n      pop\n        /* \"#utility.yul\":23459:23825   */\n      swap2\n      swap1\n      pop\n      jump\t// out\n        /* \"#utility.yul\":23831:24250   */\n    tag_128:\n        /* \"#utility.yul\":23997:24001   */\n      0x00\n        /* \"#utility.yul\":24035:24037   */\n      0x20\n        /* \"#utility.yul\":24024:24033   */\n      dup3\n        /* \"#utility.yul\":24020:24038   */\n      add\n        /* \"#utility.yul\":24012:24038   */\n      swap1\n      pop\n        /* \"#utility.yul\":24084:24093   */\n      dup2\n        /* \"#utility.yul\":24078:24082   */\n      dup2\n        /* \"#utility.yul\":24074:24094   */\n      sub\n        /* \"#utility.yul\":24070:24071   */\n      0x00\n        /* \"#utility.yul\":24059:24068   */\n      dup4\n        /* \"#utility.yul\":24055:24072   */\n      add\n        /* \"#utility.yul\":24048:24095   */\n      mstore\n        /* \"#utility.yul\":24112:24243   */\n      tag_552\n        /* \"#utility.yul\":24238:24242   */\n      dup2\n        /* \"#utility.yul\":24112:24243   */\n      tag_289\n      jump\t// in\n    tag_552:\n        /* \"#utility.yul\":24104:24243   */\n      swap1\n      pop\n        /* \"#utility.yul\":23831:24250   */\n      swap2\n      swap1\n      pop\n      jump\t// out\n        /* \"#utility.yul\":24256:24429   */\n    tag_290:\n        /* \"#utility.yul\":24396:24421   */\n      0x557365722068617320616c7265616479206a6f696e6564000000000000000000\n        /* \"#utility.yul\":24392:24393   */\n      0x00\n        /* \"#utility.yul\":24384:24390   */\n      dup3\n        /* \"#utility.yul\":24380:24394   */\n      add\n        /* \"#utility.yul\":24373:24422   */\n      mstore\n        /* \"#utility.yul\":24256:24429   */\n      pop\n      jump\t// out\n        /* \"#utility.yul\":24435:24801   */\n    tag_291:\n        /* \"#utility.yul\":24577:24580   */\n      0x00\n        /* \"#utility.yul\":24598:24665   */\n      tag_555\n        /* \"#utility.yul\":24662:24664   */\n      0x17\n        /* \"#utility.yul\":24657:24660   */\n      dup4\n        /* \"#utility.yul\":24598:24665   */\n      tag_235\n      jump\t// in\n    tag_555:\n        /* \"#utility.yul\":24591:24665   */\n      swap2\n      pop\n        /* \"#utility.yul\":24674:24767   */\n      tag_556\n        /* \"#utility.yul\":24763:24766   */\n      dup3\n        /* \"#utility.yul\":24674:24767   */\n      tag_290\n      jump\t// in\n    tag_556:\n        /* \"#utility.yul\":24792:24794   */\n      0x20\n        /* \"#utility.yul\":24787:24790   */\n      dup3\n        /* \"#utility.yul\":24783:24795   */\n      add\n        /* \"#utility.yul\":24776:24795   */\n      swap1\n      pop\n        /* \"#utility.yul\":24435:24801   */\n      swap2\n      swap1\n      pop\n      jump\t// out\n        /* \"#utility.yul\":24807:25226   */\n    tag_132:\n        /* \"#utility.yul\":24973:24977   */\n      0x00\n        /* \"#utility.yul\":25011:25013   */\n      0x20\n        /* \"#utility.yul\":25000:25009   */\n      dup3\n        /* \"#utility.yul\":24996:25014   */\n      add\n        /* \"#utility.yul\":24988:25014   */\n      swap1\n      pop\n        /* \"#utility.yul\":25060:25069   */\n      dup2\n        /* \"#utility.yul\":25054:25058   */\n      dup2\n        /* \"#utility.yul\":25050:25070   */\n      sub\n        /* \"#utility.yul\":25046:25047   */\n      0x00\n        /* \"#utility.yul\":25035:25044   */\n      dup4\n        /* \"#utility.yul\":25031:25048   */\n      add\n        /* \"#utility.yul\":25024:25071   */\n      mstore\n        /* \"#utility.yul\":25088:25219   */\n      tag_558\n        /* \"#utility.yul\":25214:25218   */\n      dup2\n        /* \"#utility.yul\":25088:25219   */\n      tag_291\n      jump\t// in\n    tag_558:\n        /* \"#utility.yul\":25080:25219   */\n      swap1\n      pop\n        /* \"#utility.yul\":24807:25226   */\n      swap2\n      swap1\n      pop\n      jump\t// out\n        /* \"#utility.yul\":25232:25395   */\n    tag_292:\n        /* \"#utility.yul\":25372:25387   */\n      0x4576656e742069732066756c6c00000000000000000000000000000000000000\n        /* \"#utility.yul\":25368:25369   */\n      0x00\n        /* \"#utility.yul\":25360:25366   */\n      dup3\n        /* \"#utility.yul\":25356:25370   */\n      add\n        /* \"#utility.yul\":25349:25388   */\n      mstore\n        /* \"#utility.yul\":25232:25395   */\n      pop\n      jump\t// out\n        /* \"#utility.yul\":25401:25767   */\n    tag_293:\n        /* \"#utility.yul\":25543:25546   */\n      0x00\n        /* \"#utility.yul\":25564:25631   */\n      tag_561\n        /* \"#utility.yul\":25628:25630   */\n      0x0d\n        /* \"#utility.yul\":25623:25626   */\n      dup4\n        /* \"#utility.yul\":25564:25631   */\n      tag_235\n      jump\t// in\n    tag_561:\n        /* \"#utility.yul\":25557:25631   */\n      swap2\n      pop\n        /* \"#utility.yul\":25640:25733   */\n      tag_562\n        /* \"#utility.yul\":25729:25732   */\n      dup3\n        /* \"#utility.yul\":25640:25733   */\n      tag_292\n      jump\t// in\n    tag_562:\n        /* \"#utility.yul\":25758:25760   */\n      0x20\n        /* \"#utility.yul\":25753:25756   */\n      dup3\n        /* \"#utility.yul\":25749:25761   */\n      add\n        /* \"#utility.yul\":25742:25761   */\n      swap1\n      pop\n        /* \"#utility.yul\":25401:25767   */\n      swap2\n      swap1\n      pop\n      jump\t// out\n        /* \"#utility.yul\":25773:26192   */\n    tag_136:\n        /* \"#utility.yul\":25939:25943   */\n      0x00\n        /* \"#utility.yul\":25977:25979   */\n      0x20\n        /* \"#utility.yul\":25966:25975   */\n      dup3\n        /* \"#utility.yul\":25962:25980   */\n      add\n        /* \"#utility.yul\":25954:25980   */\n      swap1\n      pop\n        /* \"#utility.yul\":26026:26035   */\n      dup2\n        /* \"#utility.yul\":26020:26024   */\n      dup2\n        /* \"#utility.yul\":26016:26036   */\n      sub\n        /* \"#utility.yul\":26012:26013   */\n      0x00\n        /* \"#utility.yul\":26001:26010   */\n      dup4\n        /* \"#utility.yul\":25997:26014   */\n      add\n        /* \"#utility.yul\":25990:26037   */\n      mstore\n        /* \"#utility.yul\":26054:26185   */\n      tag_564\n        /* \"#utility.yul\":26180:26184   */\n      dup2\n        /* \"#utility.yul\":26054:26185   */\n      tag_293\n      jump\t// in\n    tag_564:\n        /* \"#utility.yul\":26046:26185   */\n      swap1\n      pop\n        /* \"#utility.yul\":25773:26192   */\n      swap2\n      swap1\n      pop\n      jump\t// out\n        /* \"#utility.yul\":26198:26346   */\n    tag_294:\n        /* \"#utility.yul\":26300:26311   */\n      0x00\n        /* \"#utility.yul\":26337:26340   */\n      dup2\n        /* \"#utility.yul\":26322:26340   */\n      swap1\n      pop\n        /* \"#utility.yul\":26198:26346   */\n      swap3\n      swap2\n      pop\n      pop\n      jump\t// out\n        /* \"#utility.yul\":26352:26583   */\n    tag_295:\n        /* \"#utility.yul\":26492:26526   */\n      0x54686973206576656e74206973206e6f7420617661696c61626c6520746f2061\n        /* \"#utility.yul\":26488:26489   */\n      0x00\n        /* \"#utility.yul\":26480:26486   */\n      dup3\n        /* \"#utility.yul\":26476:26490   */\n      add\n        /* \"#utility.yul\":26469:26527   */\n      mstore\n        /* \"#utility.yul\":26561:26575   */\n      0x6e796f6e6520756e646572200000000000000000000000000000000000000000\n        /* \"#utility.yul\":26556:26558   */\n      0x20\n        /* \"#utility.yul\":26548:26554   */\n      dup3\n        /* \"#utility.yul\":26544:26559   */\n      add\n        /* \"#utility.yul\":26537:26576   */\n      mstore\n        /* \"#utility.yul\":26352:26583   */\n      pop\n      jump\t// out\n        /* \"#utility.yul\":26589:26991   */\n    tag_296:\n        /* \"#utility.yul\":26749:26752   */\n      0x00\n        /* \"#utility.yul\":26770:26855   */\n      tag_568\n        /* \"#utility.yul\":26852:26854   */\n      0x2c\n        /* \"#utility.yul\":26847:26850   */\n      dup4\n        /* \"#utility.yul\":26770:26855   */\n      tag_294\n      jump\t// in\n    tag_568:\n        /* \"#utility.yul\":26763:26855   */\n      swap2\n      pop\n        /* \"#utility.yul\":26864:26957   */\n      tag_569\n        /* \"#utility.yul\":26953:26956   */\n      dup3\n        /* \"#utility.yul\":26864:26957   */\n      tag_295\n      jump\t// in\n    tag_569:\n        /* \"#utility.yul\":26982:26984   */\n      0x2c\n        /* \"#utility.yul\":26977:26980   */\n      dup3\n        /* \"#utility.yul\":26973:26985   */\n      add\n        /* \"#utility.yul\":26966:26985   */\n      swap1\n      pop\n        /* \"#utility.yul\":26589:26991   */\n      swap2\n      swap1\n      pop\n      jump\t// out\n        /* \"#utility.yul\":26997:27387   */\n    tag_297:\n        /* \"#utility.yul\":27103:27106   */\n      0x00\n        /* \"#utility.yul\":27131:27170   */\n      tag_571\n        /* \"#utility.yul\":27164:27169   */\n      dup3\n        /* \"#utility.yul\":27131:27170   */\n      tag_234\n      jump\t// in\n    tag_571:\n        /* \"#utility.yul\":27186:27275   */\n      tag_572\n        /* \"#utility.yul\":27268:27274   */\n      dup2\n        /* \"#utility.yul\":27263:27266   */\n      dup6\n        /* \"#utility.yul\":27186:27275   */\n      tag_294\n      jump\t// in\n    tag_572:\n        /* \"#utility.yul\":27179:27275   */\n      swap4\n      pop\n        /* \"#utility.yul\":27284:27349   */\n      tag_573\n        /* \"#utility.yul\":27342:27348   */\n      dup2\n        /* \"#utility.yul\":27337:27340   */\n      dup6\n        /* \"#utility.yul\":27330:27334   */\n      0x20\n        /* \"#utility.yul\":27323:27328   */\n      dup7\n        /* \"#utility.yul\":27319:27335   */\n      add\n        /* \"#utility.yul\":27284:27349   */\n      tag_236\n      jump\t// in\n    tag_573:\n        /* \"#utility.yul\":27374:27380   */\n      dup1\n        /* \"#utility.yul\":27369:27372   */\n      dup5\n        /* \"#utility.yul\":27365:27381   */\n      add\n        /* \"#utility.yul\":27358:27381   */\n      swap2\n      pop\n        /* \"#utility.yul\":27107:27387   */\n      pop\n        /* \"#utility.yul\":26997:27387   */\n      swap3\n      swap2\n      pop\n      pop\n      jump\t// out\n        /* \"#utility.yul\":27393:27934   */\n    tag_140:\n        /* \"#utility.yul\":27626:27629   */\n      0x00\n        /* \"#utility.yul\":27648:27796   */\n      tag_575\n        /* \"#utility.yul\":27792:27795   */\n      dup3\n        /* \"#utility.yul\":27648:27796   */\n      tag_296\n      jump\t// in\n    tag_575:\n        /* \"#utility.yul\":27641:27796   */\n      swap2\n      pop\n        /* \"#utility.yul\":27813:27908   */\n      tag_576\n        /* \"#utility.yul\":27904:27907   */\n      dup3\n        /* \"#utility.yul\":27895:27901   */\n      dup5\n        /* \"#utility.yul\":27813:27908   */\n      tag_297\n      jump\t// in\n    tag_576:\n        /* \"#utility.yul\":27806:27908   */\n      swap2\n      pop\n        /* \"#utility.yul\":27925:27928   */\n      dup2\n        /* \"#utility.yul\":27918:27928   */\n      swap1\n      pop\n        /* \"#utility.yul\":27393:27934   */\n      swap3\n      swap2\n      pop\n      pop\n      jump\t// out\n        /* \"#utility.yul\":27940:28253   */\n    tag_143:\n        /* \"#utility.yul\":28053:28057   */\n      0x00\n        /* \"#utility.yul\":28091:28093   */\n      0x20\n        /* \"#utility.yul\":28080:28089   */\n      dup3\n        /* \"#utility.yul\":28076:28094   */\n      add\n        /* \"#utility.yul\":28068:28094   */\n      swap1\n      pop\n        /* \"#utility.yul\":28140:28149   */\n      dup2\n        /* \"#utility.yul\":28134:28138   */\n      dup2\n        /* \"#utility.yul\":28130:28150   */\n      sub\n        /* \"#utility.yul\":28126:28127   */\n      0x00\n        /* \"#utility.yul\":28115:28124   */\n      dup4\n        /* \"#utility.yul\":28111:28128   */\n      add\n        /* \"#utility.yul\":28104:28151   */\n      mstore\n        /* \"#utility.yul\":28168:28246   */\n      tag_578\n        /* \"#utility.yul\":28241:28245   */\n      dup2\n        /* \"#utility.yul\":28232:28238   */\n      dup5\n        /* \"#utility.yul\":28168:28246   */\n      tag_238\n      jump\t// in\n    tag_578:\n        /* \"#utility.yul\":28160:28246   */\n      swap1\n      pop\n        /* \"#utility.yul\":27940:28253   */\n      swap3\n      swap2\n      pop\n      pop\n      jump\t// out\n        /* \"#utility.yul\":28259:28426   */\n    tag_298:\n        /* \"#utility.yul\":28399:28418   */\n      0x556e726567697374657265642075736572000000000000000000000000000000\n        /* \"#utility.yul\":28395:28396   */\n      0x00\n        /* \"#utility.yul\":28387:28393   */\n      dup3\n        /* \"#utility.yul\":28383:28397   */\n      add\n        /* \"#utility.yul\":28376:28419   */\n      mstore\n        /* \"#utility.yul\":28259:28426   */\n      pop\n      jump\t// out\n        /* \"#utility.yul\":28432:28798   */\n    tag_299:\n        /* \"#utility.yul\":28574:28577   */\n      0x00\n        /* \"#utility.yul\":28595:28662   */\n      tag_581\n        /* \"#utility.yul\":28659:28661   */\n      0x11\n        /* \"#utility.yul\":28654:28657   */\n      dup4\n        /* \"#utility.yul\":28595:28662   */\n      tag_235\n      jump\t// in\n    tag_581:\n        /* \"#utility.yul\":28588:28662   */\n      swap2\n      pop\n        /* \"#utility.yul\":28671:28764   */\n      tag_582\n        /* \"#utility.yul\":28760:28763   */\n      dup3\n        /* \"#utility.yul\":28671:28764   */\n      tag_298\n      jump\t// in\n    tag_582:\n        /* \"#utility.yul\":28789:28791   */\n      0x20\n        /* \"#utility.yul\":28784:28787   */\n      dup3\n        /* \"#utility.yul\":28780:28792   */\n      add\n        /* \"#utility.yul\":28773:28792   */\n      swap1\n      pop\n        /* \"#utility.yul\":28432:28798   */\n      swap2\n      swap1\n      pop\n      jump\t// out\n        /* \"#utility.yul\":28804:29223   */\n    tag_150:\n        /* \"#utility.yul\":28970:28974   */\n      0x00\n        /* \"#utility.yul\":29008:29010   */\n      0x20\n        /* \"#utility.yul\":28997:29006   */\n      dup3\n        /* \"#utility.yul\":28993:29011   */\n      add\n        /* \"#utility.yul\":28985:29011   */\n      swap1\n      pop\n        /* \"#utility.yul\":29057:29066   */\n      dup2\n        /* \"#utility.yul\":29051:29055   */\n      dup2\n        /* \"#utility.yul\":29047:29067   */\n      sub\n        /* \"#utility.yul\":29043:29044   */\n      0x00\n        /* \"#utility.yul\":29032:29041   */\n      dup4\n        /* \"#utility.yul\":29028:29045   */\n      add\n        /* \"#utility.yul\":29021:29068   */\n      mstore\n        /* \"#utility.yul\":29085:29216   */\n      tag_584\n        /* \"#utility.yul\":29211:29215   */\n      dup2\n        /* \"#utility.yul\":29085:29216   */\n      tag_299\n      jump\t// in\n    tag_584:\n        /* \"#utility.yul\":29077:29216   */\n      swap1\n      pop\n        /* \"#utility.yul\":28804:29223   */\n      swap2\n      swap1\n      pop\n      jump\t// out\n        /* \"#utility.yul\":29229:29405   */\n    tag_300:\n        /* \"#utility.yul\":29369:29397   */\n      0x55736572206973206e6f74207965742072656769737465726564000000000000\n        /* \"#utility.yul\":29365:29366   */\n      0x00\n        /* \"#utility.yul\":29357:29363   */\n      dup3\n        /* \"#utility.yul\":29353:29367   */\n      add\n        /* \"#utility.yul\":29346:29398   */\n      mstore\n        /* \"#utility.yul\":29229:29405   */\n      pop\n      jump\t// out\n        /* \"#utility.yul\":29411:29777   */\n    tag_301:\n        /* \"#utility.yul\":29553:29556   */\n      0x00\n        /* \"#utility.yul\":29574:29641   */\n      tag_587\n        /* \"#utility.yul\":29638:29640   */\n      0x1a\n        /* \"#utility.yul\":29633:29636   */\n      dup4\n        /* \"#utility.yul\":29574:29641   */\n      tag_235\n      jump\t// in\n    tag_587:\n        /* \"#utility.yul\":29567:29641   */\n      swap2\n      pop\n        /* \"#utility.yul\":29650:29743   */\n      tag_588\n        /* \"#utility.yul\":29739:29742   */\n      dup3\n        /* \"#utility.yul\":29650:29743   */\n      tag_300\n      jump\t// in\n    tag_588:\n        /* \"#utility.yul\":29768:29770   */\n      0x20\n        /* \"#utility.yul\":29763:29766   */\n      dup3\n        /* \"#utility.yul\":29759:29771   */\n      add\n        /* \"#utility.yul\":29752:29771   */\n      swap1\n      pop\n        /* \"#utility.yul\":29411:29777   */\n      swap2\n      swap1\n      pop\n      jump\t// out\n        /* \"#utility.yul\":29783:30202   */\n    tag_159:\n        /* \"#utility.yul\":29949:29953   */\n      0x00\n        /* \"#utility.yul\":29987:29989   */\n      0x20\n        /* \"#utility.yul\":29976:29985   */\n      dup3\n        /* \"#utility.yul\":29972:29990   */\n      add\n        /* \"#utility.yul\":29964:29990   */\n      swap1\n      pop\n        /* \"#utility.yul\":30036:30045   */\n      dup2\n        /* \"#utility.yul\":30030:30034   */\n      dup2\n        /* \"#utility.yul\":30026:30046   */\n      sub\n        /* \"#utility.yul\":30022:30023   */\n      0x00\n        /* \"#utility.yul\":30011:30020   */\n      dup4\n        /* \"#utility.yul\":30007:30024   */\n      add\n        /* \"#utility.yul\":30000:30047   */\n      mstore\n        /* \"#utility.yul\":30064:30195   */\n      tag_590\n        /* \"#utility.yul\":30190:30194   */\n      dup2\n        /* \"#utility.yul\":30064:30195   */\n      tag_301\n      jump\t// in\n    tag_590:\n        /* \"#utility.yul\":30056:30195   */\n      swap1\n      pop\n        /* \"#utility.yul\":29783:30202   */\n      swap2\n      swap1\n      pop\n      jump\t// out\n        /* \"#utility.yul\":30208:30357   */\n    tag_302:\n        /* \"#utility.yul\":30257:30263   */\n      0x00\n        /* \"#utility.yul\":30291:30296   */\n      dup2\n        /* \"#utility.yul\":30285:30297   */\n      sload\n        /* \"#utility.yul\":30275:30297   */\n      swap1\n      pop\n        /* \"#utility.yul\":30317:30350   */\n      tag_592\n        /* \"#utility.yul\":30343:30349   */\n      dup2\n        /* \"#utility.yul\":30317:30350   */\n      tag_70\n      jump\t// in\n    tag_592:\n        /* \"#utility.yul\":30307:30350   */\n      swap1\n      pop\n        /* \"#utility.yul\":30208:30357   */\n      swap2\n      swap1\n      pop\n      jump\t// out\n        /* \"#utility.yul\":30363:31814   */\n    tag_165:\n        /* \"#utility.yul\":30474:30477   */\n      dup2\n        /* \"#utility.yul\":30468:30472   */\n      dup2\n        /* \"#utility.yul\":30465:30478   */\n      sub\n        /* \"#utility.yul\":30462:30488   */\n      tag_594\n      jumpi\n        /* \"#utility.yul\":30481:30486   */\n      pop\n      pop\n      jump(tag_593)\n        /* \"#utility.yul\":30462:30488   */\n    tag_594:\n        /* \"#utility.yul\":30512:30546   */\n      tag_595\n        /* \"#utility.yul\":30542:30545   */\n      dup3\n        /* \"#utility.yul\":30512:30546   */\n      tag_302\n      jump\t// in\n    tag_595:\n        /* \"#utility.yul\":30611:30629   */\n      0xffffffffffffffff\n        /* \"#utility.yul\":30603:30609   */\n      dup2\n        /* \"#utility.yul\":30600:30630   */\n      gt\n        /* \"#utility.yul\":30597:30653   */\n      iszero\n      tag_596\n      jumpi\n        /* \"#utility.yul\":30633:30651   */\n      tag_597\n      tag_199\n      jump\t// in\n    tag_597:\n        /* \"#utility.yul\":30597:30653   */\n    tag_596:\n        /* \"#utility.yul\":30677:30715   */\n      tag_598\n        /* \"#utility.yul\":30709:30713   */\n      dup3\n        /* \"#utility.yul\":30703:30714   */\n      sload\n        /* \"#utility.yul\":30677:30715   */\n      tag_70\n      jump\t// in\n    tag_598:\n        /* \"#utility.yul\":30762:30829   */\n      tag_599\n        /* \"#utility.yul\":30822:30828   */\n      dup3\n        /* \"#utility.yul\":30814:30820   */\n      dup3\n        /* \"#utility.yul\":30808:30812   */\n      dup6\n        /* \"#utility.yul\":30762:30829   */\n      tag_284\n      jump\t// in\n    tag_599:\n        /* \"#utility.yul\":30856:30857   */\n      0x00\n        /* \"#utility.yul\":30885:30887   */\n      0x1f\n        /* \"#utility.yul\":30877:30883   */\n      dup4\n        /* \"#utility.yul\":30874:30888   */\n      gt\n        /* \"#utility.yul\":30902:30903   */\n      0x01\n        /* \"#utility.yul\":30897:31569   */\n      dup2\n      eq\n      tag_601\n      jumpi\n        /* \"#utility.yul\":31613:31614   */\n      0x00\n        /* \"#utility.yul\":31630:31636   */\n      dup5\n        /* \"#utility.yul\":31627:31704   */\n      iszero\n      tag_602\n      jumpi\n        /* \"#utility.yul\":31679:31688   */\n      dup3\n        /* \"#utility.yul\":31674:31677   */\n      dup8\n        /* \"#utility.yul\":31670:31689   */\n      add\n        /* \"#utility.yul\":31664:31690   */\n      sload\n        /* \"#utility.yul\":31655:31690   */\n      swap1\n      pop\n        /* \"#utility.yul\":31627:31704   */\n    tag_602:\n        /* \"#utility.yul\":31730:31797   */\n      tag_603\n        /* \"#utility.yul\":31790:31796   */\n      dup6\n        /* \"#utility.yul\":31783:31788   */\n      dup3\n        /* \"#utility.yul\":31730:31797   */\n      tag_287\n      jump\t// in\n    tag_603:\n        /* \"#utility.yul\":31724:31728   */\n      dup7\n        /* \"#utility.yul\":31717:31798   */\n      sstore\n        /* \"#utility.yul\":31586:31808   */\n      pop\n        /* \"#utility.yul\":30867:31808   */\n      jump(tag_600)\n        /* \"#utility.yul\":30897:31569   */\n    tag_601:\n        /* \"#utility.yul\":30949:30953   */\n      0x1f\n        /* \"#utility.yul\":30945:30954   */\n      not\n        /* \"#utility.yul\":30937:30943   */\n      dup5\n        /* \"#utility.yul\":30933:30955   */\n      and\n        /* \"#utility.yul\":30975:31011   */\n      tag_604\n        /* \"#utility.yul\":31007:31010   */\n      dup8\n        /* \"#utility.yul\":30975:31011   */\n      tag_273\n      jump\t// in\n    tag_604:\n        /* \"#utility.yul\":30968:31011   */\n      swap7\n      pop\n        /* \"#utility.yul\":31038:31075   */\n      tag_605\n        /* \"#utility.yul\":31070:31074   */\n      dup7\n        /* \"#utility.yul\":31038:31075   */\n      tag_273\n      jump\t// in\n    tag_605:\n        /* \"#utility.yul\":31097:31098   */\n      0x00\n        /* \"#utility.yul\":31111:31318   */\n    tag_606:\n        /* \"#utility.yul\":31125:31132   */\n      dup3\n        /* \"#utility.yul\":31122:31123   */\n      dup2\n        /* \"#utility.yul\":31119:31133   */\n      lt\n        /* \"#utility.yul\":31111:31318   */\n      iszero\n      tag_608\n      jumpi\n        /* \"#utility.yul\":31204:31213   */\n      dup5\n        /* \"#utility.yul\":31199:31202   */\n      dup10\n        /* \"#utility.yul\":31195:31214   */\n      add\n        /* \"#utility.yul\":31189:31215   */\n      sload\n        /* \"#utility.yul\":31181:31187   */\n      dup3\n        /* \"#utility.yul\":31174:31216   */\n      sstore\n        /* \"#utility.yul\":31255:31256   */\n      0x01\n        /* \"#utility.yul\":31247:31253   */\n      dup3\n        /* \"#utility.yul\":31243:31257   */\n      add\n        /* \"#utility.yul\":31233:31257   */\n      swap2\n      pop\n        /* \"#utility.yul\":31302:31303   */\n      0x01\n        /* \"#utility.yul\":31291:31300   */\n      dup6\n        /* \"#utility.yul\":31287:31304   */\n      add\n        /* \"#utility.yul\":31274:31304   */\n      swap5\n      pop\n        /* \"#utility.yul\":31148:31152   */\n      0x20\n        /* \"#utility.yul\":31145:31146   */\n      dup2\n        /* \"#utility.yul\":31141:31153   */\n      add\n        /* \"#utility.yul\":31136:31153   */\n      swap1\n      pop\n        /* \"#utility.yul\":31111:31318   */\n      jump(tag_606)\n    tag_608:\n        /* \"#utility.yul\":31346:31352   */\n      dup7\n        /* \"#utility.yul\":31337:31344   */\n      dup4\n        /* \"#utility.yul\":31334:31353   */\n      lt\n        /* \"#utility.yul\":31331:31510   */\n      iszero\n      tag_609\n      jumpi\n        /* \"#utility.yul\":31404:31413   */\n      dup5\n        /* \"#utility.yul\":31399:31402   */\n      dup10\n        /* \"#utility.yul\":31395:31414   */\n      add\n        /* \"#utility.yul\":31389:31415   */\n      sload\n        /* \"#utility.yul\":31447:31495   */\n      tag_610\n        /* \"#utility.yul\":31489:31493   */\n      0x1f\n        /* \"#utility.yul\":31481:31487   */\n      dup10\n        /* \"#utility.yul\":31477:31494   */\n      and\n        /* \"#utility.yul\":31466:31475   */\n      dup3\n        /* \"#utility.yul\":31447:31495   */\n      tag_286\n      jump\t// in\n    tag_610:\n        /* \"#utility.yul\":31439:31445   */\n      dup4\n        /* \"#utility.yul\":31432:31496   */\n      sstore\n        /* \"#utility.yul\":31354:31510   */\n      pop\n        /* \"#utility.yul\":31331:31510   */\n    tag_609:\n        /* \"#utility.yul\":31556:31557   */\n      0x01\n        /* \"#utility.yul\":31552:31553   */\n      0x02\n        /* \"#utility.yul\":31544:31550   */\n      dup9\n        /* \"#utility.yul\":31540:31554   */\n      mul\n        /* \"#utility.yul\":31536:31558   */\n      add\n        /* \"#utility.yul\":31530:31534   */\n      dup9\n        /* \"#utility.yul\":31523:31559   */\n      sstore\n        /* \"#utility.yul\":30904:31569   */\n      pop\n      pop\n      pop\n        /* \"#utility.yul\":30867:31808   */\n    tag_600:\n      pop\n        /* \"#utility.yul\":30452:31814   */\n      pop\n      pop\n      pop\n        /* \"#utility.yul\":30363:31814   */\n      pop\n      pop\n    tag_593:\n      jump\t// out\n        /* \"#utility.yul\":31820:32000   */\n    tag_303:\n        /* \"#utility.yul\":31868:31945   */\n      0x4e487b7100000000000000000000000000000000000000000000000000000000\n        /* \"#utility.yul\":31865:31866   */\n      0x00\n        /* \"#utility.yul\":31858:31946   */\n      mstore\n        /* \"#utility.yul\":31965:31969   */\n      0x11\n        /* \"#utility.yul\":31962:31963   */\n      0x04\n        /* \"#utility.yul\":31955:31970   */\n      mstore\n        /* \"#utility.yul\":31989:31993   */\n      0x24\n        /* \"#utility.yul\":31986:31987   */\n      0x00\n        /* \"#utility.yul\":31979:31994   */\n      revert\n        /* \"#utility.yul\":32006:32237   */\n    tag_167:\n        /* \"#utility.yul\":32044:32047   */\n      0x00\n        /* \"#utility.yul\":32067:32090   */\n      tag_613\n        /* \"#utility.yul\":32084:32089   */\n      dup3\n        /* \"#utility.yul\":32067:32090   */\n      tag_227\n      jump\t// in\n    tag_613:\n        /* \"#utility.yul\":32058:32090   */\n      swap2\n      pop\n        /* \"#utility.yul\":32112:32178   */\n      0x7fffffffffffffffffffffffffffffffffffffffffffffffffffffffffffffff\n        /* \"#utility.yul\":32105:32110   */\n      dup3\n        /* \"#utility.yul\":32102:32179   */\n      sub\n        /* \"#utility.yul\":32099:32202   */\n      tag_614\n      jumpi\n        /* \"#utility.yul\":32182:32200   */\n      tag_615\n      tag_303\n      jump\t// in\n    tag_615:\n        /* \"#utility.yul\":32099:32202   */\n    tag_614:\n        /* \"#utility.yul\":32229:32230   */\n      0x01\n        /* \"#utility.yul\":32222:32227   */\n      dup3\n        /* \"#utility.yul\":32218:32231   */\n      add\n        /* \"#utility.yul\":32211:32231   */\n      swap1\n      pop\n        /* \"#utility.yul\":32006:32237   */\n      swap2\n      swap1\n      pop\n      jump\t// out\n        /* \"#utility.yul\":32243:32412   */\n    tag_304:\n        /* \"#utility.yul\":32383:32404   */\n      0x5573657220616c72656164792065786973747300000000000000000000000000\n        /* \"#utility.yul\":32379:32380   */\n      0x00\n        /* \"#utility.yul\":32371:32377   */\n      dup3\n        /* \"#utility.yul\":32367:32381   */\n      add\n        /* \"#utility.yul\":32360:32405   */\n      mstore\n        /* \"#utility.yul\":32243:32412   */\n      pop\n      jump\t// out\n        /* \"#utility.yul\":32418:32784   */\n    tag_305:\n        /* \"#utility.yul\":32560:32563   */\n      0x00\n        /* \"#utility.yul\":32581:32648   */\n      tag_618\n        /* \"#utility.yul\":32645:32647   */\n      0x13\n        /* \"#utility.yul\":32640:32643   */\n      dup4\n        /* \"#utility.yul\":32581:32648   */\n      tag_235\n      jump\t// in\n    tag_618:\n        /* \"#utility.yul\":32574:32648   */\n      swap2\n      pop\n        /* \"#utility.yul\":32657:32750   */\n      tag_619\n        /* \"#utility.yul\":32746:32749   */\n      dup3\n        /* \"#utility.yul\":32657:32750   */\n      tag_304\n      jump\t// in\n    tag_619:\n        /* \"#utility.yul\":32775:32777   */\n      0x20\n        /* \"#utility.yul\":32770:32773   */\n      dup3\n        /* \"#utility.yul\":32766:32778   */\n      add\n        /* \"#utility.yul\":32759:32778   */\n      swap1\n      pop\n        /* \"#utility.yul\":32418:32784   */\n      swap2\n      swap1\n      pop\n      jump\t// out\n        /* \"#utility.yul\":32790:33209   */\n    tag_189:\n        /* \"#utility.yul\":32956:32960   */\n      0x00\n        /* \"#utility.yul\":32994:32996   */\n      0x20\n        /* \"#utility.yul\":32983:32992   */\n      dup3\n        /* \"#utility.yul\":32979:32997   */\n      add\n        /* \"#utility.yul\":32971:32997   */\n      swap1\n      pop\n        /* \"#utility.yul\":33043:33052   */\n      dup2\n        /* \"#utility.yul\":33037:33041   */\n      dup2\n        /* \"#utility.yul\":33033:33053   */\n      sub\n        /* \"#utility.yul\":33029:33030   */\n      0x00\n        /* \"#utility.yul\":33018:33027   */\n      dup4\n        /* \"#utility.yul\":33014:33031   */\n      add\n        /* \"#utility.yul\":33007:33054   */\n      mstore\n        /* \"#utility.yul\":33071:33202   */\n      tag_621\n        /* \"#utility.yul\":33197:33201   */\n      dup2\n        /* \"#utility.yul\":33071:33202   */\n      tag_305\n      jump\t// in\n    tag_621:\n        /* \"#utility.yul\":33063:33202   */\n      swap1\n      pop\n        /* \"#utility.yul\":32790:33209   */\n      swap2\n      swap1\n      pop\n      jump\t// out\n        /* \"#utility.yul\":33215:33409   */\n    tag_193:\n        /* \"#utility.yul\":33255:33259   */\n      0x00\n        /* \"#utility.yul\":33275:33295   */\n      tag_623\n        /* \"#utility.yul\":33293:33294   */\n      dup3\n        /* \"#utility.yul\":33275:33295   */\n      tag_239\n      jump\t// in\n    tag_623:\n        /* \"#utility.yul\":33270:33295   */\n      swap2\n      pop\n        /* \"#utility.yul\":33309:33329   */\n      tag_624\n        /* \"#utility.yul\":33327:33328   */\n      dup4\n        /* \"#utility.yul\":33309:33329   */\n      tag_239\n      jump\t// in\n    tag_624:\n        /* \"#utility.yul\":33304:33329   */\n      swap3\n      pop\n        /* \"#utility.yul\":33353:33354   */\n      dup3\n        /* \"#utility.yul\":33350:33351   */\n      dup3\n        /* \"#utility.yul\":33346:33355   */\n      sub\n        /* \"#utility.yul\":33338:33355   */\n      swap1\n      pop\n        /* \"#utility.yul\":33377:33378   */\n      dup2\n        /* \"#utility.yul\":33371:33375   */\n      dup2\n        /* \"#utility.yul\":33368:33379   */\n      gt\n        /* \"#utility.yul\":33365:33402   */\n      iszero\n      tag_625\n      jumpi\n        /* \"#utility.yul\":33382:33400   */\n      tag_626\n      tag_303\n      jump\t// in\n    tag_626:\n        /* \"#utility.yul\":33365:33402   */\n    tag_625:\n        /* \"#utility.yul\":33215:33409   */\n      swap3\n      swap2\n      pop\n      pop\n      jump\t// out\n        /* \"#utility.yul\":33415:33595   */\n    tag_205:\n        /* \"#utility.yul\":33463:33540   */\n      0x4e487b7100000000000000000000000000000000000000000000000000000000\n        /* \"#utility.yul\":33460:33461   */\n      0x00\n        /* \"#utility.yul\":33453:33541   */\n      mstore\n        /* \"#utility.yul\":33560:33564   */\n      0x12\n        /* \"#utility.yul\":33557:33558   */\n      0x04\n        /* \"#utility.yul\":33550:33565   */\n      mstore\n        /* \"#utility.yul\":33584:33588   */\n      0x24\n        /* \"#utility.yul\":33581:33582   */\n      0x00\n        /* \"#utility.yul\":33574:33589   */\n      revert\n\n    auxdata: 0xa264697066735822122001a42f5ecb33ec2c3eea8a93140e7a887103769f94b07afa3ed27f181a0b899e64736f6c634300081a0033\n}\n",
				"bytecode": {
					"linkReferences": {},
					"object": "60806040525f80553480156011575f80fd5b506129a18061001f5f395ff3fe608060405234801561000f575f80fd5b50600436106100b2575f3560e01c80635f8e7c2e1161006f5780635f8e7c2e146101935780636386c1c7146101af57806382728252146101df578063b7013dc11461020f578063d39510021461022d578063f5d3fe6414610249576100b2565b806309ac3bb5146100b65780630b925ac1146100d45780630e3ed2441461010d5780631ab49d41146101295780632605c660146101595780635d8d158514610175575b5f80fd5b6100be610279565b6040516100cb9190611835565b60405180910390f35b6100ee60048036038101906100e99190611889565b610281565b6040516101049a99989796959493929190611a5b565b60405180910390f35b61012760048036038101906101229190611cc2565b610600565b005b610143600480360381019061013e9190611889565b61081c565b6040516101509190611df6565b60405180910390f35b610173600480360381019061016e9190611889565b6108e2565b005b61017d610c74565b60405161018a9190611e0f565b60405180910390f35b6101ad60048036038101906101a89190611e2f565b610e83565b005b6101c960048036038101906101c49190611f7a565b6110f3565b6040516101d69190611e0f565b60405180910390f35b6101f960048036038101906101f49190611fa5565b611304565b6040516102069190611df6565b60405180910390f35b6102176113cb565b6040516102249190611fe3565b60405180910390f35b61024760048036038101906102429190611ffc565b6113e9565b005b610263600480360381019061025e9190611889565b61158e565b6040516102709190611fe3565b60405180910390f35b5f8054905090565b6001602052805f5260405f205f91509050805f0154908060010180546102a690612083565b80601f01602080910402602001604051908101604052809291908181526020018280546102d290612083565b801561031d5780601f106102f45761010080835404028352916020019161031d565b820191905f5260205f20905b81548152906001019060200180831161030057829003601f168201915b50505050509080600201805461033290612083565b80601f016020809104026020016040519081016040528092919081815260200182805461035e90612083565b80156103a95780601f10610380576101008083540402835291602001916103a9565b820191905f5260205f20905b81548152906001019060200180831161038c57829003601f168201915b5050505050908060030180546103be90612083565b80601f01602080910402602001604051908101604052809291908181526020018280546103ea90612083565b80156104355780601f1061040c57610100808354040283529160200191610435565b820191905f5260205f20905b81548152906001019060200180831161041857829003601f168201915b50505050509080600401805461044a90612083565b80601f016020809104026020016040519081016040528092919081815260200182805461047690612083565b80156104c15780601f10610498576101008083540402835291602001916104c1565b820191905f5260205f20905b8154815290600101906020018083116104a457829003601f168201915b505050505090806005015490806006015490806007015f9054906101000a900467ffffffffffffffff1690806008016040518060600160405290815f82015f9054906101000a900473ffffffffffffffffffffffffffffffffffffffff1673ffffffffffffffffffffffffffffffffffffffff1673ffffffffffffffffffffffffffffffffffffffff16815260200160018201805461055f90612083565b80601f016020809104026020016040519081016040528092919081815260200182805461058b90612083565b80156105d65780601f106105ad576101008083540402835291602001916105d6565b820191905f5260205f20905b8154815290600101906020018083116105b957829003601f168201915b505050505081526020016002820154815250509080600c015f9054906101000a900460ff1690508a565b5f891215801561061057505f5489125b61064f576040517f08c379a0000000000000000000000000000000000000000000000000000000008152600401610646906120fd565b60405180910390fd5b3373ffffffffffffffffffffffffffffffffffffffff1660015f8b81526020019081526020015f206008015f015f9054906101000a900473ffffffffffffffffffffffffffffffffffffffff1673ffffffffffffffffffffffffffffffffffffffff16146106f2576040517f08c379a00000000000000000000000000000000000000000000000000000000081526004016106e990612165565b60405180910390fd5b8760015f8b81526020019081526020015f2060010190816107139190612320565b508660015f8b81526020019081526020015f2060020190816107359190612320565b508560015f8b81526020019081526020015f2060030190816107579190612320565b508460015f8b81526020019081526020015f2060040190816107799190612320565b508360015f8b81526020019081526020015f20600501819055508260015f8b81526020019081526020015f20600601819055508160015f8b81526020019081526020015f206007015f6101000a81548167ffffffffffffffff021916908367ffffffffffffffff1602179055508060015f8b81526020019081526020015f20600c015f6101000a81548160ff021916908315150217905550505050505050505050565b5f805f90505b60015f8481526020019081526020015f20600b01805490508110156108d8573373ffffffffffffffffffffffffffffffffffffffff1660015f8581526020019081526020015f20600b01828154811061087e5761087d6123ef565b5b905f5260205f20015f9054906101000a900473ffffffffffffffffffffffffffffffffffffffff1673ffffffffffffffffffffffffffffffffffffffff16036108cb5760019150506108dd565b8080600101915050610822565b505f90505b919050565b5f81121580156108f257505f5481125b610931576040517f08c379a0000000000000000000000000000000000000000000000000000000008152600401610928906120fd565b60405180910390fd5b5f60015f8381526020019081526020015f2090505f60025f3373ffffffffffffffffffffffffffffffffffffffff1673ffffffffffffffffffffffffffffffffffffffff1681526020019081526020015f206040518060600160405290815f82015f9054906101000a900473ffffffffffffffffffffffffffffffffffffffff1673ffffffffffffffffffffffffffffffffffffffff1673ffffffffffffffffffffffffffffffffffffffff1681526020016001820180546109f290612083565b80601f0160208091040260200160405190810160405280929190818152602001828054610a1e90612083565b8015610a695780601f10610a4057610100808354040283529160200191610a69565b820191905f5260205f20905b815481529060010190602001808311610a4c57829003601f168201915b5050505050815260200160028201548152505090505f73ffffffffffffffffffffffffffffffffffffffff16815f015173ffffffffffffffffffffffffffffffffffffffff1603610aef576040517f08c379a0000000000000000000000000000000000000000000000000000000008152600401610ae69061248c565b60405180910390fd5b610af93384611304565b15610b39576040517f08c379a0000000000000000000000000000000000000000000000000000000008152600401610b30906124f4565b60405180910390fd5b5f610b438461158e565b11610b83576040517f08c379a0000000000000000000000000000000000000000000000000000000008152600401610b7a9061255c565b60405180910390fd5b816006015481604001511015610b9c83600601546115cd565b604051602001610bac9190612624565b60405160208183030381529060405290610bfc576040517f08c379a0000000000000000000000000000000000000000000000000000000008152600401610bf39190612645565b60405180910390fd5b5060015f8481526020019081526020015f20600b0133908060018154018082558091505060019003905f5260205f20015f9091909190916101000a81548173ffffffffffffffffffffffffffffffffffffffff021916908373ffffffffffffffffffffffffffffffffffffffff160217905550505050565b610c7c6117e8565b5f73ffffffffffffffffffffffffffffffffffffffff1660025f3373ffffffffffffffffffffffffffffffffffffffff1673ffffffffffffffffffffffffffffffffffffffff1681526020019081526020015f205f015f9054906101000a900473ffffffffffffffffffffffffffffffffffffffff1673ffffffffffffffffffffffffffffffffffffffff1603610d48576040517f08c379a0000000000000000000000000000000000000000000000000000000008152600401610d3f906126af565b60405180910390fd5b60025f3373ffffffffffffffffffffffffffffffffffffffff1673ffffffffffffffffffffffffffffffffffffffff1681526020019081526020015f206040518060600160405290815f82015f9054906101000a900473ffffffffffffffffffffffffffffffffffffffff1673ffffffffffffffffffffffffffffffffffffffff1673ffffffffffffffffffffffffffffffffffffffff168152602001600182018054610df490612083565b80601f0160208091040260200160405190810160405280929190818152602001828054610e2090612083565b8015610e6b5780601f10610e4257610100808354040283529160200191610e6b565b820191905f5260205f20905b815481529060010190602001808311610e4e57829003601f168201915b50505050508152602001600282015481525050905090565b5f73ffffffffffffffffffffffffffffffffffffffff1660025f3373ffffffffffffffffffffffffffffffffffffffff1673ffffffffffffffffffffffffffffffffffffffff1681526020019081526020015f205f015f9054906101000a900473ffffffffffffffffffffffffffffffffffffffff1673ffffffffffffffffffffffffffffffffffffffff1603610f4f576040517f08c379a0000000000000000000000000000000000000000000000000000000008152600401610f4690612717565b60405180910390fd5b5f60015f805481526020019081526020015f2090505f54815f018190555088816001019081610f7e9190612320565b5087816002019081610f909190612320565b5086816003019081610fa29190612320565b5085816004019081610fb49190612320565b5084816005018190555083816006018190555082816007015f6101000a81548167ffffffffffffffff021916908367ffffffffffffffff16021790555060025f3373ffffffffffffffffffffffffffffffffffffffff1673ffffffffffffffffffffffffffffffffffffffff1681526020019081526020015f20816008015f82015f9054906101000a900473ffffffffffffffffffffffffffffffffffffffff16815f015f6101000a81548173ffffffffffffffffffffffffffffffffffffffff021916908373ffffffffffffffffffffffffffffffffffffffff160217905550600182018160010190816110a9919061274a565b50600282015481600201559050508181600c015f6101000a81548160ff0219169083151502179055505f808154809291906110e39061285c565b9190505550505050505050505050565b6110fb6117e8565b5f73ffffffffffffffffffffffffffffffffffffffff1660025f8473ffffffffffffffffffffffffffffffffffffffff1673ffffffffffffffffffffffffffffffffffffffff1681526020019081526020015f205f015f9054906101000a900473ffffffffffffffffffffffffffffffffffffffff1673ffffffffffffffffffffffffffffffffffffffff16036111c7576040517f08c379a00000000000000000000000000000000000000000000000000000000081526004016111be906126af565b60405180910390fd5b60025f8373ffffffffffffffffffffffffffffffffffffffff1673ffffffffffffffffffffffffffffffffffffffff1681526020019081526020015f206040518060600160405290815f82015f9054906101000a900473ffffffffffffffffffffffffffffffffffffffff1673ffffffffffffffffffffffffffffffffffffffff1673ffffffffffffffffffffffffffffffffffffffff16815260200160018201805461127390612083565b80601f016020809104026020016040519081016040528092919081815260200182805461129f90612083565b80156112ea5780601f106112c1576101008083540402835291602001916112ea565b820191905f5260205f20905b8154815290600101906020018083116112cd57829003601f168201915b505050505081526020016002820154815250509050919050565b5f805f90505b60015f8481526020019081526020015f20600b01805490508110156113c0578373ffffffffffffffffffffffffffffffffffffffff1660015f8581526020019081526020015f20600b018281548110611366576113656123ef565b5b905f5260205f20015f9054906101000a900473ffffffffffffffffffffffffffffffffffffffff1673ffffffffffffffffffffffffffffffffffffffff16036113b35760019150506113c5565b808060010191505061130a565b505f90505b92915050565b5f3373ffffffffffffffffffffffffffffffffffffffff1631905090565b5f73ffffffffffffffffffffffffffffffffffffffff1660025f3373ffffffffffffffffffffffffffffffffffffffff1673ffffffffffffffffffffffffffffffffffffffff1681526020019081526020015f205f015f9054906101000a900473ffffffffffffffffffffffffffffffffffffffff1673ffffffffffffffffffffffffffffffffffffffff16146114b5576040517f08c379a00000000000000000000000000000000000000000000000000000000081526004016114ac906128ed565b60405180910390fd5b60405180606001604052803373ffffffffffffffffffffffffffffffffffffffff1681526020018381526020018281525060025f3373ffffffffffffffffffffffffffffffffffffffff1673ffffffffffffffffffffffffffffffffffffffff1681526020019081526020015f205f820151815f015f6101000a81548173ffffffffffffffffffffffffffffffffffffffff021916908373ffffffffffffffffffffffffffffffffffffffff160217905550602082015181600101908161157c9190612320565b50604082015181600201559050505050565b5f60015f8381526020019081526020015f20600b018054905060015f8481526020019081526020015f20600501546115c6919061290b565b9050919050565b60605f60016115db84611697565b0190505f8167ffffffffffffffff8111156115f9576115f8611b20565b5b6040519080825280601f01601f19166020018201604052801561162b5781602001600182028036833780820191505090505b5090505f82602001820190505b60011561168c578080600190039150507f3031323334353637383961626364656600000000000000000000000000000000600a86061a8153600a85816116815761168061293e565b5b0494505f8503611638575b819350505050919050565b5f805f90507a184f03e93ff9f4daa797ed6e38ed64bf6a1f01000000000000000083106116f3577a184f03e93ff9f4daa797ed6e38ed64bf6a1f01000000000000000083816116e9576116e861293e565b5b0492506040810190505b6d04ee2d6d415b85acef81000000008310611730576d04ee2d6d415b85acef810000000083816117265761172561293e565b5b0492506020810190505b662386f26fc10000831061175f57662386f26fc1000083816117555761175461293e565b5b0492506010810190505b6305f5e1008310611788576305f5e100838161177e5761177d61293e565b5b0492506008810190505b61271083106117ad5761271083816117a3576117a261293e565b5b0492506004810190505b606483106117d057606483816117c6576117c561293e565b5b0492506002810190505b600a83106117df576001810190505b80915050919050565b60405180606001604052805f73ffffffffffffffffffffffffffffffffffffffff168152602001606081526020015f81525090565b5f819050919050565b61182f8161181d565b82525050565b5f6020820190506118485f830184611826565b92915050565b5f604051905090565b5f80fd5b5f80fd5b6118688161181d565b8114611872575f80fd5b50565b5f813590506118838161185f565b92915050565b5f6020828403121561189e5761189d611857565b5b5f6118ab84828501611875565b91505092915050565b5f81519050919050565b5f82825260208201905092915050565b8281835e5f83830152505050565b5f601f19601f8301169050919050565b5f6118f6826118b4565b61190081856118be565b93506119108185602086016118ce565b611919816118dc565b840191505092915050565b5f819050919050565b61193681611924565b82525050565b5f67ffffffffffffffff82169050919050565b6119588161193c565b82525050565b5f73ffffffffffffffffffffffffffffffffffffffff82169050919050565b5f6119878261195e565b9050919050565b6119978161197d565b82525050565b5f82825260208201905092915050565b5f6119b7826118b4565b6119c1818561199d565b93506119d18185602086016118ce565b6119da816118dc565b840191505092915050565b6119ee81611924565b82525050565b5f606083015f830151611a095f86018261198e565b5060208301518482036020860152611a2182826119ad565b9150506040830151611a3660408601826119e5565b508091505092915050565b5f8115159050919050565b611a5581611a41565b82525050565b5f61014082019050611a6f5f83018d611826565b8181036020830152611a81818c6118ec565b90508181036040830152611a95818b6118ec565b90508181036060830152611aa9818a6118ec565b90508181036080830152611abd81896118ec565b9050611acc60a083018861192d565b611ad960c083018761192d565b611ae660e083018661194f565b818103610100830152611af981856119f4565b9050611b09610120830184611a4c565b9b9a5050505050505050505050565b5f80fd5b5f80fd5b7f4e487b71000000000000000000000000000000000000000000000000000000005f52604160045260245ffd5b611b56826118dc565b810181811067ffffffffffffffff82111715611b7557611b74611b20565b5b80604052505050565b5f611b8761184e565b9050611b938282611b4d565b919050565b5f67ffffffffffffffff821115611bb257611bb1611b20565b5b611bbb826118dc565b9050602081019050919050565b828183375f83830152505050565b5f611be8611be384611b98565b611b7e565b905082815260208101848484011115611c0457611c03611b1c565b5b611c0f848285611bc8565b509392505050565b5f82601f830112611c2b57611c2a611b18565b5b8135611c3b848260208601611bd6565b91505092915050565b611c4d81611924565b8114611c57575f80fd5b50565b5f81359050611c6881611c44565b92915050565b611c778161193c565b8114611c81575f80fd5b50565b5f81359050611c9281611c6e565b92915050565b611ca181611a41565b8114611cab575f80fd5b50565b5f81359050611cbc81611c98565b92915050565b5f805f805f805f805f6101208a8c031215611ce057611cdf611857565b5b5f611ced8c828d01611875565b99505060208a013567ffffffffffffffff811115611d0e57611d0d61185b565b5b611d1a8c828d01611c17565b98505060408a013567ffffffffffffffff811115611d3b57611d3a61185b565b5b611d478c828d01611c17565b97505060608a013567ffffffffffffffff811115611d6857611d6761185b565b5b611d748c828d01611c17565b96505060808a013567ffffffffffffffff811115611d9557611d9461185b565b5b611da18c828d01611c17565b95505060a0611db28c828d01611c5a565b94505060c0611dc38c828d01611c5a565b93505060e0611dd48c828d01611c84565b925050610100611de68c828d01611cae565b9150509295985092959850929598565b5f602082019050611e095f830184611a4c565b92915050565b5f6020820190508181035f830152611e2781846119f4565b905092915050565b5f805f805f805f80610100898b031215611e4c57611e4b611857565b5b5f89013567ffffffffffffffff811115611e6957611e6861185b565b5b611e758b828c01611c17565b985050602089013567ffffffffffffffff811115611e9657611e9561185b565b5b611ea28b828c01611c17565b975050604089013567ffffffffffffffff811115611ec357611ec261185b565b5b611ecf8b828c01611c17565b965050606089013567ffffffffffffffff811115611ef057611eef61185b565b5b611efc8b828c01611c17565b9550506080611f0d8b828c01611c5a565b94505060a0611f1e8b828c01611c5a565b93505060c0611f2f8b828c01611c84565b92505060e0611f408b828c01611cae565b9150509295985092959890939650565b611f598161197d565b8114611f63575f80fd5b50565b5f81359050611f7481611f50565b92915050565b5f60208284031215611f8f57611f8e611857565b5b5f611f9c84828501611f66565b91505092915050565b5f8060408385031215611fbb57611fba611857565b5b5f611fc885828601611f66565b9250506020611fd985828601611875565b9150509250929050565b5f602082019050611ff65f83018461192d565b92915050565b5f806040838503121561201257612011611857565b5b5f83013567ffffffffffffffff81111561202f5761202e61185b565b5b61203b85828601611c17565b925050602061204c85828601611c5a565b9150509250929050565b7f4e487b71000000000000000000000000000000000000000000000000000000005f52602260045260245ffd5b5f600282049050600182168061209a57607f821691505b6020821081036120ad576120ac612056565b5b50919050565b7f4576656e7420646f6573206e6f742065786973740000000000000000000000005f82015250565b5f6120e76014836118be565b91506120f2826120b3565b602082019050919050565b5f6020820190508181035f830152612114816120db565b9050919050565b7f4f6e6c792061646d696e2063616e206564697420746865206576656e740000005f82015250565b5f61214f601d836118be565b915061215a8261211b565b602082019050919050565b5f6020820190508181035f83015261217c81612143565b9050919050565b5f819050815f5260205f209050919050565b5f6020601f8301049050919050565b5f82821b905092915050565b5f600883026121df7fffffffffffffffffffffffffffffffffffffffffffffffffffffffffffffffff826121a4565b6121e986836121a4565b95508019841693508086168417925050509392505050565b5f819050919050565b5f61222461221f61221a84611924565b612201565b611924565b9050919050565b5f819050919050565b61223d8361220a565b6122516122498261222b565b8484546121b0565b825550505050565b5f90565b612265612259565b612270818484612234565b505050565b5b81811015612293576122885f8261225d565b600181019050612276565b5050565b601f8211156122d8576122a981612183565b6122b284612195565b810160208510156122c1578190505b6122d56122cd85612195565b830182612275565b50505b505050565b5f82821c905092915050565b5f6122f85f19846008026122dd565b1980831691505092915050565b5f61231083836122e9565b9150826002028217905092915050565b612329826118b4565b67ffffffffffffffff81111561234257612341611b20565b5b61234c8254612083565b612357828285612297565b5f60209050601f831160018114612388575f8415612376578287015190505b6123808582612305565b8655506123e7565b601f19841661239686612183565b5f5b828110156123bd57848901518255600182019150602085019450602081019050612398565b868310156123da57848901516123d6601f8916826122e9565b8355505b6001600288020188555050505b505050505050565b7f4e487b71000000000000000000000000000000000000000000000000000000005f52603260045260245ffd5b7f55736572206973206e6f7420726567697374657265642e20506c6561736520725f8201527f656769737465722066697273742e000000000000000000000000000000000000602082015250565b5f612476602e836118be565b91506124818261241c565b604082019050919050565b5f6020820190508181035f8301526124a38161246a565b9050919050565b7f557365722068617320616c7265616479206a6f696e65640000000000000000005f82015250565b5f6124de6017836118be565b91506124e9826124aa565b602082019050919050565b5f6020820190508181035f83015261250b816124d2565b9050919050565b7f4576656e742069732066756c6c000000000000000000000000000000000000005f82015250565b5f612546600d836118be565b915061255182612512565b602082019050919050565b5f6020820190508181035f8301526125738161253a565b9050919050565b5f81905092915050565b7f54686973206576656e74206973206e6f7420617661696c61626c6520746f20615f8201527f6e796f6e6520756e646572200000000000000000000000000000000000000000602082015250565b5f6125de602c8361257a565b91506125e982612584565b602c82019050919050565b5f6125fe826118b4565b612608818561257a565b93506126188185602086016118ce565b80840191505092915050565b5f61262e826125d2565b915061263a82846125f4565b915081905092915050565b5f6020820190508181035f83015261265d81846118ec565b905092915050565b7f556e7265676973746572656420757365720000000000000000000000000000005f82015250565b5f6126996011836118be565b91506126a482612665565b602082019050919050565b5f6020820190508181035f8301526126c68161268d565b9050919050565b7f55736572206973206e6f742079657420726567697374657265640000000000005f82015250565b5f612701601a836118be565b915061270c826126cd565b602082019050919050565b5f6020820190508181035f83015261272e816126f5565b9050919050565b5f8154905061274381612083565b9050919050565b81810361275857505061282d565b61276182612735565b67ffffffffffffffff81111561277a57612779611b20565b5b6127848254612083565b61278f828285612297565b5f601f8311600181146127bc575f84156127aa578287015490505b6127b48582612305565b865550612826565b601f1984166127ca87612183565b96506127d586612183565b5f5b828110156127fc578489015482556001820191506001850194506020810190506127d7565b868310156128195784890154612815601f8916826122e9565b8355505b6001600288020188555050505b5050505050505b565b7f4e487b71000000000000000000000000000000000000000000000000000000005f52601160045260245ffd5b5f6128668261181d565b91507f7fffffffffffffffffffffffffffffffffffffffffffffffffffffffffffffff82036128985761289761282f565b5b600182019050919050565b7f5573657220616c726561647920657869737473000000000000000000000000005f82015250565b5f6128d76013836118be565b91506128e2826128a3565b602082019050919050565b5f6020820190508181035f830152612904816128cb565b9050919050565b5f61291582611924565b915061292083611924565b92508282039050818111156129385761293761282f565b5b92915050565b7f4e487b71000000000000000000000000000000000000000000000000000000005f52601260045260245ffdfea264697066735822122001a42f5ecb33ec2c3eea8a93140e7a887103769f94b07afa3ed27f181a0b899e64736f6c634300081a0033",
					"opcodes": "PUSH1 0x80 PUSH1 0x40 MSTORE PUSH0 DUP1 SSTORE CALLVALUE DUP1 ISZERO PUSH1 0x11 JUMPI PUSH0 DUP1 REVERT JUMPDEST POP PUSH2 0x29A1 DUP1 PUSH2 0x1F PUSH0 CODECOPY PUSH0 RETURN INVALID PUSH1 0x80 PUSH1 0x40 MSTORE CALLVALUE DUP1 ISZERO PUSH2 0xF JUMPI PUSH0 DUP1 REVERT JUMPDEST POP PUSH1 0x4 CALLDATASIZE LT PUSH2 0xB2 JUMPI PUSH0 CALLDATALOAD PUSH1 0xE0 SHR DUP1 PUSH4 0x5F8E7C2E GT PUSH2 0x6F JUMPI DUP1 PUSH4 0x5F8E7C2E EQ PUSH2 0x193 JUMPI DUP1 PUSH4 0x6386C1C7 EQ PUSH2 0x1AF JUMPI DUP1 PUSH4 0x82728252 EQ PUSH2 0x1DF JUMPI DUP1 PUSH4 0xB7013DC1 EQ PUSH2 0x20F JUMPI DUP1 PUSH4 0xD3951002 EQ PUSH2 0x22D JUMPI DUP1 PUSH4 0xF5D3FE64 EQ PUSH2 0x249 JUMPI PUSH2 0xB2 JUMP JUMPDEST DUP1 PUSH4 0x9AC3BB5 EQ PUSH2 0xB6 JUMPI DUP1 PUSH4 0xB925AC1 EQ PUSH2 0xD4 JUMPI DUP1 PUSH4 0xE3ED244 EQ PUSH2 0x10D JUMPI DUP1 PUSH4 0x1AB49D41 EQ PUSH2 0x129 JUMPI DUP1 PUSH4 0x2605C660 EQ PUSH2 0x159 JUMPI DUP1 PUSH4 0x5D8D1585 EQ PUSH2 0x175 JUMPI JUMPDEST PUSH0 DUP1 REVERT JUMPDEST PUSH2 0xBE PUSH2 0x279 JUMP JUMPDEST PUSH1 0x40 MLOAD PUSH2 0xCB SWAP2 SWAP1 PUSH2 0x1835 JUMP JUMPDEST PUSH1 0x40 MLOAD DUP1 SWAP2 SUB SWAP1 RETURN JUMPDEST PUSH2 0xEE PUSH1 0x4 DUP1 CALLDATASIZE SUB DUP2 ADD SWAP1 PUSH2 0xE9 SWAP2 SWAP1 PUSH2 0x1889 JUMP JUMPDEST PUSH2 0x281 JUMP JUMPDEST PUSH1 0x40 MLOAD PUSH2 0x104 SWAP11 SWAP10 SWAP9 SWAP8 SWAP7 SWAP6 SWAP5 SWAP4 SWAP3 SWAP2 SWAP1 PUSH2 0x1A5B JUMP JUMPDEST PUSH1 0x40 MLOAD DUP1 SWAP2 SUB SWAP1 RETURN JUMPDEST PUSH2 0x127 PUSH1 0x4 DUP1 CALLDATASIZE SUB DUP2 ADD SWAP1 PUSH2 0x122 SWAP2 SWAP1 PUSH2 0x1CC2 JUMP JUMPDEST PUSH2 0x600 JUMP JUMPDEST STOP JUMPDEST PUSH2 0x143 PUSH1 0x4 DUP1 CALLDATASIZE SUB DUP2 ADD SWAP1 PUSH2 0x13E SWAP2 SWAP1 PUSH2 0x1889 JUMP JUMPDEST PUSH2 0x81C JUMP JUMPDEST PUSH1 0x40 MLOAD PUSH2 0x150 SWAP2 SWAP1 PUSH2 0x1DF6 JUMP JUMPDEST PUSH1 0x40 MLOAD DUP1 SWAP2 SUB SWAP1 RETURN JUMPDEST PUSH2 0x173 PUSH1 0x4 DUP1 CALLDATASIZE SUB DUP2 ADD SWAP1 PUSH2 0x16E SWAP2 SWAP1 PUSH2 0x1889 JUMP JUMPDEST PUSH2 0x8E2 JUMP JUMPDEST STOP JUMPDEST PUSH2 0x17D PUSH2 0xC74 JUMP JUMPDEST PUSH1 0x40 MLOAD PUSH2 0x18A SWAP2 SWAP1 PUSH2 0x1E0F JUMP JUMPDEST PUSH1 0x40 MLOAD DUP1 SWAP2 SUB SWAP1 RETURN JUMPDEST PUSH2 0x1AD PUSH1 0x4 DUP1 CALLDATASIZE SUB DUP2 ADD SWAP1 PUSH2 0x1A8 SWAP2 SWAP1 PUSH2 0x1E2F JUMP JUMPDEST PUSH2 0xE83 JUMP JUMPDEST STOP JUMPDEST PUSH2 0x1C9 PUSH1 0x4 DUP1 CALLDATASIZE SUB DUP2 ADD SWAP1 PUSH2 0x1C4 SWAP2 SWAP1 PUSH2 0x1F7A JUMP JUMPDEST PUSH2 0x10F3 JUMP JUMPDEST PUSH1 0x40 MLOAD PUSH2 0x1D6 SWAP2 SWAP1 PUSH2 0x1E0F JUMP JUMPDEST PUSH1 0x40 MLOAD DUP1 SWAP2 SUB SWAP1 RETURN JUMPDEST PUSH2 0x1F9 PUSH1 0x4 DUP1 CALLDATASIZE SUB DUP2 ADD SWAP1 PUSH2 0x1F4 SWAP2 SWAP1 PUSH2 0x1FA5 JUMP JUMPDEST PUSH2 0x1304 JUMP JUMPDEST PUSH1 0x40 MLOAD PUSH2 0x206 SWAP2 SWAP1 PUSH2 0x1DF6 JUMP JUMPDEST PUSH1 0x40 MLOAD DUP1 SWAP2 SUB SWAP1 RETURN JUMPDEST PUSH2 0x217 PUSH2 0x13CB JUMP JUMPDEST PUSH1 0x40 MLOAD PUSH2 0x224 SWAP2 SWAP1 PUSH2 0x1FE3 JUMP JUMPDEST PUSH1 0x40 MLOAD DUP1 SWAP2 SUB SWAP1 RETURN JUMPDEST PUSH2 0x247 PUSH1 0x4 DUP1 CALLDATASIZE SUB DUP2 ADD SWAP1 PUSH2 0x242 SWAP2 SWAP1 PUSH2 0x1FFC JUMP JUMPDEST PUSH2 0x13E9 JUMP JUMPDEST STOP JUMPDEST PUSH2 0x263 PUSH1 0x4 DUP1 CALLDATASIZE SUB DUP2 ADD SWAP1 PUSH2 0x25E SWAP2 SWAP1 PUSH2 0x1889 JUMP JUMPDEST PUSH2 0x158E JUMP JUMPDEST PUSH1 0x40 MLOAD PUSH2 0x270 SWAP2 SWAP1 PUSH2 0x1FE3 JUMP JUMPDEST PUSH1 0x40 MLOAD DUP1 SWAP2 SUB SWAP1 RETURN JUMPDEST PUSH0 DUP1 SLOAD SWAP1 POP SWAP1 JUMP JUMPDEST PUSH1 0x1 PUSH1 0x20 MSTORE DUP1 PUSH0 MSTORE PUSH1 0x40 PUSH0 KECCAK256 PUSH0 SWAP2 POP SWAP1 POP DUP1 PUSH0 ADD SLOAD SWAP1 DUP1 PUSH1 0x1 ADD DUP1 SLOAD PUSH2 0x2A6 SWAP1 PUSH2 0x2083 JUMP JUMPDEST DUP1 PUSH1 0x1F ADD PUSH1 0x20 DUP1 SWAP2 DIV MUL PUSH1 0x20 ADD PUSH1 0x40 MLOAD SWAP1 DUP2 ADD PUSH1 0x40 MSTORE DUP1 SWAP3 SWAP2 SWAP1 DUP2 DUP2 MSTORE PUSH1 0x20 ADD DUP3 DUP1 SLOAD PUSH2 0x2D2 SWAP1 PUSH2 0x2083 JUMP JUMPDEST DUP1 ISZERO PUSH2 0x31D JUMPI DUP1 PUSH1 0x1F LT PUSH2 0x2F4 JUMPI PUSH2 0x100 DUP1 DUP4 SLOAD DIV MUL DUP4 MSTORE SWAP2 PUSH1 0x20 ADD SWAP2 PUSH2 0x31D JUMP JUMPDEST DUP3 ADD SWAP2 SWAP1 PUSH0 MSTORE PUSH1 0x20 PUSH0 KECCAK256 SWAP1 JUMPDEST DUP2 SLOAD DUP2 MSTORE SWAP1 PUSH1 0x1 ADD SWAP1 PUSH1 0x20 ADD DUP1 DUP4 GT PUSH2 0x300 JUMPI DUP3 SWAP1 SUB PUSH1 0x1F AND DUP3 ADD SWAP2 JUMPDEST POP POP POP POP POP SWAP1 DUP1 PUSH1 0x2 ADD DUP1 SLOAD PUSH2 0x332 SWAP1 PUSH2 0x2083 JUMP JUMPDEST DUP1 PUSH1 0x1F ADD PUSH1 0x20 DUP1 SWAP2 DIV MUL PUSH1 0x20 ADD PUSH1 0x40 MLOAD SWAP1 DUP2 ADD PUSH1 0x40 MSTORE DUP1 SWAP3 SWAP2 SWAP1 DUP2 DUP2 MSTORE PUSH1 0x20 ADD DUP3 DUP1 SLOAD PUSH2 0x35E SWAP1 PUSH2 0x2083 JUMP JUMPDEST DUP1 ISZERO PUSH2 0x3A9 JUMPI DUP1 PUSH1 0x1F LT PUSH2 0x380 JUMPI PUSH2 0x100 DUP1 DUP4 SLOAD DIV MUL DUP4 MSTORE SWAP2 PUSH1 0x20 ADD SWAP2 PUSH2 0x3A9 JUMP JUMPDEST DUP3 ADD SWAP2 SWAP1 PUSH0 MSTORE PUSH1 0x20 PUSH0 KECCAK256 SWAP1 JUMPDEST DUP2 SLOAD DUP2 MSTORE SWAP1 PUSH1 0x1 ADD SWAP1 PUSH1 0x20 ADD DUP1 DUP4 GT PUSH2 0x38C JUMPI DUP3 SWAP1 SUB PUSH1 0x1F AND DUP3 ADD SWAP2 JUMPDEST POP POP POP POP POP SWAP1 DUP1 PUSH1 0x3 ADD DUP1 SLOAD PUSH2 0x3BE SWAP1 PUSH2 0x2083 JUMP JUMPDEST DUP1 PUSH1 0x1F ADD PUSH1 0x20 DUP1 SWAP2 DIV MUL PUSH1 0x20 ADD PUSH1 0x40 MLOAD SWAP1 DUP2 ADD PUSH1 0x40 MSTORE DUP1 SWAP3 SWAP2 SWAP1 DUP2 DUP2 MSTORE PUSH1 0x20 ADD DUP3 DUP1 SLOAD PUSH2 0x3EA SWAP1 PUSH2 0x2083 JUMP JUMPDEST DUP1 ISZERO PUSH2 0x435 JUMPI DUP1 PUSH1 0x1F LT PUSH2 0x40C JUMPI PUSH2 0x100 DUP1 DUP4 SLOAD DIV MUL DUP4 MSTORE SWAP2 PUSH1 0x20 ADD SWAP2 PUSH2 0x435 JUMP JUMPDEST DUP3 ADD SWAP2 SWAP1 PUSH0 MSTORE PUSH1 0x20 PUSH0 KECCAK256 SWAP1 JUMPDEST DUP2 SLOAD DUP2 MSTORE SWAP1 PUSH1 0x1 ADD SWAP1 PUSH1 0x20 ADD DUP1 DUP4 GT PUSH2 0x418 JUMPI DUP3 SWAP1 SUB PUSH1 0x1F AND DUP3 ADD SWAP2 JUMPDEST POP POP POP POP POP SWAP1 DUP1 PUSH1 0x4 ADD DUP1 SLOAD PUSH2 0x44A SWAP1 PUSH2 0x2083 JUMP JUMPDEST DUP1 PUSH1 0x1F ADD PUSH1 0x20 DUP1 SWAP2 DIV MUL PUSH1 0x20 ADD PUSH1 0x40 MLOAD SWAP1 DUP2 ADD PUSH1 0x40 MSTORE DUP1 SWAP3 SWAP2 SWAP1 DUP2 DUP2 MSTORE PUSH1 0x20 ADD DUP3 DUP1 SLOAD PUSH2 0x476 SWAP1 PUSH2 0x2083 JUMP JUMPDEST DUP1 ISZERO PUSH2 0x4C1 JUMPI DUP1 PUSH1 0x1F LT PUSH2 0x498 JUMPI PUSH2 0x100 DUP1 DUP4 SLOAD DIV MUL DUP4 MSTORE SWAP2 PUSH1 0x20 ADD SWAP2 PUSH2 0x4C1 JUMP JUMPDEST DUP3 ADD SWAP2 SWAP1 PUSH0 MSTORE PUSH1 0x20 PUSH0 KECCAK256 SWAP1 JUMPDEST DUP2 SLOAD DUP2 MSTORE SWAP1 PUSH1 0x1 ADD SWAP1 PUSH1 0x20 ADD DUP1 DUP4 GT PUSH2 0x4A4 JUMPI DUP3 SWAP1 SUB PUSH1 0x1F AND DUP3 ADD SWAP2 JUMPDEST POP POP POP POP POP SWAP1 DUP1 PUSH1 0x5 ADD SLOAD SWAP1 DUP1 PUSH1 0x6 ADD SLOAD SWAP1 DUP1 PUSH1 0x7 ADD PUSH0 SWAP1 SLOAD SWAP1 PUSH2 0x100 EXP SWAP1 DIV PUSH8 0xFFFFFFFFFFFFFFFF AND SWAP1 DUP1 PUSH1 0x8 ADD PUSH1 0x40 MLOAD DUP1 PUSH1 0x60 ADD PUSH1 0x40 MSTORE SWAP1 DUP2 PUSH0 DUP3 ADD PUSH0 SWAP1 SLOAD SWAP1 PUSH2 0x100 EXP SWAP1 DIV PUSH20 0xFFFFFFFFFFFFFFFFFFFFFFFFFFFFFFFFFFFFFFFF AND PUSH20 0xFFFFFFFFFFFFFFFFFFFFFFFFFFFFFFFFFFFFFFFF AND PUSH20 0xFFFFFFFFFFFFFFFFFFFFFFFFFFFFFFFFFFFFFFFF AND DUP2 MSTORE PUSH1 0x20 ADD PUSH1 0x1 DUP3 ADD DUP1 SLOAD PUSH2 0x55F SWAP1 PUSH2 0x2083 JUMP JUMPDEST DUP1 PUSH1 0x1F ADD PUSH1 0x20 DUP1 SWAP2 DIV MUL PUSH1 0x20 ADD PUSH1 0x40 MLOAD SWAP1 DUP2 ADD PUSH1 0x40 MSTORE DUP1 SWAP3 SWAP2 SWAP1 DUP2 DUP2 MSTORE PUSH1 0x20 ADD DUP3 DUP1 SLOAD PUSH2 0x58B SWAP1 PUSH2 0x2083 JUMP JUMPDEST DUP1 ISZERO PUSH2 0x5D6 JUMPI DUP1 PUSH1 0x1F LT PUSH2 0x5AD JUMPI PUSH2 0x100 DUP1 DUP4 SLOAD DIV MUL DUP4 MSTORE SWAP2 PUSH1 0x20 ADD SWAP2 PUSH2 0x5D6 JUMP JUMPDEST DUP3 ADD SWAP2 SWAP1 PUSH0 MSTORE PUSH1 0x20 PUSH0 KECCAK256 SWAP1 JUMPDEST DUP2 SLOAD DUP2 MSTORE SWAP1 PUSH1 0x1 ADD SWAP1 PUSH1 0x20 ADD DUP1 DUP4 GT PUSH2 0x5B9 JUMPI DUP3 SWAP1 SUB PUSH1 0x1F AND DUP3 ADD SWAP2 JUMPDEST POP POP POP POP POP DUP2 MSTORE PUSH1 0x20 ADD PUSH1 0x2 DUP3 ADD SLOAD DUP2 MSTORE POP POP SWAP1 DUP1 PUSH1 0xC ADD PUSH0 SWAP1 SLOAD SWAP1 PUSH2 0x100 EXP SWAP1 DIV PUSH1 0xFF AND SWAP1 POP DUP11 JUMP JUMPDEST PUSH0 DUP10 SLT ISZERO DUP1 ISZERO PUSH2 0x610 JUMPI POP PUSH0 SLOAD DUP10 SLT JUMPDEST PUSH2 0x64F JUMPI PUSH1 0x40 MLOAD PUSH32 0x8C379A000000000000000000000000000000000000000000000000000000000 DUP2 MSTORE PUSH1 0x4 ADD PUSH2 0x646 SWAP1 PUSH2 0x20FD JUMP JUMPDEST PUSH1 0x40 MLOAD DUP1 SWAP2 SUB SWAP1 REVERT JUMPDEST CALLER PUSH20 0xFFFFFFFFFFFFFFFFFFFFFFFFFFFFFFFFFFFFFFFF AND PUSH1 0x1 PUSH0 DUP12 DUP2 MSTORE PUSH1 0x20 ADD SWAP1 DUP2 MSTORE PUSH1 0x20 ADD PUSH0 KECCAK256 PUSH1 0x8 ADD PUSH0 ADD PUSH0 SWAP1 SLOAD SWAP1 PUSH2 0x100 EXP SWAP1 DIV PUSH20 0xFFFFFFFFFFFFFFFFFFFFFFFFFFFFFFFFFFFFFFFF AND PUSH20 0xFFFFFFFFFFFFFFFFFFFFFFFFFFFFFFFFFFFFFFFF AND EQ PUSH2 0x6F2 JUMPI PUSH1 0x40 MLOAD PUSH32 0x8C379A000000000000000000000000000000000000000000000000000000000 DUP2 MSTORE PUSH1 0x4 ADD PUSH2 0x6E9 SWAP1 PUSH2 0x2165 JUMP JUMPDEST PUSH1 0x40 MLOAD DUP1 SWAP2 SUB SWAP1 REVERT JUMPDEST DUP8 PUSH1 0x1 PUSH0 DUP12 DUP2 MSTORE PUSH1 0x20 ADD SWAP1 DUP2 MSTORE PUSH1 0x20 ADD PUSH0 KECCAK256 PUSH1 0x1 ADD SWAP1 DUP2 PUSH2 0x713 SWAP2 SWAP1 PUSH2 0x2320 JUMP JUMPDEST POP DUP7 PUSH1 0x1 PUSH0 DUP12 DUP2 MSTORE PUSH1 0x20 ADD SWAP1 DUP2 MSTORE PUSH1 0x20 ADD PUSH0 KECCAK256 PUSH1 0x2 ADD SWAP1 DUP2 PUSH2 0x735 SWAP2 SWAP1 PUSH2 0x2320 JUMP JUMPDEST POP DUP6 PUSH1 0x1 PUSH0 DUP12 DUP2 MSTORE PUSH1 0x20 ADD SWAP1 DUP2 MSTORE PUSH1 0x20 ADD PUSH0 KECCAK256 PUSH1 0x3 ADD SWAP1 DUP2 PUSH2 0x757 SWAP2 SWAP1 PUSH2 0x2320 JUMP JUMPDEST POP DUP5 PUSH1 0x1 PUSH0 DUP12 DUP2 MSTORE PUSH1 0x20 ADD SWAP1 DUP2 MSTORE PUSH1 0x20 ADD PUSH0 KECCAK256 PUSH1 0x4 ADD SWAP1 DUP2 PUSH2 0x779 SWAP2 SWAP1 PUSH2 0x2320 JUMP JUMPDEST POP DUP4 PUSH1 0x1 PUSH0 DUP12 DUP2 MSTORE PUSH1 0x20 ADD SWAP1 DUP2 MSTORE PUSH1 0x20 ADD PUSH0 KECCAK256 PUSH1 0x5 ADD DUP2 SWAP1 SSTORE POP DUP3 PUSH1 0x1 PUSH0 DUP12 DUP2 MSTORE PUSH1 0x20 ADD SWAP1 DUP2 MSTORE PUSH1 0x20 ADD PUSH0 KECCAK256 PUSH1 0x6 ADD DUP2 SWAP1 SSTORE POP DUP2 PUSH1 0x1 PUSH0 DUP12 DUP2 MSTORE PUSH1 0x20 ADD SWAP1 DUP2 MSTORE PUSH1 0x20 ADD PUSH0 KECCAK256 PUSH1 0x7 ADD PUSH0 PUSH2 0x100 EXP DUP2 SLOAD DUP2 PUSH8 0xFFFFFFFFFFFFFFFF MUL NOT AND SWAP1 DUP4 PUSH8 0xFFFFFFFFFFFFFFFF AND MUL OR SWAP1 SSTORE POP DUP1 PUSH1 0x1 PUSH0 DUP12 DUP2 MSTORE PUSH1 0x20 ADD SWAP1 DUP2 MSTORE PUSH1 0x20 ADD PUSH0 KECCAK256 PUSH1 0xC ADD PUSH0 PUSH2 0x100 EXP DUP2 SLOAD DUP2 PUSH1 0xFF MUL NOT AND SWAP1 DUP4 ISZERO ISZERO MUL OR SWAP1 SSTORE POP POP POP POP POP POP POP POP POP POP JUMP JUMPDEST PUSH0 DUP1 PUSH0 SWAP1 POP JUMPDEST PUSH1 0x1 PUSH0 DUP5 DUP2 MSTORE PUSH1 0x20 ADD SWAP1 DUP2 MSTORE PUSH1 0x20 ADD PUSH0 KECCAK256 PUSH1 0xB ADD DUP1 SLOAD SWAP1 POP DUP2 LT ISZERO PUSH2 0x8D8 JUMPI CALLER PUSH20 0xFFFFFFFFFFFFFFFFFFFFFFFFFFFFFFFFFFFFFFFF AND PUSH1 0x1 PUSH0 DUP6 DUP2 MSTORE PUSH1 0x20 ADD SWAP1 DUP2 MSTORE PUSH1 0x20 ADD PUSH0 KECCAK256 PUSH1 0xB ADD DUP3 DUP2 SLOAD DUP2 LT PUSH2 0x87E JUMPI PUSH2 0x87D PUSH2 0x23EF JUMP JUMPDEST JUMPDEST SWAP1 PUSH0 MSTORE PUSH1 0x20 PUSH0 KECCAK256 ADD PUSH0 SWAP1 SLOAD SWAP1 PUSH2 0x100 EXP SWAP1 DIV PUSH20 0xFFFFFFFFFFFFFFFFFFFFFFFFFFFFFFFFFFFFFFFF AND PUSH20 0xFFFFFFFFFFFFFFFFFFFFFFFFFFFFFFFFFFFFFFFF AND SUB PUSH2 0x8CB JUMPI PUSH1 0x1 SWAP2 POP POP PUSH2 0x8DD JUMP JUMPDEST DUP1 DUP1 PUSH1 0x1 ADD SWAP2 POP POP PUSH2 0x822 JUMP JUMPDEST POP PUSH0 SWAP1 POP JUMPDEST SWAP2 SWAP1 POP JUMP JUMPDEST PUSH0 DUP2 SLT ISZERO DUP1 ISZERO PUSH2 0x8F2 JUMPI POP PUSH0 SLOAD DUP2 SLT JUMPDEST PUSH2 0x931 JUMPI PUSH1 0x40 MLOAD PUSH32 0x8C379A000000000000000000000000000000000000000000000000000000000 DUP2 MSTORE PUSH1 0x4 ADD PUSH2 0x928 SWAP1 PUSH2 0x20FD JUMP JUMPDEST PUSH1 0x40 MLOAD DUP1 SWAP2 SUB SWAP1 REVERT JUMPDEST PUSH0 PUSH1 0x1 PUSH0 DUP4 DUP2 MSTORE PUSH1 0x20 ADD SWAP1 DUP2 MSTORE PUSH1 0x20 ADD PUSH0 KECCAK256 SWAP1 POP PUSH0 PUSH1 0x2 PUSH0 CALLER PUSH20 0xFFFFFFFFFFFFFFFFFFFFFFFFFFFFFFFFFFFFFFFF AND PUSH20 0xFFFFFFFFFFFFFFFFFFFFFFFFFFFFFFFFFFFFFFFF AND DUP2 MSTORE PUSH1 0x20 ADD SWAP1 DUP2 MSTORE PUSH1 0x20 ADD PUSH0 KECCAK256 PUSH1 0x40 MLOAD DUP1 PUSH1 0x60 ADD PUSH1 0x40 MSTORE SWAP1 DUP2 PUSH0 DUP3 ADD PUSH0 SWAP1 SLOAD SWAP1 PUSH2 0x100 EXP SWAP1 DIV PUSH20 0xFFFFFFFFFFFFFFFFFFFFFFFFFFFFFFFFFFFFFFFF AND PUSH20 0xFFFFFFFFFFFFFFFFFFFFFFFFFFFFFFFFFFFFFFFF AND PUSH20 0xFFFFFFFFFFFFFFFFFFFFFFFFFFFFFFFFFFFFFFFF AND DUP2 MSTORE PUSH1 0x20 ADD PUSH1 0x1 DUP3 ADD DUP1 SLOAD PUSH2 0x9F2 SWAP1 PUSH2 0x2083 JUMP JUMPDEST DUP1 PUSH1 0x1F ADD PUSH1 0x20 DUP1 SWAP2 DIV MUL PUSH1 0x20 ADD PUSH1 0x40 MLOAD SWAP1 DUP2 ADD PUSH1 0x40 MSTORE DUP1 SWAP3 SWAP2 SWAP1 DUP2 DUP2 MSTORE PUSH1 0x20 ADD DUP3 DUP1 SLOAD PUSH2 0xA1E SWAP1 PUSH2 0x2083 JUMP JUMPDEST DUP1 ISZERO PUSH2 0xA69 JUMPI DUP1 PUSH1 0x1F LT PUSH2 0xA40 JUMPI PUSH2 0x100 DUP1 DUP4 SLOAD DIV MUL DUP4 MSTORE SWAP2 PUSH1 0x20 ADD SWAP2 PUSH2 0xA69 JUMP JUMPDEST DUP3 ADD SWAP2 SWAP1 PUSH0 MSTORE PUSH1 0x20 PUSH0 KECCAK256 SWAP1 JUMPDEST DUP2 SLOAD DUP2 MSTORE SWAP1 PUSH1 0x1 ADD SWAP1 PUSH1 0x20 ADD DUP1 DUP4 GT PUSH2 0xA4C JUMPI DUP3 SWAP1 SUB PUSH1 0x1F AND DUP3 ADD SWAP2 JUMPDEST POP POP POP POP POP DUP2 MSTORE PUSH1 0x20 ADD PUSH1 0x2 DUP3 ADD SLOAD DUP2 MSTORE POP POP SWAP1 POP PUSH0 PUSH20 0xFFFFFFFFFFFFFFFFFFFFFFFFFFFFFFFFFFFFFFFF AND DUP2 PUSH0 ADD MLOAD PUSH20 0xFFFFFFFFFFFFFFFFFFFFFFFFFFFFFFFFFFFFFFFF AND SUB PUSH2 0xAEF JUMPI PUSH1 0x40 MLOAD PUSH32 0x8C379A000000000000000000000000000000000000000000000000000000000 DUP2 MSTORE PUSH1 0x4 ADD PUSH2 0xAE6 SWAP1 PUSH2 0x248C JUMP JUMPDEST PUSH1 0x40 MLOAD DUP1 SWAP2 SUB SWAP1 REVERT JUMPDEST PUSH2 0xAF9 CALLER DUP5 PUSH2 0x1304 JUMP JUMPDEST ISZERO PUSH2 0xB39 JUMPI PUSH1 0x40 MLOAD PUSH32 0x8C379A000000000000000000000000000000000000000000000000000000000 DUP2 MSTORE PUSH1 0x4 ADD PUSH2 0xB30 SWAP1 PUSH2 0x24F4 JUMP JUMPDEST PUSH1 0x40 MLOAD DUP1 SWAP2 SUB SWAP1 REVERT JUMPDEST PUSH0 PUSH2 0xB43 DUP5 PUSH2 0x158E JUMP JUMPDEST GT PUSH2 0xB83 JUMPI PUSH1 0x40 MLOAD PUSH32 0x8C379A000000000000000000000000000000000000000000000000000000000 DUP2 MSTORE PUSH1 0x4 ADD PUSH2 0xB7A SWAP1 PUSH2 0x255C JUMP JUMPDEST PUSH1 0x40 MLOAD DUP1 SWAP2 SUB SWAP1 REVERT JUMPDEST DUP2 PUSH1 0x6 ADD SLOAD DUP2 PUSH1 0x40 ADD MLOAD LT ISZERO PUSH2 0xB9C DUP4 PUSH1 0x6 ADD SLOAD PUSH2 0x15CD JUMP JUMPDEST PUSH1 0x40 MLOAD PUSH1 0x20 ADD PUSH2 0xBAC SWAP2 SWAP1 PUSH2 0x2624 JUMP JUMPDEST PUSH1 0x40 MLOAD PUSH1 0x20 DUP2 DUP4 SUB SUB DUP2 MSTORE SWAP1 PUSH1 0x40 MSTORE SWAP1 PUSH2 0xBFC JUMPI PUSH1 0x40 MLOAD PUSH32 0x8C379A000000000000000000000000000000000000000000000000000000000 DUP2 MSTORE PUSH1 0x4 ADD PUSH2 0xBF3 SWAP2 SWAP1 PUSH2 0x2645 JUMP JUMPDEST PUSH1 0x40 MLOAD DUP1 SWAP2 SUB SWAP1 REVERT JUMPDEST POP PUSH1 0x1 PUSH0 DUP5 DUP2 MSTORE PUSH1 0x20 ADD SWAP1 DUP2 MSTORE PUSH1 0x20 ADD PUSH0 KECCAK256 PUSH1 0xB ADD CALLER SWAP1 DUP1 PUSH1 0x1 DUP2 SLOAD ADD DUP1 DUP3 SSTORE DUP1 SWAP2 POP POP PUSH1 0x1 SWAP1 SUB SWAP1 PUSH0 MSTORE PUSH1 0x20 PUSH0 KECCAK256 ADD PUSH0 SWAP1 SWAP2 SWAP1 SWAP2 SWAP1 SWAP2 PUSH2 0x100 EXP DUP2 SLOAD DUP2 PUSH20 0xFFFFFFFFFFFFFFFFFFFFFFFFFFFFFFFFFFFFFFFF MUL NOT AND SWAP1 DUP4 PUSH20 0xFFFFFFFFFFFFFFFFFFFFFFFFFFFFFFFFFFFFFFFF AND MUL OR SWAP1 SSTORE POP POP POP POP JUMP JUMPDEST PUSH2 0xC7C PUSH2 0x17E8 JUMP JUMPDEST PUSH0 PUSH20 0xFFFFFFFFFFFFFFFFFFFFFFFFFFFFFFFFFFFFFFFF AND PUSH1 0x2 PUSH0 CALLER PUSH20 0xFFFFFFFFFFFFFFFFFFFFFFFFFFFFFFFFFFFFFFFF AND PUSH20 0xFFFFFFFFFFFFFFFFFFFFFFFFFFFFFFFFFFFFFFFF AND DUP2 MSTORE PUSH1 0x20 ADD SWAP1 DUP2 MSTORE PUSH1 0x20 ADD PUSH0 KECCAK256 PUSH0 ADD PUSH0 SWAP1 SLOAD SWAP1 PUSH2 0x100 EXP SWAP1 DIV PUSH20 0xFFFFFFFFFFFFFFFFFFFFFFFFFFFFFFFFFFFFFFFF AND PUSH20 0xFFFFFFFFFFFFFFFFFFFFFFFFFFFFFFFFFFFFFFFF AND SUB PUSH2 0xD48 JUMPI PUSH1 0x40 MLOAD PUSH32 0x8C379A000000000000000000000000000000000000000000000000000000000 DUP2 MSTORE PUSH1 0x4 ADD PUSH2 0xD3F SWAP1 PUSH2 0x26AF JUMP JUMPDEST PUSH1 0x40 MLOAD DUP1 SWAP2 SUB SWAP1 REVERT JUMPDEST PUSH1 0x2 PUSH0 CALLER PUSH20 0xFFFFFFFFFFFFFFFFFFFFFFFFFFFFFFFFFFFFFFFF AND PUSH20 0xFFFFFFFFFFFFFFFFFFFFFFFFFFFFFFFFFFFFFFFF AND DUP2 MSTORE PUSH1 0x20 ADD SWAP1 DUP2 MSTORE PUSH1 0x20 ADD PUSH0 KECCAK256 PUSH1 0x40 MLOAD DUP1 PUSH1 0x60 ADD PUSH1 0x40 MSTORE SWAP1 DUP2 PUSH0 DUP3 ADD PUSH0 SWAP1 SLOAD SWAP1 PUSH2 0x100 EXP SWAP1 DIV PUSH20 0xFFFFFFFFFFFFFFFFFFFFFFFFFFFFFFFFFFFFFFFF AND PUSH20 0xFFFFFFFFFFFFFFFFFFFFFFFFFFFFFFFFFFFFFFFF AND PUSH20 0xFFFFFFFFFFFFFFFFFFFFFFFFFFFFFFFFFFFFFFFF AND DUP2 MSTORE PUSH1 0x20 ADD PUSH1 0x1 DUP3 ADD DUP1 SLOAD PUSH2 0xDF4 SWAP1 PUSH2 0x2083 JUMP JUMPDEST DUP1 PUSH1 0x1F ADD PUSH1 0x20 DUP1 SWAP2 DIV MUL PUSH1 0x20 ADD PUSH1 0x40 MLOAD SWAP1 DUP2 ADD PUSH1 0x40 MSTORE DUP1 SWAP3 SWAP2 SWAP1 DUP2 DUP2 MSTORE PUSH1 0x20 ADD DUP3 DUP1 SLOAD PUSH2 0xE20 SWAP1 PUSH2 0x2083 JUMP JUMPDEST DUP1 ISZERO PUSH2 0xE6B JUMPI DUP1 PUSH1 0x1F LT PUSH2 0xE42 JUMPI PUSH2 0x100 DUP1 DUP4 SLOAD DIV MUL DUP4 MSTORE SWAP2 PUSH1 0x20 ADD SWAP2 PUSH2 0xE6B JUMP JUMPDEST DUP3 ADD SWAP2 SWAP1 PUSH0 MSTORE PUSH1 0x20 PUSH0 KECCAK256 SWAP1 JUMPDEST DUP2 SLOAD DUP2 MSTORE SWAP1 PUSH1 0x1 ADD SWAP1 PUSH1 0x20 ADD DUP1 DUP4 GT PUSH2 0xE4E JUMPI DUP3 SWAP1 SUB PUSH1 0x1F AND DUP3 ADD SWAP2 JUMPDEST POP POP POP POP POP DUP2 MSTORE PUSH1 0x20 ADD PUSH1 0x2 DUP3 ADD SLOAD DUP2 MSTORE POP POP SWAP1 POP SWAP1 JUMP JUMPDEST PUSH0 PUSH20 0xFFFFFFFFFFFFFFFFFFFFFFFFFFFFFFFFFFFFFFFF AND PUSH1 0x2 PUSH0 CALLER PUSH20 0xFFFFFFFFFFFFFFFFFFFFFFFFFFFFFFFFFFFFFFFF AND PUSH20 0xFFFFFFFFFFFFFFFFFFFFFFFFFFFFFFFFFFFFFFFF AND DUP2 MSTORE PUSH1 0x20 ADD SWAP1 DUP2 MSTORE PUSH1 0x20 ADD PUSH0 KECCAK256 PUSH0 ADD PUSH0 SWAP1 SLOAD SWAP1 PUSH2 0x100 EXP SWAP1 DIV PUSH20 0xFFFFFFFFFFFFFFFFFFFFFFFFFFFFFFFFFFFFFFFF AND PUSH20 0xFFFFFFFFFFFFFFFFFFFFFFFFFFFFFFFFFFFFFFFF AND SUB PUSH2 0xF4F JUMPI PUSH1 0x40 MLOAD PUSH32 0x8C379A000000000000000000000000000000000000000000000000000000000 DUP2 MSTORE PUSH1 0x4 ADD PUSH2 0xF46 SWAP1 PUSH2 0x2717 JUMP JUMPDEST PUSH1 0x40 MLOAD DUP1 SWAP2 SUB SWAP1 REVERT JUMPDEST PUSH0 PUSH1 0x1 PUSH0 DUP1 SLOAD DUP2 MSTORE PUSH1 0x20 ADD SWAP1 DUP2 MSTORE PUSH1 0x20 ADD PUSH0 KECCAK256 SWAP1 POP PUSH0 SLOAD DUP2 PUSH0 ADD DUP2 SWAP1 SSTORE POP DUP9 DUP2 PUSH1 0x1 ADD SWAP1 DUP2 PUSH2 0xF7E SWAP2 SWAP1 PUSH2 0x2320 JUMP JUMPDEST POP DUP8 DUP2 PUSH1 0x2 ADD SWAP1 DUP2 PUSH2 0xF90 SWAP2 SWAP1 PUSH2 0x2320 JUMP JUMPDEST POP DUP7 DUP2 PUSH1 0x3 ADD SWAP1 DUP2 PUSH2 0xFA2 SWAP2 SWAP1 PUSH2 0x2320 JUMP JUMPDEST POP DUP6 DUP2 PUSH1 0x4 ADD SWAP1 DUP2 PUSH2 0xFB4 SWAP2 SWAP1 PUSH2 0x2320 JUMP JUMPDEST POP DUP5 DUP2 PUSH1 0x5 ADD DUP2 SWAP1 SSTORE POP DUP4 DUP2 PUSH1 0x6 ADD DUP2 SWAP1 SSTORE POP DUP3 DUP2 PUSH1 0x7 ADD PUSH0 PUSH2 0x100 EXP DUP2 SLOAD DUP2 PUSH8 0xFFFFFFFFFFFFFFFF MUL NOT AND SWAP1 DUP4 PUSH8 0xFFFFFFFFFFFFFFFF AND MUL OR SWAP1 SSTORE POP PUSH1 0x2 PUSH0 CALLER PUSH20 0xFFFFFFFFFFFFFFFFFFFFFFFFFFFFFFFFFFFFFFFF AND PUSH20 0xFFFFFFFFFFFFFFFFFFFFFFFFFFFFFFFFFFFFFFFF AND DUP2 MSTORE PUSH1 0x20 ADD SWAP1 DUP2 MSTORE PUSH1 0x20 ADD PUSH0 KECCAK256 DUP2 PUSH1 0x8 ADD PUSH0 DUP3 ADD PUSH0 SWAP1 SLOAD SWAP1 PUSH2 0x100 EXP SWAP1 DIV PUSH20 0xFFFFFFFFFFFFFFFFFFFFFFFFFFFFFFFFFFFFFFFF AND DUP2 PUSH0 ADD PUSH0 PUSH2 0x100 EXP DUP2 SLOAD DUP2 PUSH20 0xFFFFFFFFFFFFFFFFFFFFFFFFFFFFFFFFFFFFFFFF MUL NOT AND SWAP1 DUP4 PUSH20 0xFFFFFFFFFFFFFFFFFFFFFFFFFFFFFFFFFFFFFFFF AND MUL OR SWAP1 SSTORE POP PUSH1 0x1 DUP3 ADD DUP2 PUSH1 0x1 ADD SWAP1 DUP2 PUSH2 0x10A9 SWAP2 SWAP1 PUSH2 0x274A JUMP JUMPDEST POP PUSH1 0x2 DUP3 ADD SLOAD DUP2 PUSH1 0x2 ADD SSTORE SWAP1 POP POP DUP2 DUP2 PUSH1 0xC ADD PUSH0 PUSH2 0x100 EXP DUP2 SLOAD DUP2 PUSH1 0xFF MUL NOT AND SWAP1 DUP4 ISZERO ISZERO MUL OR SWAP1 SSTORE POP PUSH0 DUP1 DUP2 SLOAD DUP1 SWAP3 SWAP2 SWAP1 PUSH2 0x10E3 SWAP1 PUSH2 0x285C JUMP JUMPDEST SWAP2 SWAP1 POP SSTORE POP POP POP POP POP POP POP POP POP POP JUMP JUMPDEST PUSH2 0x10FB PUSH2 0x17E8 JUMP JUMPDEST PUSH0 PUSH20 0xFFFFFFFFFFFFFFFFFFFFFFFFFFFFFFFFFFFFFFFF AND PUSH1 0x2 PUSH0 DUP5 PUSH20 0xFFFFFFFFFFFFFFFFFFFFFFFFFFFFFFFFFFFFFFFF AND PUSH20 0xFFFFFFFFFFFFFFFFFFFFFFFFFFFFFFFFFFFFFFFF AND DUP2 MSTORE PUSH1 0x20 ADD SWAP1 DUP2 MSTORE PUSH1 0x20 ADD PUSH0 KECCAK256 PUSH0 ADD PUSH0 SWAP1 SLOAD SWAP1 PUSH2 0x100 EXP SWAP1 DIV PUSH20 0xFFFFFFFFFFFFFFFFFFFFFFFFFFFFFFFFFFFFFFFF AND PUSH20 0xFFFFFFFFFFFFFFFFFFFFFFFFFFFFFFFFFFFFFFFF AND SUB PUSH2 0x11C7 JUMPI PUSH1 0x40 MLOAD PUSH32 0x8C379A000000000000000000000000000000000000000000000000000000000 DUP2 MSTORE PUSH1 0x4 ADD PUSH2 0x11BE SWAP1 PUSH2 0x26AF JUMP JUMPDEST PUSH1 0x40 MLOAD DUP1 SWAP2 SUB SWAP1 REVERT JUMPDEST PUSH1 0x2 PUSH0 DUP4 PUSH20 0xFFFFFFFFFFFFFFFFFFFFFFFFFFFFFFFFFFFFFFFF AND PUSH20 0xFFFFFFFFFFFFFFFFFFFFFFFFFFFFFFFFFFFFFFFF AND DUP2 MSTORE PUSH1 0x20 ADD SWAP1 DUP2 MSTORE PUSH1 0x20 ADD PUSH0 KECCAK256 PUSH1 0x40 MLOAD DUP1 PUSH1 0x60 ADD PUSH1 0x40 MSTORE SWAP1 DUP2 PUSH0 DUP3 ADD PUSH0 SWAP1 SLOAD SWAP1 PUSH2 0x100 EXP SWAP1 DIV PUSH20 0xFFFFFFFFFFFFFFFFFFFFFFFFFFFFFFFFFFFFFFFF AND PUSH20 0xFFFFFFFFFFFFFFFFFFFFFFFFFFFFFFFFFFFFFFFF AND PUSH20 0xFFFFFFFFFFFFFFFFFFFFFFFFFFFFFFFFFFFFFFFF AND DUP2 MSTORE PUSH1 0x20 ADD PUSH1 0x1 DUP3 ADD DUP1 SLOAD PUSH2 0x1273 SWAP1 PUSH2 0x2083 JUMP JUMPDEST DUP1 PUSH1 0x1F ADD PUSH1 0x20 DUP1 SWAP2 DIV MUL PUSH1 0x20 ADD PUSH1 0x40 MLOAD SWAP1 DUP2 ADD PUSH1 0x40 MSTORE DUP1 SWAP3 SWAP2 SWAP1 DUP2 DUP2 MSTORE PUSH1 0x20 ADD DUP3 DUP1 SLOAD PUSH2 0x129F SWAP1 PUSH2 0x2083 JUMP JUMPDEST DUP1 ISZERO PUSH2 0x12EA JUMPI DUP1 PUSH1 0x1F LT PUSH2 0x12C1 JUMPI PUSH2 0x100 DUP1 DUP4 SLOAD DIV MUL DUP4 MSTORE SWAP2 PUSH1 0x20 ADD SWAP2 PUSH2 0x12EA JUMP JUMPDEST DUP3 ADD SWAP2 SWAP1 PUSH0 MSTORE PUSH1 0x20 PUSH0 KECCAK256 SWAP1 JUMPDEST DUP2 SLOAD DUP2 MSTORE SWAP1 PUSH1 0x1 ADD SWAP1 PUSH1 0x20 ADD DUP1 DUP4 GT PUSH2 0x12CD JUMPI DUP3 SWAP1 SUB PUSH1 0x1F AND DUP3 ADD SWAP2 JUMPDEST POP POP POP POP POP DUP2 MSTORE PUSH1 0x20 ADD PUSH1 0x2 DUP3 ADD SLOAD DUP2 MSTORE POP POP SWAP1 POP SWAP2 SWAP1 POP JUMP JUMPDEST PUSH0 DUP1 PUSH0 SWAP1 POP JUMPDEST PUSH1 0x1 PUSH0 DUP5 DUP2 MSTORE PUSH1 0x20 ADD SWAP1 DUP2 MSTORE PUSH1 0x20 ADD PUSH0 KECCAK256 PUSH1 0xB ADD DUP1 SLOAD SWAP1 POP DUP2 LT ISZERO PUSH2 0x13C0 JUMPI DUP4 PUSH20 0xFFFFFFFFFFFFFFFFFFFFFFFFFFFFFFFFFFFFFFFF AND PUSH1 0x1 PUSH0 DUP6 DUP2 MSTORE PUSH1 0x20 ADD SWAP1 DUP2 MSTORE PUSH1 0x20 ADD PUSH0 KECCAK256 PUSH1 0xB ADD DUP3 DUP2 SLOAD DUP2 LT PUSH2 0x1366 JUMPI PUSH2 0x1365 PUSH2 0x23EF JUMP JUMPDEST JUMPDEST SWAP1 PUSH0 MSTORE PUSH1 0x20 PUSH0 KECCAK256 ADD PUSH0 SWAP1 SLOAD SWAP1 PUSH2 0x100 EXP SWAP1 DIV PUSH20 0xFFFFFFFFFFFFFFFFFFFFFFFFFFFFFFFFFFFFFFFF AND PUSH20 0xFFFFFFFFFFFFFFFFFFFFFFFFFFFFFFFFFFFFFFFF AND SUB PUSH2 0x13B3 JUMPI PUSH1 0x1 SWAP2 POP POP PUSH2 0x13C5 JUMP JUMPDEST DUP1 DUP1 PUSH1 0x1 ADD SWAP2 POP POP PUSH2 0x130A JUMP JUMPDEST POP PUSH0 SWAP1 POP JUMPDEST SWAP3 SWAP2 POP POP JUMP JUMPDEST PUSH0 CALLER PUSH20 0xFFFFFFFFFFFFFFFFFFFFFFFFFFFFFFFFFFFFFFFF AND BALANCE SWAP1 POP SWAP1 JUMP JUMPDEST PUSH0 PUSH20 0xFFFFFFFFFFFFFFFFFFFFFFFFFFFFFFFFFFFFFFFF AND PUSH1 0x2 PUSH0 CALLER PUSH20 0xFFFFFFFFFFFFFFFFFFFFFFFFFFFFFFFFFFFFFFFF AND PUSH20 0xFFFFFFFFFFFFFFFFFFFFFFFFFFFFFFFFFFFFFFFF AND DUP2 MSTORE PUSH1 0x20 ADD SWAP1 DUP2 MSTORE PUSH1 0x20 ADD PUSH0 KECCAK256 PUSH0 ADD PUSH0 SWAP1 SLOAD SWAP1 PUSH2 0x100 EXP SWAP1 DIV PUSH20 0xFFFFFFFFFFFFFFFFFFFFFFFFFFFFFFFFFFFFFFFF AND PUSH20 0xFFFFFFFFFFFFFFFFFFFFFFFFFFFFFFFFFFFFFFFF AND EQ PUSH2 0x14B5 JUMPI PUSH1 0x40 MLOAD PUSH32 0x8C379A000000000000000000000000000000000000000000000000000000000 DUP2 MSTORE PUSH1 0x4 ADD PUSH2 0x14AC SWAP1 PUSH2 0x28ED JUMP JUMPDEST PUSH1 0x40 MLOAD DUP1 SWAP2 SUB SWAP1 REVERT JUMPDEST PUSH1 0x40 MLOAD DUP1 PUSH1 0x60 ADD PUSH1 0x40 MSTORE DUP1 CALLER PUSH20 0xFFFFFFFFFFFFFFFFFFFFFFFFFFFFFFFFFFFFFFFF AND DUP2 MSTORE PUSH1 0x20 ADD DUP4 DUP2 MSTORE PUSH1 0x20 ADD DUP3 DUP2 MSTORE POP PUSH1 0x2 PUSH0 CALLER PUSH20 0xFFFFFFFFFFFFFFFFFFFFFFFFFFFFFFFFFFFFFFFF AND PUSH20 0xFFFFFFFFFFFFFFFFFFFFFFFFFFFFFFFFFFFFFFFF AND DUP2 MSTORE PUSH1 0x20 ADD SWAP1 DUP2 MSTORE PUSH1 0x20 ADD PUSH0 KECCAK256 PUSH0 DUP3 ADD MLOAD DUP2 PUSH0 ADD PUSH0 PUSH2 0x100 EXP DUP2 SLOAD DUP2 PUSH20 0xFFFFFFFFFFFFFFFFFFFFFFFFFFFFFFFFFFFFFFFF MUL NOT AND SWAP1 DUP4 PUSH20 0xFFFFFFFFFFFFFFFFFFFFFFFFFFFFFFFFFFFFFFFF AND MUL OR SWAP1 SSTORE POP PUSH1 0x20 DUP3 ADD MLOAD DUP2 PUSH1 0x1 ADD SWAP1 DUP2 PUSH2 0x157C SWAP2 SWAP1 PUSH2 0x2320 JUMP JUMPDEST POP PUSH1 0x40 DUP3 ADD MLOAD DUP2 PUSH1 0x2 ADD SSTORE SWAP1 POP POP POP POP JUMP JUMPDEST PUSH0 PUSH1 0x1 PUSH0 DUP4 DUP2 MSTORE PUSH1 0x20 ADD SWAP1 DUP2 MSTORE PUSH1 0x20 ADD PUSH0 KECCAK256 PUSH1 0xB ADD DUP1 SLOAD SWAP1 POP PUSH1 0x1 PUSH0 DUP5 DUP2 MSTORE PUSH1 0x20 ADD SWAP1 DUP2 MSTORE PUSH1 0x20 ADD PUSH0 KECCAK256 PUSH1 0x5 ADD SLOAD PUSH2 0x15C6 SWAP2 SWAP1 PUSH2 0x290B JUMP JUMPDEST SWAP1 POP SWAP2 SWAP1 POP JUMP JUMPDEST PUSH1 0x60 PUSH0 PUSH1 0x1 PUSH2 0x15DB DUP5 PUSH2 0x1697 JUMP JUMPDEST ADD SWAP1 POP PUSH0 DUP2 PUSH8 0xFFFFFFFFFFFFFFFF DUP2 GT ISZERO PUSH2 0x15F9 JUMPI PUSH2 0x15F8 PUSH2 0x1B20 JUMP JUMPDEST JUMPDEST PUSH1 0x40 MLOAD SWAP1 DUP1 DUP3 MSTORE DUP1 PUSH1 0x1F ADD PUSH1 0x1F NOT AND PUSH1 0x20 ADD DUP3 ADD PUSH1 0x40 MSTORE DUP1 ISZERO PUSH2 0x162B JUMPI DUP2 PUSH1 0x20 ADD PUSH1 0x1 DUP3 MUL DUP1 CALLDATASIZE DUP4 CALLDATACOPY DUP1 DUP3 ADD SWAP2 POP POP SWAP1 POP JUMPDEST POP SWAP1 POP PUSH0 DUP3 PUSH1 0x20 ADD DUP3 ADD SWAP1 POP JUMPDEST PUSH1 0x1 ISZERO PUSH2 0x168C JUMPI DUP1 DUP1 PUSH1 0x1 SWAP1 SUB SWAP2 POP POP PUSH32 0x3031323334353637383961626364656600000000000000000000000000000000 PUSH1 0xA DUP7 MOD BYTE DUP2 MSTORE8 PUSH1 0xA DUP6 DUP2 PUSH2 0x1681 JUMPI PUSH2 0x1680 PUSH2 0x293E JUMP JUMPDEST JUMPDEST DIV SWAP5 POP PUSH0 DUP6 SUB PUSH2 0x1638 JUMPI JUMPDEST DUP2 SWAP4 POP POP POP POP SWAP2 SWAP1 POP JUMP JUMPDEST PUSH0 DUP1 PUSH0 SWAP1 POP PUSH27 0x184F03E93FF9F4DAA797ED6E38ED64BF6A1F010000000000000000 DUP4 LT PUSH2 0x16F3 JUMPI PUSH27 0x184F03E93FF9F4DAA797ED6E38ED64BF6A1F010000000000000000 DUP4 DUP2 PUSH2 0x16E9 JUMPI PUSH2 0x16E8 PUSH2 0x293E JUMP JUMPDEST JUMPDEST DIV SWAP3 POP PUSH1 0x40 DUP2 ADD SWAP1 POP JUMPDEST PUSH14 0x4EE2D6D415B85ACEF8100000000 DUP4 LT PUSH2 0x1730 JUMPI PUSH14 0x4EE2D6D415B85ACEF8100000000 DUP4 DUP2 PUSH2 0x1726 JUMPI PUSH2 0x1725 PUSH2 0x293E JUMP JUMPDEST JUMPDEST DIV SWAP3 POP PUSH1 0x20 DUP2 ADD SWAP1 POP JUMPDEST PUSH7 0x2386F26FC10000 DUP4 LT PUSH2 0x175F JUMPI PUSH7 0x2386F26FC10000 DUP4 DUP2 PUSH2 0x1755 JUMPI PUSH2 0x1754 PUSH2 0x293E JUMP JUMPDEST JUMPDEST DIV SWAP3 POP PUSH1 0x10 DUP2 ADD SWAP1 POP JUMPDEST PUSH4 0x5F5E100 DUP4 LT PUSH2 0x1788 JUMPI PUSH4 0x5F5E100 DUP4 DUP2 PUSH2 0x177E JUMPI PUSH2 0x177D PUSH2 0x293E JUMP JUMPDEST JUMPDEST DIV SWAP3 POP PUSH1 0x8 DUP2 ADD SWAP1 POP JUMPDEST PUSH2 0x2710 DUP4 LT PUSH2 0x17AD JUMPI PUSH2 0x2710 DUP4 DUP2 PUSH2 0x17A3 JUMPI PUSH2 0x17A2 PUSH2 0x293E JUMP JUMPDEST JUMPDEST DIV SWAP3 POP PUSH1 0x4 DUP2 ADD SWAP1 POP JUMPDEST PUSH1 0x64 DUP4 LT PUSH2 0x17D0 JUMPI PUSH1 0x64 DUP4 DUP2 PUSH2 0x17C6 JUMPI PUSH2 0x17C5 PUSH2 0x293E JUMP JUMPDEST JUMPDEST DIV SWAP3 POP PUSH1 0x2 DUP2 ADD SWAP1 POP JUMPDEST PUSH1 0xA DUP4 LT PUSH2 0x17DF JUMPI PUSH1 0x1 DUP2 ADD SWAP1 POP JUMPDEST DUP1 SWAP2 POP POP SWAP2 SWAP1 POP JUMP JUMPDEST PUSH1 0x40 MLOAD DUP1 PUSH1 0x60 ADD PUSH1 0x40 MSTORE DUP1 PUSH0 PUSH20 0xFFFFFFFFFFFFFFFFFFFFFFFFFFFFFFFFFFFFFFFF AND DUP2 MSTORE PUSH1 0x20 ADD PUSH1 0x60 DUP2 MSTORE PUSH1 0x20 ADD PUSH0 DUP2 MSTORE POP SWAP1 JUMP JUMPDEST PUSH0 DUP2 SWAP1 POP SWAP2 SWAP1 POP JUMP JUMPDEST PUSH2 0x182F DUP2 PUSH2 0x181D JUMP JUMPDEST DUP3 MSTORE POP POP JUMP JUMPDEST PUSH0 PUSH1 0x20 DUP3 ADD SWAP1 POP PUSH2 0x1848 PUSH0 DUP4 ADD DUP5 PUSH2 0x1826 JUMP JUMPDEST SWAP3 SWAP2 POP POP JUMP JUMPDEST PUSH0 PUSH1 0x40 MLOAD SWAP1 POP SWAP1 JUMP JUMPDEST PUSH0 DUP1 REVERT JUMPDEST PUSH0 DUP1 REVERT JUMPDEST PUSH2 0x1868 DUP2 PUSH2 0x181D JUMP JUMPDEST DUP2 EQ PUSH2 0x1872 JUMPI PUSH0 DUP1 REVERT JUMPDEST POP JUMP JUMPDEST PUSH0 DUP2 CALLDATALOAD SWAP1 POP PUSH2 0x1883 DUP2 PUSH2 0x185F JUMP JUMPDEST SWAP3 SWAP2 POP POP JUMP JUMPDEST PUSH0 PUSH1 0x20 DUP3 DUP5 SUB SLT ISZERO PUSH2 0x189E JUMPI PUSH2 0x189D PUSH2 0x1857 JUMP JUMPDEST JUMPDEST PUSH0 PUSH2 0x18AB DUP5 DUP3 DUP6 ADD PUSH2 0x1875 JUMP JUMPDEST SWAP2 POP POP SWAP3 SWAP2 POP POP JUMP JUMPDEST PUSH0 DUP2 MLOAD SWAP1 POP SWAP2 SWAP1 POP JUMP JUMPDEST PUSH0 DUP3 DUP3 MSTORE PUSH1 0x20 DUP3 ADD SWAP1 POP SWAP3 SWAP2 POP POP JUMP JUMPDEST DUP3 DUP2 DUP4 MCOPY PUSH0 DUP4 DUP4 ADD MSTORE POP POP POP JUMP JUMPDEST PUSH0 PUSH1 0x1F NOT PUSH1 0x1F DUP4 ADD AND SWAP1 POP SWAP2 SWAP1 POP JUMP JUMPDEST PUSH0 PUSH2 0x18F6 DUP3 PUSH2 0x18B4 JUMP JUMPDEST PUSH2 0x1900 DUP2 DUP6 PUSH2 0x18BE JUMP JUMPDEST SWAP4 POP PUSH2 0x1910 DUP2 DUP6 PUSH1 0x20 DUP7 ADD PUSH2 0x18CE JUMP JUMPDEST PUSH2 0x1919 DUP2 PUSH2 0x18DC JUMP JUMPDEST DUP5 ADD SWAP2 POP POP SWAP3 SWAP2 POP POP JUMP JUMPDEST PUSH0 DUP2 SWAP1 POP SWAP2 SWAP1 POP JUMP JUMPDEST PUSH2 0x1936 DUP2 PUSH2 0x1924 JUMP JUMPDEST DUP3 MSTORE POP POP JUMP JUMPDEST PUSH0 PUSH8 0xFFFFFFFFFFFFFFFF DUP3 AND SWAP1 POP SWAP2 SWAP1 POP JUMP JUMPDEST PUSH2 0x1958 DUP2 PUSH2 0x193C JUMP JUMPDEST DUP3 MSTORE POP POP JUMP JUMPDEST PUSH0 PUSH20 0xFFFFFFFFFFFFFFFFFFFFFFFFFFFFFFFFFFFFFFFF DUP3 AND SWAP1 POP SWAP2 SWAP1 POP JUMP JUMPDEST PUSH0 PUSH2 0x1987 DUP3 PUSH2 0x195E JUMP JUMPDEST SWAP1 POP SWAP2 SWAP1 POP JUMP JUMPDEST PUSH2 0x1997 DUP2 PUSH2 0x197D JUMP JUMPDEST DUP3 MSTORE POP POP JUMP JUMPDEST PUSH0 DUP3 DUP3 MSTORE PUSH1 0x20 DUP3 ADD SWAP1 POP SWAP3 SWAP2 POP POP JUMP JUMPDEST PUSH0 PUSH2 0x19B7 DUP3 PUSH2 0x18B4 JUMP JUMPDEST PUSH2 0x19C1 DUP2 DUP6 PUSH2 0x199D JUMP JUMPDEST SWAP4 POP PUSH2 0x19D1 DUP2 DUP6 PUSH1 0x20 DUP7 ADD PUSH2 0x18CE JUMP JUMPDEST PUSH2 0x19DA DUP2 PUSH2 0x18DC JUMP JUMPDEST DUP5 ADD SWAP2 POP POP SWAP3 SWAP2 POP POP JUMP JUMPDEST PUSH2 0x19EE DUP2 PUSH2 0x1924 JUMP JUMPDEST DUP3 MSTORE POP POP JUMP JUMPDEST PUSH0 PUSH1 0x60 DUP4 ADD PUSH0 DUP4 ADD MLOAD PUSH2 0x1A09 PUSH0 DUP7 ADD DUP3 PUSH2 0x198E JUMP JUMPDEST POP PUSH1 0x20 DUP4 ADD MLOAD DUP5 DUP3 SUB PUSH1 0x20 DUP7 ADD MSTORE PUSH2 0x1A21 DUP3 DUP3 PUSH2 0x19AD JUMP JUMPDEST SWAP2 POP POP PUSH1 0x40 DUP4 ADD MLOAD PUSH2 0x1A36 PUSH1 0x40 DUP7 ADD DUP3 PUSH2 0x19E5 JUMP JUMPDEST POP DUP1 SWAP2 POP POP SWAP3 SWAP2 POP POP JUMP JUMPDEST PUSH0 DUP2 ISZERO ISZERO SWAP1 POP SWAP2 SWAP1 POP JUMP JUMPDEST PUSH2 0x1A55 DUP2 PUSH2 0x1A41 JUMP JUMPDEST DUP3 MSTORE POP POP JUMP JUMPDEST PUSH0 PUSH2 0x140 DUP3 ADD SWAP1 POP PUSH2 0x1A6F PUSH0 DUP4 ADD DUP14 PUSH2 0x1826 JUMP JUMPDEST DUP2 DUP2 SUB PUSH1 0x20 DUP4 ADD MSTORE PUSH2 0x1A81 DUP2 DUP13 PUSH2 0x18EC JUMP JUMPDEST SWAP1 POP DUP2 DUP2 SUB PUSH1 0x40 DUP4 ADD MSTORE PUSH2 0x1A95 DUP2 DUP12 PUSH2 0x18EC JUMP JUMPDEST SWAP1 POP DUP2 DUP2 SUB PUSH1 0x60 DUP4 ADD MSTORE PUSH2 0x1AA9 DUP2 DUP11 PUSH2 0x18EC JUMP JUMPDEST SWAP1 POP DUP2 DUP2 SUB PUSH1 0x80 DUP4 ADD MSTORE PUSH2 0x1ABD DUP2 DUP10 PUSH2 0x18EC JUMP JUMPDEST SWAP1 POP PUSH2 0x1ACC PUSH1 0xA0 DUP4 ADD DUP9 PUSH2 0x192D JUMP JUMPDEST PUSH2 0x1AD9 PUSH1 0xC0 DUP4 ADD DUP8 PUSH2 0x192D JUMP JUMPDEST PUSH2 0x1AE6 PUSH1 0xE0 DUP4 ADD DUP7 PUSH2 0x194F JUMP JUMPDEST DUP2 DUP2 SUB PUSH2 0x100 DUP4 ADD MSTORE PUSH2 0x1AF9 DUP2 DUP6 PUSH2 0x19F4 JUMP JUMPDEST SWAP1 POP PUSH2 0x1B09 PUSH2 0x120 DUP4 ADD DUP5 PUSH2 0x1A4C JUMP JUMPDEST SWAP12 SWAP11 POP POP POP POP POP POP POP POP POP POP POP JUMP JUMPDEST PUSH0 DUP1 REVERT JUMPDEST PUSH0 DUP1 REVERT JUMPDEST PUSH32 0x4E487B7100000000000000000000000000000000000000000000000000000000 PUSH0 MSTORE PUSH1 0x41 PUSH1 0x4 MSTORE PUSH1 0x24 PUSH0 REVERT JUMPDEST PUSH2 0x1B56 DUP3 PUSH2 0x18DC JUMP JUMPDEST DUP2 ADD DUP2 DUP2 LT PUSH8 0xFFFFFFFFFFFFFFFF DUP3 GT OR ISZERO PUSH2 0x1B75 JUMPI PUSH2 0x1B74 PUSH2 0x1B20 JUMP JUMPDEST JUMPDEST DUP1 PUSH1 0x40 MSTORE POP POP POP JUMP JUMPDEST PUSH0 PUSH2 0x1B87 PUSH2 0x184E JUMP JUMPDEST SWAP1 POP PUSH2 0x1B93 DUP3 DUP3 PUSH2 0x1B4D JUMP JUMPDEST SWAP2 SWAP1 POP JUMP JUMPDEST PUSH0 PUSH8 0xFFFFFFFFFFFFFFFF DUP3 GT ISZERO PUSH2 0x1BB2 JUMPI PUSH2 0x1BB1 PUSH2 0x1B20 JUMP JUMPDEST JUMPDEST PUSH2 0x1BBB DUP3 PUSH2 0x18DC JUMP JUMPDEST SWAP1 POP PUSH1 0x20 DUP2 ADD SWAP1 POP SWAP2 SWAP1 POP JUMP JUMPDEST DUP3 DUP2 DUP4 CALLDATACOPY PUSH0 DUP4 DUP4 ADD MSTORE POP POP POP JUMP JUMPDEST PUSH0 PUSH2 0x1BE8 PUSH2 0x1BE3 DUP5 PUSH2 0x1B98 JUMP JUMPDEST PUSH2 0x1B7E JUMP JUMPDEST SWAP1 POP DUP3 DUP2 MSTORE PUSH1 0x20 DUP2 ADD DUP5 DUP5 DUP5 ADD GT ISZERO PUSH2 0x1C04 JUMPI PUSH2 0x1C03 PUSH2 0x1B1C JUMP JUMPDEST JUMPDEST PUSH2 0x1C0F DUP5 DUP3 DUP6 PUSH2 0x1BC8 JUMP JUMPDEST POP SWAP4 SWAP3 POP POP POP JUMP JUMPDEST PUSH0 DUP3 PUSH1 0x1F DUP4 ADD SLT PUSH2 0x1C2B JUMPI PUSH2 0x1C2A PUSH2 0x1B18 JUMP JUMPDEST JUMPDEST DUP2 CALLDATALOAD PUSH2 0x1C3B DUP5 DUP3 PUSH1 0x20 DUP7 ADD PUSH2 0x1BD6 JUMP JUMPDEST SWAP2 POP POP SWAP3 SWAP2 POP POP JUMP JUMPDEST PUSH2 0x1C4D DUP2 PUSH2 0x1924 JUMP JUMPDEST DUP2 EQ PUSH2 0x1C57 JUMPI PUSH0 DUP1 REVERT JUMPDEST POP JUMP JUMPDEST PUSH0 DUP2 CALLDATALOAD SWAP1 POP PUSH2 0x1C68 DUP2 PUSH2 0x1C44 JUMP JUMPDEST SWAP3 SWAP2 POP POP JUMP JUMPDEST PUSH2 0x1C77 DUP2 PUSH2 0x193C JUMP JUMPDEST DUP2 EQ PUSH2 0x1C81 JUMPI PUSH0 DUP1 REVERT JUMPDEST POP JUMP JUMPDEST PUSH0 DUP2 CALLDATALOAD SWAP1 POP PUSH2 0x1C92 DUP2 PUSH2 0x1C6E JUMP JUMPDEST SWAP3 SWAP2 POP POP JUMP JUMPDEST PUSH2 0x1CA1 DUP2 PUSH2 0x1A41 JUMP JUMPDEST DUP2 EQ PUSH2 0x1CAB JUMPI PUSH0 DUP1 REVERT JUMPDEST POP JUMP JUMPDEST PUSH0 DUP2 CALLDATALOAD SWAP1 POP PUSH2 0x1CBC DUP2 PUSH2 0x1C98 JUMP JUMPDEST SWAP3 SWAP2 POP POP JUMP JUMPDEST PUSH0 DUP1 PUSH0 DUP1 PUSH0 DUP1 PUSH0 DUP1 PUSH0 PUSH2 0x120 DUP11 DUP13 SUB SLT ISZERO PUSH2 0x1CE0 JUMPI PUSH2 0x1CDF PUSH2 0x1857 JUMP JUMPDEST JUMPDEST PUSH0 PUSH2 0x1CED DUP13 DUP3 DUP14 ADD PUSH2 0x1875 JUMP JUMPDEST SWAP10 POP POP PUSH1 0x20 DUP11 ADD CALLDATALOAD PUSH8 0xFFFFFFFFFFFFFFFF DUP2 GT ISZERO PUSH2 0x1D0E JUMPI PUSH2 0x1D0D PUSH2 0x185B JUMP JUMPDEST JUMPDEST PUSH2 0x1D1A DUP13 DUP3 DUP14 ADD PUSH2 0x1C17 JUMP JUMPDEST SWAP9 POP POP PUSH1 0x40 DUP11 ADD CALLDATALOAD PUSH8 0xFFFFFFFFFFFFFFFF DUP2 GT ISZERO PUSH2 0x1D3B JUMPI PUSH2 0x1D3A PUSH2 0x185B JUMP JUMPDEST JUMPDEST PUSH2 0x1D47 DUP13 DUP3 DUP14 ADD PUSH2 0x1C17 JUMP JUMPDEST SWAP8 POP POP PUSH1 0x60 DUP11 ADD CALLDATALOAD PUSH8 0xFFFFFFFFFFFFFFFF DUP2 GT ISZERO PUSH2 0x1D68 JUMPI PUSH2 0x1D67 PUSH2 0x185B JUMP JUMPDEST JUMPDEST PUSH2 0x1D74 DUP13 DUP3 DUP14 ADD PUSH2 0x1C17 JUMP JUMPDEST SWAP7 POP POP PUSH1 0x80 DUP11 ADD CALLDATALOAD PUSH8 0xFFFFFFFFFFFFFFFF DUP2 GT ISZERO PUSH2 0x1D95 JUMPI PUSH2 0x1D94 PUSH2 0x185B JUMP JUMPDEST JUMPDEST PUSH2 0x1DA1 DUP13 DUP3 DUP14 ADD PUSH2 0x1C17 JUMP JUMPDEST SWAP6 POP POP PUSH1 0xA0 PUSH2 0x1DB2 DUP13 DUP3 DUP14 ADD PUSH2 0x1C5A JUMP JUMPDEST SWAP5 POP POP PUSH1 0xC0 PUSH2 0x1DC3 DUP13 DUP3 DUP14 ADD PUSH2 0x1C5A JUMP JUMPDEST SWAP4 POP POP PUSH1 0xE0 PUSH2 0x1DD4 DUP13 DUP3 DUP14 ADD PUSH2 0x1C84 JUMP JUMPDEST SWAP3 POP POP PUSH2 0x100 PUSH2 0x1DE6 DUP13 DUP3 DUP14 ADD PUSH2 0x1CAE JUMP JUMPDEST SWAP2 POP POP SWAP3 SWAP6 SWAP9 POP SWAP3 SWAP6 SWAP9 POP SWAP3 SWAP6 SWAP9 JUMP JUMPDEST PUSH0 PUSH1 0x20 DUP3 ADD SWAP1 POP PUSH2 0x1E09 PUSH0 DUP4 ADD DUP5 PUSH2 0x1A4C JUMP JUMPDEST SWAP3 SWAP2 POP POP JUMP JUMPDEST PUSH0 PUSH1 0x20 DUP3 ADD SWAP1 POP DUP2 DUP2 SUB PUSH0 DUP4 ADD MSTORE PUSH2 0x1E27 DUP2 DUP5 PUSH2 0x19F4 JUMP JUMPDEST SWAP1 POP SWAP3 SWAP2 POP POP JUMP JUMPDEST PUSH0 DUP1 PUSH0 DUP1 PUSH0 DUP1 PUSH0 DUP1 PUSH2 0x100 DUP10 DUP12 SUB SLT ISZERO PUSH2 0x1E4C JUMPI PUSH2 0x1E4B PUSH2 0x1857 JUMP JUMPDEST JUMPDEST PUSH0 DUP10 ADD CALLDATALOAD PUSH8 0xFFFFFFFFFFFFFFFF DUP2 GT ISZERO PUSH2 0x1E69 JUMPI PUSH2 0x1E68 PUSH2 0x185B JUMP JUMPDEST JUMPDEST PUSH2 0x1E75 DUP12 DUP3 DUP13 ADD PUSH2 0x1C17 JUMP JUMPDEST SWAP9 POP POP PUSH1 0x20 DUP10 ADD CALLDATALOAD PUSH8 0xFFFFFFFFFFFFFFFF DUP2 GT ISZERO PUSH2 0x1E96 JUMPI PUSH2 0x1E95 PUSH2 0x185B JUMP JUMPDEST JUMPDEST PUSH2 0x1EA2 DUP12 DUP3 DUP13 ADD PUSH2 0x1C17 JUMP JUMPDEST SWAP8 POP POP PUSH1 0x40 DUP10 ADD CALLDATALOAD PUSH8 0xFFFFFFFFFFFFFFFF DUP2 GT ISZERO PUSH2 0x1EC3 JUMPI PUSH2 0x1EC2 PUSH2 0x185B JUMP JUMPDEST JUMPDEST PUSH2 0x1ECF DUP12 DUP3 DUP13 ADD PUSH2 0x1C17 JUMP JUMPDEST SWAP7 POP POP PUSH1 0x60 DUP10 ADD CALLDATALOAD PUSH8 0xFFFFFFFFFFFFFFFF DUP2 GT ISZERO PUSH2 0x1EF0 JUMPI PUSH2 0x1EEF PUSH2 0x185B JUMP JUMPDEST JUMPDEST PUSH2 0x1EFC DUP12 DUP3 DUP13 ADD PUSH2 0x1C17 JUMP JUMPDEST SWAP6 POP POP PUSH1 0x80 PUSH2 0x1F0D DUP12 DUP3 DUP13 ADD PUSH2 0x1C5A JUMP JUMPDEST SWAP5 POP POP PUSH1 0xA0 PUSH2 0x1F1E DUP12 DUP3 DUP13 ADD PUSH2 0x1C5A JUMP JUMPDEST SWAP4 POP POP PUSH1 0xC0 PUSH2 0x1F2F DUP12 DUP3 DUP13 ADD PUSH2 0x1C84 JUMP JUMPDEST SWAP3 POP POP PUSH1 0xE0 PUSH2 0x1F40 DUP12 DUP3 DUP13 ADD PUSH2 0x1CAE JUMP JUMPDEST SWAP2 POP POP SWAP3 SWAP6 SWAP9 POP SWAP3 SWAP6 SWAP9 SWAP1 SWAP4 SWAP7 POP JUMP JUMPDEST PUSH2 0x1F59 DUP2 PUSH2 0x197D JUMP JUMPDEST DUP2 EQ PUSH2 0x1F63 JUMPI PUSH0 DUP1 REVERT JUMPDEST POP JUMP JUMPDEST PUSH0 DUP2 CALLDATALOAD SWAP1 POP PUSH2 0x1F74 DUP2 PUSH2 0x1F50 JUMP JUMPDEST SWAP3 SWAP2 POP POP JUMP JUMPDEST PUSH0 PUSH1 0x20 DUP3 DUP5 SUB SLT ISZERO PUSH2 0x1F8F JUMPI PUSH2 0x1F8E PUSH2 0x1857 JUMP JUMPDEST JUMPDEST PUSH0 PUSH2 0x1F9C DUP5 DUP3 DUP6 ADD PUSH2 0x1F66 JUMP JUMPDEST SWAP2 POP POP SWAP3 SWAP2 POP POP JUMP JUMPDEST PUSH0 DUP1 PUSH1 0x40 DUP4 DUP6 SUB SLT ISZERO PUSH2 0x1FBB JUMPI PUSH2 0x1FBA PUSH2 0x1857 JUMP JUMPDEST JUMPDEST PUSH0 PUSH2 0x1FC8 DUP6 DUP3 DUP7 ADD PUSH2 0x1F66 JUMP JUMPDEST SWAP3 POP POP PUSH1 0x20 PUSH2 0x1FD9 DUP6 DUP3 DUP7 ADD PUSH2 0x1875 JUMP JUMPDEST SWAP2 POP POP SWAP3 POP SWAP3 SWAP1 POP JUMP JUMPDEST PUSH0 PUSH1 0x20 DUP3 ADD SWAP1 POP PUSH2 0x1FF6 PUSH0 DUP4 ADD DUP5 PUSH2 0x192D JUMP JUMPDEST SWAP3 SWAP2 POP POP JUMP JUMPDEST PUSH0 DUP1 PUSH1 0x40 DUP4 DUP6 SUB SLT ISZERO PUSH2 0x2012 JUMPI PUSH2 0x2011 PUSH2 0x1857 JUMP JUMPDEST JUMPDEST PUSH0 DUP4 ADD CALLDATALOAD PUSH8 0xFFFFFFFFFFFFFFFF DUP2 GT ISZERO PUSH2 0x202F JUMPI PUSH2 0x202E PUSH2 0x185B JUMP JUMPDEST JUMPDEST PUSH2 0x203B DUP6 DUP3 DUP7 ADD PUSH2 0x1C17 JUMP JUMPDEST SWAP3 POP POP PUSH1 0x20 PUSH2 0x204C DUP6 DUP3 DUP7 ADD PUSH2 0x1C5A JUMP JUMPDEST SWAP2 POP POP SWAP3 POP SWAP3 SWAP1 POP JUMP JUMPDEST PUSH32 0x4E487B7100000000000000000000000000000000000000000000000000000000 PUSH0 MSTORE PUSH1 0x22 PUSH1 0x4 MSTORE PUSH1 0x24 PUSH0 REVERT JUMPDEST PUSH0 PUSH1 0x2 DUP3 DIV SWAP1 POP PUSH1 0x1 DUP3 AND DUP1 PUSH2 0x209A JUMPI PUSH1 0x7F DUP3 AND SWAP2 POP JUMPDEST PUSH1 0x20 DUP3 LT DUP2 SUB PUSH2 0x20AD JUMPI PUSH2 0x20AC PUSH2 0x2056 JUMP JUMPDEST JUMPDEST POP SWAP2 SWAP1 POP JUMP JUMPDEST PUSH32 0x4576656E7420646F6573206E6F74206578697374000000000000000000000000 PUSH0 DUP3 ADD MSTORE POP JUMP JUMPDEST PUSH0 PUSH2 0x20E7 PUSH1 0x14 DUP4 PUSH2 0x18BE JUMP JUMPDEST SWAP2 POP PUSH2 0x20F2 DUP3 PUSH2 0x20B3 JUMP JUMPDEST PUSH1 0x20 DUP3 ADD SWAP1 POP SWAP2 SWAP1 POP JUMP JUMPDEST PUSH0 PUSH1 0x20 DUP3 ADD SWAP1 POP DUP2 DUP2 SUB PUSH0 DUP4 ADD MSTORE PUSH2 0x2114 DUP2 PUSH2 0x20DB JUMP JUMPDEST SWAP1 POP SWAP2 SWAP1 POP JUMP JUMPDEST PUSH32 0x4F6E6C792061646D696E2063616E206564697420746865206576656E74000000 PUSH0 DUP3 ADD MSTORE POP JUMP JUMPDEST PUSH0 PUSH2 0x214F PUSH1 0x1D DUP4 PUSH2 0x18BE JUMP JUMPDEST SWAP2 POP PUSH2 0x215A DUP3 PUSH2 0x211B JUMP JUMPDEST PUSH1 0x20 DUP3 ADD SWAP1 POP SWAP2 SWAP1 POP JUMP JUMPDEST PUSH0 PUSH1 0x20 DUP3 ADD SWAP1 POP DUP2 DUP2 SUB PUSH0 DUP4 ADD MSTORE PUSH2 0x217C DUP2 PUSH2 0x2143 JUMP JUMPDEST SWAP1 POP SWAP2 SWAP1 POP JUMP JUMPDEST PUSH0 DUP2 SWAP1 POP DUP2 PUSH0 MSTORE PUSH1 0x20 PUSH0 KECCAK256 SWAP1 POP SWAP2 SWAP1 POP JUMP JUMPDEST PUSH0 PUSH1 0x20 PUSH1 0x1F DUP4 ADD DIV SWAP1 POP SWAP2 SWAP1 POP JUMP JUMPDEST PUSH0 DUP3 DUP3 SHL SWAP1 POP SWAP3 SWAP2 POP POP JUMP JUMPDEST PUSH0 PUSH1 0x8 DUP4 MUL PUSH2 0x21DF PUSH32 0xFFFFFFFFFFFFFFFFFFFFFFFFFFFFFFFFFFFFFFFFFFFFFFFFFFFFFFFFFFFFFFFF DUP3 PUSH2 0x21A4 JUMP JUMPDEST PUSH2 0x21E9 DUP7 DUP4 PUSH2 0x21A4 JUMP JUMPDEST SWAP6 POP DUP1 NOT DUP5 AND SWAP4 POP DUP1 DUP7 AND DUP5 OR SWAP3 POP POP POP SWAP4 SWAP3 POP POP POP JUMP JUMPDEST PUSH0 DUP2 SWAP1 POP SWAP2 SWAP1 POP JUMP JUMPDEST PUSH0 PUSH2 0x2224 PUSH2 0x221F PUSH2 0x221A DUP5 PUSH2 0x1924 JUMP JUMPDEST PUSH2 0x2201 JUMP JUMPDEST PUSH2 0x1924 JUMP JUMPDEST SWAP1 POP SWAP2 SWAP1 POP JUMP JUMPDEST PUSH0 DUP2 SWAP1 POP SWAP2 SWAP1 POP JUMP JUMPDEST PUSH2 0x223D DUP4 PUSH2 0x220A JUMP JUMPDEST PUSH2 0x2251 PUSH2 0x2249 DUP3 PUSH2 0x222B JUMP JUMPDEST DUP5 DUP5 SLOAD PUSH2 0x21B0 JUMP JUMPDEST DUP3 SSTORE POP POP POP POP JUMP JUMPDEST PUSH0 SWAP1 JUMP JUMPDEST PUSH2 0x2265 PUSH2 0x2259 JUMP JUMPDEST PUSH2 0x2270 DUP2 DUP5 DUP5 PUSH2 0x2234 JUMP JUMPDEST POP POP POP JUMP JUMPDEST JUMPDEST DUP2 DUP2 LT ISZERO PUSH2 0x2293 JUMPI PUSH2 0x2288 PUSH0 DUP3 PUSH2 0x225D JUMP JUMPDEST PUSH1 0x1 DUP2 ADD SWAP1 POP PUSH2 0x2276 JUMP JUMPDEST POP POP JUMP JUMPDEST PUSH1 0x1F DUP3 GT ISZERO PUSH2 0x22D8 JUMPI PUSH2 0x22A9 DUP2 PUSH2 0x2183 JUMP JUMPDEST PUSH2 0x22B2 DUP5 PUSH2 0x2195 JUMP JUMPDEST DUP2 ADD PUSH1 0x20 DUP6 LT ISZERO PUSH2 0x22C1 JUMPI DUP2 SWAP1 POP JUMPDEST PUSH2 0x22D5 PUSH2 0x22CD DUP6 PUSH2 0x2195 JUMP JUMPDEST DUP4 ADD DUP3 PUSH2 0x2275 JUMP JUMPDEST POP POP JUMPDEST POP POP POP JUMP JUMPDEST PUSH0 DUP3 DUP3 SHR SWAP1 POP SWAP3 SWAP2 POP POP JUMP JUMPDEST PUSH0 PUSH2 0x22F8 PUSH0 NOT DUP5 PUSH1 0x8 MUL PUSH2 0x22DD JUMP JUMPDEST NOT DUP1 DUP4 AND SWAP2 POP POP SWAP3 SWAP2 POP POP JUMP JUMPDEST PUSH0 PUSH2 0x2310 DUP4 DUP4 PUSH2 0x22E9 JUMP JUMPDEST SWAP2 POP DUP3 PUSH1 0x2 MUL DUP3 OR SWAP1 POP SWAP3 SWAP2 POP POP JUMP JUMPDEST PUSH2 0x2329 DUP3 PUSH2 0x18B4 JUMP JUMPDEST PUSH8 0xFFFFFFFFFFFFFFFF DUP2 GT ISZERO PUSH2 0x2342 JUMPI PUSH2 0x2341 PUSH2 0x1B20 JUMP JUMPDEST JUMPDEST PUSH2 0x234C DUP3 SLOAD PUSH2 0x2083 JUMP JUMPDEST PUSH2 0x2357 DUP3 DUP3 DUP6 PUSH2 0x2297 JUMP JUMPDEST PUSH0 PUSH1 0x20 SWAP1 POP PUSH1 0x1F DUP4 GT PUSH1 0x1 DUP2 EQ PUSH2 0x2388 JUMPI PUSH0 DUP5 ISZERO PUSH2 0x2376 JUMPI DUP3 DUP8 ADD MLOAD SWAP1 POP JUMPDEST PUSH2 0x2380 DUP6 DUP3 PUSH2 0x2305 JUMP JUMPDEST DUP7 SSTORE POP PUSH2 0x23E7 JUMP JUMPDEST PUSH1 0x1F NOT DUP5 AND PUSH2 0x2396 DUP7 PUSH2 0x2183 JUMP JUMPDEST PUSH0 JUMPDEST DUP3 DUP2 LT ISZERO PUSH2 0x23BD JUMPI DUP5 DUP10 ADD MLOAD DUP3 SSTORE PUSH1 0x1 DUP3 ADD SWAP2 POP PUSH1 0x20 DUP6 ADD SWAP5 POP PUSH1 0x20 DUP2 ADD SWAP1 POP PUSH2 0x2398 JUMP JUMPDEST DUP7 DUP4 LT ISZERO PUSH2 0x23DA JUMPI DUP5 DUP10 ADD MLOAD PUSH2 0x23D6 PUSH1 0x1F DUP10 AND DUP3 PUSH2 0x22E9 JUMP JUMPDEST DUP4 SSTORE POP JUMPDEST PUSH1 0x1 PUSH1 0x2 DUP9 MUL ADD DUP9 SSTORE POP POP POP JUMPDEST POP POP POP POP POP POP JUMP JUMPDEST PUSH32 0x4E487B7100000000000000000000000000000000000000000000000000000000 PUSH0 MSTORE PUSH1 0x32 PUSH1 0x4 MSTORE PUSH1 0x24 PUSH0 REVERT JUMPDEST PUSH32 0x55736572206973206E6F7420726567697374657265642E20506C656173652072 PUSH0 DUP3 ADD MSTORE PUSH32 0x656769737465722066697273742E000000000000000000000000000000000000 PUSH1 0x20 DUP3 ADD MSTORE POP JUMP JUMPDEST PUSH0 PUSH2 0x2476 PUSH1 0x2E DUP4 PUSH2 0x18BE JUMP JUMPDEST SWAP2 POP PUSH2 0x2481 DUP3 PUSH2 0x241C JUMP JUMPDEST PUSH1 0x40 DUP3 ADD SWAP1 POP SWAP2 SWAP1 POP JUMP JUMPDEST PUSH0 PUSH1 0x20 DUP3 ADD SWAP1 POP DUP2 DUP2 SUB PUSH0 DUP4 ADD MSTORE PUSH2 0x24A3 DUP2 PUSH2 0x246A JUMP JUMPDEST SWAP1 POP SWAP2 SWAP1 POP JUMP JUMPDEST PUSH32 0x557365722068617320616C7265616479206A6F696E6564000000000000000000 PUSH0 DUP3 ADD MSTORE POP JUMP JUMPDEST PUSH0 PUSH2 0x24DE PUSH1 0x17 DUP4 PUSH2 0x18BE JUMP JUMPDEST SWAP2 POP PUSH2 0x24E9 DUP3 PUSH2 0x24AA JUMP JUMPDEST PUSH1 0x20 DUP3 ADD SWAP1 POP SWAP2 SWAP1 POP JUMP JUMPDEST PUSH0 PUSH1 0x20 DUP3 ADD SWAP1 POP DUP2 DUP2 SUB PUSH0 DUP4 ADD MSTORE PUSH2 0x250B DUP2 PUSH2 0x24D2 JUMP JUMPDEST SWAP1 POP SWAP2 SWAP1 POP JUMP JUMPDEST PUSH32 0x4576656E742069732066756C6C00000000000000000000000000000000000000 PUSH0 DUP3 ADD MSTORE POP JUMP JUMPDEST PUSH0 PUSH2 0x2546 PUSH1 0xD DUP4 PUSH2 0x18BE JUMP JUMPDEST SWAP2 POP PUSH2 0x2551 DUP3 PUSH2 0x2512 JUMP JUMPDEST PUSH1 0x20 DUP3 ADD SWAP1 POP SWAP2 SWAP1 POP JUMP JUMPDEST PUSH0 PUSH1 0x20 DUP3 ADD SWAP1 POP DUP2 DUP2 SUB PUSH0 DUP4 ADD MSTORE PUSH2 0x2573 DUP2 PUSH2 0x253A JUMP JUMPDEST SWAP1 POP SWAP2 SWAP1 POP JUMP JUMPDEST PUSH0 DUP2 SWAP1 POP SWAP3 SWAP2 POP POP JUMP JUMPDEST PUSH32 0x54686973206576656E74206973206E6F7420617661696C61626C6520746F2061 PUSH0 DUP3 ADD MSTORE PUSH32 0x6E796F6E6520756E646572200000000000000000000000000000000000000000 PUSH1 0x20 DUP3 ADD MSTORE POP JUMP JUMPDEST PUSH0 PUSH2 0x25DE PUSH1 0x2C DUP4 PUSH2 0x257A JUMP JUMPDEST SWAP2 POP PUSH2 0x25E9 DUP3 PUSH2 0x2584 JUMP JUMPDEST PUSH1 0x2C DUP3 ADD SWAP1 POP SWAP2 SWAP1 POP JUMP JUMPDEST PUSH0 PUSH2 0x25FE DUP3 PUSH2 0x18B4 JUMP JUMPDEST PUSH2 0x2608 DUP2 DUP6 PUSH2 0x257A JUMP JUMPDEST SWAP4 POP PUSH2 0x2618 DUP2 DUP6 PUSH1 0x20 DUP7 ADD PUSH2 0x18CE JUMP JUMPDEST DUP1 DUP5 ADD SWAP2 POP POP SWAP3 SWAP2 POP POP JUMP JUMPDEST PUSH0 PUSH2 0x262E DUP3 PUSH2 0x25D2 JUMP JUMPDEST SWAP2 POP PUSH2 0x263A DUP3 DUP5 PUSH2 0x25F4 JUMP JUMPDEST SWAP2 POP DUP2 SWAP1 POP SWAP3 SWAP2 POP POP JUMP JUMPDEST PUSH0 PUSH1 0x20 DUP3 ADD SWAP1 POP DUP2 DUP2 SUB PUSH0 DUP4 ADD MSTORE PUSH2 0x265D DUP2 DUP5 PUSH2 0x18EC JUMP JUMPDEST SWAP1 POP SWAP3 SWAP2 POP POP JUMP JUMPDEST PUSH32 0x556E726567697374657265642075736572000000000000000000000000000000 PUSH0 DUP3 ADD MSTORE POP JUMP JUMPDEST PUSH0 PUSH2 0x2699 PUSH1 0x11 DUP4 PUSH2 0x18BE JUMP JUMPDEST SWAP2 POP PUSH2 0x26A4 DUP3 PUSH2 0x2665 JUMP JUMPDEST PUSH1 0x20 DUP3 ADD SWAP1 POP SWAP2 SWAP1 POP JUMP JUMPDEST PUSH0 PUSH1 0x20 DUP3 ADD SWAP1 POP DUP2 DUP2 SUB PUSH0 DUP4 ADD MSTORE PUSH2 0x26C6 DUP2 PUSH2 0x268D JUMP JUMPDEST SWAP1 POP SWAP2 SWAP1 POP JUMP JUMPDEST PUSH32 0x55736572206973206E6F74207965742072656769737465726564000000000000 PUSH0 DUP3 ADD MSTORE POP JUMP JUMPDEST PUSH0 PUSH2 0x2701 PUSH1 0x1A DUP4 PUSH2 0x18BE JUMP JUMPDEST SWAP2 POP PUSH2 0x270C DUP3 PUSH2 0x26CD JUMP JUMPDEST PUSH1 0x20 DUP3 ADD SWAP1 POP SWAP2 SWAP1 POP JUMP JUMPDEST PUSH0 PUSH1 0x20 DUP3 ADD SWAP1 POP DUP2 DUP2 SUB PUSH0 DUP4 ADD MSTORE PUSH2 0x272E DUP2 PUSH2 0x26F5 JUMP JUMPDEST SWAP1 POP SWAP2 SWAP1 POP JUMP JUMPDEST PUSH0 DUP2 SLOAD SWAP1 POP PUSH2 0x2743 DUP2 PUSH2 0x2083 JUMP JUMPDEST SWAP1 POP SWAP2 SWAP1 POP JUMP JUMPDEST DUP2 DUP2 SUB PUSH2 0x2758 JUMPI POP POP PUSH2 0x282D JUMP JUMPDEST PUSH2 0x2761 DUP3 PUSH2 0x2735 JUMP JUMPDEST PUSH8 0xFFFFFFFFFFFFFFFF DUP2 GT ISZERO PUSH2 0x277A JUMPI PUSH2 0x2779 PUSH2 0x1B20 JUMP JUMPDEST JUMPDEST PUSH2 0x2784 DUP3 SLOAD PUSH2 0x2083 JUMP JUMPDEST PUSH2 0x278F DUP3 DUP3 DUP6 PUSH2 0x2297 JUMP JUMPDEST PUSH0 PUSH1 0x1F DUP4 GT PUSH1 0x1 DUP2 EQ PUSH2 0x27BC JUMPI PUSH0 DUP5 ISZERO PUSH2 0x27AA JUMPI DUP3 DUP8 ADD SLOAD SWAP1 POP JUMPDEST PUSH2 0x27B4 DUP6 DUP3 PUSH2 0x2305 JUMP JUMPDEST DUP7 SSTORE POP PUSH2 0x2826 JUMP JUMPDEST PUSH1 0x1F NOT DUP5 AND PUSH2 0x27CA DUP8 PUSH2 0x2183 JUMP JUMPDEST SWAP7 POP PUSH2 0x27D5 DUP7 PUSH2 0x2183 JUMP JUMPDEST PUSH0 JUMPDEST DUP3 DUP2 LT ISZERO PUSH2 0x27FC JUMPI DUP5 DUP10 ADD SLOAD DUP3 SSTORE PUSH1 0x1 DUP3 ADD SWAP2 POP PUSH1 0x1 DUP6 ADD SWAP5 POP PUSH1 0x20 DUP2 ADD SWAP1 POP PUSH2 0x27D7 JUMP JUMPDEST DUP7 DUP4 LT ISZERO PUSH2 0x2819 JUMPI DUP5 DUP10 ADD SLOAD PUSH2 0x2815 PUSH1 0x1F DUP10 AND DUP3 PUSH2 0x22E9 JUMP JUMPDEST DUP4 SSTORE POP JUMPDEST PUSH1 0x1 PUSH1 0x2 DUP9 MUL ADD DUP9 SSTORE POP POP POP JUMPDEST POP POP POP POP POP POP JUMPDEST JUMP JUMPDEST PUSH32 0x4E487B7100000000000000000000000000000000000000000000000000000000 PUSH0 MSTORE PUSH1 0x11 PUSH1 0x4 MSTORE PUSH1 0x24 PUSH0 REVERT JUMPDEST PUSH0 PUSH2 0x2866 DUP3 PUSH2 0x181D JUMP JUMPDEST SWAP2 POP PUSH32 0x7FFFFFFFFFFFFFFFFFFFFFFFFFFFFFFFFFFFFFFFFFFFFFFFFFFFFFFFFFFFFFFF DUP3 SUB PUSH2 0x2898 JUMPI PUSH2 0x2897 PUSH2 0x282F JUMP JUMPDEST JUMPDEST PUSH1 0x1 DUP3 ADD SWAP1 POP SWAP2 SWAP1 POP JUMP JUMPDEST PUSH32 0x5573657220616C72656164792065786973747300000000000000000000000000 PUSH0 DUP3 ADD MSTORE POP JUMP JUMPDEST PUSH0 PUSH2 0x28D7 PUSH1 0x13 DUP4 PUSH2 0x18BE JUMP JUMPDEST SWAP2 POP PUSH2 0x28E2 DUP3 PUSH2 0x28A3 JUMP JUMPDEST PUSH1 0x20 DUP3 ADD SWAP1 POP SWAP2 SWAP1 POP JUMP JUMPDEST PUSH0 PUSH1 0x20 DUP3 ADD SWAP1 POP DUP2 DUP2 SUB PUSH0 DUP4 ADD MSTORE PUSH2 0x2904 DUP2 PUSH2 0x28CB JUMP JUMPDEST SWAP1 POP SWAP2 SWAP1 POP JUMP JUMPDEST PUSH0 PUSH2 0x2915 DUP3 PUSH2 0x1924 JUMP JUMPDEST SWAP2 POP PUSH2 0x2920 DUP4 PUSH2 0x1924 JUMP JUMPDEST SWAP3 POP DUP3 DUP3 SUB SWAP1 POP DUP2 DUP2 GT ISZERO PUSH2 0x2938 JUMPI PUSH2 0x2937 PUSH2 0x282F JUMP JUMPDEST JUMPDEST SWAP3 SWAP2 POP POP JUMP JUMPDEST PUSH32 0x4E487B7100000000000000000000000000000000000000000000000000000000 PUSH0 MSTORE PUSH1 0x12 PUSH1 0x4 MSTORE PUSH1 0x24 PUSH0 REVERT INVALID LOG2 PUSH5 0x6970667358 0x22 SLT KECCAK256 ADD LOG4 0x2F MCOPY 0xCB CALLER 0xEC 0x2C RETURNDATACOPY 0xEA DUP11 SWAP4 EQ 0xE PUSH27 0x887103769F94B07AFA3ED27F181A0B899E64736F6C634300081A00 CALLER "
				},
				"gasEstimates": {
					"creation": {
						"codeDepositCost": "2131400",
						"executionCost": "7275",
						"totalCost": "2138675"
					},
					"external": {
						"addEvent(string,string,string,string,uint256,uint256,uint64,bool)": "infinite",
						"currentEvent(int256)": "infinite",
						"editEvent(int256,string,string,string,string,uint256,uint256,uint64,bool)": "infinite",
						"getNumberOfEvents()": "2433",
						"getRemainingSeats(int256)": "infinite",
						"getUserBalance()": "3003",
						"getUserInfo()": "infinite",
						"getUserInfo(address)": "infinite",
						"isUserJoined(address,int256)": "infinite",
						"isUserJoined(int256)": "infinite",
						"joinEvent(int256)": "infinite",
						"registerUser(string,uint256)": "infinite"
					}
				},
				"methodIdentifiers": {
					"addEvent(string,string,string,string,uint256,uint256,uint64,bool)": "5f8e7c2e",
					"currentEvent(int256)": "0b925ac1",
					"editEvent(int256,string,string,string,string,uint256,uint256,uint64,bool)": "0e3ed244",
					"getNumberOfEvents()": "09ac3bb5",
					"getRemainingSeats(int256)": "f5d3fe64",
					"getUserBalance()": "b7013dc1",
					"getUserInfo()": "5d8d1585",
					"getUserInfo(address)": "6386c1c7",
					"isUserJoined(address,int256)": "82728252",
					"isUserJoined(int256)": "1ab49d41",
					"joinEvent(int256)": "2605c660",
					"registerUser(string,uint256)": "d3951002"
				}
			},
			"storageLayout": {
				"storage": [
					{
						"astId": 3892,
						"contract": "contracts/project.sol:EventPlatform",
						"label": "currentEventID",
						"offset": 0,
						"slot": "0",
						"type": "t_int256"
					},
					{
						"astId": 3897,
						"contract": "contracts/project.sol:EventPlatform",
						"label": "currentEvent",
						"offset": 0,
						"slot": "1",
						"type": "t_mapping(t_int256,t_struct(Event)3927_storage)"
					},
					{
						"astId": 3902,
						"contract": "contracts/project.sol:EventPlatform",
						"label": "registeredUser",
						"offset": 0,
						"slot": "2",
						"type": "t_mapping(t_address,t_struct(User)3934_storage)"
					}
				],
				"types": {
					"t_address": {
						"encoding": "inplace",
						"label": "address",
						"numberOfBytes": "20"
					},
					"t_array(t_address)dyn_storage": {
						"base": "t_address",
						"encoding": "dynamic_array",
						"label": "address[]",
						"numberOfBytes": "32"
					},
					"t_bool": {
						"encoding": "inplace",
						"label": "bool",
						"numberOfBytes": "1"
					},
					"t_int256": {
						"encoding": "inplace",
						"label": "int256",
						"numberOfBytes": "32"
					},
					"t_mapping(t_address,t_struct(User)3934_storage)": {
						"encoding": "mapping",
						"key": "t_address",
						"label": "mapping(address => struct EventPlatform.User)",
						"numberOfBytes": "32",
						"value": "t_struct(User)3934_storage"
					},
					"t_mapping(t_int256,t_struct(Event)3927_storage)": {
						"encoding": "mapping",
						"key": "t_int256",
						"label": "mapping(int256 => struct EventPlatform.Event)",
						"numberOfBytes": "32",
						"value": "t_struct(Event)3927_storage"
					},
					"t_string_storage": {
						"encoding": "bytes",
						"label": "string",
						"numberOfBytes": "32"
					},
					"t_struct(Event)3927_storage": {
						"encoding": "inplace",
						"label": "struct EventPlatform.Event",
						"members": [
							{
								"astId": 3904,
								"contract": "contracts/project.sol:EventPlatform",
								"label": "eventID",
								"offset": 0,
								"slot": "0",
								"type": "t_int256"
							},
							{
								"astId": 3906,
								"contract": "contracts/project.sol:EventPlatform",
								"label": "eventName",
								"offset": 0,
								"slot": "1",
								"type": "t_string_storage"
							},
							{
								"astId": 3908,
								"contract": "contracts/project.sol:EventPlatform",
								"label": "description",
								"offset": 0,
								"slot": "2",
								"type": "t_string_storage"
							},
							{
								"astId": 3910,
								"contract": "contracts/project.sol:EventPlatform",
								"label": "date",
								"offset": 0,
								"slot": "3",
								"type": "t_string_storage"
							},
							{
								"astId": 3912,
								"contract": "contracts/project.sol:EventPlatform",
								"label": "venue",
								"offset": 0,
								"slot": "4",
								"type": "t_string_storage"
							},
							{
								"astId": 3914,
								"contract": "contracts/project.sol:EventPlatform",
								"label": "maxParticipants",
								"offset": 0,
								"slot": "5",
								"type": "t_uint256"
							},
							{
								"astId": 3916,
								"contract": "contracts/project.sol:EventPlatform",
								"label": "ageLimit",
								"offset": 0,
								"slot": "6",
								"type": "t_uint256"
							},
							{
								"astId": 3918,
								"contract": "contracts/project.sol:EventPlatform",
								"label": "fee",
								"offset": 0,
								"slot": "7",
								"type": "t_uint64"
							},
							{
								"astId": 3921,
								"contract": "contracts/project.sol:EventPlatform",
								"label": "admin",
								"offset": 0,
								"slot": "8",
								"type": "t_struct(User)3934_storage"
							},
							{
								"astId": 3924,
								"contract": "contracts/project.sol:EventPlatform",
								"label": "participants",
								"offset": 0,
								"slot": "11",
								"type": "t_array(t_address)dyn_storage"
							},
							{
								"astId": 3926,
								"contract": "contracts/project.sol:EventPlatform",
								"label": "isVisible",
								"offset": 0,
								"slot": "12",
								"type": "t_bool"
							}
						],
						"numberOfBytes": "416"
					},
					"t_struct(User)3934_storage": {
						"encoding": "inplace",
						"label": "struct EventPlatform.User",
						"members": [
							{
								"astId": 3929,
								"contract": "contracts/project.sol:EventPlatform",
								"label": "userAddress",
								"offset": 0,
								"slot": "0",
								"type": "t_address"
							},
							{
								"astId": 3931,
								"contract": "contracts/project.sol:EventPlatform",
								"label": "userName",
								"offset": 0,
								"slot": "1",
								"type": "t_string_storage"
							},
							{
								"astId": 3933,
								"contract": "contracts/project.sol:EventPlatform",
								"label": "age",
								"offset": 0,
								"slot": "2",
								"type": "t_uint256"
							}
						],
						"numberOfBytes": "96"
					},
					"t_uint256": {
						"encoding": "inplace",
						"label": "uint256",
						"numberOfBytes": "32"
					},
					"t_uint64": {
						"encoding": "inplace",
						"label": "uint64",
						"numberOfBytes": "8"
					}
				}
			},
			"userdoc": {
				"kind": "user",
				"methods": {},
				"version": 1
			}
		}
	}
}